:100000000C9432010C945A010C945A010C945A012C
:100010000C945A010C945A010C94E9140C94C513D5
:100020000C945A010C945A010C945A010C945A01E4
:100030000C945A010C945A010C945A010C945A01D4
:100040000C949F140C945A010C946D140C94471446
:100050000C945A010C945A010C945A010C945A01B4
:100060000C94F3140C945A0108000000BE92244929
:10007000123EABAAAA2ABECDCCCC4C3E00000080DA
:10008000BEABAAAAAA3E00000000BF000000803F4D
:100090000000000000084178D3BB4387D1133D190D
:1000A0000E3CC3BD4282AD2B3E68EC8276BED98F3A
:1000B000E1A93E4C80EFFFBE01C4FF7F3F0000007E
:1000C000000000000000240027002A0000000000BB
:1000D00023002600290000000008000201000003A0
:1000E00004070000000000000000000302050003F8
:1000F0000501040602044F676E692067696F726E1E
:100100006F2000556E6120766F6C74612000417520
:10011000746F6D617469636F2000537665676C69F5
:10012000612000657365677569746F004261636B78
:10013000757000436F73612076756F692066617218
:10014000653F0047696F726E692053742E627900B3
:10015000436869656469204175746F004261636B2F
:1001600075700044656661756C7400526970722E1A
:100170002020004C204D204D204720562053204465
:100180000052656174742E004C43442053742E62F7
:100190007920536C6565700053746F7020496E76DA
:1001A0002E2053656D707265004C756E672E20545D
:1001B0006F6C6C2E004C756365204275696F20432F
:1001C000616C2E20007472612E2E2E200043616C13
:1001D000696272617A696F6E6500412E492E004234
:1001E00061636B757000446174612F4F72610047E9
:1001F000696F726E69004261747465726961004F63
:100200006E2F4F6666004C75636500416C6C6172C1
:100210006D6500496D706F7374617A696F6E690006
:10022000010204081020408001020408102001028D
:100230000408102000000000250028002B00040402
:10024000040404040404020202020202030303037E
:100250000303021F1C1F1E1F1E1F1F1E1F1E1F0029
:100260001216B63411241FBECFEFD8E0DEBFCDBFCB
:1002700026E0A0EAB3E001C01D92AA3EB207E1F772
:1002800013E0A0E0B1E0E2ECF4E702C005900D92CB
:10029000A03AB107D9F711E0C1E3D1E004C021973A
:1002A000FE010E945C38C033D107C9F70E94CA160C
:1002B0000C94543A0C94000080919F059091A005F5
:1002C000891B990B089508950895AF92BF92CF921C
:1002D000DF92EF92FF920F931F93CF93DF936C0106
:1002E0007B018B01040F151FEB015E01AE18BF08E7
:1002F000C017D10759F06991D601ED91FC91019099
:10030000F081E02DC6010995892B79F7C501DF91B0
:10031000CF911F910F91FF90EF90DF90CF90BF9002
:10032000AF900895FC01538D448D252F30E0842F2C
:1003300090E0821B930B541710F0CF96089501970D
:100340000895FC01918D828D981761F0A28DAE0FFA
:10035000BF2FB11D5D968C91928D9F5F9F73928F81
:1003600090E008958FEF9FEF0895FC01918D828DAD
:10037000981731F0828DE80FF11D858D90E008957A
:100380008FEF9FEF0895FC01918D228D892F90E0D2
:10039000805C9F4F821B91098F73992708958DE18F
:1003A00096E00E94C30121E0892B09F420E0822F0E
:1003B0000895FC01A48DA80FB92FB11DA35ABF4FFA
:1003C0002C91848D90E001968F739927848FA68954
:1003D000B7892C93A089B1898C91837080648C93A8
:1003E000938D848D981306C00288F389E02D808157
:1003F0008F7D80830895EF92FF920F931F93CF9389
:10040000DF93EC0181E0888F9B8D8C8D98131AC04F
:10041000E889F989808185FF15C09FB7F894EE8936
:10042000FF896083E889F989808183708064808393
:100430009FBF81E090E0DF91CF911F910F91FF90DE
:10044000EF900895F62E0B8D10E00F5F1F4F0F7386
:100450001127E02E8C8D8E110CC00FB607FCFACF41
:10046000E889F989808185FFF5CFCE010E94D90105
:10047000F1CFEB8DEC0FFD2FF11DE35AFF4FF08212
:100480009FB7F8940B8FEA89FB8980818062CFCF78
:10049000CF93DF93EC01888D8823B9F0AA89BB89BB
:1004A000E889F9898C9185FD03C0808186FD0DC0A6
:1004B0000FB607FCF7CF8C9185FFF2CF808185FFC7
:1004C000EDCFCE010E94D901E9CFDF91CF91089500
:1004D000833081F028F4813099F08230A9F00895BA
:1004E0008730A9F08830C9F08430B1F48091800061
:1004F0008F7D03C0809180008F7780938000089566
:1005000084B58F7784BD089584B58F7DFBCF8091AE
:10051000B0008F778093B00008958091B0008F7DF8
:10052000F9CFCF93DF93282F30E0F901EA52FF4F44
:100530008491F901E05EFD4FD491F901E25CFD4F39
:10054000C491CC23A1F081110E946802EC2FF0E04D
:10055000EE0FFF1FE453FF4FA591B491EC91ED23F3
:1005600081E090E009F480E0DF91CF91089580E090
:1005700090E0FACF1F93CF93DF93282F30E0F9015B
:10058000EA52FF4F8491F901E05EFD4FD491F901E9
:10059000E25CFD4FC491CC23A9F0162F81110E947B
:1005A0006802EC2FF0E0EE0FFF1FEC5CFD4FA59111
:1005B000B4918FB7F894EC91111108C0D095DE2357
:1005C000DC938FBFDF91CF911F910895DE2BF8CF81
:1005D000CF93DF9390E0FC01E05EFD4F2491825CBD
:1005E0009D4FFC0184918823C9F090E0880F991FEA
:1005F000FC01EE53FF4FA591B491FC01EC5CFD4F63
:10060000C591D49161110DC09FB7F8948C9120953C
:1006100082238C938881282328839FBFDF91CF91E9
:100620000895623051F49FB7F8943C91822F8095E1
:1006300083238C93E8812E2BEFCF8FB7F894EC9126
:100640002E2B2C938FBFEACF8F929F92AF92BF92A7
:10065000CF92DF92EF92FF920F931F93CF938C0173
:100660006A017B0180917501843071F08F3FA1F1A7
:10067000CF911F910F91FF90EF90DF90CF90BF909F
:10068000AF909F908F900895E2E5F2E0C491C7FD8E
:10069000EFCF61E084E00E94E802CC2319F0C23081
:1006A00009F089C0980150E040E068E478EE81E00C
:1006B00090E00E943D3849015A0181E0881A910872
:1006C000A108B108CC2309F4D2C08091B100887F81
:1006D00084608093B10087C084E080937501E2E577
:1006E000F2E0C491CF3F09F4C3CFC13021F150F003
:1006F000C23009F43EC0C7FDBBCF61E084E00E9478
:10070000E802CDCF14BC15BC84B5826084BD85B52C
:10071000816085BDE2E4F2E0E491F0E0EE0FFF1FBE
:10072000EC5CFD4F85919491E4E2F2E0E491E0937A
:100730008405C0E0AECF10928000109281008091BD
:100740008100886080938100809181008160809326
:100750008100E2E4F2E0E491F0E0EE0FFF1FEC5CD8
:10076000FD4F85919491E4E2F2E0E491E0938305FA
:1007700090CF1092B0001092B1008091B0008260D2
:100780008093B0008091B10081608093B100E2E479
:10079000F2E0E491F0E0EE0FFF1FEC5CFD4F85917D
:1007A00094919093820580938105E4E2F2E0E491D4
:1007B000E09380056ECF980150E040E060E072E188
:1007C0008AE790E00E943D3849015A0181E0881A89
:1007D0009108A108B108C13031F480918100887F6F
:1007E000816080938100D801AA0FBB1FA7019601E9
:1007F0000E94F93528EE33E040E050E00E941B38BB
:10080000C13099F0C23019F1C11132CF87BC2093A9
:100810008D0530938E0540938F0550939005809100
:100820006E00826080936E0023CF90928900809248
:1008300088002093890530938A0540938B05509357
:100840008C0580916F00826080936F0011CF809241
:10085000B300209385053093860540938705509318
:1008600088058091700082608093700001CF85B50B
:10087000887F836085BDB7CF8E50806480937C0075
:1008800080917A00806480937A0080917A0086FD5E
:10089000FCCF809178009091790008953FB7F8944B
:1008A0008091EA039091EB03A091EC03B091ED03EA
:1008B00026B5A89B05C02F3F19F00196A11DB11DBB
:1008C0003FBFBA2FA92F982F8827BC01CD01620FF7
:1008D000711D811D911D42E0660F771F881F991FB2
:1008E0004A95D1F708958F929F92AF92BF92CF927F
:1008F000DF92EF92FF926B017C010E944E044B014C
:100900005C01C114D104E104F104B9F00E944E0469
:10091000681979098A099B09683E73408105910528
:1009200080F321E0C21AD108E108F10888EE880EB0
:1009300083E0981EA11CB11CE4CFFF90EF90DF90E4
:10094000CF90BF90AF909F908F9008952091C60355
:10095000260F3327331F21323105ECF42091F305A4
:10096000FC0190E080E0243069F082E00895A091DD
:10097000C6032191AC014A555C4FA40FB52FB11DA0
:100980002C930196861798F38091C603680F6093A5
:10099000C60380E0089581E008951092F30581E098
:1009A0008093F2051092CD0561E082E10E94BA02C7
:1009B00061E083E10E94BA02E9EBF0E080818E7F82
:1009C000808380818D7F808388E48093B80085E474
:1009D0008093BC000895CF93DF9391E09093A5039B
:1009E0008823B9F0C091B800D091BA008091BC00C2
:1009F0008A7B8093BC0060E082E10E94BA0260E0E2
:100A000083E10E94BA020E94CD04D093BA00C09341
:100A1000B800DF91CF910895CF92DF92EF92FF92CD
:100A20000F931F93CF93DF93D0911C0681E0D132B7
:100A300008F09CC0C0911B060E944E046B017C0113
:100A40008091F30581116CC082E08093F30581E011
:100A50008093F2058FEF8093F1051092F005D0930B
:100A6000EF05ABEFB5E0EFECF5E080E0D8138DC01B
:100A70001092CE058091CE05CC0FC82BC093CE0529
:100A80008091CD05813009F084C01092CD050E947F
:100A90004E046B017C018091CE058093BB00809158
:100AA000F5059091F605A091F705B091F805892B11
:100AB0008A2B8B2BA1F00E944E040091F50510911A
:100AC000F6052091F7053091F8056C197D098E091E
:100AD0009F09061717072807390708F442C08091B5
:100AE000BC0083FDD8CF85EC8093BC000E944E04EF
:100AF0006B017C018091F305823009F44CC0809138
:100B0000F1058F3F09F469C08091F105803209F445
:100B100066C08091F105803309F463C084E026C08B
:100B20008091F5059091F605A091F705B091F80533
:100B3000892B8A2B8B2B09F483CF0E944E040091C2
:100B4000F5051091F6052091F7053091F8056C191F
:100B50007D098E099F09061717072807390708F02E
:100B60006FCF8091F4050E94EB0485E01092FA05A6
:100B700010921C061092F905DF91CF911F910F91F1
:100B8000FF90EF90DF90CF9008959D9191938F5FAC
:100B90006DCF85EEA9CF8091F5059091F605A091D6
:100BA000F705B091F805892B8A2B8B2B09F4A2CF7E
:100BB0000E944E040091F5051091F6052091F7056D
:100BC0003091F8056C197D098E099F0906171707E2
:100BD0002807390708F08ECFC4CF80E0C7CF82E066
:100BE000C5CF83E0C3CFCF92DF92EF92FF920F93F6
:100BF0001F93CF93DF93D82FC62F613208F098C090
:100C00000E944E046B017C018091F30581116BC041
:100C100081E08093F3058093F2059FEF9093F105B7
:100C20001092F0059C0F9093EF058093CE05809174
:100C3000CE05DD0FD82BD093CE058091CD05813028
:100C400009F078C01092CD050E944E046B017C0122
:100C50008091CE058093BB008091F5059091F605BB
:100C6000A091F705B091F805892B8A2B8B2BA1F069
:100C70000E944E040091F5051091F6052091F705AC
:100C80003091F8056C197D098E099F090617170721
:100C90002807390708F448C08091BC0083FDD8CFED
:100CA00085EC8093BC000E944E046B017C01809116
:100CB000F305813009F440C08091F0058C1710F4E1
:100CC000C091F005EFECF5E0A1EAB5E080E08C130F
:100CD00055C08C2FDF91CF911F910F91FF90EF9016
:100CE000DF90CF9008958091F5059091F605A09141
:100CF000F705B091F805892B8A2B8B2B09F484CF4B
:100D00000E944E040091F5051091F6052091F7051B
:100D10003091F8056C197D098E099F090617170790
:100D20002807390708F070CF8091F4050E94EB0482
:100D3000C0E0CFCF85EEB5CF8091F5059091F60557
:100D4000A091F705B091F805892B8A2B8B2B09F41C
:100D5000AECF0E944E040091F5051091F60520914A
:100D6000F7053091F8056C197D098E099F09061762
:100D700017072807390708F09ACFD6CF91919D938E
:100D80008F5FA5CF0895E091A00580919F05E8179A
:100D900030F4F0E0EF55FA4F808190E008958FEF46
:100DA0009FEF08959091A00580919F052FEF3FEF51
:100DB000981748F4E92FF0E0EF55FA4F208130E022
:100DC0009F5F9093A005C9010895CF92DF92EF92A3
:100DD000FF920F931F93CF93DF937C01CB018A0186
:100DE0002091F905222389F0EB016B01C40ED51E79
:100DF000CC15DD0569F06991D701ED91FC91019069
:100E0000F081E02DC7010995F3CF642F0E94A6045D
:100E1000C801DF91CF911F910F91FF90EF90DF906C
:100E2000CF900895CF93DF931F92CDB7DEB769833C
:100E30002091F9052223F9F020911C06203258F068
:100E400021E030E0FC013383228390E080E00F90CA
:100E5000DF91CF9108958091FA05E82FF0E0E550F9
:100E6000FA4F998190838F5F8093FA0580931C06D7
:100E700081E090E0ECCF61E0CE0101960E94A604F3
:100E8000F7CFCF93C62F91E09093F90598E6909312
:100E90001B061092FA0510921C06682F8CEB96E048
:100EA0000E9412076C2F8CEB96E00E941207CF91E4
:100EB0000C940C05682F8CEB96E00C9412070895A7
:100EC00090E080E008958091670590916805019613
:100ED00067E070E00E940738909304058093030553
:100EE000880F991FFC01EB50FB4F80819181019786
:100EF000880F991FFC01EE0FFF1FE45BFE4F20815E
:100F000031813093940520939305880F991FFC013C
:100F1000E25BFE4F808191819093920580939105D1
:100F2000089581E10E943C049093650180936401DF
:100F30009093A4038093A303E8E1F4E024E0E83372
:100F4000F20719F081939193F9CF80E190E09093AB
:100F5000E6048093E50408952091EF043091F004B5
:100F600046E554E090E080E064E0463D5607A9F095
:100F700030E020E0F901EE0FFF1FE40FF51F608164
:100F800071816130710509F401962F5F3F4F283060
:100F9000310581F7405F5F4FE7CF3093F004209336
:100FA000EF0429E030E03093F2042093F104089537
:100FB0008091EF049091F004E6E4F4E024E0E63C54
:100FC000F207A1F01182108213821282158214821C
:100FD000178216821186108613861286158614864D
:100FE00017861686709688E090E0E8CF9093F0041C
:100FF0008093EF0488E090E09093F2048093F104F2
:1010000008959C012D7F2130310529F1853091050E
:1010100011F19C012750310922303105E0F002978F
:10102000E9F42091700530917105C9018370992709
:10103000892B39F4C90164E670E00E940738892BD6
:1010400081F4C90160E971E00E940738892B49F0F9
:101050008CE190E008958FE190E008958EE190E0BA
:1010600008958DE190E00895EF92FF920F931F9302
:10107000CF93DF93FC01D0E0C0E020ED37E000E942
:1010800011E084E6E82EF12C2E173F0784F0E09063
:101090007205F12C01E010E00E151F0534F5C801B2
:1010A0000E940108C80FD91F0F5F1F4FF5CFC9015C
:1010B00083709927892B31F4C901B7010E94073841
:1010C000892B89F4C901B8010E940738AC0181E07D
:1010D000452B09F080E090E083599E4FC80FD91F3F
:1010E0002F5F3F4FD1CF81E0F6CF2091730530E0E5
:1010F0002C5F3F4F2C0F3D1FE7E0F0E0C901BF011F
:101100000E9407389093680580936705C90101968E
:10111000BF010E940738CB0166E070E00E940738EB
:1011200090936A0580936905DF91CF911F910F918C
:10113000FF90EF9008958091110190911201019715
:1011400061F480910001882341F0809164019091C5
:101150006501909363018093620110920001809178
:101160001804909119049093650180936401089587
:1011700080910701909108019093170580931605BF
:1011800080916A0190916B0190936F0580936E0539
:1011900084E690E0909369018093680180916001FA
:1011A000909161011816190624F4109214051092FA
:1011B000130561E082E00C94BA02AF92BF92CF9225
:1011C000DF92EF92FF920F931F93CF93DF93CDB7F0
:1011D000DEB72E970FB6F894DEBF0FBECDBF8C01E1
:1011E00081E08093F90588E680931B061092FA054A
:1011F00010921C0690E080E00E945A070E940C05A5
:1012000067E088E60E94F3051092A00580939F0591
:10121000811101C0FFCF7E018FE0E80EF11CFE01BD
:1012200031966F019AE0B92E8CEB96E00E94D206BF
:10123000982F92959F708F709B9D800D112490E048
:10124000F701929382937F01CE16DF0669F70E9421
:101250000C05A981BA81CD018053984F9093C205A6
:101260008093C1053B813093C3056D817E8160937E
:10127000C4052F812093C80549854093C505EB849B
:10128000E092C605FD84F092C7057727E3E5F2E01A
:1012900021E0231730F45491650F711D2F5F3196B3
:1012A000F8CF323039F49D0123703327232B11F40A
:1012B0006F5F7F4F9C012D5C3740369527953695A3
:1012C0002795EDE6F1E0AE9FC001AF9F900DBE9F68
:1012D000900D1124280F391F21503109260F371F77
:1012E000A8E1B0E00E943B365B016C01A40EB11C8A
:1012F000C11CD11CA6019501ACE3B0E00E94F935F8
:101300009B01AC012E0D311D411D511D0E94F9356F
:101310006F0D711D811D911D60597A4C8249974C4A
:101320006093C9057093CA058093CB059093CC0553
:101330008CE0E1ECF5E0D80101900D928A95E1F79F
:10134000C8012E960FB6F894DEBF0FBECDBFDF9159
:10135000CF911F910F91FF90EF90DF90CF90BF90B2
:10136000AF900895CF9391E09093F90598E690930C
:101370001B061092FA0510921C06682F8CEB96E063
:101380000E9412070E940C0561E088E60E94F305A6
:101390001092A00580939F05811101C0FFCF8CEBB7
:1013A00096E00E94D206C82F0E940C058C2FCF9188
:1013B00008958FE00E94B209682F6E7F8FE00C9431
:1013C0004107CF93C82F8EE00E94B209682FCC232B
:1013D00029F061608EE0CF910C9441076E7FFACFC7
:1013E0001F93CF93DF93382F562F842F2AE0622F3D
:1013F0000E94E7378295807F182F190F852F0E9452
:10140000E7378295807FD82FD90F832F0E94E73747
:101410008295807FC82FC90F81E08093F90588E607
:1014200080931B061092FA0510921C0687E090E04C
:101430000E945A07612F6F778CEB96E00E9412078B
:101440006D2F6F778CEB96E00E9412076C2F6F77F1
:101450008CEB96E00E94120760E88CEB96E00E940D
:1014600012070E940C0581E00E94E109DF91CF91F3
:101470001F910C94D909FF920F931F93CF93DF9381
:10148000F82EC0917801D0917901009176011091E8
:101490007701209761F50115110549F587E090E086
:1014A00090939E0580939D0580E00E94E1090E9433
:1014B000D90940919D05602F8C2F0E94F009FF20D3
:1014C00081F010929C0510929B0510929A05109243
:1014D0009905109298051092970510929605109212
:1014E0009505DF91CF911F910F91FF900895109274
:1014F0009E0510929D05D8CFCF93DF93EC0160E05D
:101500008E810E94BA0261E08E810E94BA0260E080
:101510008E810E94BA028BE891E00197F1F7DF918A
:10152000CF910895CF92DF92EF92FF920F931F9386
:10153000CF93DF936C017C0187E0E80EF11CD0E0D3
:10154000C0E0062F10E0B8010C2E02C0759567951B
:101550000A94E2F76170F70181917F010E94BA025B
:101560002196C430D10579F7C601DF91CF911F9143
:101570000F91FF90EF90DF90CF900C947C0ACF9268
:10158000DF92EF92FF920F931F93CF93DF93EC01C3
:10159000F62E642F8C810E94BA028D818F3F19F044
:1015A00060E00E94BA020F2D10E08F8584FF25C0F5
:1015B0006E0187E0C80ED11CF12CE12CB8010E2C75
:1015C00002C0759567950A94E2F76170F601819102
:1015D0006F010E94BA02FFEFEF1AFF0A88E0E816D7
:1015E000F10461F7CE01DF91CF911F910F91FF9030
:1015F000EF90DF90CF900C947C0AB80184E0759551
:1016000067958A95E1F7CE010E94920A6F2DCE016F
:10161000DF91CF911F910F91FF90EF90DF90CF90CE
:101620000C94920A40E0682F8EEC96E00C94BF0A6E
:1016300081E00E94120B8BE39FE10197F1F708957F
:10164000CF93DF93823029F49091DD0698609093D8
:10165000DD068093E1061092E20680E48093E306C3
:1016600080E18093E40680E58093E50661E0809167
:10167000D2060E94E8028091D3068F3F19F061E004
:101680000E94E80261E08091D4060E94E802CEEC5C
:10169000D6E09E012E5C36408091DD0684FD0BC0B5
:1016A00084E090E021962817390744F461E08E81A8
:1016B0000E94E802EECF88E090E0F4CF8BE39DE05B
:1016C0000197F1F760E08091D2060E94BA0260E0D3
:1016D0008091D4060E94BA028091D3068F3F19F000
:1016E00060E00E94BA028091DD0684FD34C063E0B0
:1016F0008EEC96E00E94920ACBE4D6E4CE010197EC
:10170000F1F763E08EEC96E00E94920A2197F1F7E0
:1017100063E08EEC96E00E94920A83E592E00197E6
:10172000F1F762E08EEC96E00E94920A8091DD066D
:1017300080620E94120B84E08093DE068CE00E949F
:10174000120B0E94180B82E08093DF0686E0DF9187
:10175000CF910C94120B80620E94120B8BE496E4E2
:101760000197F1F78091DD0680620E94120B83E5FC
:1017700092E00197F1F78091DD0680620E94120BE2
:10178000D5CF643008F063E09091E106691710F05E
:101790006FEF690FE62FF0E0E253F94F9489890F5C
:1017A00080680C94120B41E00E94BF0A81E090E037
:1017B00008950F931F93CF93DF938B0128E0829FAF
:1017C000C001112480640E94120BE801085F1F4FC2
:1017D00069918EEC96E00E94D30BC017D107C1F738
:1017E000DF91CF911F910F9108950F931F93CF9386
:1017F000DF938C01D0E0C0E0F801EC0FFD1F649195
:10180000662339F041E08EEC96E00E94BF0A2196F3
:10181000F3CFCE01DF91CF911F910F910895FB017E
:1018200001900020E9F73197AF01461B570BDC010F
:10183000ED91FC910280F381E02D09948F929F92AB
:10184000AF92BF92EF92FF920F931F93CF93DF93CC
:10185000CDB7DEB7A1970FB6F894DEBF0FBECDBFF0
:101860007C01FA01CB0119A2223008F42AE08E0192
:101870000F5D1F4F822E912CB12CA12CBF01A50111
:1018800094010E941B38F901CA016A300CF5605DB1
:10189000D8016E938D01232B242B252B79F790E013
:1018A00080E0109721F0BD01C7010E940F0CA196A6
:1018B0000FB6F894DEBF0FBECDBFDF91CF911F9161
:1018C0000F91FF90EF90BF90AF909F908F900895F1
:1018D000695CDECFCF92DF92EF92FF920F931F935E
:1018E000CF93DF936B01770FEE08FF08F7FE1FC061
:1018F000EC01E881F9810190F081E02D6DE209951C
:101900008C0144275527BA014C195D096E097F09DE
:101910002AE0CE010E941E0C800F911FDF91CF9113
:101920001F910F91FF90EF90DF90CF9008952AE0E4
:10193000B701A601DF91CF911F910F91FF90EF901A
:10194000DF90CF900C941E0CCF93DF93BC018DE100
:1019500096E00E946A0CEC0164EA72E08DE196E088
:101960000E940F0C8C0F9D1FDF91CF910895CF9394
:10197000DF93BC018DE196E00E940F0CEC0164EA5C
:1019800072E08DE196E00E940F0C8C0F9D1FDF919D
:10199000CF9108956115710511F00C940F0C90E032
:1019A00080E008950F931F93CF93DF930091780108
:1019B00010917901C0917601D09177010A3011051B
:1019C00034F470E060E08EEC96E00E946A0CB8019E
:1019D0008EEC96E00E946A0C67EA72E08EEC96E06C
:1019E0000E94CA0CCA30D10534F470E060E08EEC7D
:1019F00096E00E946A0CBE018EEC96E0DF91CF91DA
:101A00001F910F910C946A0C882309F487C0809170
:101A10000F01909110019093E6048093E50480916A
:101A2000E5049091E60497FD1EC0FC01EE0FFF1F38
:101A3000E85EFB4F60817181880F991FFC01E65EB3
:101A4000FB4F718360838DE196E00E946A0C69EA26
:101A500072E08DE196E00E94CA0C8091E5049091BD
:101A6000E6040197D8CF8AEA92E00E94B70C8091F1
:101A7000A3039091A40390931904809318042091D8
:101A8000640130916501AC01421B530B5093A203DA
:101A90004093A10382179307B0F49093650180935C
:101AA00064011092A4031092A30381E04091A1036A
:101AB0005091A20320917A0130917B0124173507C0
:101AC0000CF080E0089580910F0190911001FC01CD
:101AD000EE0FFF1FE65EFB4F408151812417350753
:101AE00001F7E8E1F4E050E040E0481759074CF412
:101AF000619171916217730708F49B014F5F5F4F0B
:101B0000F4CF309365012093640197FF02C090E009
:101B100080E09093E6048093E504C3CF81E10E94C6
:101B20003C042091A3033091A403281739070CF03B
:101B3000BCCF81E10E943C049093A4038093A30353
:101B40002091640130916501821B930B9093A20355
:101B50008093A103AACF9F92AF92BF92CF92DF92C0
:101B6000EF92FF920F931F93CF93DF9382309105F3
:101B700009F0B1C0809168019091690160910501FF
:101B8000709106010E9407387093F7036093F60383
:101B9000C1E08091F6039091F70397FD01C183E0C6
:101BA0000E949102892B09F0FBC0609105017091A0
:101BB0000601072E000C880B990B0E9473048FE01E
:101BC0000E94B20980FF0AC00E94D9098091730166
:101BD00090917401019711F4C0936D058DE196E029
:101BE0000E94A1018337910581F4C0936D05809116
:101BF000740590E090937901809378018091750548
:101C000090E0909377018093760186E00E949102A4
:101C1000892BA1F48091160590911705892B71F4F9
:101C20001092F7031092F6038091F6039091F70358
:101C300001979093F7038093F603ABCF80E00E9467
:101C4000040D8823E1F0809162019091630120915D
:101C50000D0130910E01820F931F2091640130918C
:101C600065018217930758F020911C0530911D05DE
:101C700080916D0190916E01821793078CF68FB75A
:101C8000F8944091F2035091F3036091F403709142
:101C9000F5038FBF80917C0590917D05A0917E0515
:101CA000B0917F05481B590B6A0B7B0B8091680133
:101CB000909169012091050130910601821B930BDF
:101CC000092E000CAA0BBB0B84179507A607B707B4
:101CD00008F4A6CFA9CF039709F062C080916801EC
:101CE000909169019093F7038093F6038CE9E82EB5
:101CF000FF24FA9494E6C92ED12C992493948091D0
:101D0000F6039091F703181619060CF049C08FE0FE
:101D10000E943C04B7010E9407388B015B018AE0F6
:101D2000A80EB11CB0924701A09246018EE00E941D
:101D30003C04B6010E940738EB01709345016093A3
:101D4000440161E070E080E090E00E9473048091C3
:101D500017018823E1F00A5F1F4F0330110570F06F
:101D60001092F7031092F6038091F6039091F70317
:101D700001979093F7038093F603C1CF249723979D
:101D800078F785E00E949102892B51F3EDCF2597DA
:101D900059F785E0A816B10439F790921701E4CFFE
:101DA000DF91CF911F910F91FF90EF90DF90CF9037
:101DB000BF90AF909F90089561E084E00E94C10BB6
:101DC000E0916705F0916805EE0FFF1FEE56FE4F9C
:101DD000608171818EEC96E00E94CA0C6DE073E028
:101DE0008EEC96E00E94CA0C809173058A3030F424
:101DF00070E060E08EEC96E00E946A0C4091730502
:101E000050E070E060E02AE08EEC96E00C941E0C4E
:101E100060E084E00E94C10B809174058A3030F448
:101E200070E060E08EEC96E00E946A0C40917405D0
:101E300050E070E060E02AE08EEC96E00E941E0C1C
:101E400067EA72E08EEC96E00E94CA0C80917505FC
:101E50008A3030F470E060E08EEC96E00E946A0C0C
:101E60004091750550E070E060E02AE08EEC96E06D
:101E70000E941E0C67EA72E08EEC96E00E94CA0C8B
:101E8000809176058A3030F470E060E08EEC96E068
:101E90000E946A0C4091760550E070E060E02AE014
:101EA0008EEC96E00C941E0CCF93DF931092E4041A
:101EB000EBE0F5E090E080E0EC01219131910196BA
:101EC000232BD1F3D093E604C093E50460E083E0D4
:101ED0000E94C10BCC0FDD1FCC0FDD1FCE57DE4F94
:101EE000688179818EEC96E00E94CA0C61E083E003
:101EF0000E94C10BE091E504F091E604EE0FFF1F94
:101F0000EE0FFF1FEE57FE4F628173818EEC96E05D
:101F1000DF91CF910C94CA0CCF93DF93EC018091A9
:101F2000C8069091C906009759F02091CA063091D1
:101F3000CB062C173D0720F081E0DF91CF9108956B
:101F4000BE016F5F7F4F0E948739009789F09093A1
:101F5000C9068093C806D093CB06C093CA062091C9
:101F6000CC063091CD06232B39F7FC011082E4CF4B
:101F700080E0E3CFFF920F931F93CF93DF9300D0C6
:101F8000CDB7DEB7FF24F3948DE196E00E94C30144
:101F9000892B51F18DE196E00E94A1018A3019F45C
:101FA000F0926D05F1CF89831A820091CC061091D1
:101FB000CD060F5F1F4FC8010E948C0F882321F3AD
:101FC0002091C8063091C9068091CC069091CD062B
:101FD000BE016F5F7F4F820F931F0E944D3A109397
:101FE000CD060093CC06D0CF0F900F90DF91CF910C
:101FF0001F910F91FF9008950E94CF0181110C94C1
:10200000BA0F0895BF92CF92DF92EF92FF920F9393
:102010001F93CF93DF93D0E0C0E007E010E0E7E04C
:10202000EE2EF5E0DF2ECC24C394A8ECBA2EB4E15A
:10203000FB2ECE010E94E335282F30E0C834D105B5
:1020400008F051C0FE01E95DFF4E0C945C386F1042
:10205000A310A810A810A810A810A810A810A810C5
:10206000A810A810B010B810C410CC10D110D61001
:10207000DB10DE10E610EB10EB10EB10EB10EB10AA
:10208000EB10EB10F310F810FD1004110911731090
:102090000E110E110E110E110E110E110E110E1148
:1020A0000E110E110E110E110E110E110E110E1138
:1020B0000E110E110E110E110E110E110E110E1128
:1020C0000E110E110E110E110E110E110E110E1118
:1020D0000E110E110E111F11241129112E11309302
:1020E0000401209303012196C834D10509F0A1CF42
:1020F0000E94D80780916F01909170010197880F1D
:10210000991FFC01EE0FFF1FE45BFE4F2081318120
:102110003093790120937801880F991FFC01E25BCD
:10212000FE4F80819181909377018093760180E0CA
:10213000DF91CF911F910F91FF90EF90DF90CF90A3
:10214000BF900C943B0A3093020120930101CBCF46
:10215000FE01EE0FFF1FE85BFE4F31832083C3CFEC
:102160008F9DC001112490936B0180936A01BBCFB6
:102170008F9DC001112490930801809307019093D3
:10218000170580931605AFCF8B9DC0011124909346
:102190005F0180935E01A7CF30937B0120937A018A
:1021A000A2CF30936301209362019DCF309312013F
:1021B0002093110198CFC092A00395CF8D9DC001AF
:1021C000112490930601809305018DCF30936E0109
:1021D00020936D0188CFFE01EE0FFF1FE353FB4FED
:1021E00021503109BACF30930C0120930B017BCFE2
:1021F000309301042093000476CF215031093093AD
:10220000700120936F016FCF3093670120936601B7
:102210006ACF3093100120930F0165CFCE018197D3
:10222000B8010E940738E69EF001E79EF00D1124E8
:10223000E80FF91FEE0FFF1FEF5DFA4FD1CF30937C
:102240006C0520936B054FCF309306042093050453
:102250004ACF30930E0120930D0145CF3093610199
:102260002093600140CF85ED8093BC008091F505FF
:102270009091F605A091F705B091F8050796A11D7C
:10228000B11D23E0B695A795979587952A95D1F727
:102290002091BC0024FD03C01092F30508954091E5
:1022A000F5055091F6056091F7057091F805452BFD
:1022B000462B472B69F30097A105B10541F025E3B3
:1022C0002A95F1F700000197A109B109E1CF8091AA
:1022D000F4050C94EB041F93CF93DF93EC01162FBE
:1022E0000E94E335181739F0612FCE01DF91CF91AD
:1022F0001F910C94EB35DF91CF911F910895AF9210
:10230000BF92CF92DF92EF92FF920F931F93CF93E2
:10231000DF938BEA92E00E94B70C10E000E025E02A
:10232000C22ED12C38ECA32EB12C44E1E42EF12C9A
:102330000834110508F04FC0F801EF55FE4E0C941B
:102340005C38131218121D121D121D121D121D12BF
:102350001D121D121D121D1225122E1233123912BA
:102360003E12431248124C12521257125712571271
:102370005712571257125712601265126A126F12D3
:102380007412E911EB11EB11EB11EB11EB11EB11E5
:10239000EB11EB11EB11EB11EB11EB11EB11EB115D
:1023A000EB11EB11EB11EB11EB11EB11EB11EB114D
:1023B000EB11EB11EB11EB11EB11EB11EB11EB113D
:1023C000EB11EB11EB11EB11EB1179127E12831271
:1023D000881203E410E0B8018DE196E00E946A0CD7
:1023E00065EB72E08DE196E00E94CA0CCE010E947E
:1023F000A40C6C2FC8010E946B110F5F1F4F083493
:10240000110509F095CF88EB92E00E94B70CDF919F
:10241000CF911F910F91FF90EF90DF90CF90BF90E1
:10242000AF900C94D807C0910301D0910401D3CF91
:10243000C0910101D0910201CECFF801EE0FFF1F34
:10244000E85BFE4FC081D181C6CF80916A01909137
:102450006B01B7010E940738EB01BDCF80910701E6
:1024600090910801F6CF80915E0190915F01B501D6
:10247000F1CFC0917A01D0917B01ADCFC0916201C3
:10248000D0916301A8CFC0911101D0911201A3CFC7
:10249000C091A003D0E09FCF8091050190910601EB
:1024A000B601D8CFC0916D01D0916E0194CFF801E3
:1024B000EE0FFF1FE353FB4FC081D18121968BCFDD
:1024C000C0910B01D0910C0186CFC0910004D09136
:1024D000010481CFC0916F01D0917001EFCFC09105
:1024E0006601D091670177CFC0910F01D0911001A3
:1024F00072CFC0916B05D0916C056DCFC091050472
:10250000D091060468CFC0910D01D0910E0163CF28
:10251000C0916001D09161015ECF8F929F92AF9286
:10252000BF92CF92DF92EF92FF92F82E0E94080F97
:1025300080916C01882361F08091070190910801DE
:1025400001972091160530911705281739071CF4BB
:10255000FF2009F491C085E10E943C04BC01990F61
:10256000880B990B0E94C6349B01AC0160E070E0BF
:1025700080E894E40E94B73620E030E040E85FE372
:102580000E944A3620E030E44CE156E40E942535B2
:102590000E9465376B017C0129E537E44CEB53E37E
:1025A0000E942535A70196010E94253523E73FE7C4
:1025B00045E759E30E944B36A70196010E94253555
:1025C0002BEE3FEF43E95AE30E944B369B01AC01EF
:1025D00060E070E080E89FE30E94B73623E333E9D0
:1025E00048E853E40E944A3620E030E040EC5FE3E4
:1025F0000E944B366B017C0161E08CE00E94C10BB4
:1026000020E030E040E251E4C701B6010E94BF344F
:1026100087FF06C070E060E08EEC96E00E946A0CD6
:10262000A7019601C701B6010E94AD3767EC72E0C1
:1026300081111AC046015701E894B7F82FEF3FEF18
:102640004FE75FE7C501B4010E94AD3781111DC09E
:102650002FEF3FEF4FE75FE7C501B4010E94BF34A2
:1026600018169CF46BEC72E08EEC96E00E940F0C56
:102670000E94DC0E10926C01FF90EF90DF90CF90E3
:10268000BF90AF909F908F9008952FEF3FEF4FE74F
:102690005FE4C701B6010E94583718161CF46FECAE
:1026A00072E0E2CF2FEF3FEF4FE75FECC701B601DB
:1026B0000E94BF3487FDF3CF20E030E0A901C701BD
:1026C000B6010E94BF3487FF0AC041E06DE28EEC84
:1026D00096E00E94BF0AF7FAF094F7F8F0942AE027
:1026E00037ED43EA5BE3C701B6010E944B364B016D
:1026F0005C010E9429376B017C010E94C4349B015C
:10270000AC01C501B4010E944A364B015C012AE0CC
:10271000B701A6018EEC96E00E941E0C41E06EE22D
:102720008EEC96E00E94BF0A20E030E040E251E4E7
:10273000C501B4010E9425354B015C010E94293777
:102740006B01F12CE12C2AE0B701A6018EEC96E09A
:102750000E941E0CC701B6010E94C4349B01AC014B
:10276000C501B4010E944A3620E030E040E251E465
:102770000E9425350E942937AB0170E060E02AE015
:102780008EEC96E00E941E0C73CF1F920F920FB634
:102790000F9211242F933F934F935F936F937F93E7
:1027A0008F939F93AF93BF93EF93FF938091850592
:1027B00090918605A0918705B0918805892B8A2B79
:1027C0008B2BD1F190918005E0918105F0918205EC
:1027D0008081892780838091850590918605A091CD
:1027E0008705B0918805181619061A061B069CF471
:1027F0008091850590918605A0918705B091880507
:102800000197A109B1098093850590938605A0934E
:102810008705B0938805FF91EF91BF91AF919F918C
:102820008F917F916F915F914F913F912F910F9079
:102830000FBE0F901F90189580917501E2E5F2E0B0
:10284000E4919FEF90937501E13051F030F0E23068
:1028500069F060E00E94BA02DECF10926E00F9CFFC
:1028600090916F009D7F90936F00F3CF90917000D7
:102870009D7F9093700091E09093B0009091B10093
:10288000987F94609093B1001092B300E2CF1F92B2
:102890000F920FB60F9211242F933F934F935F9394
:1028A0006F937F938F939F93AF93BF93EF93FF9318
:1028B0008DE196E00E94D901FF91EF91BF91AF9118
:1028C0009F918F917F916F915F914F913F912F9148
:1028D0000F900FBE0F901F9018951F920F920FB67A
:1028E0000F9211242F938F939F93EF93FF93E09177
:1028F0002D06F0912E068081E0913306F09134068A
:1029000082FD1BC09081809136068F5F8F7320916E
:102910003706821741F0E0913606F0E0E35EF94FAA
:10292000958F80933606FF91EF919F918F912F9114
:102930000F900FBE0F901F9018958081F4CF1F92BB
:102940000F920FB60F9211242F933F938F939F9363
:10295000AF93BF938091F2039091F303A091F4039E
:10296000B091F5033091E90323E0230F2D3758F59B
:102970000196A11DB11D2093E9038093F20390936A
:10298000F303A093F403B093F5038091EA039091CD
:10299000EB03A091EC03B091ED030196A11DB11DD5
:1029A0008093EA039093EB03A093EC03B093ED03C1
:1029B000BF91AF919F918F913F912F910F900FBE3B
:1029C0000F901F90189526E8230F0296A11DB11DA8
:1029D000D2CF1F920F920FB60F9211240F900FBEFD
:1029E0000F901F9018951F920F920FB60F921124FF
:1029F0002F933F934F935F936F937F938F939F9307
:102A0000AF93BF93EF93FF938091B900887F803697
:102A100009F44AC0F0F5883209F4A7C018F58031EE
:102A200009F49BC0B8F4882309F4F9C0883009F48C
:102A300094C0FF91EF91BF91AF919F918F917F9142
:102A40006F915F914F913F912F910F900FBE0F901B
:102A50001F901895883109F488C0803251F780930F
:102A6000F10514C0803409F49DC040F48033B9F3FB
:102A70008833F9F68093F10585ECB0C0803509F410
:102A800085C0883509F496C0883499F60E943311C0
:102A9000D0CF883909F48CC038F5883729F050F444
:102AA000883611F0803729F683E08093F305109281
:102AB000E80357C0883809F47BC0803919F08038A2
:102AC00009F0B7CF8091E803803208F071C0E0913F
:102AD000E80381E08E0F8093E8038091BB00F0E073
:102AE000E853FC4F80833DC0803B39F0E0F4803AEE
:102AF00009F479C0883A09F09CCF84E08093F3050B
:102B00001092C7031092C603E091F003F091F10315
:102B100009958091C60381110FC081E08093C6039F
:102B20001092A60309C0803C09F4A6CF883C09F4A2
:102B3000A3CF883B09F07DCFE091C70381E08E0FE2
:102B40008093C703F0E0EA55FC4F80818093BB007F
:102B50009091C7038091C60329C08091CE058093D0
:102B6000BB0085EC8093BC0064CF9091F005809110
:102B7000EF05981758F5E091F00581E08E0F8093EE
:102B8000F005F0E0E153FA4F8081E9CFE091F005E4
:102B900081E08E0F8093F0058091BB00F0E0E1535F
:102BA000FA4F80839091F0058091EF059817C8F255
:102BB00085E8D8CFE091F00581E08E0F8093F00595
:102BC0008091BB00F0E0E153FA4F80838091F205E1
:102BD00081115CCF81E08093CD0584EA8093BC00B5
:102BE0001092F30526CF85EC8093BC001092F3057C
:102BF0008091E803803230F4E091E803F0E0E8539C
:102C0000FC4F10826091E80370E0E091EE03F091D8
:102C1000EF0388EC93E009951092E8030ACF109235
:102C2000F10534CF1092200610921F0688EE93E033
:102C3000A0E0B0E08093210690932206A0932306A3
:102C4000B093240628E732E030931E0620931D0639
:102C500025EC30E030932A062093290624EC30E05E
:102C600030932C0620932B0620EC30E030932E0678
:102C700020932D0621EC30E03093300620932F0670
:102C800022EC30E0309332062093310626EC30E01F
:102C9000309334062093330610923606109237068E
:102CA00010923806109239062FEF3FEF3093BB0693
:102CB0002093BA061092BF061092BE068093C006FB
:102CC0009093C106A093C206B093C3068AE892E02F
:102CD0009093BD068093BC061092D1061092D00648
:102CE0008CE992E09093CF068093CE0687E08093A4
:102CF000D2068FEF8093D30688E08093D40689E0D4
:102D00008093D5068AE08093D6068BE08093D70621
:102D10008CE08093D8061092D9061092DA061092B1
:102D2000DB061092DC061092DD0681E00E94200B8B
:102D30001092C9061092C8061092CB061092CA06CD
:102D40001092CD061092CC0690E080E00E948C0F8D
:102D50002091C8063091C906811113C02115310593
:102D600019F0C9010E94FE381092C9061092C806D7
:102D70001092CD061092CC061092CB061092CA0685
:102D800008951092CD061092CC066AEA72E0C9014D
:102D90000C944D3ACF93DF9300D000D000D01F9217
:102DA000CDB7DEB7789484B5826084BD84B5816088
:102DB00084BD85B5826085BD85B5816085BD809106
:102DC0006E00816080936E0010928100809181007E
:102DD0008260809381008091810081608093810076
:102DE000809180008160809380008091B100846038
:102DF0008093B1008091B00081608093B000809199
:102E00007A00846080937A0080917A008260809357
:102E10007A0080917A00816080937A0080917A00B4
:102E2000806880937A001092C10062E086E00E9480
:102E3000E80260E083E00E94E80262E085E00E9430
:102E4000E80261E082E00E94E802E0912D06F09144
:102E50002E0682E08083E0912906F0912A061082F6
:102E6000E0912B06F0912C068FEC808310923506B2
:102E7000E0913106F091320606E00083E0912F06E2
:102E8000F0913006808180618083E0912F06F0917F
:102E90003006808188608083E0912F06F0913006B3
:102EA000808180688083E0912F06F09130068081D8
:102EB0008F7D808384E190E00E948C0F1092A005AA
:102EC00010929F051092FA0510921C060E94CD04E4
:102ED00083E691E09093F1038093F00384E691E020
:102EE0009093EF038093EE038EE00E94B209682F67
:102EF0006B738EE00E94410780ED97E09093C205CE
:102F00008093C10581E08093C3058093C40510922E
:102F1000C5051092C6051092C7050093C80580E745
:102F200095E3ADE6B8E38093C9059093CA05A093F5
:102F3000CB05B093CC0580E00E94E1098EE00E94B1
:102F4000B209682F6D7F8EE00E9441070E94D90967
:102F50008FE00E94B209682F6D7F8FE00E944107C9
:102F600082E00E94200B60EC71E081E00E94D90BAE
:102F700068EB71E082E00E94D90B60EB71E083E0C6
:102F80000E94D90B68EA71E084E00E94D90B60EAE4
:102F900071E085E00E94D90BE8E1F1E030E020E04B
:102FA000808191810097C1F04FEF5FEF21153105CE
:102FB00021F0DF0112974D915C91BA016F5F7F4F55
:102FC00071836083880F991F840F951F9383828379
:102FD0002E5F3F4F3496E4CF21E030E03093DB04A6
:102FE0002093DA0430933F0420933E0410920C05A2
:102FF00010920B0510920E0510920D0510921005FF
:1030000010920F0583E090E09093E6048093E5042E
:1030100086E00E949102892B31F441E050E0509308
:103020007201409371010E94B8080E94910740917B
:103030009D0560917601809178010E94F00980E7FA
:1030400095E00E94DD0880917005909171050E94C5
:1030500034080E94630790E080E00E94E3358130ED
:1030600009F045C085E490E00E94E335813051F4D9
:1030700021E030E030930C0520930B0580930A0586
:10308000809309058FEF9FEF9093F6048093F504EA
:103090009093F8048093F7049093FA048093F904D2
:1030A0009093FC048093FB049093FE048093FD04B2
:1030B000909300058093FF0490930205809301058F
:1030C000E1E2F5E055E0E736F50709F43FC2918308
:1030D0008083938382839583848397838683918778
:1030E000808793878287958784873E96EBCF85E498
:1030F00090E00E94E335882309F4B4CF0E940210C7
:1031000061E085E490E00E946B11E0910305F0918D
:103110000405EE0FFF1FEB50FB4F8081918101965C
:1031200019F481E08093060543E0642E712C22247B
:103130002394312C2FB7F8948091F2039091F303EC
:10314000A091F403B091F5032FBF80937C05909379
:103150007D05A0937E05B0937F0580E795E00E94F2
:10316000DD0880916E0590916F05181619061CF404
:1031700080E00E948D128FE00E94B20980FDF3C1B1
:103180008091710190917201892B09F4F5C18091B0
:103190006D058111F1C180919B0590919C0501976E
:1031A00009F0AEC080916A0190916B0190936F0518
:1031B00080936E0580911805909119050196909362
:1031C0001905809318050B9734F48091160590919A
:1031D0001705019721F41092190510921805809196
:1031E0007605811111C08091750590E020919105BF
:1031F000309192058217930739F020917601309132
:1032000077018217930739F480911A0590911B0575
:10321000181619066CF560E082E00E94BA028091EF
:10322000160590911705892B31F488E290E0909370
:103230001705809316052AEF30E03093690120933B
:1032400068016AEF70E080E090E00E94730461E042
:1032500082E00E94BA0280911A0590911B050196A6
:103260008430910509F4CEC290931B0580931A0512
:1032700086E00E949102892B61F0809199059091DE
:103280009A05889731F0809195059091960544971D
:10329000D9F481E00E943B0A48EC50E060E070E025
:1032A0008BE492E00E942403809166019091670173
:1032B000892B21F410927401109273011092190558
:1032C000109218050E9463078091970590919805C8
:1032D000019709F0A2C220916401309165018091AB
:1032E0006201909163018217930708F496C280915E
:1032F000990590919A05019690939A058093990566
:1033000086E00E949102892B09F059C0209160014A
:1033100030916101121613060CF04BC08091150517
:10332000811147C011E0109315056091130570914C
:10333000140540915E0150915F01649FC001659F3B
:10334000900D749F900D11246CE271E00E9407387B
:10335000CB01B9010E94073880916A0190916B01FD
:10336000860F971F90936B0180936A010E94A40CB3
:1033700080916A0190916B0164E170E00E940738CE
:103380008BE090E00E946B1180916A0190916B013B
:103390001816190674F03092120520921105109338
:1033A0000A051093090544E150E050936B014093E6
:1033B0006A010E94B80810921D0510921C058091A8
:1033C000080590917405911132C290917505911183
:1033D0002EC2811128C080E795E00E94DD0880910F
:1033E0007005909171050E9434080E94630781E086
:1033F00080930805209166013091670122303105E4
:1034000011F48093070580915C0190915D01892BF7
:1034100009F008C230920E0520920D0581E08093DC
:103420000A058093090500919B0510919C051F8357
:103430000E83012B09F022C3809107058823A9F18F
:103440001092070580910605811116C2809105052D
:10345000882309F4F2C11092050580916F019091C3
:103460007001181619060CF0F7C130927401209201
:1034700073010197880F991FFC01EE0FFF1FE45B9A
:10348000FE4F208131813093790120937801880F9C
:10349000991FFC01E25BFE4F80819181909377013F
:1034A0008093760180E00E943B0A10912005112351
:1034B00009F4E4C2109220058091690590916A0593
:1034C000019666E070E00E940738E0916705F09190
:1034D0006805F12CE12C46E0C42ED12C07E09F01B9
:1034E000220F331FA9014B505B4F4A0166E0A62E05
:1034F000B12C51E0C51AD10809F4FDC1089FD001D3
:10350000099FB00D1124AE0FBF1FAA0FBB1FAF5DE7
:10351000BA4F4D915C914F3F540799F0DA01AA0FD1
:10352000BB1FA951BB4F2D913C9111972F5F3F4F6E
:103530002D933C932E153F0524F0D4014D935C93BD
:1035400079010196B5010E940738D3CF85E090E05C
:103550009093F2048093F10487E090E09093F0045C
:103560008093EF04CDCD0E94D90980917301909191
:103570007401019709F004CE10926D0580916B05DE
:1035800090916C05019749F5E0916905F0916A0504
:10359000809167059091680560916F01209170019D
:1035A00037E03E9FA0013F9F500D1124840F951FCF
:1035B000FC01EE0FFF1FEF5DFA4F6083218321E0D6
:1035C000209320056F5F81960E946B1160916F01BF
:1035D0006F5F8DE190E00E946B110E94B8080E941D
:1035E00091070E94180B8091710190917201892BB3
:1035F00009F07AC061E080E00E94C10B63ED72E0E7
:103600008EEC96E00E94CA0C86E891E090931F052C
:1036100080931E0583E00E949102892B41F48091E2
:103620001E0590911F05181619060CF460C08091B4
:103630009505909196050196909396058093950532
:10364000019709F0D5C08091760190917701059698
:1036500090939205809391058091780190917901E2
:103660009093940580939305809191059091920594
:103670008C3391057CF02091930530919405CC9783
:1036800090939205809391052F5F3F4F309394055F
:103690002093930580E00E94E1090E94D90940E04F
:1036A00060919105809193050E94F0090E94180B8A
:1036B00010921B0510921A0580E795E00E94DD0824
:1036C00081E00E948D1264E670E080E090E00E944C
:1036D000730486E00E949102892B71F383E00E94BB
:1036E0009102019749F357CD0E94DC0E8DCF80E700
:1036F00095E00E94DD080E94080F40E550E060E080
:1037000070E080E193E00E94240320911E05309137
:103710001F05C90163E070E00E940738892B21F57D
:10372000233131400CF1AAEFB0E0B093F703A0933E
:10373000F60380E00E94040D0091F6031091F70358
:1037400017FD19C083E00E949102892BA1F461E06A
:1037500070E080E090E00E94730401501109109322
:10376000F7030093F603E8CFE2E8F0E0F093F70305
:10377000E093F603DECF80911E0590911F0563E074
:1037800070E00E940738892B11F581E00E94040D3A
:103790008823E9F020911C0530911D0580916D0171
:1037A00090916E018217930794F0309298052092C1
:1037B000970510921F0510921E050E949B0844E178
:1037C00050E060E070E08AEB92E00E94240381E028
:1037D00080936C0130929C0520929B05309272017F
:1037E0002092710180911E0590911F0501970ECFC7
:1037F0008091910590919205059690939205809302
:10380000910532CF10921B0510921A0584E690E0C4
:1038100090936901809368012BCD10929A051092C4
:1038200099056ECD10925D0110925C01FCCD88234C
:1038300009F4F9CD10920805F6CDE0916705F091F5
:103840006805EE0FFF1FEB50FB4F80819181909335
:10385000700180936F0101CE892B51F41092740195
:103860001092730180E00E94E1090E94D9091DCEE7
:1038700081E08093060519CEE0910305F0910405DF
:10388000EE0FFF1FEB50FB4F80819181019611F0ED
:10389000109206058091730190917401892B09F0B3
:1038A00004CE80916B0590916C05019709F0FDCDD8
:1038B0004091690550916A0580916705909168056E
:1038C00067E0649F9001659F300D1124820F931F64
:1038D000FC01EE0FFF1FEF5DFA4F20916F01309159
:1038E00070013183208321E02093200561E08196DF
:1038F0000E946B11DACD9093F2048093F10485E07D
:1039000090E09093F0048093EF04F092F404E0923E
:10391000F304DF01AA0FBB1FAB50BB4F6C916F5F6D
:10392000CF0144960E946B111092E8041092E704B4
:103930001092EA041092E9041092EC041092EB0445
:103940001092EE041092ED0464E070E07093E604CF
:103950006093E5048091660190916701029709F4F4
:103960008DC02091690530916A05C0901105D090F5
:103970001205E0910A05E983009109054EE0429F96
:103980002001439F500C1124C90103960E9407385F
:10399000489F5001499FB00C1124412FF12CE12C7C
:1039A00087E0829F4001839F900C11248E819F812C
:1039B000880F991FF201E80FF91FEF5DFA4F208180
:1039C00031816E817F816F5F7F4F7F836E838A0D30
:1039D0009B1DFC01EF5DFA4F80819181281739070B
:1039E000D9F47FEFE71AF70A8E819F8167E070E0D4
:1039F0000E940738F401E80FF91FEE0FFF1FEF5D7B
:103A0000FA4F808191812817390731F02F3F320713
:103A100019F0019609F040E02F5F3F4F2630310545
:103A200028F0012F1983CC24C394D12CEE81FF817F
:103A3000E730F10509F0BACFF093F204E093F10416
:103A4000F981F0930A05F092F004E092EF044093BC
:103A5000E404D0921205C09211050093090504E018
:103A6000E016F1045CF0411109C03092100520927B
:103A70000F0581E080930A058093090585E00E9487
:103A80009102892B11F00C943C2E309272012092FD
:103A9000710110921D0510921C0581E080936C014C
:103AA0000E94B8080E94180B82E090E090934B01AE
:103AB00080934A0130924901209248011092E30418
:103AC0001092E2041092E1041092E00461E470E0CC
:103AD00080E090E00E9473048091E2049091E304FE
:103AE00001969093E3048093E204069741F5809158
:103AF0000A05882309F400C40E94540F8091E5044C
:103B00009091E604880F991FFC01E55FFA4F11823E
:103B1000108210920A0584599D4FDC018D919C9171
:103B200090934B0180934A0185E00E949102019796
:103B300031F468EE73E080E090E00E94730485E069
:103B40000E949102892B11F282E390E09093DF04AE
:103B50008093DE04AA24AA94BA2C02E010E084E048
:103B6000882E912C96E0492E512C8091DE04909164
:103B7000DF0497FF02C00C941D2E8FE00E943C04CE
:103B80006CE97FEF0E9407387B016B01BAE0CB0E36
:103B9000D11CD0924701C09246018EE00E943C04A5
:103BA00064E670E00E940738709345016093440119
:103BB0008091F1049091F204892B09F064C467307C
:103BC00071050CF4A2C38091DC049091DD04019690
:103BD0009093DD048093DC04B092F204A092F1048F
:103BE000E2E3F0E0F093DF04E093DE042091DA04F6
:103BF0003091DB042E5F3F4F3093DB042093DA04D7
:103C00002091D8043091D90428173907C4F4809141
:103C1000D6049091D7049093DD048093DC04E09166
:103C20004A01F0914B01EE0FFF1FEE0FFF1FEC5EFC
:103C3000FE4F808191819093DB048093DA0410928F
:103C400017018091F1049091F2048F3F980709F0D9
:103C500056C43092F2042092F10430921601209260
:103C6000150126E430E0309369012093680120912A
:103C7000480130914901121613060CF077C080916B
:103C8000DA049091DB0402969093DB048093DA04CB
:103C90008091DC049091DD0401969093DD04809383
:103CA000DC042130310509F047C083EE92E00E9428
:103CB000B70C0E94180B80914A0190914B0101971B
:103CC000880F991FFC01EE0FFF1FE85EFE4F408139
:103CD00051815093DB044093DA04880F991FFC0153
:103CE000E65EFE4F2081318130933F0420933E04F5
:103CF000241B350BC901019797FDC901959587953F
:103D00009093D9048093D8041092D7041092D604CB
:103D100010924504109244041092DD041092DC04C9
:103D200010934901009348013092F2042092F1046B
:103D300010926901109268018091DA049091DB047D
:103D400020913E0430913F04821793070CF0DFC3AB
:103D5000DC01AA0FBB1FA653BE4F880F991FFC01A1
:103D6000E853FE4F6C9180810E94C10B83E090E08C
:103D70000E94AB0D8091DA049091DB04DC01AA0F64
:103D8000BB1FA653BE4F880F991FFC01E853FE4F7F
:103D90006C9180810E94C10B80914A0190914B01EE
:103DA000019709F055C0809148019091490102970F
:103DB00041F4109243041092420410924104109274
:103DC00040048091DC049091DD042091E004309166
:103DD000E104232B09F0FDC3009709F0B7C38BE082
:103DE00092E00E94F50B67E070E070931B05609312
:103DF0001A0585E00E949102892B51F58091DC041F
:103E00009091DD0402962091E0043091E104220FAC
:103E1000331F220F331F820F931F90934B01809308
:103E20004A013092F2042092F1043092490120922A
:103E3000480142E350E05093DF044093DE041092C7
:103E4000E1041092E00485E00E949102892BD9F3ED
:103E500080914A0190914B01029709F069C18091CC
:103E60006F01909170011816190624F030927001BC
:103E700020926F018091DC049091DD04892B09F080
:103E800046C08091F1049091F204019791F48091E1
:103E9000780190917901909345048093440487E1DF
:103EA00090E0909343048093420410924104109256
:103EB000400480914404909145049093790180934B
:103EC0007801E0916F01F0917001EE0FFF1FEE0F8E
:103ED000FF1FE85BFE4F918380830A9734F470E004
:103EE00060E08EEC96E00E946A0C6091780170911F
:103EF00079018EEC96E00E946A0C67EA72E08EEC23
:103F000096E00E94CA0C10931B0500931A0580913D
:103F1000DC049091DD04019709F040C08091F10428
:103F20009091F204019791F480917601909177013C
:103F300090934504809344048BE390E09093430472
:103F400080934204109241041092400480914404F2
:103F5000909145049093770180937601E0916F01F1
:103F6000F0917001EE0FFF1FEE0FFF1FE65BFE4F9B
:103F7000918380830A9734F470E060E08EEC96E0E1
:103F80000E946A0C60917601709177018EEC96E048
:103F90000E946A0C10931B0500931A058091DC04A3
:103FA0009091DD04029709F08AC080916F01909191
:103FB00070012091F1043091F2042130310561F457
:103FC0009093450480934404909243048092420469
:103FD0003093410420934004909314018093130183
:103FE00080914404909145049093700180936F01F7
:103FF00065EF72E08EEC96E00E94CA0C60916F0152
:10400000709170018EEC96E00E946A0C89E090E05D
:1040100090931B0580931A0580916F019091700118
:1040200020911301309114018217930709F447C0BE
:104030000197880F991FFC01EE0FFF1FE45BFE4FF5
:10404000E080F180F0927901E0927801880F991F69
:10405000FC01E25BFE4F8081918190937701809318
:10406000760160E085E00E94C10B5AE0E516F1049C
:1040700034F470E060E08EEC96E00E946A0C60918F
:104080007801709179018EEC96E00E946A0C60E0F4
:1040900088E00E94C10B80917601909177010A9788
:1040A00034F470E060E08EEC96E00E946A0C60915F
:1040B0007601709177018EEC96E00E946A0C8091F7
:1040C000DC049091DD04039799F58091F1049091BF
:1040D000F2040197C1F48091660190916701909379
:1040E00045048093440410934304009342041092C7
:1040F0004104109240041092060562E370E0709350
:104100003D0460933C0460914404809145046093B5
:1041100066018093670130923B0420923A046E5FFF
:104120008EEC96E00E94D30B30921B0520921A056C
:1041300080914A0190914B01039709F004C380914B
:10414000DC049091DD042091E0043091E104232B04
:1041500011F00C94952B892B09F041C08091F1044A
:104160009091F204019791F480917A0190917B01F2
:1041700090934504809344048AEF90E09093430425
:1041800080934204109341040093400480914404BE
:104190009091450490937B0180937A018436910538
:1041A00094F46EEF72E08EEC96E00E94CA0C80915F
:1041B0007A0190917B010A9734F46EEF72E08EECF5
:1041C00096E00E94CA0C60917A0170917B018EEC9E
:1041D00096E00E946A0C70921B0560921A0580910D
:1041E000DC049091DD040197A9F58091F104909190
:1041F000F2040197A9F480911101909112010197A5
:1042000009F023C2B0924504A0924404AAEFB0E0A2
:10421000B0934304A0934204B0924104A09240049E
:1042200080914404909145049093630180936201CE
:104230008F3F980709F012C23092120120921101AB
:1042400060E073E08EEC96E00E94CA0C90921B0531
:1042500080921A058091DC049091DD04029709F0A8
:1042600046C2109245041092440465E073E08EEC5F
:1042700096E00E94CA0C50921B0540921A0585E0F8
:104280000E949102892B09F032C20E94180B60E053
:1042900082E00E94C10B8DEC91E00E94F50B61E081
:1042A00082E00E94C10B85EC91E00E94F50B7092B8
:1042B000E6046092E504E090E504F090E6041E1444
:1042C0001F040CF0EFC161E089E00E94C10BB7014F
:1042D0008EEC96E00E946A0C68EE73E080E090E05D
:1042E0000E9473048091E5049091E60401979093F5
:1042F000E6048093E504DFCF83E192E00E94F50BB2
:1043000030924B0120924A011ACC64307105DCF5E1
:104310008091DC049091DD0401979093DD048093FB
:10432000DC04B092F204A092F10422E330E0309376
:10433000DF042093DE042091DA043091DB04225064
:1043400031093093DB042093DA042091D6043091B4
:10435000D704821793070CF072CC8091D804909107
:10436000D9049093DD048093DC04E0914A01F0913C
:104370004B01EE0FFF1FEE0FFF1FEA5EFE4F808125
:104380009181019758CC6530710509F07CC040EAF5
:1043900050E0509369014093680156E0E50EF11C2E
:1043A00063E0E616F10408F46EC0E0914A01F09172
:1043B0004B0131974091E0045091E1042091D804E1
:1043C0003091D904429FC001439F900D529F900DA0
:1043D000112463E0EE0FFF1F6A95E1F72091DC04E2
:1043E0003091DD04820F931FE80FF91FEE0FFF1FBE
:1043F000EA5BFB4F81E090E09183808397E0C916F0
:10440000D10414F180914404909145040196909355
:10441000450480934404A2E3B0E0B093DF04A0938A
:10442000DE0420914204309143042817390744F4F4
:1044300080914004909141049093450480934404FA
:1044400081E080930805FBCBB4E0CB16D104DCF40B
:104450008091440490914504019790934504809382
:104460004404E2E3F0E0F093DF04E093DE04209103
:104470004004309141048217930714F7809142045D
:1044800090914304D9CF8091480190914901892BA3
:1044900009F0EDCB8091DA049091DB04DC01AA0FE6
:1044A000BB1FA653BE4F880F991FFC01E853FE4F58
:1044B0006C9180810E94C10B809115019091160131
:1044C000029708F0BECB83E090E00E94AB0D809194
:1044D0001A0590911B05181619060CF0B2CB6DE069
:1044E00073E08EEC96E00E94CA0C80911A059091C0
:1044F0001B05019790931B0580931A05E8CF019740
:1045000009F0B5CB1092F2041092F104B0CB1092E6
:10451000490110924801E0914A01F0914B01EE0FE0
:10452000FF1FEE0FFF1FEC5EFE4F80819181909385
:10453000DB048093DA041092DD041092DC0444E67C
:1045400050E0509369014093680110CC813091058F
:1045500049F486E092E00E94F50B90921B05809250
:104560001A0547CC8230910549F48FEF91E00E9403
:10457000F50B50921B0540921A053BCC83309105F8
:1045800059F486EF91E00E94F50B88E090E090935B
:104590001B0580931A052DCC049709F02ACC1092A4
:1045A0006901109268018091F1049091F2040197E1
:1045B00009F41FCC3092E1042092E00430924901CA
:1045C00020924801A2E3B0E0B093DF04A093DE04A0
:1045D00010CC009719F48FEE91E0C9CF813091058E
:1045E00059F486EE91E00E94F50BE8E0F0E0F093DC
:1045F0001B05E0931A05FDCB8230910519F48FED70
:1046000091E0B5CF8330910519F48AED91E0A3CF05
:10461000049709F0EECB1092690110926801809125
:10462000F1049091F204019709F4E3CB1092E104B4
:104630001092E004309249012092480122E330E0D8
:104640003093DF042093DE04D4CB809162019091FB
:1046500063019093450480934404D8CD10921201D5
:10466000109211018436910594F46EEF72E08EEC95
:1046700096E00E94CA0C80916201909163010A97B2
:1046800034F46EEF72E08EEC96E00E94CA0C6091FA
:104690006201709163018EEC96E00E946A0C6DE0FD
:1046A00073E0D0CD0E94180B60E082E00E94BA0255
:1046B000E8E0F0E0F093DF04E093DE040E9491076D
:1046C0008FE090E09093100180930F018091DE04C1
:1046D0009091DF0408970CF08CC710923904109267
:1046E00038040E949B0861E082E00E94BA02809137
:1046F000DC049091DD040397C1F4109269011092DB
:1047000068018091F1049091F204019771F0309268
:10471000E1042092E00422E330E03093DF042093B0
:10472000DE04309249012092480180914801909125
:104730004901029741F460E080E00E94C10B85EBE3
:1047400091E00E94F50B80914A0190914B010497F2
:1047500009F005C18091DC049091DD04892B09F0FA
:1047600040C08091F1049091F204019791F48BE0A4
:1047700090E090934304809342041093410400938B
:10478000400480916D0190916E0190934504809357
:104790004404809144049091450490936E01809369
:1047A0006D016DE073E08EEC96E00E94CA0C809182
:1047B0006D0190916E010B9734F46EEF72E08EEC08
:1047C00096E00E94CA0C60916D0170916E0161507B
:1047D00071098EEC96E00E946A0C70921B05609243
:1047E0001A058091DC049091DD04019709F059C00D
:1047F0008091F1049091F204019791F462E370E0EA
:104800007093430460934204109241041092400458
:1048100080910B0190910C01909345048093440486
:104820006DE073E08EEC96E00E94CA0C8091440427
:10483000909145040A9734F46EEF72E08EEC96E0A6
:104840000E94CA0C60914404709145048EEC96E07D
:104850000E946A0CE0904404F090450480910B01A2
:1048600090910C01E816F906C1F0F0920C01E0926B
:104870000B018091090190910A01019771F461E0A7
:104880008CE00E94C10B6FE073E0EF2811F063E150
:1048900073E08EEC96E00E94CA0C70921B05609249
:1048A0001A058091DC049091DD040297D9F580917E
:1048B000F1049091F20481309105D1F49093430476
:1048C00080934204109241041092400480910B01A5
:1048D00090910C01892B21F410920A011092090188
:1048E0008091090190910A019093450480934404BA
:1048F000809144049091450490930A0180930901AA
:1049000063E173E0019711F06FE073E08EEC96E0E5
:104910000E94CA0C70921B0560921A0530923B04EB
:1049200020923A0485E00E949102892B51F48091F3
:104930000B0190910C01892B21F410920A01109225
:1049400009018091480190914901029741F460E08A
:1049500080E00E94C10B88E991E00E94F50B609114
:104960004A0170914B016530710509F00DC18091CC
:10497000DC049091DD042091E0043091E104232BCC
:1049800009F086C7892B09F043C08091F10490910A
:10499000F20481309105B1F4A6E4B0E0B093430491
:1049A000A0934204909341048093400480910701B6
:1049B0009091080164E170E00E940738709345040B
:1049C00060934404809144049091450444E1489FDD
:1049D0009001499F300D1124309308012093070165
:1049E00030931705209316050A9734F46EEF72E0A2
:1049F0008EEC96E00E94CA0C6091440470914504CC
:104A00008EEC96E00E946A0C10931B0500931A0529
:104A10008091DC049091DD04019709F043C08091FE
:104A2000F1049091F20481309105B1F427E330E074
:104A300030934304209342049093410480934004B4
:104A400080916A0190916B0164E170E00E940738E7
:104A5000709345046093440480914404909145040C
:104A600044E1489F9001499F300D112430936B0120
:104A700020936A0130936F0520936E050A9734F4F2
:104A80006EEF72E08EEC96E00E94CA0C60914404D6
:104A9000709145048EEC96E00E946A0C10931B0501
:104AA00000931A058091DC049091DD04029709F0CF
:104AB0003FC08091F1049091F20481309105B1F4EE
:104AC00029E130E030934304209342049093410461
:104AD0008093400480915E0190915F0168EC70E0EA
:104AE0000E94073870934504609344048091440405
:104AF0009091450448EC489F9001499F300D112446
:104B000030935F0120935E010A9734F46EEF72E0F8
:104B10008EEC96E00E94CA0C6091440470914504AA
:104B20008EEC96E00E946A0C10931B0500931A0508
:104B30008091DC049091DD040397C1F41092690127
:104B4000109268018091F1049091F204019771F044
:104B50003092E1042092E004E2E3F0E0F093DF041D
:104B6000E093DE043092490120924801809148018F
:104B700090914901029741F460E080E00E94C10BEE
:104B800088E891E00E94F50B80914A0190914B01D9
:104B9000069709F045C08091DC049091DD042091D6
:104BA000F1043091F204880F991F2130310589F406
:104BB0009092430480924204B0924104A092400437
:104BC000FC01EB50FB4F2081318130934504209351
:104BD000440460914404709145048B509B4FDC0168
:104BE0006D937C93161617060CF0D9C68EEC96E0E2
:104BF0000E946A0C30921B0520921A0530923B04E9
:104C000020923A048091480190914901029741F421
:104C100061E081E00E94C10B83E791E00E94F50B07
:104C200080914A0190914B01079709F09FC280E75C
:104C300095E00E94DD08809148019091490102971A
:104C4000B1F58091740590E0909317048093160459
:104C50008091750590E090931504809314048091E1
:104C6000760590E09093130480931204809173056D
:104C700090E090931104809310048091720590E06D
:104C800090930F0480930E048091700590917105AC
:104C900090930D0480930C04109208041092090460
:104CA00010920A0410920B0481E080930704809113
:104CB000DC049091DD04892B81F58091F1049091C1
:104CC000F204019791F487E190E09093430480937C
:104CD0004204109241041092400480911604909175
:104CE0001704909345048093440480914404909168
:104CF000450490931704809316040A9734F470E0E7
:104D000060E08EEC96E00E946A0C60914404709121
:104D100045048EEC96E00E946A0C8091DC04909130
:104D2000DD04019781F58091F1049091F2040197DF
:104D300091F48BE390E090934304809342041092AB
:104D400041041092400480911404909115049093B2
:104D500045048093440480914404909145049093C9
:104D60001504809314040A9734F470E060E08EEC2C
:104D700096E00E946A0C60914404709145048EECA8
:104D800096E00E946A0C8091DC049091DD04029709
:104D900009F049C08091F1049091F204019791F4D7
:104DA0008BE390E09093430480934204109241047B
:104DB0001092400480910804909109049093450456
:104DC000809344046091440470914504072E000CC4
:104DD000880B990B609308047093090480930A046C
:104DE00090930B0420917605620F711D811D911D1A
:104DF0002CE330E040E050E00E943D387093130413
:104E0000609312046A30710534F470E060E08EEC57
:104E100096E00E946A0C60911204709113048EEC6B
:104E200096E00E946A0C8091DC049091DD04039767
:104E300009F041C0E090F104F090F204E1E0EE16D8
:104E4000F10409F580910E0490910F040E9401086D
:104E50009093430480934204F0924104E092400412
:104E600020911004309111048217930724F4909339
:104E70001104809310048091100490911104909378
:104E80004504809344048091440490914504909398
:104E90001104809310040A9734F470E060E08EEC03
:104EA00096E00E946A0C60914404709145048EEC77
:104EB00096E00E946A0C8091DC049091DD040497D6
:104EC00089F58091F1049091F2048130910591F47B
:104ED0002CE030E03093430420934204909341044B
:104EE0008093400480910E0490910F0490934504A8
:104EF00080934404809144049091450490930F045E
:104F000080930E040A9734F470E060E08EEC96E033
:104F10000E946A0C60914404709145048EEC96E006
:104F20000E946A0C10931B0500931A058091DC0403
:104F30009091DD04059771F58091F1049091F20450
:104F40000197A1F488EB9BE0909343048093420483
:104F500082EE97E0909341048093400480910C048A
:104F600090910D049093450480934404609144040F
:104F70007091450470930D0460930C048EEC96E0E0
:104F80000E946A0C90921B0580921A0530923B0495
:104F900020923A0485E00E949102892B09F0C1C059
:104FA000F0900E0490910F048F2D0E940108209123
:104FB0001004309111048217930724F49093110484
:104FC00080931004F0911204FA83209114042B832F
:104FD000309116043C83E0901004ED82F982C09079
:104FE0000C04D0900D0481E08093F90588E680934D
:104FF0001B061092FA0510921C0690E080E00E94B9
:105000005A078A816AE00E94E7378295807F682F7D
:10501000690F8CEB96E00E9412078B816AE00E9478
:10502000E7378295807F682F690F8CEB96E00E94AE
:1050300012078C816AE00E94E7378295807F682F93
:10504000690F8CEB96E00E94120781E090E04981A5
:10505000433010F090E080E09601281B390B6F2D53
:105060006150770BFB01E651FF4FE491E20EF32E06
:10507000F11CB9017695679576956795E60EF71E52
:10508000C90160E971E00E94F337E60EF71EC9011D
:1050900064E670E00E94F337E61AF70AC7018E0F44
:1050A000911D67E070E00E94F337682F811101C005
:1050B00067E08CEB96E00E9412079AE0F92E8D8152
:1050C0006F2D0E94E7378295807F682F690F8CEBE8
:1050D00096E00E94120789816F2D0E94E737829522
:1050E000807F682F690F8CEB96E00E94120780E3A7
:1050F0008C0D6F2D0E94E7378295807F682F690F96
:105100008CEB96E00E94120790E080E00E945A0724
:105110000E940C0580E795E00E94DD08C6010E9410
:1051200034088091480190914901029709F048C4E0
:1051300060E086E00E94C10B67EA72E08EEC96E0C8
:105140000E94CA0C60E089E00E94C10B67EA72E02D
:105150008EEC96E00E94CA0C61E087E00E94C10BD1
:1051600069E173E08EEC96E00E94CA0C80914A01DE
:1051700090914B01089709F0B2C08091DC049091A6
:10518000DD042091E0043091E104232B09F0A1C457
:10519000892B19F58091F1049091F204019761F443
:1051A0001092410410924004109243041092420461
:1051B000109245041092440465E073E08EEC96E092
:1051C0000E94CA0C50921B0540921A0585E00E946D
:1051D0009102892B11F40E9402108091DC049091BD
:1051E000DD04019719F58091F1049091F204019783
:1051F00061F4109241041092400410924304109202
:105200004204109245041092440465E073E08EEC71
:1052100096E00E94CA0C50921B0540921A0585E048
:105220000E949102892B11F40E947F118091DC046D
:105230009091DD040297E1F48091F1049091F204E1
:10524000019761F4109241041092400410924304BB
:1052500010924204109245041092440467E173E0F6
:105260008EEC96E00E94CA0C30921B0520921A0523
:105270008091DC049091DD040397C1F410926901E0
:10528000109268018091F1049091F204019771F0FD
:105290003092E1042092E004A2E3B0E0B093DF0496
:1052A000A093DE0430924901209248018091480188
:1052B00090914901029799F460E080E00E94C10B4F
:1052C0008BE691E00E94F50B809105049091060415
:1052D000892B09F0FBC383E691E00E94F50B8091D6
:1052E0004A0190914B01099709F08DC08091DC042F
:1052F0009091DD04892B69F58091F1049091F2047D
:105300008130910581F410924104109240049093F1
:1053100043048093420480916B0590916C059093B7
:1053200045048093440480914404909145049093F3
:105330006C0580936B056FE173E0019711F06BE1F1
:1053400073E08EEC96E00E94CA0C70921B0560928E
:105350001A058091DC049091DD04019709F045C0A5
:105360008091F1049091F2040197A1F4109241040C
:105370001092400470924304609242048091600154
:105380009091610123E030E0281B390B30934504F4
:1053900020934404809144049091450443E050E0FC
:1053A000481B590BCA0150936101409360016BE1A6
:1053B00073E0892B91F06DE073E08EEC96E00E9433
:1053C000CA0C60914404709145046F5F7F4F8EEC6E
:1053D00096E00E946A0C6DE073E08EEC96E00E940D
:1053E000CA0C70921B0560921A0580914801909139
:1053F0004901029741F460E080E00E94C10B83E420
:1054000091E00E94F50B80914A0190914B010A971F
:1054100009F072C08091DC049091DD04892BF1F4D5
:105420008091F1049091F204019761F4109241048B
:1054300010924004109243041092420410924504CA
:105440001092440463E273E08EEC96E00E94CA0C72
:1054500067E070E070931B0560931A058091DC048F
:105460009091DD040197E1F48091F1049091F204B0
:10547000019761F410924104109240041092430489
:105480001092420410924504109244046BE273E0BF
:105490008EEC96E00E94CA0C50921B0540921A05B1
:1054A00085E00E949102892BC9F48091DC049091DF
:1054B000DD04892B99F40E94180B30924901209247
:1054C000480150924B0140924A01109206051093F8
:1054D00067010093660181E0809307058091480190
:1054E00090914901029741F460E081E00E94C10B74
:1054F00083E391E00E94F50B8091F1049091F20416
:10550000019769F480914801909149011816190694
:1055100034F480914404909145040E94A40C80913D
:105520000805882391F080913A0490913B040197FB
:1055300051F464E670E080E090E00E947304109201
:105540003B0410923A041092080585E00E949102F3
:10555000892B09F043C08091480190914901892B22
:10556000E9F51092DF041092DE04109269011092A6
:1055700068018091050490910604892B49F40E94EA
:10558000AC071816190624F430920604209205047C
:105590000E94AC072091010130910201821793070C
:1055A000ECF012161306D4F40E94180B60E085E0AC
:1055B0000E94C10B8CE291E00E94F50B61E084E057
:1055C0000E94C10B83E291E00E94F50B0E947F11C3
:1055D00064EF71E080E090E00E9473048091DE044B
:1055E0009091DF0401979093DF048093DE040C9484
:1055F000B51D83E00E949102892B09F06EC881E0FD
:105600000E94040D1092E6041092E5048091E504D6
:105610009091E604843691059CF480E00E94040D8C
:1056200061E070E080E090E00E9473048091E50406
:105630009091E60401969093E6048093E504E6CF0A
:105640008091180490911904209138043091390404
:105650002817390724F49093390480933804609113
:10566000640170916501861B970B2091380430917D
:10567000390437FF02C02F5F3F4F359527952E5FC6
:105680003F4F8217930708F421C82091DE04309120
:10569000DF042830310509F019C89B012F5F3F4F07
:1056A00030936301209362011092DF041092DE04B4
:1056B00020910F0130911001E8E1F4E050E040E06A
:1056C0004D30510519F02A30310521F13093100188
:1056D00020930F0190937B0180937A019C0197FFA7
:1056E00002C02F5F3F4F35952795820F931F01967C
:1056F00090930E0180930D0144E650E060E070E06D
:1057000083E992E00E9424031092DF041092DE04E9
:105710000C946623A191B1916A177B0719F49A0141
:105720002E5F3F4F4F5F5F4FCBCF892BF1F58091BD
:10573000F1049091F204019791F4109241041092B7
:1057400040048FE090E09093430480934204809162
:105750000F0190911001909345048093440480912F
:105760004404909145049093100180930F016DE0E3
:1057700073E08EEC96E00E94CA0C809144049091F4
:1057800045040A9734F46EEF72E08EEC96E00E94C6
:10579000CA0C60910F01709110018EEC96E00E948E
:1057A0006A0C70921B0560921A058091DC0490913E
:1057B000DD040197F1F58091F1049091F2040197D5
:1057C00091F4109241041092400484E190E090938F
:1057D00043048093420480910D0190910E019093B7
:1057E000450480934404809144049091450490932F
:1057F0000E0180930D016CE073E08EEC96E00E9448
:10580000CA0C80914404909145040A9734F46EEFD9
:1058100072E08EEC96E00E94CA0C60910D017091CE
:105820000E018EEC96E00E946A0C90921B0580920D
:105830001A058091DC049091DD0402970297C0F470
:1058400010926901109268018091F1049091F20424
:10585000019771F01092E1041092E00442E350E0ED
:105860005093DF044093DE043092490120924801B6
:105870008091480190914901029711F00C94A32363
:1058800060E080E00E94C10B89EA91E00C94A123C2
:10589000892B09F050C08091F1049091F204019796
:1058A000A1F484E190E09093430480934204109229
:1058B00041041092400480910501909106010E94DC
:1058C0000738709345046093440480914404909198
:1058D0004504009709F45EC045E0489F9001499F48
:1058E000300D1124309306012093050180910501AC
:1058F000909106018436910594F46EEF72E08EEC7F
:1059000096E00E94CA0C80910501909106010A97C9
:1059100034F46EEF72E08EEC96E00E94CA0C609157
:105920000501709106018EEC96E00E946A0C70925F
:105930001B0560921A058091DC049091DD048D7F37
:1059400081309105C9F4109269011092680120918B
:10595000F1043091F2042130310571F01092E1042C
:105960001092E00422E330E03093DF042093DE0461
:105970009093490180934801809148019091490199
:10598000029709F001C960E080E00E94C10B81E844
:1059900091E0F8C83092060120920501A7CF611569
:1059A000710539F467E173E08EEC96E00E94CA0C51
:1059B00021C96F3F7F4F09F01DC960E473E0F4CF48
:1059C000E090DC04F090DD0472E0E716F104C1F031
:1059D00020917605609108047091090480910A0471
:1059E00090910B04620F711D811D911D2CE330E01D
:1059F00040E050E00E943D3870931304609312041D
:105A00008091120490911304892B09F479C781E0E5
:105A1000809307048091DC049091DD04029709F4DF
:105A2000A5CB60E08AE00E94C10B809112049091A6
:105A300013040A9734F470E060E08EEC96E00E9464
:105A40006A0C60911204709113048EEC96E00E942F
:105A50006A0C8CCB109215041092140480911604D9
:105A60009091170401968831910509F190931704DC
:105A700080931604C0901604D0901704EF28E1F02C
:105A800060E084E00E94C10B8AE0C816D10434F4BF
:105A900070E060E08EEC96E00E946A0C6091160463
:105AA000709117048EEC96E00E946A0C3DC710922C
:105AB000170410921604DECFD0924504C09244041D
:105AC00033C7F0924504E0924404A4CF8CE591E002
:105AD00004CC892B61F58091F1049091F20481301E
