:100000000C9405010C942D010C942D010C942D01E0
:100010000C942D010C942D010C94CD130C94A91269
:100020000C942D010C942D010C942D010C942D0198
:100030000C942D010C942D010C942D010C942D0188
:100040000C9483130C942D010C9451130C942B13CA
:100050000C942D010C942D010C942D010C942D0168
:100060000C94D7130C942D010000000024002700ED
:100070002A000000000023002600290000000008DC
:10008000000201000003040700000000000000005F
:100090000003020500030501040602044F676E69B0
:1000A0002067696F726E6F2000556E6120766F6CED
:1000B000746120004175746F6D617469636F200015
:1000C000537665676C69612000657365677569744F
:1000D0006F004261636B757000436F7361207675CA
:1000E0006F6920666172653F0047696F726E6920B3
:1000F00053742E62790043686965646920417574A0
:100100006F004261636B75700044656661756C7465
:1001100000526970722E2020004C204D204D204747
:100120002056205320440052656174742E004C43C5
:10013000442053742E627920536C656570005374AB
:100140006F7020496E762E2053656D707265004C7D
:10015000756E672E20546F6C6C2E004C7563652095
:100160004275696F2043616C2E20007472612E2EDF
:100170002E200043616C696272617A696F6E65005E
:10018000412E492E004261636B75700044617461B9
:100190002F4F72610047696F726E6900426174741B
:1001A00065726961004F6E2F4F6666004C7563651E
:1001B00000416C6C61726D6500496D706F737461A4
:1001C0007A696F6E69000102040810204080010204
:1001D000040810200102040810200000000025007F
:1001E00028002B0004040404040404040202020294
:1001F0000202030303030303021F1C1F1E1F1E1F13
:100200001F1E1F1E1F00F614623311241FBECFEFE6
:10021000D8E0DEBFCDBF26E0A4E6B3E001C01D926A
:10022000A03BB207E1F713E0A0E0B1E0E8E9FCE6AB
:1002300002C005900D92A436B107D9F711E0C4E0D1
:10024000D1E004C02197FE010E944734C330D1079A
:10025000C9F70E94AE150C943F360C9400008091B3
:10026000650590916605891B990B08950895089579
:10027000AF92BF92CF92DF92EF92FF920F931F93B4
:10028000CF93DF936C017B018B01040F151FEB01F2
:100290005E01AE18BF08C017D10759F06991D601A9
:1002A000ED91FC910190F081E02DC6010995892B1B
:1002B00079F7C501DF91CF911F910F91FF90EF90DA
:1002C000DF90CF90BF90AF900895FC01538D448D87
:1002D000252F30E0842F90E0821B930B541710F0F1
:1002E000CF96089501970895FC01918D828D9817FE
:1002F00061F0A28DAE0FBF2FB11D5D968C91928DD6
:100300009F5F9F73928F90E008958FEF9FEF089506
:10031000FC01918D828D981731F0828DE80FF11DCF
:10032000858D90E008958FEF9FEF0895FC01918DEA
:10033000228D892F90E0805C9F4F821B91098F73E3
:100340009927089583EE95E00E94960121E0892B7C
:1003500009F420E0822F0895FC01A48DA80FB92F85
:10036000B11DA35ABF4F2C91848D90E001968F73DD
:100370009927848FA689B7892C93A089B1898C91FC
:10038000837080648C93938D848D981306C002884B
:10039000F389E02D80818F7D80830895EF92FF9215
:1003A0000F931F93CF93DF93EC0181E0888F9B8D98
:1003B0008C8D98131AC0E889F989808185FF15C052
:1003C0009FB7F894EE89FF896083E889F989808175
:1003D0008370806480839FBF81E090E0DF91CF9144
:1003E0001F910F91FF90EF900895F62E0B8D10E066
:1003F0000F5F1F4F0F731127E02E8C8D8E110CC0D5
:100400000FB607FCFACFE889F989808185FFF5CF1F
:10041000CE010E94AC01F1CFEB8DEC0FFD2FF11D51
:10042000E35AFF4FF0829FB7F8940B8FEA89FB895C
:1004300080818062CFCFCF93DF93EC01888D8823BA
:10044000B9F0AA89BB89E889F9898C9185FD03C037
:10045000808186FD0DC00FB607FCF7CF8C9185FF1C
:10046000F2CF808185FFEDCFCE010E94AC01E9CFB4
:10047000DF91CF910895833081F028F4813099F095
:100480008230A9F008958730A9F08830C9F084300F
:10049000B1F4809180008F7D03C0809180008F77C0
:1004A00080938000089584B58F7784BD089584B5C6
:1004B0008F7DFBCF8091B0008F778093B00008953F
:1004C0008091B0008F7DF9CFCF93DF93282F30E05C
:1004D000F901E458FF4F8491F901EA53FE4FD4919A
:1004E000F901EC51FE4FC491CC23A1F081110E947F
:1004F0003B02EC2FF0E0EE0FFF1FEE58FF4FA591EF
:10050000B491EC91ED2381E090E009F480E0DF917B
:10051000CF91089580E090E0FACF1F93CF93DF93BF
:10052000282F30E0F901E458FF4F8491F901EA5394
:10053000FE4FD491F901EC51FE4FC491CC23A9F0A8
:10054000162F81110E943B02EC2FF0E0EE0FFF1FEF
:10055000E652FE4FA591B4918FB7F894EC9111112A
:1005600008C0D095DE23DC938FBFDF91CF911F9120
:100570000895DE2BF8CFCF93DF9390E0FC01EA5390
:10058000FE4F24918C519E4FFC0184918823C9F029
:1005900090E0880F991FFC01E859FF4FA591B49195
:1005A000FC01E652FE4FC591D49161110DC09FB779
:1005B000F8948C91209582238C938881282328831A
:1005C0009FBFDF91CF910895623051F49FB7F894A7
:1005D0003C91822F809583238C93E8812E2BEFCF43
:1005E0008FB7F894EC912E2B2C938FBFEACF8F927C
:1005F0009F92AF92BF92CF92DF92EF92FF920F93B2
:100600001F93CF938C016A017B0180917501843027
:1006100071F08F3FA1F1CF911F910F91FF90EF905B
:10062000DF90CF90BF90AF909F908F900895E8EFAC
:10063000F1E0C491C7FDEFCF61E084E00E94BB020E
:10064000CC2319F0C23009F089C0980150E040E095
:1006500068E478EE81E090E00E94283449015A0174
:1006600081E0881A9108A108B108CC2309F4D2C00E
:100670008091B100887F84608093B10087C084E05E
:1006800080937501E8EFF1E0C491CF3F09F4C3CF47
:10069000C13021F150F0C23009F43EC0C7FDBBCFDC
:1006A00061E084E00E94BB02CDCF14BC15BC84B5D0
:1006B000826084BD85B5816085BDE8EEF1E0E4919E
:1006C000F0E0EE0FFF1FE652FE4F85919491EAECA9
:1006D000F1E0E491E0934A05C0E0AECF10928000D3
:1006E00010928100809181008860809381008091C8
:1006F0008100816080938100E8EEF1E0E491F0E018
:10070000EE0FFF1FE652FE4F85919491EAECF1E067
:10071000E491E093490590CF1092B0001092B1009F
:100720008091B00082608093B0008091B1008160C0
:100730008093B100E8EEF1E0E491F0E0EE0FFF1FEE
:10074000E652FE4F8591949190934805809347051A
:10075000EAECF1E0E491E09346056ECF980150E0B9
:1007600040E060E072E18AE790E00E9428344901AD
:100770005A0181E0881A9108A108B108C13031F40A
:1007800080918100887F816080938100D801AA0FC9
:10079000BB1FA70196010E94813328EE33E040E0A1
:1007A00050E00E940634C13099F0C23019F1C111F5
:1007B00032CF87BC209353053093540540935505A1
:1007C0005093560580916E00826080936E0023CF17
:1007D000909289008092880020934F0530935005B5
:1007E000409351055093520580916F008260809331
:1007F0006F0011CF8092B30020934B0530934C05CE
:1008000040934D0550934E05809170008260809317
:10081000700001CF85B5887F836085BDB7CF8E50CE
:10082000806480937C0080917A00806480937A0059
:1008300080917A0086FDFCCF8091780090917900BC
:1008400008953FB7F8948091AE039091AF03A091C3
:10085000B003B091B10326B5A89B05C02F3F19F096
:100860000196A11DB11D3FBFBA2FA92F982F882730
:10087000BC01CD01620F711D811D911D42E0660F0B
:10088000771F881F991F4A95D1F708958F929F92DD
:10089000AF92BF92CF92DF92EF92FF926B017C01F9
:1008A0000E9421044B015C01C114D104E104F10454
:1008B000B9F00E942104681979098A099B09683EE8
:1008C00073408105910580F321E0C21AD108E10847
:1008D000F10888EE880E83E0981EA11CB11CE4CFBD
:1008E000FF90EF90DF90CF90BF90AF909F908F9050
:1008F000089520918A03260F3327331F21323105B3
:10090000ECF42091B905FC0190E080E0243069F01E
:1009100082E00895A0918A032191AC0146595C4F71
:10092000A40FB52FB11D2C930196861798F38091D3
:100930008A03680F60938A0380E0089581E0089538
:100940001092B90581E08093B8051092930561E09B
:1009500082E10E948D0261E083E10E948D02E9EB59
:10096000F0E080818E7F808380818D7F808388E42A
:100970008093B80085E48093BC000895CF93DF9303
:1009800091E0909369038823B9F0C091B800D091A9
:10099000BA008091BC008A7B8093BC0060E082E159
:1009A0000E948D0260E083E10E948D020E94A004FB
:1009B000D093BA00C093B800DF91CF910895CF9241
:1009C000DF92EF92FF920F931F93CF93DF93D0911B
:1009D000E20581E0D13208F09CC0C091E1050E949F
:1009E00021046B017C018091B90581116CC082E00A
:1009F0008093B90581E08093B8058FEF8093B705A8
:100A00001092B605D093B505A1ECB5E0E5E9F5E0A7
:100A100080E0D8138DC01092940580919405CC0F7E
:100A2000C82BC093940580919305813009F084C050
:100A3000109293050E9421046B017C018091940522
:100A40008093BB008091BB059091BC05A091BD0532
:100A5000B091BE05892B8A2B8B2BA1F00E9421041B
:100A60000091BB051091BC052091BD053091BE05DC
:100A70006C197D098E099F09061717072807390782
:100A800008F442C08091BC0083FDD8CF85EC8093F0
:100A9000BC000E9421046B017C018091B905823069
:100AA00009F44CC08091B7058F3F09F469C080916B
:100AB000B705803209F466C08091B705803309F428
:100AC00063C084E026C08091BB059091BC05A091D5
:100AD000BD05B091BE05892B8A2B8B2B09F483CFE2
:100AE0000E9421040091BB051091BC052091BD0519
:100AF0003091BE056C197D098E099F0906171707ED
:100B00002807390708F06FCF8091BA050E94BE040C
:100B100085E01092C0051092E2051092BF05DF91AA
:100B2000CF911F910F91FF90EF90DF90CF9008959C
:100B30009D9191938F5F6DCF85EEA9CF8091BB057D
:100B40009091BC05A091BD05B091BE05892B8A2B63
:100B50008B2B09F4A2CF0E9421040091BB051091B8
:100B6000BC052091BD053091BE056C197D098E092B
:100B70009F09061717072807390708F08ECFC4CF3B
:100B800080E0C7CF82E0C5CF83E0C3CFCF92DF92B2
:100B9000EF92FF920F931F93CF93DF93D82FC62F1F
:100BA000613208F098C00E9421046B017C018091A1
:100BB000B90581116BC081E08093B9058093B805B8
:100BC0009FEF9093B7051092B6059C0F9093B505D3
:100BD0008093940580919405DD0FD82BD0939405D4
:100BE00080919305813009F078C0109293050E949E
:100BF00021046B017C01809194058093BB0080915E
:100C0000BB059091BC05A091BD05B091BE05892B97
:100C10008A2B8B2BA1F00E9421040091BB0510911F
:100C2000BC052091BD053091BE056C197D098E096A
:100C30009F09061717072807390708F448C080914D
:100C4000BC0083FDD8CF85EC8093BC000E942104BA
:100C50006B017C018091B905813009F440C080911D
:100C6000B6058C1710F4C091B605E5E9F5E0A7E6E6
:100C7000B5E080E08C1355C08C2FDF91CF911F9190
:100C80000F91FF90EF90DF90CF9008958091BB057A
:100C90009091BC05A091BD05B091BE05892B8A2B12
:100CA0008B2B09F484CF0E9421040091BB05109185
:100CB000BC052091BD053091BE056C197D098E09DA
:100CC0009F09061717072807390708F070CF80918A
:100CD000BA050E94BE04C0E0CFCF85EEB5CF8091AB
:100CE000BB059091BC05A091BD05B091BE05892BB7
:100CF0008A2B8B2B09F4AECF0E9421040091BB05F7
:100D00001091BC052091BD053091BE056C197D097F
:100D10008E099F09061717072807390708F09ACF89
:100D2000D6CF91919D938F5FA5CF0895E0916605F1
:100D300080916505E81730F4F0E0E959FA4F8081B9
:100D400090E008958FEF9FEF089590916605809150
:100D500065052FEF3FEF981748F4E92FF0E0E959C8
:100D6000FA4F208130E09F5F90936605C901089596
:100D7000CF92DF92EF92FF920F931F93CF93DF9367
:100D80007C01CB018A012091BF05222389F0EB0170
:100D90006B01C40ED51ECC15DD0569F06991D70134
:100DA000ED91FC910190F081E02DC7010995F3CF01
:100DB000642F0E947904C801DF91CF911F910F9198
:100DC000FF90EF90DF90CF900895CF93DF931F9225
:100DD000CDB7DEB769832091BF052223F9F02091BA
:100DE000E205203258F021E030E0FC013383228319
:100DF00090E080E00F90DF91CF9108958091C00541
:100E0000E82FF0E0EF53FA4F998190838F5F809342
:100E1000C0058093E20581E090E0ECCF61E0CE0177
:100E200001960E947904F7CFCF93C62F91E090935B
:100E3000BF0598E69093E1051092C0051092E20577
:100E4000682F82E896E00E94E5066C2F82E896E023
:100E50000E94E506CF910C94DF04682F82E896E0AB
:100E60000C94E506089590E080E0089580911D05BA
:100E700090911E05019667E070E00E94F233909316
:100E8000B4048093B304880F991FFC01E554FB4F11
:100E9000808191810197880F991FFC01EE0FFF1F40
:100EA000E45BFE4F2081318130935A052093590530
:100EB000880F991FFC01E25BFE4F80819181909326
:100EC000580580935705089581E10E940F0490937F
:100ED0006501809364019093680380936703E5EE56
:100EE000F3E024E0E530F20719F081939193F9CF14
:100EF00080E190E09093BA048093B9040895209122
:100F0000D1043091D20443E254E090E080E064E008
:100F1000433A5607A9F030E020E0F901EE0FFF1F39
:100F2000E40FF51F608171816130710509F401964C
:100F30002F5F3F4F2830310581F7405F5F4FE7CF8C
:100F40003093D2042093D10429E030E03093D404CC
:100F50002093D30408958091D1049091D204E3E1C9
:100F6000F4E024E0E339F207A1F011821082138249
:100F700012821582148217821682118610861386B9
:100F800012861586148617861686709688E090E07D
:100F9000E8CF9093D2048093D10488E090E09093BE
:100FA000D4048093D30408959C012D7F2130310512
:100FB00059F18530910541F19C01275031092230CA
:100FC000310510F18A309105F9F08C309105E1F08E
:100FD0000297E9F42091360530913705C9018370F5
:100FE0009927892B39F4C90164E670E00E94F23335
:100FF000892B81F4C90160E971E00E94F233892BE9
:1010000049F08CE190E008958FE190E008958EE141
:1010100090E008958DE190E0089580911101909104
:101020001201019761F480910001882341F08091C1
:101030006401909165019093630180936201109225
:1010400000018091E5039091E60390936501809300
:1010500064010895809107019091080190932605FD
:101060008093250580916A0190916B0190933505DD
:101070008093340584E690E0909369018093680141
:1010800080916001909161011816190624F4109264
:1010900023051092220561E082E00C948D02880FF6
:1010A000991FFC01EA54FC4F80819181892B81F4C6
:1010B00081E090E0918380838091AD049091AE04B3
:1010C00001969093AE048093AD0481E08093C403B5
:1010D0000895AF92BF92CF92DF92EF92FF920F935B
:1010E0001F93CF93DF93CDB7DEB72E970FB6F8944B
:1010F000DEBF0FBECDBF8C0181E08093BF0588E6C7
:101100008093E1051092C0051092E20590E080E026
:101110000E942D070E94DF0467E088E60E94C60552
:101120001092660580936505811101C0FFCF7E0195
:101130008FE0E80EF11CFE0131966F019AE0B92EA6
:1011400082E896E00E94A506982F92959F708F7076
:101150009B9D800D112490E0F701929382937F0173
:10116000CE16DF0669F70E94DF04A981BA81CD019E
:101170008053984F90938805809387053B813093E7
:1011800089056D817E8160938A052F8120938E056C
:10119000498540938B05EB84E0928C05FD84F092A9
:1011A0008D057727E9EFF1E021E0231730F4549122
:1011B000650F711D2F5F3196F8CF323039F49D01E4
:1011C00023703327232B11F46F5F7F4F9C012D5C1D
:1011D00037403695279536952795EDE6F1E0AE9F99
:1011E000C001AF9F900DBE9F900D1124280F391F95
:1011F00021503109260F371FA8E1B0E00E94C33308
:101200005B016C01A40EB11CC11CD11CA60195018F
:10121000ACE3B0E00E9481339B01AC012E0D311D87
:10122000411D511D0E9481336F0D711D811D911D46
:1012300060597A4C8249974C60938F057093900562
:1012400080939105909392058CE0E7E8F5E0D80152
:1012500001900D928A95E1F7C8012E960FB6F89489
:10126000DEBF0FBECDBFDF91CF911F910F91FF90D9
:10127000EF90DF90CF90BF90AF900895CF9391E023
:101280009093BF0598E69093E1051092C0051092E7
:10129000E205682F82E896E00E94E5060E94DF04DE
:1012A00061E088E60E94C605109266058093650598
:1012B000811101C0FFCF82E896E00E94A506C82FE9
:1012C0000E94DF048C2FCF9108958FE00E943E0989
:1012D000682F6E7F8FE00C941407CF93C82F8EE099
:1012E0000E943E09682FCC2329F061608EE0CF91E7
:1012F0000C9414076E7FFACF1F93CF93DF93382F90
:10130000562F842F2AE0622F0E94D2338295807F4D
:10131000182F190F852F0E94D2338295807FD82FE6
:10132000D90F832F0E94D2338295807FC82FC90F97
:1013300081E08093BF0588E68093E1051092C005A7
:101340001092E20587E090E00E942D07612F6F77F1
:1013500082E896E00E94E5066D2F6F7782E896E0BE
:101360000E94E5066C2F6F7782E896E00E94E50602
:1013700060E882E896E00E94E5060E94DF0481E0D2
:101380000E946D09DF91CF911F910C946509FF9226
:101390000F931F93CF93DF93F82EC0917801D091D4
:1013A00079010091760110917701209761F501157F
:1013B000110549F587E090E09093640580936305FB
:1013C00080E00E946D090E94650940916305602FCD
:1013D0008C2F0E947C09FF2081F0109262051092F0
:1013E00061051092600510925F0510925E051092E3
:1013F0005D0510925C0510925B05DF91CF911F9106
:101400000F91FF9008951092640510926305D8CF54
:10141000CF93DF93EC0160E08E810E948D0261E04A
:101420008E810E948D0260E08E810E948D028BE889
:1014300091E00197F1F7DF91CF910895CF92DF927C
:10144000EF92FF920F931F93CF93DF936C017C0178
:1014500087E0E80EF11CD0E0C0E0062F10E0B801F4
:101460000C2E02C0759567950A94E2F76170F7013A
:1014700081917F010E948D022196C430D10579F7B8
:10148000C601DF91CF911F910F91FF90EF90DF90F8
:10149000CF900C94080ACF92DF92EF92FF920F93B5
:1014A0001F93CF93DF93EC01F62E642F8C810E9463
:1014B0008D028D818F3F19F060E00E948D020F2D0B
:1014C00010E08F8584FF25C06E0187E0C80ED11C17
:1014D000F12CE12CB8010E2C02C0759567950A9489
:1014E000E2F76170F60181916F010E948D02FFEFBA
:1014F000EF1AFF0A88E0E816F10461F7CE01DF91E8
:10150000CF911F910F91FF90EF90DF90CF900C94AF
:10151000080AB80184E0759567958A95E1F7CE01D0
:101520000E941E0A6F2DCE01DF91CF911F910F9166
:10153000FF90EF90DF90CF900C941E0A40E0682F50
:1015400084E996E00C944B0A81E00E949E0A8BE3AA
:101550009FE10197F1F70895CF93DF93823029F44B
:101560009091A30698609093A3068093A70610928B
:10157000A80680E48093A90680E18093AA0680E50E
:101580008093AB0661E0809198060E94BB02809137
:1015900099068F3F19F061E00E94BB0261E08091E3
:1015A0009A060E94BB02C4E9D6E09E012459364047
:1015B0008091A30684FD0BC084E090E0219628175B
:1015C000390744F461E08E810E94BB02EECF88E0CF
:1015D00090E0F4CF8BE39DE00197F1F760E080911C
:1015E00098060E948D0260E080919A060E948D020A
:1015F000809199068F3F19F060E00E948D028091E2
:10160000A30684FD34C063E084E996E00E941E0ACC
:10161000CBE4D6E4CE010197F1F763E084E996E0EC
:101620000E941E0A2197F1F763E084E996E00E9488
:101630001E0A83E592E00197F1F762E084E996E003
:101640000E941E0A8091A30680620E949E0A84E086
:101650008093A4068CE00E949E0A0E94A40A82E065
:101660008093A50686E0DF91CF910C949E0A80625C
:101670000E949E0A8BE496E40197F1F78091A306FD
:1016800080620E949E0A83E592E00197F1F78091C3
:10169000A30680620E949E0AD5CF643008F063E002
:1016A0009091A706691710F06FEF690FE62FF0E031
:1016B000EC56F94F9489890F80680C949E0A41E09A
:1016C0000E944B0A81E090E008950F931F93CF93FF
:1016D000DF938B0128E0829FC001112480640E9467
:1016E0009E0AE801085F1F4F699184E996E00E9415
:1016F0005F0BC017D107C1F7DF91CF911F910F91F9
:1017000008950F931F93CF93DF938C01D0E0C0E037
:10171000F801EC0FFD1F6491662339F041E084E984
:1017200096E00E944B0A2196F3CFCE01DF91CF9134
:101730001F910F910895FB0101900020E9F7319767
:10174000AF01461B570BDC01ED91FC910280F38148
:10175000E02D09948F929F92AF92BF92EF92FF92E9
:101760000F931F93CF93DF93CDB7DEB7A1970FB63B
:10177000F894DEBF0FBECDBF7C01FA01CB0119A2E8
:10178000223008F42AE08E010F5D1F4F822E912C2B
:10179000B12CA12CBF01A50194010E940634F901CE
:1017A000CA016A300CF5605DD8016E938D01232B60
:1017B000242B252B79F790E080E0109721F0BD01D4
:1017C000C7010E949B0BA1960FB6F894DEBF0FBE17
:1017D000CDBFDF91CF911F910F91FF90EF90BF9000
:1017E000AF909F908F900895695CDECFCF92DF928B
:1017F000EF92FF920F931F93CF93DF936B01770FBD
:10180000EE08FF08F7FE1FC0EC01E881F9810190A6
:10181000F081E02D6DE209958C0144275527BA012E
:101820004C195D096E097F092AE0CE010E94AA0BBE
:10183000800F911FDF91CF911F910F91FF90EF903B
:10184000DF90CF9008952AE0B701A601DF91CF91F4
:101850001F910F91FF90EF90DF90CF900C94AA0B07
:10186000CF93DF93C0916703D0916803882309F475
:101870009AC080910F0190911001FC01EE0FFF1FA3
:10188000EB51FC4F97FD07C02081318133832283C8
:1018900001973297F7CF9093BA048093B904D0930D
:1018A000E603C093E503809125059091260565E048
:1018B00070E00E94F233892B09F561E08CE00E9410
:1018C0004D0BC436D10594F470E060E084E996E0F5
:1018D0000E94F60B80916703909168030A9734F495
:1018E00070E060E084E996E00E94F60B6091670387
:1018F0007091680384E996E00E94F60B8091E503FD
:101900009091E6032091640130916501AC01421B86
:10191000530B509366034093650382179307C0F4FB
:10192000909365018093640110926803109267039D
:1019300081E0409165035091660320917A013091D6
:101940007B01241735070CF080E0DF91CF910895DB
:1019500080910F0190911001FC01EE0FFF1FE951E2
:10196000FC4F4081518124173507F1F6E5EEF3E095
:1019700050E040E0481759074CF4619171916217AB
:10198000730708F49B014F5F5F4FF4CF30936501FD
:101990002093640197FF02C090E080E09093BA0426
:1019A0008093B904C1CF81E10E940F04C817D90701
:1019B0000CF0BECF81E10E940F04909368038093E6
:1019C00067032091640130916501821B930B909312
:1019D000660380936503ACCF9F92AF92BF92CF9284
:1019E000DF92EF92FF920F931F93CF93DF9382309A
:1019F000910509F0A0C08091680190916901609102
:101A00000501709106010E94F2337093C303609345
:101A1000C203C1E08091C2039091C30397FDF0C05F
:101A200083E00E946402892B09F0EAC060910501FD
:101A300070910601072E000C880B990B0E9446043A
:101A40008FE00E943E0980FF0AC00E9465098091D4
:101A5000730190917401019711F4C093330583EEE3
:101A600095E00E9474018337910581F4C09333059A
:101A700080913A0590E0909379018093780180916C
:101A80003B0590E0909377018093760186E00E9479
:101A90006402892BA1F48091250590912605892B5C
:101AA00071F41092C3031092C2038091C20390910B
:101AB000C30301979093C3038093C203ABCF80E02D
:101AC0000E94300C882359F020912B0530912C0571
:101AD00080916D0190916E018217930714F78FB773
:101AE000F8944091BE035091BF036091C003709180
:101AF000C1038FBF8091420590914305A091440599
:101B0000B0914505481B590B6A0B7B0B809168010E
:101B1000909169012091050130910601821B930B80
:101B2000092E000CAA0BBB0B84179507A607B70755
:101B300008F4B7CFBACF039709F062C0809168016B
:101B4000909169019093C3038093C2038CE9E82EBE
:101B5000FF24FA9494E6C92ED12C99249394809171
:101B6000C2039091C303181619060CF049C08FE008
:101B70000E940F04B7010E94F2338B015B018AE0DF
:101B8000A80EB11CB0924701A09246018EE00E94BF
:101B90000F04B6010E94F233EB017093450160938C
:101BA000440161E070E080E090E00E944604809192
:101BB00017018823E1F00A5F1F4F0330110570F011
:101BC0001092C3031092C2038091C2039091C30389
:101BD00001979093C3038093C203C1CF24972397A7
:101BE00078F785E00E946402892B51F3EDCF2597A9
:101BF00059F785E0A816B10439F790921701E4CFA0
:101C0000DF91CF911F910F91FF90EF90DF90CF90D8
:101C1000BF90AF909F9008956115710511F00C94DD
:101C20009B0B90E080E008950F931F93CF93DF9379
:101C30000091780110917901C0917601D0917701DE
:101C40000A30110534F470E060E084E996E00E9407
:101C5000F60BB80184E996E00E94F60B64EA72E0A4
:101C600084E996E00E940C0ECA30D10534F470E08D
:101C700060E084E996E00E94F60BBE0184E996E0FC
:101C8000DF91CF911F910F910C94F60B61E084E0EE
:101C90000E944D0BE0911D05F0911E05EE0FFF1FF8
:101CA000EE56FE4F6081718184E996E00E940C0E31
:101CB0006AEA72E084E996E00E940C0E8091390590
:101CC0008A3030F470E060E084E996E00E94F60B20
:101CD0004091390550E070E060E02AE084E996E048
:101CE0000C94AA0B60E084E00E944D0B80913A05B1
:101CF0008A3030F470E060E084E996E00E94F60BF0
:101D000040913A0550E070E060E02AE084E996E016
:101D10000E94AA0B64EA72E084E996E00E940C0E2D
:101D200080913B058A3030F470E060E084E996E011
:101D30000E94F60B40913B0550E070E060E02AE025
:101D400084E996E00E94AA0B64EA72E084E996E0D6
:101D50000E940C0E80913C058A3030F470E060E007
:101D600084E996E00E94F60B40913C0550E070E05B
:101D700060E02AE084E996E00C94AA0BCF93DF930D
:101D80001092B804E6EBF3E030E020E0E901419185
:101D900051912F5F3F4F452BC9F3D093BA04C093A5
:101DA000B904811110C0FE01EE0FFF1FEA54FC4F71
:101DB000118210828091AD049091AE0401979093AE
:101DC000AE048093AD0460E083E00E944D0BCC0F25
:101DD000DD1FCC0FDD1FCE57DE4F6881798184E98E
:101DE00096E00E940C0E61E083E00E944D0BE091B2
:101DF000B904F091BA04EE0FFF1FEE0FFF1FEE576C
:101E0000FE4F6281738184E996E0DF91CF910C945B
:101E10000C0ECF93DF93EC0180918E0690918F068C
:101E2000009759F020919006309191062C173D07AC
:101E300020F081E0DF91CF910895BE016F5F7F4F69
:101E40000E947235009789F090938F0680938E06DA
:101E5000D0939106C09390062091920630919306FC
:101E6000232B39F7FC011082E4CF80E0E3CFFF920F
:101E70000F931F93CF93DF9300D0CDB7DEB7FF242E
:101E8000F39483EE95E00E949601892B51F183EE45
:101E900095E00E9474018A3019F4F0923305F1CF75
:101EA00089831A8200919206109193060F5F1F4F4B
:101EB000C8010E94090F882321F320918E063091DA
:101EC0008F068091920690919306BE016F5F7F4FBF
:101ED000820F931F0E943836109393060093920648
:101EE000D0CF0F900F90DF91CF911F910F91FF9066
:101EF00008950E94A20181110C94370F08959F92BA
:101F0000AF92BF92CF92DF92EF92FF920F931F9307
:101F1000CF93DF9310E000E0B7E0EB2EF12CC7E0A9
:101F2000CC2ED5E0BD2EAA24A39488EC982E94E163
:101F3000D92EC8010E946B33282F30E0F801319769
:101F4000E734F10508F04BC0E855F04F0C944734E6
:101F500026102B102B102B102B102B102B102B10AE
:101F60002B102B1033103B1047104F1054105910EA
:101F70005E10611069106E106E106E106E106E1093
:101F80006E106E1076107B10801087108C109110E0
:101F9000A110A110A110A110A110A110A110A110B9
:101FA000A110A110A110A110A110A110A110A110A9
:101FB000A110A110A110A110A110A110A110A11099
:101FC000A110A110A110A110A110A110A110A11089
:101FD000A110A110A110C810CD10D210D7103093AD
:101FE0000401209303010F5F1F4F0834110509F00E
:101FF000A0CF0E94AB0780916F0190917001019773
:10200000880F991FFC01EE0FFF1FE45BFE4F20813C
:1020100031813093790120937801880F991FFC0159
:10202000E25BFE4F808191819093770180937601EE
:1020300080E0DF91CF911F910F91FF90EF90DF90A3
:10204000CF90BF90AF909F900C94C709309302013E
:1020500020930101C8CFF801EE0FFF1FE85BFE4F90
:1020600031832083C0CF8D9DC001112490936B01DB
:1020700080936A01B8CF8D9DC0011124909308010F
:10208000809307019093260580932505ACCF899D09
:10209000C001112490935F0180935E01A4CF30931F
:1020A0007B0120937A019FCF3093630120936201DB
:1020B0009ACF309312012093110195CFA09264031F
:1020C00092CF8B9DC001112490930601809305014E
:1020D0008ACF30936E0120936D0185CFF801EE0F0A
:1020E000FF1FED56FB4F21503109BACF30930C0141
:1020F00020930B0178CF3093CE032093CD0373CF81
:10210000215031093093700120936F016CCF3093CF
:1021100067012093660167CF3093100120930F0170
:1021200062CF3093200520931F05B90183EE95E01F
:102130000E94F60B66EA72E083EE95E00E949B0B2C
:1021400052CFC8018197B7010E94F233E90121976C
:10215000C69EF001C79EF00D1124E80FF91FEE0F87
:10216000FF1FE952FB4FD183C083880F991FFC01E9
:10217000EE56FE4F6081718183EE95E00E940C0E59
:1021800069EA72E083EE95E00E940C0EBE01CECFAC
:10219000309332052093310526CF3093D30320931B
:1021A000D20321CF30930E0120930D011CCF309329
:1021B00061012093600117CF85ED8093BC00809171
:1021C000BB059091BC05A091BD05B091BE050796D9
:1021D000A11DB11D23E0B695A795979587952A95E2
:1021E000D1F72091BC0024FD03C01092B9050895D9
:1021F0004091BB055091BC056091BD057091BE0535
:10220000452B462B472B69F30097A105B10541F0FB
:1022100025E32A95F1F700000197A109B109E1CF63
:102220008091BA050C94BE041F93CF93DF93EC0109
:10223000162F0E946B33181739F0612FCE01DF91F2
:10224000CF911F910C947333DF91CF911F9108951B
:10225000AF92BF92CF92DF92EF92FF920F931F93B4
:10226000CF93DF9310E000E025E0C22ED12C38ECB4
:10227000A32EB12C44E1E42EF12C0834110508F012
:102280004FC0F801EA5BFE4E0C944734A611AB1127
:10229000B011B011B011B011B011B011B011B01136
:1022A000B011B811C111C611CC11D111D611DB1169
:1022B000DE11E411E911E911E911E911E911E9115E
:1022C000E911F211F711FC11011206128E11901191
:1022D00090119011901190119011901190119011F6
:1022E00090119011901190119011901190119011E6
:1022F00090119011901190119011901190119011D6
:1023000090119011901190119011901190119011C5
:10231000901190110B12101215121A1203E410E012
:102320006C2FC8010E9414110F5F1F4F0834110554
:1023300009F0A3CFDF91CF911F910F91FF90EF9004
:10234000DF90CF90BF90AF900C94AB07C09103018A
:10235000D0910401E5CFC0910101D0910201E0CFFD
:10236000F801EE0FFF1FE85BFE4FC081D181D8CF8F
:1023700080916A0190916B01B7010E94F233EB01E9
:10238000CFCF8091070190910801F6CF80915E0137
:1023900090915F01B501F1CFC0917A01D0917B019D
:1023A000BFCFC0916201D0916301BACFC09111013A
:1023B000D0911201B5CFC0916403B2CF80910501D5
:1023C00090910601B601D9CFC0916D01D0916E01F7
:1023D000A7CFF801EE0FFF1FED56FB4FC081D18153
:1023E00021969ECFC0910B01D0910C0199CFC09145
:1023F000CD03D091CE0394CFC0916F01D0917001E5
:10240000EFCFC0916601D09167018ACFC0910F01D3
:10241000D091100185CFC0913105D091320580CF88
:10242000C091D203D091D3037BCFC0910D01D09145
:102430000E0176CFC0916001D091610171CFEF9212
:10244000FF920F931F93CF93DF93FC01D0E0C0E086
:1024500020ED37E000E911E084E6E82EF12C2E179C
:102460003F0784F0E0903805F12C01E010E00E15F4
:102470001F0534F5C8010E94D407C80FD91F0F5F8C
:102480001F4FF5CFC90183709927892B31F4C901FA
:10249000B7010E94F233892B89F4C901B8010E9467
:1024A000F233AC0181E0452B09F080E090E08359E4
:1024B0009E4FC80FD91F2F5F3F4FD1CF81E0F6CF7E
:1024C0002091390530E02C5F3F4F2C0F3D1FE7E096
:1024D000F0E0C901BF010E94F23390931E05809382
:1024E0001D05C9010196BF010E94F233CB0166E0D0
:1024F00070E00E94F23380931F0590932005682FAF
:1025000080E290E0DF91CF911F910F91FF90EF90CB
:102510000C941411CF93C82F0E94720E80916C01FD
:10252000882361F080910701909108010197209123
:102530002505309126052817390714F4CC2339F0E6
:1025400085E10E940F040E94460E10926C01CF910B
:1025500008951F920F920FB60F9211242F933F935D
:102560004F935F936F937F938F939F93AF93BF939B
:10257000EF93FF9380914B0590914C05A0914D05F1
:10258000B0914E05892B8A2B8B2BD1F1909146056A
:10259000E0914705F09148058081892780838091EB
:1025A0004B0590914C05A0914D05B0914E05181624
:1025B00019061A061B069CF480914B0590914C0558
:1025C000A0914D05B0914E050197A109B1098093E5
:1025D0004B0590934C05A0934D05B0934E05FF918C
:1025E000EF91BF91AF919F918F917F916F915F918B
:1025F0004F913F912F910F900FBE0F901F90189504
:1026000080917501E8EFF1E0E4919FEF90937501FF
:10261000E13051F030F0E23069F060E00E948D026C
:10262000DECF10926E00F9CF90916F009D7F909356
:102630006F00F3CF909170009D7F9093700091E0B8
:102640009093B0009091B100987F94609093B10006
:102650001092B300E2CF1F920F920FB60F92112487
:102660002F933F934F935F936F937F938F939F939A
:10267000AF93BF93EF93FF9383EE95E00E94AC017D
:10268000FF91EF91BF91AF919F918F917F916F914A
:102690005F914F913F912F910F900FBE0F901F9020
:1026A00018951F920F920FB60F9211242F938F93AC
:1026B0009F93EF93FF93E091F305F091F4058081F0
:1026C000E091F905F091FA0582FD1BC0908180919F
:1026D000FC058F5F8F732091FD05821741F0E0911B
:1026E000FC05F0E0ED51FA4F958F8093FC05FF91CA
:1026F000EF919F918F912F910F900FBE0F901F9090
:1027000018958081F4CF1F920F920FB60F9211246B
:102710002F933F938F939F93AF93BF938091BE036B
:102720009091BF03A091C003B091C1033091AD035C
:1027300023E0230F2D3758F50196A11DB11D2093DD
:10274000AD038093BE039093BF03A093C003B093E7
:10275000C1038091AE039091AF03A091B003B091FB
:10276000B1030196A11DB11D8093AE039093AF03F9
:10277000A093B003B093B103BF91AF919F918F919C
:102780003F912F910F900FBE0F901F90189526E844
:10279000230F0296A11DB11DD2CF1F920F920FB62B
:1027A0000F9211240F900FBE0F901F9018951F923B
:1027B0000F920FB60F9211242F933F934F935F9375
:1027C0006F937F938F939F93AF93BF93EF93FF93F9
:1027D0008091B900887F803609F44AC0F0F58832CC
:1027E00009F4A7C018F5803109F49BC0B8F4882318
:1027F00009F4F9C0883009F494C0FF91EF91BF91BA
:10280000AF919F918F917F916F915F914F913F9188
:102810002F910F900FBE0F901F901895883109F4DB
:1028200088C0803251F78093B70514C0803409F412
:102830009DC040F48033B9F38833F9F68093B7052F
:1028400085ECB0C0803509F485C0883509F496C0A0
:10285000883499F60E94DC10D0CF883909F48CC0F6
:1028600038F5883729F050F4883611F0803729F68A
:1028700083E08093B9051092AC0357C0883809F4FF
:102880007BC0803919F0803809F0B7CF8091AC0354
:10289000803208F071C0E091AC0381E08E0F80932C
:1028A000AC038091BB00F0E0E457FC4F80833DC057
:1028B000803B39F0E0F4803A09F479C0883A09F0B5
:1028C0009CCF84E08093B90510928B0310928A0309
:1028D000E091B403F091B503099580918A038111C9
:1028E0000FC081E080938A0310926A0309C0803C84
:1028F00009F4A6CF883C09F4A3CF883B09F07DCF2B
:10290000E0918B0381E08E0F80938B03F0E0E6591A
:10291000FC4F80818093BB0090918B0380918A0350
:1029200029C0809194058093BB0085EC8093BC0006
:1029300064CF9091B6058091B505981758F5E09150
:10294000B60581E08E0F8093B605F0E0EB56FA4FA6
:102950008081E9CFE091B60581E08E0F8093B605C6
:102960008091BB00F0E0EB56FA4F80839091B60562
:102970008091B5059817C8F285E8D8CFE091B605E3
:1029800081E08E0F8093B6058091BB00F0E0EB569E
:10299000FA4F80838091B80581115CCF81E08093EC
:1029A000930584EA8093BC001092B90526CF85EC8C
:1029B0008093BC001092B9058091AC03803230F452
:1029C000E091AC03F0E0E457FC4F10826091AC035F
:1029D00070E0E091B203F091B3038CE893E00995C5
:1029E0001092AC030ACF1092B70534CF1092E605CF
:1029F0001092E50588EE93E0A0E0B0E08093E70553
:102A00009093E805A093E905B093EA0528E732E042
:102A10003093E4052093E30525EC30E03093F00596
:102A20002093EF0524EC30E03093F2052093F1057C
:102A300020EC30E03093F4052093F30521EC30E0F6
:102A40003093F6052093F50522EC30E03093F8053D
:102A50002093F70526EC30E03093FA052093F90532
:102A60001092FC051092FD051092FE051092FF05D4
:102A70002FEF3FEF3093810620938006109285065A
:102A8000109284068093860690938706A09388060A
:102A9000B09389068AE892E0909383068093820639
:102AA00010929706109296068CE992E09093950604
:102AB0008093940687E0809398068FEF8093990621
:102AC00088E080939A0689E080939B068AE0809351
:102AD0009C068BE080939D068CE080939E0610926E
:102AE0009F061092A0061092A1061092A2061092C4
:102AF000A30681E00E94AC0A10928F0610928E0607
:102B000010929106109290061092930610929206DF
:102B100090E080E00E94090F20918E0630918F0690
:102B2000811113C02115310519F0C9010E94E93442
:102B300010928F0610928E061092930610929206B3
:102B4000109291061092900608951092930610929A
:102B5000920668EA72E0C9010C943836CF93DF938D
:102B600000D000D01F92CDB7DEB7789484B58260D4
:102B700084BD84B5816084BD85B5826085BD85B521
:102B8000816085BD80916E00816080936E0010929F
:102B9000810080918100826080938100809181001A
:102BA00081608093810080918000816080938000AB
:102BB0008091B10084608093B1008091B000816009
:102BC0008093B00080917A00846080937A00809135
:102BD0007A00826080937A0080917A00816080938D
:102BE0007A0080917A00806880937A001092C10008
:102BF00062E086E00E94BB0260E083E00E94BB02CC
:102C000062E085E00E94BB0261E082E00E94BB02BC
:102C1000E091F305F091F40582E08083E091EF0507
:102C2000F091F0051082E091F105F091F2058FEC42
:102C300080831092FB05E091F705F091F80526E0FE
:102C40002083E091F505F091F60580818061808315
:102C5000E091F505F091F605808188608083E09130
:102C6000F505F091F605808180688083E091F50597
:102C7000F091F60580818F7D808384E190E00E9451
:102C8000090F10926605109265051092C00510920A
:102C9000E2050E94A00486E391E09093B50380933F
:102CA000B40387E391E09093B3038093B2038EE083
:102CB0000E943E09682F6B738EE00E94140780ED1E
:102CC00097E0909388058093870581E0809389053C
:102CD00080938A0510928B0510928C0510928D05B9
:102CE00036E030938E0580E795E3ADE6B8E3809358
:102CF0008F0590939005A0939105B093920580E085
:102D00000E946D098EE00E943E09682F6D7F8EE063
:102D10000E9414070E9465098FE00E943E09682FF7
:102D20006D7F8FE00E94140782E00E94AC0A60EC85
:102D300071E081E00E94650B68EB71E082E00E9427
:102D4000650B60EB71E083E00E94650B68EA71E05F
:102D500084E00E94650B60EA71E085E00E94650BEB
:102D6000E8E1F1E030E020E0808191810097C1F05E
:102D70004FEF5FEF2115310521F0DF0112974D91E3
:102D80005C91BA016F5F7F4F71836083880F991FD9
:102D9000840F951F938382832E5F3F4F3496E4CF39
:102DA00041E050E05093A8044093A70450930C04D2
:102DB00040930B041092B7031092B6031092B9031C
:102DC0001092B8031092BB031092BA0383E090E014
:102DD0009093BA048093B90486E00E946402892B20
:102DE00031F481E090E090937201809371010E9430
:102DF0002A080E94640740916305609176018091E2
:102E000078010E947C0986E395E00E946908809120
:102E10003605909137050E941F120E94360790E0F8
:102E200080E00E946B33813009F06DC085E490E052
:102E30000E946B33813021F490E080E00E944F08C3
:102E40008FEF9FEF9093BC048093BB049093BE04DC
:102E50008093BD049093C0048093BF049093C204F8
:102E60008093C1049093C4048093C3049093C604D8
:102E70008093C5049093C8048093C70487E090E0D2
:102E80009093D2048093D1041092D4041092D3046E
:102E900017E08091D3049091D4040597ECF510923B
:102EA000D2041092D1044091D1045091D2042091C7
:102EB000D3043091D404473051050CF009C2129F5D
:102EC000F001139FF00D1124E40FF51FEE0FFF1F0B
:102ED000E952FB4FAFEFBFEFB183A083149FC00156
:102EE000159F900D1124819660E0820F931F0E9420
:102EF00014118091D1049091D20401969093D20440
:102F00008093D104D0CF85E490E00E946B33882376
:102F100009F48CCF0E947F0F61E085E490E00E946D
:102F20001411E091B304F091B404EE0FFF1FE554C7
:102F3000FB4F80819181019619F481E08093B60462
:102F4000B3E06B2E712C2FB7F8948091BE03909153
:102F5000BF03A091C003B091C1032FBF809342056E
:102F600090934305A0934405B093450586E395E00F
:102F70000E9469088091340590913505181619064C
:102F80001CF480E00E948A128FE00E943E0980FDBE
:102F9000A6C18091710190917201892B09F4A8C199
:102FA000809133058111A4C18091610590916205E2
:102FB000019709F0AEC080916A0190916B019093E6
:102FC0003505809334058091270590912805019659
:102FD00090932805809327050B9734F4809125055D
:102FE00090912605019721F410922805109227054B
:102FF00080913C05811111C080913B0590E02091AA
:103000005705309158058217930739F020917601C2
:10301000309177018217930739F4809129059091B7
:103020002A05181619066CF560E082E00E948D02F0
:103030008091250590912605892B31F488E290E056
:10304000909326058093250584EF91E09093690184
:103050008093680164EF71E080E090E00E94460494
:1030600061E082E00E948D028091290590912A05FD
:1030700001968430910509F46EC290932A058093DD
:10308000290586E00E946402892B61F080915F052A
:1030900090916005889731F080915B0590915C0577
:1030A0004497D9F481E00E94C70948EC50E060E001
:1030B00070E08BE492E00E94F702809166019091AB
:1030C0006701892B21F41092740110927301109200
:1030D0002805109227050E94360780915D05909182
:1030E0005E05019709F042C22091640130916501AB
:1030F00080916201909163018217930708F436C2B0
:1031000080915F0590916005019690936005809392
:103110005F0586E00E946402892B09F04EC0209171
:10312000600130916101121613060CF040C08091CD
:10313000240581113CC081E0809324056091220523
:103140007091230540915E0150915F01649FC00121
:10315000659F900D749F900D11246CE271E00E94A8
:10316000F233CB01B9010E94F23380916A01909150
:103170006B01860F971F90936B0180936A0104E1A6
:1031800010E0B8010E94F2338BE090E00E9414112D
:1031900080916A0190916B011816190644F083E042
:1031A00090E00E944F0810936B0100936A010E9407
:1031B0002A0810922C0510922B05809121059091E0
:1031C0003A05911137C790913B05911133C7811191
:1031D000A6C281E08093210580913105909132054E
:1031E000019709F07CC2E0911F05F09120058091C4
:1031F0001D0590911E0560912F052091300537E047
:103200003E9FA0013F9F500D1124840F951FFC018C
:10321000EE0FFF1FE952FB4F608321836F5F8196A2
:103220000E94141160912F056F5F8DE190E00E9464
:1032300014111092300510922F0580911F05909166
:103240002005019666E070E00E94F233E0911D05D2
:10325000F0911E0510E000E056E0E52EF12C67E04D
:10326000962E9F01220F331FA90145545B4F6A011F
:10327000A6E0AA2EB12C51E0E51AF10809F47BC1B1
:10328000989ED001999EB00D1124AE0FBF1FAA0FBA
:10329000BB1FA952BB4F4D915C914F3F540799F012
:1032A000DA01AA0FBB1FA753BB4F2D913C91119779
:1032B0002F5F3F4F2D933C932017310724F0D60109
:1032C0004D935C9389010196B5010E94F233D3CFEF
:1032D0002F5F3F4F3093D4042093D304DACD0E9464
:1032E00065098091730190917401019709F051CEA5
:1032F000109233058091310590913205019771F458
:1033000080915B0590915C05892B41F480916F0160
:10331000909170019093300580932F050E942A08A8
:103320000E9464070E94A40A809171019091720129
:10333000892B09F07AC061E080E00E944D0B6CEAB5
:1033400072E084E996E00E940C0EE6E8F1E0F0936A
:103350002E05E0932D0583E00E946402892B41F441
:1033600080912D0590912E05181619060CF460C059
:1033700080915B0590915C05019690935C0580932C
:103380005B05019709F0DDC080917601909177018E
:1033900005969093580580935705809178019091F8
:1033A000790190935A058093590580915705909122
:1033B00058058C3391057CF02091590530915A05C0
:1033C000CC9790935805809357052F5F3F4F3093CC
:1033D0005A052093590580E00E946D090E946509F5
:1033E00040E060915705809159050E947C090E9438
:1033F000A40A10922A051092290586E395E00E94FE
:10340000690881E00E948A1264E670E080E090E042
:103410000E94460486E00E946402892B71F383E0D7
:103420000E946402019749F3BFCD0E94460E8DCFE2
:1034300086E395E00E9469080E94720E40E550E024
:1034400060E070E080E193E00E94F70220912D059A
:1034500030912E05C90163E070E00E94F233892BA0
:1034600021F5233131400CF12AEF30E03093C303D2
:103470002093C20380E00E94300C0091C20310919F
:10348000C30317FD19C083E00E946402892BA1F4D5
:1034900061E070E080E090E00E9446040150110974
:1034A0001093C3030093C203E8CF42E850E0509367
:1034B000C3034093C203DECF80912D0590912E056A
:1034C00063E070E00E94F233892B21F581E00E94D5
:1034D000300C8823F9F020912B0530912C05809138
:1034E0006D0190916E0182179307A4F081E090E046
:1034F00090935E0580935D0510922E0510922D0528
:103500000E940D0844E150E060E070E08AEB92E038
:103510000E94F70281E080936C01A1E0B0E0B093DB
:103520006205A0936105B0937201A093710180912F
:103530002D0590912E05019790932E0580932D05D2
:103540000ACF80915705909158050596909358059C
:10355000809357052ACF10922A051092290584E6F8
:1035600090E090936901809368018BCD1092600583
:1035700010925F05CECD9093D4048093D30485E060
:1035800090E09093D2048093D1041093D6040093DA
:10359000D504DF01AA0FBB1FA554BB4F6C916F5F11
:1035A000CF0144960E9414111092CA041092C904CB
:1035B0001092CC041092CB041092CE041092CD0441
:1035C0001092D0041092CF0484E090E09093BA045B
:1035D0008093B9048091660190916701029709F484
:1035E0007EC081E08093B8041092D4041092D3047A
:1035F0001092D2041092D10467E0B62E04E010E0DD
:10360000C090D304D090D404B7E0CB16D1040CF012
:1036100058C080911F0590912005B89E9001B99ED9
:10362000300D1124F901EC0DFD1DEE0FFF1FE952C5
:10363000FB4F0190F081E02D76014FEFE41AF40A80
:103640000396B8010E94F233B89ED001B99EB00D26
:103650001124AC0DBD1DAA0FBB1FA952BB4F8D91EC
:103660009C91E817F90709F58091D1049091D20453
:1036700001969093D2048093D104C70167E070E073
:103680000E94F233D901A80FB91FAA0FBB1FA9527C
:10369000BB4F8D919C91E817F90739F0EF3FFE077A
:1036A00059F0019611F01092B8043196369720F037
:1036B00083E090E00E944F08F092D404E092D3049B
:1036C0009FCF8091D1049091D204049744F08091CF
:1036D000B804811104C082E090E00E944F0886E3A4
:1036E00095E00E94690880913605909137050E9407
:1036F0001F120E9436078091660190916701029720
:1037000019F481E08093B70480915C0190915D0190
:10371000892B09F08AC481E090E00E944F088091D3
:10372000610590916205892BD9F58091B7048823B2
:10373000B9F11092B7048091B6048111A0C48091B0
:10374000B504882309F47CC41092B50480916F01FC
:1037500090917001181619060CF081C4E1E0F0E0B8
:10376000F0937401E09373010197880F991FFC0196
:10377000EE0FFF1FE45BFE4F208131813093790112
:1037800020937801880F991FFC01E25BFE4F808136
:103790009181909377018093760180E00E94C70920
:1037A00085E00E946402892B11F00C94F92C21E031
:1037B00030E0309372012093710110922C05109229
:1037C0002B0581E080936C010E942A080E94A40AC4
:1037D00082E090E090934B0180934A0141E050E0F9
:1037E00050934901409348011092B2041092B104E1
:1037F0001092B0041092AF0461E470E080E090E0B9
:103800000E9446048091B1049091B2040196909375
:10381000B2048093B104069721F58091AD04909194
:10382000AE04181619060CF03AC480E00E94BE0ED1
:10383000E091B904F091BA04EE0FFF1FE459FD4F77
:103840008081918190934B0180934A0185E00E9491
:103850006402019731F468EE73E080E090E00E942A
:10386000460485E00E946402892B31F282E390E0F5
:103870009093AC048093AB0402E310E088248A9414
:10388000982C92E0E92EF12C24E0222E312C36E007
:10389000432E512C8091AB049091AC0497FF02C051
:1038A0000C94D92C8FE00E940F046CE97FEF0E94EA
:1038B000F2336B015B019AE0A90EB11CB092470193
:1038C000A09246018EE00E940F0464E670E00E9420
:1038D000F23370934501609344018091D304909139
:1038E000D404892B09F09EC4673071050CF4E2C33F
:1038F0008091A9049091AA0401969093AA048093C0
:10390000A9049092D4048092D3041093AC04009341
:10391000AB042091A7043091A8042E5F3F4F309351
:10392000A8042093A7042091A5043091A604281789
:103930003907C4F48091A3049091A4049093AA043D
:103940008093A904E0914A01F0914B01EE0FFF1F13
:10395000EE0FFF1FEC5EFE4F808191819093A804D3
:103960008093A704109217018091D3049091D404FE
:103970008F3F980709F092C481E090E09093D404BF
:103980008093D3049093160180931501A6E4B0E0D0
:10399000B0936901A09368012091480130914901D9
:1039A000121613060CF075C08091A7049091A8041C
:1039B00002969093A8048093A7048091A904909103
:1039C000AA0401969093AA048093A904213031059A
:1039D00009F045C00E94A40A80914A0190914B01D0
:1039E0000197880F991FFC01EE0FFF1FE85EFE4F45
:1039F000408151815093A8044093A704880F991FD8
:103A0000FC01E65EFE4F2081318130930C0420934F
:103A10000B04241B350BC901019797FDC90195952E
:103A200087959093A6048093A5041092A404109205
:103A3000A30410921204109211041092AA0410927E
:103A4000A904F0924901E0924801E1E0F0E0F0932E
:103A5000D404E093D304109269011092680180911C
:103A6000A7049091A80420910B0430910C048217B4
:103A700093070CF01BC4DC01AA0FBB1FA653BE4F5B
:103A8000880F991FFC01E853FE4F6C9180810E94C2
:103A90004D0B83E090E00E94EC0C8091A704909184
:103AA000A804DC01AA0FBB1FA653BE4F880F991FA5
:103AB000FC01E853FE4F6C9180810E944D0B809178
:103AC0004A0190914B01019709F055C0809148013E
:103AD00090914901029741F41092100410920F0442
:103AE00010920E0410920D048091A9049091AA04E2
:103AF0002091AF043091B004232B09F039C4009712
:103B000009F0F3C381EB91E00E94810B47E050E0A4
:103B100050932A054093290585E00E946402892B71
:103B200051F58091A9049091AA0402962091AF04C6
:103B30003091B004220F331F220F331F820F931FC7
:103B400090934B0180934A0141E050E05093D4049C
:103B50004093D30450934901409348011093AC041F
:103B60000093AB041092B0041092AF0485E00E9461
:103B70006402892BD9F380914A0190914B010297FD
:103B800009F06DC180916F019091700118161906AE
:103B900034F081E090E09093700180936F01809108
:103BA000A9049091AA04892B09F046C08091D304FE
:103BB0009091D404019791F48091780190917901CA
:103BC000909312048093110487E190E09093100485
:103BD00080930F0410920E0410920D048091110432
:103BE000909112049093790180937801E0916F0194
:103BF000F0917001EE0FFF1FEE0FFF1FE85BFE4F0D
:103C0000918380830A9734F470E060E084E996E061
:103C10000E94F60B609178017091790184E996E039
:103C20000E94F60B64EA72E084E996E00E940C0EB2
:103C3000F0922A05E09229058091A9049091AA04A6
:103C4000019709F040C08091D3049091D40401976A
:103C500091F4809176019091770190931204809372
:103C600011048BE390E09093100480930F04109262
:103C70000E0410920D0480911104909112049093FF
:103C8000770180937601E0916F01F0917001EE0F62
:103C9000FF1FEE0FFF1FE65BFE4F918380830A97A5
:103CA00034F470E060E084E996E00E94F60B6091E5
:103CB00076017091770184E996E00E94F60BF0920C
:103CC0002A05E09229058091A9049091AA040297FF
:103CD00009F08AC080916F01909170012091D30406
:103CE0003091D4042130310561F490931204809313
:103CF00011043092100420920F0430930E0420938C
:103D00000D049093140180931301809111049091FC
:103D100012049093700180936F016CEB72E084E960
:103D200096E00E940C0E60916F017091700184E921
:103D300096E00E94F60B89E090E090932A0580932C
:103D4000290580916F0190917001209113013091AC
:103D500014018217930709F447C00197880F991F30
:103D6000FC01EE0FFF1FE45BFE4FC080D180D092BC
:103D70007901C0927801880F991FFC01E25BFE4F28
:103D800080819181909377018093760160E085E056
:103D90000E944D0B9AE0C916D10434F470E060E043
:103DA00084E996E00E94F60B6091780170917901A8
:103DB00084E996E00E94F60B60E088E00E944D0BDB
:103DC00080917601909177010A9734F470E060E079
:103DD00084E996E00E94F60B60917601709177017C
:103DE00084E996E00E94F60B8091A9049091AA04C0
:103DF0000397A9F58091D3049091D4040197B1F46D
:103E00008091660190916701909312048093110450
:103E1000F0921004E0920F0410920E0410920D0420
:103E20001092B60410930A040093090460911104DF
:103E3000809112046093660180936701A1E0B0E075
:103E4000B0930804A09307046E5F84E996E00E9493
:103E50005F0BE1E0F0E0F0932A05E0932905809103
:103E60004A0190914B01039709F038C38091A9044E
:103E70009091AA042091AF043091B004232B11F04B
:103E80000C94572A892B09F041C08091D30490915A
:103E9000D404019791F480917A0190917B019093E1
:103EA0001204809311042AEF30E030931004209321
:103EB0000F04F0920E04E0920D0480911104909191
:103EC000120490937B0180937A018436910594F4D7
:103ED00065EC72E084E996E00E940C0E80917A0114
:103EE00090917B010A9734F465EC72E084E996E0E6
:103EF0000E940C0E60917A0170917B0184E996E03A
:103F00000E94F60B70922A05609229058091A904FF
:103F10009091AA040197B9F58091D3049091D404AB
:103F20000197A9F48091110190911201019709F074
:103F300057C290921204809211044AEF50E05093BD
:103F4000100440930F0490920E0480920D0480910F
:103F500011049091120490936301809362018F3F4A
:103F6000980709F046C281E090E090931201809397
:103F7000110167EC72E084E996E00E940C0E309229
:103F80002A05209229058091A9049091AA040297FC
:103F900009F078C210921204109211046CEC72E0D5
:103FA00084E996E00E940C0E50922A054092290561
:103FB00085E00E946402892B09F064C20E94A40A71
:103FC00060E082E00E944D0B83E791E00E94810B4C
:103FD00061E082E00E944D0B8BE691E00E94810B34
:103FE0007092BA046092B904C090B904D090BA0437
:103FF0001C141D040CF021C261E089E00E944D0BED
:10400000B60184E996E00E94F60B68EE73E080E06A
:1040100090E00E9446048091B9049091BA040197FF
:104020009093BA048093B904DFCF10925D0110928F
:104030005C0175CB882309F472CB109221056FCBFC
:10404000E0911D05F0911E05EE0FFF1FE554FB4F9B
:10405000808191819093700180936F0177CB892B40
:1040600051F4109274011092730180E00E946D0966
:104070000E94650995CB81E08093B60491CBE091D5
:10408000B304F091B404EE0FFF1FE554FB4F8081A1
:104090009181019609F484CB1092B60481CB89EB0F
:1040A00091E00E94810B81E090E090934B0180931E
:1040B0004A01D7CB64307105CCF58091A904909169
:1040C000AA0401979093AA048093A9049092D4041F
:1040D0008092D3041093AC040093AB042091A70406
:1040E0003091A804225031093093A8042093A704EA
:1040F0002091A3043091A404821793070CF032CCD2
:104100008091A5049091A6049093AA048093A90499
:10411000E0914A01F0914B01EE0FFF1FEE0FFF1FE0
:10412000EA5EFE4F80819181019718CC6530710560
:1041300009F078C0A0EAB0E0B0936901A0936801EB
:10414000B6E0CB0ED11CE3E0CE16D10408F46AC071
:10415000E0914A01F0914B0131974091AF045091A9
:10416000B0042091A5043091A604429FC001439F52
:10417000900D529F900D112463E0EE0FFF1F6A9582
:10418000E1F72091A9043091AA04820F931FE80F50
:10419000F91FEE0FFF1FED5EFB4F21E030E0318392
:1041A000208337E0A316B10404F1809111049091AB
:1041B0001204019690931204809311041093AC049E
:1041C0000093AB0420910F04309110042817390795
:1041D00044F480910D0490910E0490931204809306
:1041E000110481E080932105BDCB44E0A416B10405
:1041F000CCF48091110490911204019790931204D1
:10420000809311041093AC040093AB0420910D042F
:1042100030910E048217930724F780910F04909138
:104220001004DBCF8091480190914901892B09F05E
:10423000B3CB8091A7049091A804DC01AA0FBB1F07
:10424000A653BE4F880F991FFC01E853FE4F6C9197
:1042500080810E944D0B809115019091160102976B
:1042600008F082CB83E090E00E94EC0C809129055D
:1042700090912A05181619060CF076CB6AEA72E0BE
:1042800084E996E00E940C0E8091290590912A0500
:10429000019790932A0580932905E8CF019709F0AB
:1042A0007BCB1092D4041092D30476CB10924901A8
:1042B00010924801E0914A01F0914B01EE0FFF1F6F
:1042C000EE0FFF1FEC5EFE4F808191819093A8045A
:1042D0008093A7041092AA041092A90424E630E067
:1042E0003093690120936801D4CB8130910549F462
:1042F0008CEA91E00E94810B30922A0520922905D8
:104300000BCC8230910549F485EA91E00E94810B43
:1043100050922A0540922905FFCB8330910559F42C
:104320008CE991E00E94810B88E090E090932A054F
:1043300080932905F1CB049709F0EECB1092690127
:10434000109268018091D3049091D404019709F4EC
:10435000E3CBA1E0B0E0B093B004A093AF04B0937E
:104360004901A09348011093AC040093AB04D4CB53
:10437000009719F485E991E0C9CF8130910559F48E
:104380008CE891E00E94810BE8E0F0E0F0932A05D0
:10439000E0932905C1CB8230910519F485E891E0BD
:1043A000B5CF8330910519F480E891E0A3CF04974D
:1043B00009F0B2CB10926901109268018091D30488
:1043C0009091D404019709F4A7CB1092B0041092F5
:1043D000AF0421E030E03093490120934801C3CF7E
:1043E0008091620190916301909312048093110473
:1043F000A4CD10921201109211018436910594F40B
:1044000065EC72E084E996E00E940C0E80916201F6
:10441000909163010A9734F465EC72E084E996E0C8
:104420000E940C0E609162017091630184E996E034
:104430000E94F60B6AEA72E09ECD0E94A40A60E038
:1044400082E00E948D02A8E0B0E0B093AC04A0939B
:10445000AB040E9464078FE090E09093100180937A
:104460000F018091AB049091AC0408970CF083C7C6
:1044700010920604109205040E940D0861E082E08B
:104480000E948D028091A9049091AA040397C1F41F
:1044900010926901109268018091D3049091D40424
:1044A000019771F0E1E0F0E0F093B004E093AF0425
:1044B0001093AC040093AB04F0934901E0934801DE
:1044C0008091480190914901029741F460E080E0B9
:1044D0000E944D0B8BE591E00E94810B80914A0177
:1044E00090914B01049709F005C18091A904909126
:1044F000AA04892B09F040C08091D3049091D40480
:10450000019791F48BE090E09093100480930F0456
:10451000F0920E04E0920D0480916D0190916E0175
:1045200090931204809311048091110490911204CD
:1045300090936E0180936D016AEA72E084E996E0DF
:104540000E940C0E80916D0190916E010B9734F4D6
:1045500065EC72E084E996E00E940C0E60916D01BA
:1045600070916E016150710984E996E00E94F60B2A
:1045700070922A05609229058091A9049091AA045D
:10458000019709F057C08091D3049091D40401970A
:1045900081F41093100400930F0410920E041092F3
:1045A0000D0480910B0190910C0190931204809363
:1045B00011046AEA72E084E996E00E940C0E809190
:1045C0001104909112040A9734F465EC72E084E9C6
:1045D00096E00E940C0E609111047091120484E91F
:1045E00096E00E94F60BC0901104D09012048091C6
:1045F0000B0190910C01C816D906C1F0D0920C01A4
:10460000C0920B018091090190910A01019771F408
:1046100061E08CE00E944D0B63ED72E0CD2811F05B
:1046200067ED72E084E996E00E940C0E70922A0514
:10463000609229058091A9049091AA040297E9F556
:104640008091D3049091D40481309105D1F490935A
:10465000100480930F0410920E0410920D048091A8
:104660000B0190910C01892B21F410920A011092F8
:1046700009018091090190910A019093120480939D
:104680001104809111049091120490930A01809377
:10469000090167ED72E0019711F063ED72E084E9C2
:1046A00096E00E940C0E70922A056092290541E066
:1046B00050E0509308044093070485E00E94640290
:1046C000892B51F480910B0190910C01892B21F4DD
:1046D00010920A01109209018091480190914901BC
:1046E000029741F460E080E00E944D0B8EE391E080
:1046F0000E94810B60914A0170914B0165307105F8
:1047000009F00DC18091A9049091AA042091AF04F1
:104710003091B004232B09F07DC7892B09F043C0E9
:104720008091D3049091D40481309105B1F4A6E432
:10473000B0E0B0931004A0930F0490930E04809304
:104740000D04809107019091080164E170E00E94DE
:10475000F2337093120460931104809111049091CC
:10476000120444E1489F9001499F300D1124309379
:1047700008012093070130932605209325050A9709
:1047800034F465EC72E084E996E00E940C0E6091CE
:1047900011047091120484E996E00E94F60BF092E5
:1047A0002A05E09229058091A9049091AA04019715
:1047B00009F043C08091D3049091D40481309105D5
:1047C000B1F427E330E03093100420930F0490936A
:1047D0000E0480930D0480916A0190916B0164E155
:1047E00070E00E94F2337093120460931104809180
:1047F00011049091120444E1489F9001499F300DAB
:10480000112430936B0120936A0130933505209376
:1048100034050A9734F465EC72E084E996E00E946E
:104820000C0E609111047091120484E996E00E94CC
:10483000F60BF0922A05E09229058091A904909147
:10484000AA04029709F03FC08091D3049091D40448
:1048500081309105B1F429E130E0309310042093C8
:104860000F0490930E0480930D0480915E0190914B
:104870005F0168EC70E00E94F23370931204609361
:104880001104809111049091120448EC489F90010A
:10489000499F300D112430935F0120935E010A97E8
:1048A00034F465EC72E084E996E00E940C0E6091AD
:1048B00011047091120484E996E00E94F60BF092C4
:1048C0002A05E09229058091A9049091AA040397F2
:1048D000C1F410926901109268018091D304909103
:1048E000D404019771F0E1E0F0E0F093B004E093BC
:1048F000AF041093AC040093AB04F0934901E09330
:1049000048018091480190914901029741F460E08B
:1049100080E00E944D0B8EE291E00E94810B80911D
:104920004A0190914B01069709F047C08091A90474
:104930009091AA042091D3043091D404880F991F38
:104940002130310589F43092100420920F049092A6
:104950000E0480920D04FC01E554FB4F208131814F
:104960003093120420931104609111047091120489
:1049700085549B4FDC016D937C93161617060CF043
:10498000CAC684E996E00E94F60BE1E0F0E0F093FD
:104990002A05E0932905F0930804E0930704809129
:1049A000480190914901029741F461E081E00E9441
:1049B0004D0B89E191E00E94810B80914A01909119
:1049C0004B01079709F0A1C286E395E00E946908B0
:1049D00080914801909149010297B1F580913A0583
:1049E00090E09093E4038093E30380913B0590E093
:1049F0009093E2038093E10380913C0590E09093D3
:104A0000E0038093DF038091390590E09093DE030B
:104A10008093DD038091380590E09093DC038093D0
:104A2000DB0380913605909137059093DA038093EC
:104A3000D9031092D5031092D6031092D703109287
:104A4000D80381E08093D4038091A9049091AA04B3
:104A5000892B81F58091D3049091D404019791F42E
:104A600087E190E09093100480930F0410920E045D
:104A700010920D048091E3039091E403909312044B
:104A80008093110480911104909112049093E40397
:104A90008093E3030A9734F470E060E084E996E0E1
:104AA0000E94F60B609111047091120484E996E063
:104AB0000E94F60B8091A9049091AA04019781F5B8
:104AC0008091D3049091D404019791F48BE390E00A
:104AD0009093100480930F0410920E0410920D0412
:104AE0008091E1039091E20390931204809311046A
:104AF00080911104909112049093E2038093E1035A
:104B00000A9734F470E060E084E996E00E94F60BC6
:104B1000609111047091120484E996E00E94F60BF2
:104B20008091A9049091AA04029709F049C080914C
:104B3000D3049091D404019791F48BE390E0909387
:104B4000100480930F0410920E0410920D048091B3
:104B5000D5039091D6039093120480931104609131
:104B6000110470911204072E000C880B990B6093AE
:104B7000D5037093D6038093D7039093D8032091E5
:104B80003C05620F711D811D911D2CE330E040E05A
:104B900050E00E9428347093E0036093DF036A3092
:104BA000710534F470E060E084E996E00E94F60B51
:104BB0006091DF037091E00384E996E00E94F60BB8
:104BC0008091A9049091AA04039709F041C0C09074
:104BD000D304D090D404F1E0CF16D10409F580912C
:104BE000DB039091DC030E94D40790931004809320
:104BF0000F04D0920E04C0920D042091DD03309179
:104C0000DE038217930724F49093DE038093DD0381
:104C10008091DD039091DE03909312048093110440
:104C200080911104909112049093DE038093DD0330
:104C30000A9734F470E060E084E996E00E94F60B95
:104C4000609111047091120484E996E00E94F60BC1
:104C50008091A9049091AA04049789F58091D304C6
:104C60009091D4048130910591F42CE030E03093A0
:104C7000100420930F0490930E0480930D048091F0
:104C8000DB039091DC0390931204809311048091D4
:104C90001104909112049093DC038093DB030A9734
:104CA00034F470E060E084E996E00E94F60B6091D5
:104CB00011047091120484E996E00E94F60BF092C0
:104CC0002A05E09229058091A9049091AA040597EC
:104CD00081F58091D3049091D4040197A1F488EBDD
:104CE0009BE09093100480930F0482EE97E09093E2
:104CF0000E0480930D048091D9039091DA03909370
:104D00001204809311046091110470911204709345
:104D1000DA036093D90384E996E00E94F60B30929F
:104D20002A052092290521E030E0309308042093E1
:104D3000070485E00E946402892B09F0C1C0D0906D
:104D4000DB039091DC038D2D0E94D4072091DD03BD
:104D50003091DE038217930724F49093DE0380934F
:104D6000DD033091DF033A834091E1034B8350919F
:104D7000E3035C83C090DD03CD82D982A090D90388
:104D8000B090DA0381E08093BF0588E68093E10567
:104D90001092C0051092E20590E080E00E942D077D
:104DA0008A816AE00E94D2338295807F682F690FE2
:104DB00082E896E00E94E5068B816AE00E94D23389
:104DC0008295807F682F690F82E896E00E94E50651
:104DD0008C816AE00E94D2338295807F682F690FB0
:104DE00082E896E00E94E50681E090E0A981A33088
:104DF00010F090E080E09501281B390B4D2D4150BB
:104E0000550BFA01E057FF4FE491C20ED32ED11C8F
:104E1000B9017695679576956795C60ED71EC90137
:104E200060E971E00E94DE33C60ED71EC90164E658
:104E300070E00E94DE33C61AD70AC6018E0F911D9C
:104E400067E070E00E94DE33682F811101C067E0E7
:104E500082E896E00E94E5066AE0D62E8D816D2DEF
:104E60000E94D2338295807F682F690F82E896E096
:104E70000E94E50689816D2D0E94D2338295807F44
:104E8000682F690F82E896E00E94E50680E38A0DAC
:104E90006D2D0E94D2338295807F682F690F82E842
:104EA00096E00E94E50690E080E00E942D070E94B7
:104EB000DF0486E395E00E946908C5010E941F1285
:104EC0008091480190914901029709F035C460E052
:104ED00086E00E944D0B64EA72E084E996E00E944D
:104EE0000C0E60E089E00E944D0B64EA72E084E9F8
:104EF00096E00E940C0E61E087E00E944D0B6DED84
:104F000072E084E996E00E940C0E80914A01909133
:104F10004B01089709F0B4C08091A9049091AA04AC
:104F20002091AF043091B004232B09F08EC4892B5B
:104F300019F58091D3049091D404019761F41092F3
:104F40000E0410920D041092100410920F0410928F
:104F50001204109211046CEC72E084E996E00E9455
:104F60000C0E50922A054092290585E00E946402A9
:104F7000892B11F40E947F0F8091A9049091AA04BB
:104F8000019719F58091D3049091D404019761F4AD
:104F900010920E0410920D041092100410920F043F
:104FA00010921204109211046CEC72E084E996E005
:104FB0000E940C0E50922A054092290585E00E941D
:104FC0006402892B11F40E9428118091A904909108
:104FD000AA040297F1F48091D3049091D40401972C
:104FE00061F410920E0410920D04109210041092AD
:104FF0000F0410921204109211046BED72E084E918
:1050000096E00E940C0EA1E0B0E0B0932A05A093B8
:1050100029058091A9049091AA040397C1F41092E4
:105020006901109268018091D3049091D404019792
:1050300071F0E1E0F0E0F093B004E093AF0410937E
:10504000AC040093AB04F0934901E09348018091D4
:10505000480190914901029799F460E080E00E9434
:105060004D0B81E191E00E94810B8091D2039091E0
:10507000D303892B09F0E6C389E091E00E94810BFC
:1050800080914A0190914B01099709F08CC0809161
:10509000A9049091AA04892B69F58091D304909179
:1050A000D4048130910581F410920E0410920D0405
:1050B0009093100480930F048091310590913205F4
:1050C0009093120480931104809111049091120422
:1050D000909332058093310563EE72E0019711F0F1
:1050E0006FED72E084E996E00E940C0E70922A0542
:1050F000609229058091A9049091AA04019709F072
:1051000044C08091D3049091D4040197A1F41092EB
:105110000E0410920D047092100460920F0480919E
:1051200060019091610143E050E0481B590B50939E
:105130001204409311048091110490911204A3E091
:10514000B0E0A81BB90BB0936101A09360016FEDB3
:1051500072E0AB2B91F06AEA72E084E996E00E947B
:105160000C0E60911104709112046F5F7F4F84E9FF
:1051700096E00E94F60B6AEA72E084E996E00E94EB
:105180000C0E70922A056092290580914801909139
:105190004901029741F460E080E00E944D0B89EEE6
:1051A00090E00E94810B80914A0190914B010A97F7
:1051B00009F074C08091A9049091AA04892BF1F49C
:1051C0008091D3049091D404019761F410920E045D
:1051D00010920D041092100410920F0410921204F9
:1051E0001092110467EE72E084E996E00E940C0EC2
:1051F000E7E0F0E0F0932A05E09329058091A90407
:105200009091AA040197E1F48091D3049091D40481
:10521000019761F410920E0410920D041092100484
:1052200010920F0410921204109211046FEE72E0AB
:1052300084E996E00E940C0E50922A0540922905BE
:1052400085E00E946402892BD9F48091A904909191
:10525000AA04892BA9F40E94A40A21E030E030932B
:1052600049012093480150924B0140924A0110920B
:10527000B604F0926701E092660181E08093B70482
:105280008091480190914901029741F460E081E0EA
:105290000E944D0B89ED90E00E94810B80912105C9
:1052A000882391F08091070490910804019751F4AC
:1052B00064E670E080E090E00E94460410920804EA
:1052C000109207041092210585E00E946402892B48
:1052D00009F046C08091480190914901892B09F05D
:1052E0003FC01092AC041092AB041092690110926E
:1052F00068018091D2039091D303892B59F40E94C5
:105300007F071816190634F441E050E05093D30398
:105310004093D2030E947F07209101013091020146
:1053200082179307ECF012161306D4F40E94A40A15
:1053300060E085E00E944D0B82ED90E00E94810BC1
:1053400061E084E00E944D0B89EC90E00E94810BAB
:105350000E94281164EF71E080E090E00E94460412
:105360008091AB049091AC0401979093AC0480932E
:10537000AB040C944A1C83E00E946402892B09F060
:1053800077C881E00E94300C1092BA041092B904E0
:105390008091B9049091BA04843691059CF480E020
:1053A0000E94300C61E070E080E090E00E944604D2
:1053B0008091B9049091BA0401969093BA048093B5
:1053C000B904E6CF8091E5039091E60320910504AE
:1053D000309106042817390724F49093060480932B
:1053E00005046091640170916501861B970B209103
:1053F00005043091060437FF02C02F5F3F4F3595FB
:1054000027952E5F3F4F8217930708F42AC82091F3
:10541000AB043091AC042830310509F022C89B015F
:105420002F5F3F4F30936301209362011092AC04D1
:105430001092AB0420910F0130911001E5EEF3E0E2
:1054400050E040E04D30510519F02A30310521F18E
:105450003093100120930F0190937B0180937A0188
:105460009C0197FF02C02F5F3F4F35952795820F14
:10547000931F019690930E0180930D0144E650E036
:1054800060E070E083E992E00E94F7021092AC04C1
:105490001092AB040C943122A191B1916A177B0751
:1054A00019F49A012E5F3F4F4F5F5F4FCBCF892B8F
:1054B000F1F58091D3049091D404019791F4109266
:1054C0000E0410920D048FE090E0909310048093EE
:1054D0000F0480910F01909110019093120480931A
:1054E0001104809111049091120490931001809303
:1054F0000F016AEA72E084E996E00E940C0E809146
:105500001104909112040A9734F465EC72E084E976
:1055100096E00E940C0E60910F017091100184E9D9
:1055200096E00E94F60B70922A0560922905809100
:10553000A9049091AA040197F1F58091D304909168
:10554000D404019791F410920E0410920D0484E19A
:1055500090E09093100480930F0480910D0190913E
:105560000E01909312048093110480911104909184
:10557000120490930E0180930D0169EA72E084E9B0
:1055800096E00E940C0E80911104909112040A97EB
:1055900034F465EC72E084E996E00E940C0E6091B0
:1055A0000D0170910E0184E996E00E94F60B309295
:1055B0002A05209229058091A9049091AA040297B6
:1055C0000297C0F410926901109268018091D3048F
:1055D0009091D404019771F01092B0041092AF042E
:1055E0001093AC040093AB0421E030E03093490108
:1055F000209348018091480190914901029711F050
:105600000C946E2260E080E00E944D0B8FE491E0EC
:105610000C946C22892B09F051C08091D304909195
:10562000D4040197A1F484E190E090931004809356
:105630000F0410920E0410920D04809105019091B8
:1056400006010E94F233709312046093110480915A
:1056500011049091120421E030E0009731F045E010
:10566000489F9001499F300D1124309306012093EB
:10567000050180910501909106018436910594F40D
:1056800065EC72E084E996E00E940C0E80910501C1
:10569000909106010A9734F465EC72E084E996E093
:1056A0000E940C0E609105017091060184E996E05C
:1056B0000E94F60B70922A05609229058091A90438
:1056C0009091AA048D7F81309105B9F410926901FF
:1056D000109268012091D3043091D4042130310517
:1056E00061F01092B0041092AF041093AC040093D8
:1056F000AB049093490180934801809148019091B7
:105700004901029709F00BC960E080E00E944D0B4F
:1057100087E291E002C96115710539F46BED72E021
:1057200084E996E00E940C0E30C96F3F7F4F09F06C
:105730002CC964E073E0F4CFC090A904D090AA040F
:1057400052E0C516D104C1F020913C056091D5030B
:105750007091D6038091D7039091D803620F711D89
:10576000811D911D2CE330E040E050E00E94283480
:105770007093E0036093DF038091DF039091E00377
:10578000892B09F469C781E08093D4038091A9042F
:105790009091AA04029709F4B8CB60E08AE00E94D5
:1057A0004D0B8091DF039091E0030A9734F470E091
:1057B00060E084E996E00E94F60B6091DF0370914F
:1057C000E00384E996E00E94F60B9FCB1092E2037F
:1057D0001092E1038091E3039091E40301968831F4
:1057E000910509F19093E4038093E303A090E30310
:1057F000B090E403CD28E1F060E084E00E944D0B1E
:105800008AE0A816B10434F470E060E084E996E020
:105810000E94F60B6091E3037091E40384E996E043
:105820000E94F60B2DC71092E4031092E303DECF23
:10583000B0921204A092110423C7D0921204C09215
:105840001104A4CF82E091E019CC892B61F58091FD
:10585000D3049091D4048130910581F410920E0408
:1058600010920D049093100480930F048091030113
:10587000909104019093120480931104809111047B
:10588000909112049093040180930301892B09F0F5
:105890006AC06FED72E084E996E00E940C0E70928F
:1058A0002A05609229058091A9049091AA04019784
:1058B00069F58091D3049091D404019791F41092EA
:1058C0000E0410920D048AE090E0909310048093EF
:1058D0000F04809101019091020190931204809332
:1058E000110480911104909112049093020180930D
:1058F0000101892B09F042C06FED72E084E996E066
:105900000E940C0E70922A05609229058091A904CC
:105910009091AA0402970297C0F410926901109224
:1059200068018091D3049091D404019771F0109292
:10593000B0041092AF041093AC040093AB0421E0C8
:1059400030E03093490120934801809148019091C3
:105950004901029709F094CB60E080E00E944D0B72
:1059600086EF90E08BCB63EE72E084E996E00E94D4
:105970000C0EF0922A05E092290595CF6AEA72E0B2
:1059800084E996E00E940C0E809101019091020141
:105990000A9734F465EC72E084E996E00E940C0EFC
:1059A000609101017091020184E996E00E94F60B7A
:1059B000A9CF0E94A40A80914A0190914B010297BD
:1059C00041F481E090E090937401809373010E9410
:1059D000C7098091660190916701029751F4809107
:1059E000A9049091AA04039709F012C281E0809360
:1059F000B70485E00E946402892BD9F380912505C4
:105A000090912605181619060CF0D5C001979093B1
:105A10002605809325052091D0033091D1032130B4
:105A2000310509F045C060916401709165014091B4
:105A30006201509163014617570788F02091CF0308
:105A400021110DC021E02093CF0320910701309157
:105A50000801281B390B3093CE032093CD032091EE
:105A6000CF03222329F12091070130910801E09111
:105A70000B01F0910C012E1B3F0B0091CD031091F7
:105A8000CE03A0910901B0910A010A9FF0010B9F7A
:105A9000F00D1A9FF00D11242E1B3F0B281739070C
:105AA0003CF04617570720F0109226051092250566
:105AB0008091250590912605892BB9F460E082E05C
:105AC0000E948D028CE291E09093690180936801BD
:105AD0001092D1031092D0031092CF031092CE03F4
