:100000000C9432010C945A010C945A010C945A012C
:100010000C945A010C945A010C94DA140C94B613F3
:100020000C945A010C945A010C945A010C945A01E4
:100030000C945A010C945A010C945A010C945A01D4
:100040000C9490140C945A010C945E140C94381473
:100050000C945A010C945A010C945A010C945A01B4
:100060000C94E4140C945A0108000000BE92244938
:10007000123EABAAAA2ABECDCCCC4C3E00000080DA
:10008000BEABAAAAAA3E00000000BF000000803F4D
:100090000000000000084178D3BB4387D1133D190D
:1000A0000E3CC3BD4282AD2B3E68EC8276BED98F3A
:1000B000E1A93E4C80EFFFBE01C4FF7F3F0000007E
:1000C000000000000000240027002A0000000000BB
:1000D00023002600290000000008000201000003A0
:1000E00004070000000000000000000302050003F8
:1000F0000501040602044F676E692067696F726E1E
:100100006F2000556E6120766F6C74612000417520
:10011000746F6D617469636F2000537665676C69F5
:10012000612000657365677569746F004261636B78
:10013000757000436F73612076756F692066617218
:10014000653F0047696F726E692053742E627900B3
:10015000436869656469204175746F004261636B2F
:1001600075700044656661756C7400526970722E1A
:100170002020004C204D204D204720562053204465
:100180000052656174742E004C43442053742E62F7
:100190007920536C6565700053746F7020496E76DA
:1001A0002E2053656D707265004C756E672E20545D
:1001B0006F6C6C2E004C756365204275696F20432F
:1001C000616C2E20007472612E2E2E200043616C13
:1001D000696272617A696F6E6500412E492E004234
:1001E00061636B757000446174612F4F72610047E9
:1001F000696F726E69004261747465726961004F63
:100200006E2F4F6666004C75636500416C6C6172C1
:100210006D6500496D706F7374617A696F6E690006
:10022000010204081020408001020408102001028D
:100230000408102000000000250028002B00040402
:10024000040404040404020202020202030303037E
:100250000303021F1C1F1E1F1E1F1F1E1F1E1F0029
:100260000316A43411241FBECFEFD8E0DEBFCDBFEC
:1002700026E0A0E7B3E001C01D92AB3BB207E1F777
:1002800013E0A0E0B1E0EEE9F4E702C005900D92C2
:10029000A037B107D9F711E0C1E3D1E004C021973D
:1002A000FE010E944A38C033D107C9F70E94BB162D
:1002B0000C94423A0C940000809170059091710565
:1002C000891B990B089508950895AF92BF92CF921C
:1002D000DF92EF92FF920F931F93CF93DF936C0106
:1002E0007B018B01040F151FEB015E01AE18BF08E7
:1002F000C017D10759F06991D601ED91FC91019099
:10030000F081E02DC6010995892B79F7C501DF91B0
:10031000CF911F910F91FF90EF90DF90CF90BF9002
:10032000AF900895FC01538D448D252F30E0842F2C
:1003300090E0821B930B541710F0CF96089501970D
:100340000895FC01918D828D981761F0A28DAE0FFA
:10035000BF2FB11D5D968C91928D9F5F9F73928F81
:1003600090E008958FEF9FEF0895FC01918D828DAD
:10037000981731F0828DE80FF11D858D90E008957A
:100380008FEF9FEF0895FC01918D228D892F90E0D2
:10039000805C9F4F821B91098F73992708958EEE81
:1003A00095E00E94C30121E0892B09F420E0822F0F
:1003B0000895FC01A48DA80FB92FB11DA35ABF4FFA
:1003C0002C91848D90E001968F739927848FA68954
:1003D000B7892C93A089B1898C91837080648C93A8
:1003E000938D848D981306C00288F389E02D808157
:1003F0008F7D80830895EF92FF920F931F93CF9389
:10040000DF93EC0181E0888F9B8D8C8D98131AC04F
:10041000E889F989808185FF15C09FB7F894EE8936
:10042000FF896083E889F989808183708064808393
:100430009FBF81E090E0DF91CF911F910F91FF90DE
:10044000EF900895F62E0B8D10E00F5F1F4F0F7386
:100450001127E02E8C8D8E110CC00FB607FCFACF41
:10046000E889F989808185FFF5CFCE010E94D90105
:10047000F1CFEB8DEC0FFD2FF11DE35AFF4FF08212
:100480009FB7F8940B8FEA89FB8980818062CFCF78
:10049000CF93DF93EC01888D8823B9F0AA89BB89BB
:1004A000E889F9898C9185FD03C0808186FD0DC0A6
:1004B0000FB607FCF7CF8C9185FFF2CF808185FFC7
:1004C000EDCFCE010E94D901E9CFDF91CF91089500
:1004D000833081F028F4813099F08230A9F00895BA
:1004E0008730A9F08830C9F08430B1F48091800061
:1004F0008F7D03C0809180008F7780938000089566
:1005000084B58F7784BD089584B58F7DFBCF8091AE
:10051000B0008F778093B00008958091B0008F7DF8
:10052000F9CFCF93DF93282F30E0F901EA52FF4F44
:100530008491F901E05EFD4FD491F901E25CFD4F39
:10054000C491CC23A1F081110E946802EC2FF0E04D
:10055000EE0FFF1FE453FF4FA591B491EC91ED23F3
:1005600081E090E009F480E0DF91CF91089580E090
:1005700090E0FACF1F93CF93DF93282F30E0F9015B
:10058000EA52FF4F8491F901E05EFD4FD491F901E9
:10059000E25CFD4FC491CC23A9F0162F81110E947B
:1005A0006802EC2FF0E0EE0FFF1FEC5CFD4FA59111
:1005B000B4918FB7F894EC91111108C0D095DE2357
:1005C000DC938FBFDF91CF911F910895DE2BF8CF81
:1005D000CF93DF9390E0FC01E05EFD4F2491825CBD
:1005E0009D4FFC0184918823C9F090E0880F991FEA
:1005F000FC01EE53FF4FA591B491FC01EC5CFD4F63
:10060000C591D49161110DC09FB7F8948C9120953C
:1006100082238C938881282328839FBFDF91CF91E9
:100620000895623051F49FB7F8943C91822F8095E1
:1006300083238C93E8812E2BEFCF8FB7F894EC9126
:100640002E2B2C938FBFEACF8F929F92AF92BF92A7
:10065000CF92DF92EF92FF920F931F93CF938C0173
:100660006A017B0180917501843071F08F3FA1F1A7
:10067000CF911F910F91FF90EF90DF90CF90BF909F
:10068000AF909F908F900895E2E5F2E0C491C7FD8E
:10069000EFCF61E084E00E94E802CC2319F0C23081
:1006A00009F089C0980150E040E068E478EE81E00C
:1006B00090E00E942B3849015A0181E0881A910884
:1006C000A108B108CC2309F4D2C08091B100887F81
:1006D00084608093B10087C084E080937501E2E577
:1006E000F2E0C491CF3F09F4C3CFC13021F150F003
:1006F000C23009F43EC0C7FDBBCF61E084E00E9478
:10070000E802CDCF14BC15BC84B5826084BD85B52C
:10071000816085BDE2E4F2E0E491F0E0EE0FFF1FBE
:10072000EC5CFD4F85919491E4E2F2E0E491E0937A
:100730005505C0E0AECF10928000109281008091EC
:100740008100886080938100809181008160809326
:100750008100E2E4F2E0E491F0E0EE0FFF1FEC5CD8
:10076000FD4F85919491E4E2F2E0E491E093540529
:1007700090CF1092B0001092B1008091B0008260D2
:100780008093B0008091B10081608093B100E2E479
:10079000F2E0E491F0E0EE0FFF1FEC5CFD4F85917D
:1007A00094919093530580935205E4E2F2E0E49132
:1007B000E09351056ECF980150E040E060E072E1B7
:1007C0008AE790E00E942B3849015A0181E0881A9B
:1007D0009108A108B108C13031F480918100887F6F
:1007E000816080938100D801AA0FBB1FA7019601E9
:1007F0000E94E73528EE33E040E050E00E940938DF
:10080000C13099F0C23019F1C11132CF87BC2093A9
:100810005E0530935F0540936005509361058091BC
:100820006E00826080936E0023CF90928900809248
:10083000880020935A0530935B0540935C055093E4
:100840005D0580916F00826080936F0011CF809270
:10085000B3002093560530935705409358055093A5
:1008600059058091700082608093700001CF85B53A
:10087000887F836085BDB7CF8E50806480937C0075
:1008800080917A00806480937A0080917A0086FD5E
:10089000FCCF809178009091790008953FB7F8944B
:1008A0008091BA039091BB03A091BC03B091BD03AA
:1008B00026B5A89B05C02F3F19F00196A11DB11DBB
:1008C0003FBFBA2FA92F982F8827BC01CD01620FF7
:1008D000711D811D911D42E0660F771F881F991FB2
:1008E0004A95D1F708958F929F92AF92BF92CF927F
:1008F000DF92EF92FF926B017C010E944E044B014C
:100900005C01C114D104E104F104B9F00E944E0469
:10091000681979098A099B09683E73408105910528
:1009200080F321E0C21AD108E108F10888EE880EB0
:1009300083E0981EA11CB11CE4CFFF90EF90DF90E4
:10094000CF90BF90AF909F908F9008952091960385
:10095000260F3327331F21323105ECF42091C405D3
:10096000FC0190E080E0243069F082E00895A091DD
:1009700096032191AC014A585C4FA40FB52FB11DCD
:100980002C930196861798F380919603680F6093D5
:10099000960380E0089581E008951092C40581E0F7
:1009A0008093C30510929E0561E082E10E94BA0225
:1009B00061E083E10E94BA02E9EBF0E080818E7F82
:1009C000808380818D7F808388E48093B80085E474
:1009D0008093BC000895CF93DF9391E090937503CB
:1009E0008823B9F0C091B800D091BA008091BC00C2
:1009F0008A7B8093BC0060E082E10E94BA0260E0E2
:100A000083E10E94BA020E94CD04D093BA00C09341
:100A1000B800DF91CF910895CF92DF92EF92FF92CD
:100A20000F931F93CF93DF93D091ED0581E0D132E7
:100A300008F09CC0C091EC050E944E046B017C0143
:100A40008091C40581116CC082E08093C40581E06F
:100A50008093C3058FEF8093C2051092C105D09398
:100A6000C005ACECB5E0E0EAF5E080E0D8138DC05D
:100A700010929F0580919F05CC0FC82BC0939F05B6
:100A800080919E05813009F084C010929E050E94DD
:100A90004E046B017C0180919F058093BB00809187
:100AA000C6059091C705A091C805B091C905892BCD
:100AB0008A2B8B2BA1F00E944E040091C605109149
:100AC000C7052091C8053091C9056C197D098E09AB
:100AD0009F09061717072807390708F442C08091B5
:100AE000BC0083FDD8CF85EC8093BC000E944E04EF
:100AF0006B017C018091C405823009F44CC0809167
:100B0000C2058F3F09F469C08091C205803209F4A3
:100B100066C08091C205803309F463C084E026C0BA
:100B20008091C6059091C705A091C805B091C905EF
:100B3000892B8A2B8B2B09F483CF0E944E040091C2
:100B4000C6051091C7052091C8053091C9056C19DB
:100B50007D098E099F09061717072807390708F02E
:100B60006FCF8091C5050E94EB0485E01092CB0504
:100B70001092ED051092CA05DF91CF911F910F9150
:100B8000FF90EF90DF90CF9008959D9191938F5FAC
:100B90006DCF85EEA9CF8091C6059091C705A09134
:100BA000C805B091C905892B8A2B8B2B09F4A2CFDC
:100BB0000E944E040091C6051091C7052091C805FA
:100BC0003091C9056C197D098E099F090617170711
:100BD0002807390708F08ECFC4CF80E0C7CF82E066
:100BE000C5CF83E0C3CFCF92DF92EF92FF920F93F6
:100BF0001F93CF93DF93D82FC62F613208F098C090
:100C00000E944E046B017C018091C40581116BC070
:100C100081E08093C4058093C3059FEF9093C20544
:100C20001092C1059C0F9093C00580939F05809101
:100C30009F05DD0FD82BD0939F0580919E058130B5
:100C400009F078C010929E050E944E046B017C0151
:100C500080919F058093BB008091C6059091C70548
:100C6000A091C805B091C905892B8A2B8B2BA1F0C7
:100C70000E944E040091C6051091C7052091C80539
:100C80003091C9056C197D098E099F090617170750
:100C90002807390708F448C08091BC0083FDD8CFED
:100CA00085EC8093BC000E944E046B017C01809116
:100CB000C405813009F440C08091C1058C1710F43F
:100CC000C091C105E0EAF5E0A2E7B5E080E08C1351
:100CD00055C08C2FDF91CF911F910F91FF90EF9016
:100CE000DF90CF9008958091C6059091C705A0919F
:100CF000C805B091C905892B8A2B8B2B09F484CFA9
:100D00000E944E040091C6051091C7052091C805A8
:100D10003091C9056C197D098E099F0906171707BF
:100D20002807390708F070CF8091C5050E94EB04B1
:100D3000C0E0CFCF85EEB5CF8091C6059091C705B5
:100D4000A091C805B091C905892B8A2B8B2B09F47A
:100D5000AECF0E944E040091C6051091C7052091A8
:100D6000C8053091C9056C197D098E099F090617C0
:100D700017072807390708F09ACFD6CF91919D938E
:100D80008F5FA5CF0895E091710580917005E817F8
:100D900030F4F0E0EE58FA4F808190E008958FEF44
:100DA0009FEF089590917105809170052FEF3FEFAF
:100DB000981748F4E92FF0E0EE58FA4F208130E020
:100DC0009F5F90937105C9010895CF92DF92EF92D2
:100DD000FF920F931F93CF93DF937C01CB018A0186
:100DE0002091CA05222389F0EB016B01C40ED51EA8
:100DF000CC15DD0569F06991D701ED91FC91019069
:100E0000F081E02DC7010995F3CF642F0E94A6045D
:100E1000C801DF91CF911F910F91FF90EF90DF906C
:100E2000CF900895CF93DF931F92CDB7DEB769833C
:100E30002091CA052223F9F02091ED05203258F0C7
:100E400021E030E0FC013383228390E080E00F90CA
:100E5000DF91CF9108958091CB05E82FF0E0E45326
:100E6000FA4F998190838F5F8093CB058093ED0536
:100E700081E090E0ECCF61E0CE0101960E94A604F3
:100E8000F7CFCF93C62F91E09093CA0598E6909341
:100E9000EC051092CB051092ED05682F8DE896E0D9
:100EA0000E9412076C2F8DE896E00E941207CF91E6
:100EB0000C940C05682F8DE896E00C9412070895A9
:100EC00090E080E008958091380590913905019671
:100ED00067E070E00E94F5379093DF048093DE04B2
:100EE000880F991FFC01E053FB4F8081918101978E
:100EF000880F991FFC01EE0FFF1FE45BFE4F20815E
:100F000031813093650520936405880F991FFC019A
:100F1000E25BFE4F8081918190936305809362052F
:100F20000895CF93DF93C0917303D0917403882306
:100F300009F469C080910F0190911001FC01EE0F3E
:100F4000FF1FEF50FC4F9C0137FD08C040815181CD
:100F500053834283215031093297F6CF3093C10435
:100F60002093C004D093F203C093F1032091640155
:100F700030916501AE01421B530B509372034093B5
:100F80007103C217D307C0F4D0936501C093640105
:100F9000109274031092730381E040917103509199
:100FA000720320917A0130917B01241735070CF0F0
:100FB00080E0DF91CF910895FC01EE0FFF1FED500F
:100FC000FC4F408151812417350711F7E1EFF3E021
:100FD00050E040E0481759074CF461917191621755
:100FE000730708F49B014F5F5F4FF4CF30936501A7
:100FF0002093640197FF02C090E080E09093C104C9
:101000008093C004C5CF81E10E943C04C817D90772
:101010001CF681E10E943C04909374038093730357
:101020002091640130916501821B930B90937203B0
:1010300080937103B1CF81E10E943C0490936501DC
:10104000809364019093740380937303E1EFF3E062
:1010500024E0E131F20719F081939193F9CF80E117
:1010600090E09093C1048093C00408952091CA0435
:101070003091CB044FE254E090E080E064E04F3ADE
:101080005607A9F030E020E0F901EE0FFF1FE40F52
:10109000F51F608171816130710509F401962F5F40
:1010A0003F4F2830310581F7405F5F4FE7CF3093E6
:1010B000CB042093CA0429E030E03093CD04209380
:1010C000CC0408958091CA049091CB04EFE1F4E040
:1010D00024E0EF39F207A1F011821082138212820C
:1010E0001582148217821682118610861386128644
:1010F0001586148617861686709688E090E0E8CFED
:101100009093CB048093CA0488E090E09093CD0440
:101110008093CC0408959C012D7F2130310529F165
:101120008530910511F19C0127503109223031059C
:10113000E0F00297E9F42091410530914205C901A0
:1011400083709927892B39F4C90164E670E00E9405
:10115000F537892B81F4C90160E971E00E94F53708
:10116000892B49F08CE190E008958FE190E008959B
:101170008EE190E008958DE190E008958091110155
:1011800090911201019761F480910001882341F050
:101190008091640190916501909363018093620155
:1011A000109200018091F1039091F20390936501F8
:1011B00080936401089580910701909108019093B4
:1011C000E8048093E70480916A0190916B01909309
:1011D000400580933F0584E690E0909369018093F9
:1011E000680180916001909161011816190624F43C
:1011F0001092E5041092E40461E082E00C94BA02DB
:10120000880F991FFC01EE53FC4F80819181892B3F
:1012100081F481E090E0918380838091B904909182
:10122000BA0401969093BA048093B90481E0809344
:10123000D0030895AF92BF92CF92DF92EF92FF92C8
:101240000F931F93CF93DF93CDB7DEB72E970FB6D3
:10125000F894DEBF0FBECDBF8C0181E08093CA053C
:1012600088E68093EC051092CB051092ED0590E096
:1012700080E00E945A070E940C0567E088E60E9401
:10128000F3051092710580937005811101C0FFCFA5
:101290007E018FE0E80EF11CFE0131966F019AE0AD
:1012A000B92E8DE896E00E94D206982F92959F70F5
:1012B0008F709B9D800D112490E0F7019293829393
:1012C0007F01CE16DF0669F70E940C05A981BA815D
:1012D000CD018053984F90939305809392053B8165
:1012E000309394056D817E81609395052F812093C5
:1012F0009905498540939605EB84E0929705FD8416
:10130000F09298057727E3E5F2E021E0231730F427
:101310005491650F711D2F5F3196F8CF323039F43B
:101320009D0123703327232B11F46F5F7F4F9C01A6
:101330002D5C37403695279536952795EDE6F1E0FB
:10134000AE9FC001AF9F900DBE9F900D1124280F3E
:10135000391F21503109260F371FA8E1B0E00E9444
:1013600029365B016C01A40EB11CC11CD11CA60165
:101370009501ACE3B0E00E94E7359B01AC012E0D76
:10138000311D411D511D0E94E7356F0D711D811DDD
:10139000911D60597A4C8249974C60939A057093DD
:1013A0009B0580939C0590939D058CE0E2E9F5E018
:1013B000D80101900D928A95E1F7C8012E960FB6DB
:1013C000F894DEBF0FBECDBFDF91CF911F910F917B
:1013D000FF90EF90DF90CF90BF90AF900895CF93A4
:1013E00091E09093CA0598E69093EC051092CB0596
:1013F0001092ED05682F8DE896E00E9412070E947A
:101400000C0561E088E60E94F30510927105809357
:101410007005811101C0FFCF8DE896E00E94D206D1
:10142000C82F0E940C058C2FCF9108958FE00E9449
:10143000EF09682F6E7F8FE00C944107CF93C82F80
:101440008EE00E94EF09682FCC2329F061608EE0C6
:10145000CF910C9441076E7FFACF1F93CF93DF9308
:10146000382F562F842F2AE0622F0E94D53782957D
:10147000807F182F190F852F0E94D5378295807F86
:10148000D82FD90F832F0E94D5378295807FC82F00
:10149000C90F81E08093CA0588E68093EC0510921D
:1014A000CB051092ED0587E090E00E945A07612F6E
:1014B0006F778DE896E00E9412076D2F6F778DE8A9
:1014C00096E00E9412076C2F6F778DE896E00E94DD
:1014D000120760E88DE896E00E9412070E940C0552
:1014E00081E00E941E0ADF91CF911F910C94160A91
:1014F000FF920F931F93CF93DF93F82EC091780143
:10150000D09179010091760110917701209761F5D2
:101510000115110549F587E090E090936F058093E0
:101520006E0580E00E941E0A0E94160A40916E0518
:10153000602F8C2F0E942D0AFF2081F010926D05E4
:1015400010926C0510926B0510926A051092690555
:10155000109268051092670510926605DF91CF9191
:101560001F910F91FF90089510926F0510926E05D4
:10157000D8CF9F92AF92BF92CF92DF92EF92FF921D
:101580000F931F93CF93DF938230910509F0A0C092
:101590008091680190916901609105017091060147
:1015A0000E94F5377093CF036093CE03C1E0809122
:1015B000CE039091CF0397FDF0C083E00E9491028B
:1015C000892B09F0EAC06091050170910601072E90
:1015D000000C880B990B0E9473048FE00E94EF09A6
:1015E00080FF0AC00E94160A8091730190917401D5
:1015F000019711F4C0933E058EEE95E00E94A10183
:101600008337910581F4C0933E058091450590E0B4
:1016100090937901809378018091460590E09093B2
:1016200077018093760186E00E949102892BA1F4D4
:101630008091E7049091E804892B71F41092CF0314
:101640001092CE038091CE039091CF030197909397
:10165000CF038093CE03ABCF80E00E949107882315
:1016600059F02091ED043091EE0480916D0190913C
:101670006E018217930714F78FB7F8944091CA034D
:101680005091CB036091CC037091CD038FBF8091BB
:101690004D0590914E05A0914F05B0915005481B06
:1016A000590B6A0B7B0B8091680190916901209125
:1016B000050130910601821B930B092E000CAA0B29
:1016C000BB0B84179507A607B70708F4B7CFBACFA7
:1016D000039709F062C0809168019091690190932D
:1016E000CF038093CE038CE9E82EFF24FA9494E68E
:1016F000C92ED12C992493948091CE039091CF033D
:10170000181619060CF049C08FE00E943C04B7017E
:101710000E94F5378B015B018AE0A80EB11CB092E4
:101720004701A09246018EE00E943C04B6010E944F
:10173000F537EB01709345016093440161E070E07F
:1017400080E090E00E947304809117018823E1F00B
:101750000A5F1F4F0330110570F01092CF031092F3
:10176000CE038091CE039091CF0301979093CF0346
:101770008093CE03C1CF2497239778F785E00E940A
:101780009102892B51F3EDCF259759F785E0A816E3
:10179000B10439F790921701E4CFDF91CF911F91F7
:1017A0000F91FF90EF90DF90CF90BF90AF909F9000
:1017B0000895CF93DF93EC0160E08E810E94BA021E
:1017C00061E08E810E94BA0260E08E810E94BA02BE
:1017D0008BE891E00197F1F7DF91CF910895CF92D7
:1017E000DF92EF92FF920F931F93CF93DF936C01E1
:1017F0007C0187E0E80EF11CD0E0C0E0062F10E08D
:10180000B8010C2E02C0759567950A94E2F76170D5
:10181000F70181917F010E94BA022196C430D1055F
:1018200079F7C601DF91CF911F910F91FF90EF9053
:10183000DF90CF900C94D90BCF92DF92EF92FF9272
:101840000F931F93CF93DF93EC01F62E642F8C81BF
:101850000E94BA028D818F3F19F060E00E94BA02A7
:101860000F2D10E08F8584FF25C06E0187E0C80E24
:10187000D11CF12CE12CB8010E2C02C07595679596
:101880000A94E2F76170F60181916F010E94BA0239
:10189000FFEFEF1AFF0A88E0E816F10461F7CE01C6
:1018A000DF91CF911F910F91FF90EF90DF90CF903C
:1018B0000C94D90BB80184E0759567958A95E1F78A
:1018C000CE010E94EF0B6F2DCE01DF91CF911F91C2
:1018D0000F91FF90EF90DF90CF900C94EF0B40E0D2
:1018E000682F8FE996E00C941C0C81E00E946F0C2D
:1018F0008BE39FE10197F1F70895CF93DF93823057
:1019000029F49091AE0698609093AE068093B2064B
:101910001092B30680E48093B40680E18093B5060C
:1019200080E58093B60661E08091A3060E94E802FC
:101930008091A4068F3F19F061E00E94E80261E007
:101940008091A5060E94E802CFE9D6E09E012F59BA
:1019500036408091AE0684FD0BC084E090E0219675
:101960002817390744F461E08E810E94E802EECF27
:1019700088E090E0F4CF8BE39DE00197F1F760E021
:101980008091A3060E94BA0260E08091A5060E94A1
:10199000BA028091A4068F3F19F060E00E94BA025B
:1019A0008091AE0684FD34C063E08FE996E00E942A
:1019B000EF0BCBE4D6E4CE010197F1F763E08FE9BA
:1019C00096E00E94EF0B2197F1F763E08FE996E034
:1019D0000E94EF0B83E592E00197F1F762E08FE957
:1019E00096E00E94EF0B8091AE0680620E946F0C21
:1019F00084E08093AF068CE00E946F0C0E94750C0F
:101A000082E08093B00686E0DF91CF910C946F0C5A
:101A100080620E946F0C8BE496E40197F1F780914D
:101A2000AE0680620E946F0C83E592E00197F1F7A9
:101A30008091AE0680620E946F0CD5CF643008F0B2
:101A400063E09091B206691710F06FEF690FE62F0F
:101A5000F0E0E156F94F9489890F80680C946F0C7F
:101A600041E00E941C0C81E090E008950F931F93C9
:101A7000CF93DF938B0128E0829FC0011124806403
:101A80000E946F0CE801085F1F4F69918FE996E093
:101A90000E94300DC017D107C1F7DF91CF911F9180
:101AA0000F9108950F931F93CF93DF938C01D0E094
:101AB000C0E0F801EC0FFD1F6491662339F041E0AE
:101AC0008FE996E00E941C0C2196F3CFCE01DF91A6
:101AD000CF911F910F910895FB0101900020E9F72C
:101AE0003197AF01461B570BDC01ED91FC91028051
:101AF000F381E02D09948F929F92AF92BF92EF9263
:101B0000FF920F931F93CF93DF93CDB7DEB7A197CB
:101B10000FB6F894DEBF0FBECDBF7C01FA01CB013A
:101B200019A2223008F42AE08E010F5D1F4F822E89
:101B3000912CB12CA12CBF01A50194010E94093860
:101B4000F901CA016A300CF5605DD8016E938D0110
:101B5000232B242B252B79F790E080E0109721F0A0
:101B6000BD01C7010E946C0DA1960FB6F894DEBFAF
:101B70000FBECDBFDF91CF911F910F91FF90EF90DE
:101B8000BF90AF909F908F900895695CDECFCF9209
:101B9000DF92EF92FF920F931F93CF93DF936B012E
:101BA000770FEE08FF08F7FE1FC0EC01E881F9810E
:101BB0000190F081E02D6DE209958C0144275527B5
:101BC000BA014C195D096E097F092AE0CE010E9415
:101BD0007B0D800F911FDF91CF911F910F91FF908F
:101BE000EF90DF90CF9008952AE0B701A601DF9132
:101BF000CF911F910F91FF90EF90DF90CF900C94B9
:101C00007B0D6115710511F00C946C0D90E080E076
:101C100008950F931F93CF93DF9300917801109154
:101C20007901C0917601D09177010A30110534F421
:101C300070E060E08FE996E00E94C70DB8018FE97F
:101C400096E00E94C70D64EA72E08FE996E00E9478
:101C5000010ECA30D10534F470E060E08FE996E0FF
:101C60000E94C70DBE018FE996E0DF91CF911F91D1
:101C70000F910C94C70D61E084E00E941E0DE0916D
:101C80003805F0913905EE0FFF1FEE56FE4F6081CB
:101C900071818FE996E00E94010E67EA72E08FE998
:101CA00096E00E94010E809144058A3030F470E085
:101CB00060E08FE996E00E94C70D4091440550E036
:101CC00070E060E02AE08FE996E00C947B0D60E024
:101CD00084E00E941E0D809145058A3030F470E04A
:101CE00060E08FE996E00E94C70D4091450550E005
:101CF00070E060E02AE08FE996E00E947B0D64EAE4
:101D000072E08FE996E00E94010E809146058A30CC
:101D100030F470E060E08FE996E00E94C70D4091DA
:101D2000460550E070E060E02AE08FE996E00E940E
:101D30007B0D64EA72E08FE996E00E94010E8091CB
:101D400047058A3030F470E060E08FE996E00E9449
:101D5000C70D4091470550E070E060E02AE08FE950
:101D600096E00C947B0DCF93DF931092BF04E2ECCE
:101D7000F3E030E020E0E901419151912F5F3F4FC6
:101D8000452BC9F3D093C104C093C004811110C086
:101D9000FE01EE0FFF1FEE53FC4F11821082809167
:101DA000B9049091BA0401979093BA048093B9044E
:101DB00060E083E00E941E0DCC0FDD1FCC0FDD1F05
:101DC000CE57DE4F688179818FE996E00E94010E3F
:101DD00061E083E00E941E0DE091C004F091C10417
:101DE000EE0FFF1FEE0FFF1FEE57FE4F6281738154
:101DF0008FE996E0DF91CF910C94010ECF93DF93A2
:101E0000EC018091990690919A06009759F02091E3
:101E10009B0630919C062C173D0720F081E0DF9156
:101E2000CF910895BE016F5F7F4F0E947539009773
:101E300089F090939A0680939906D0939C06C0935C
:101E40009B0620919D0630919E06232B39F7FC01BD
:101E50001082E4CF80E0E3CFFF920F931F93CF93E4
:101E6000DF9300D0CDB7DEB7FF24F3948EEE95E07C
:101E70000E94C301892B51F18EEE95E00E94A101D1
:101E80008A3019F4F0923E05F1CF89831A820091CD
:101E90009D0610919E060F5F1F4FC8010E94FE0E07
:101EA000882321F32091990630919A0680919D060E
:101EB00090919E06BE016F5F7F4F820F931F0E941D
:101EC0003B3A10939E0600939D06D0CF0F900F9043
:101ED000DF91CF911F910F91FF9008950E94CF0144
:101EE00081110C942C0F08959F92AF92BF92CF92C4
:101EF000DF92EF92FF920F931F93CF93DF9310E047
:101F000000E0B7E0EB2EF12CC7E0CC2ED5E0BD2EE3
:101F1000AA24A39488EC982E94E1D92EC8010E949B
:101F2000D135282F30E0F8013197E734F10508F07A
:101F30004BC0E356F04F0C944A381B102010201071
:101F40002010201020102010201020102010281009
:101F500030103C10441049104E10531056105E10B3
:101F600063106310631063106310631063106B10D1
:101F7000701075107C10811086108B108B108B10D8
:101F80008B108B108B108B108B108B108B108B1079
:101F90008B108B108B108B108B108B108B108B1069
:101FA0008B108B108B108B108B108B108B108B1059
:101FB0008B108B108B108B108B108B108B108B1049
:101FC000BC10C110C610CB10309304012093030144
:101FD0000F5F1F4F0834110509F0A0CF0E9462085F
:101FE00080916F01909170010197880F991FFC01FA
:101FF000EE0FFF1FE45BFE4F2081318130937901AA
:1020000020937801880F991FFC01E25BFE4F8081CD
:102010009181909377018093760180E0DF91CF9159
:102020001F910F91FF90EF90DF90CF90BF90AF90F6
:102030009F900C94780A3093020120930101C8CF3D
:10204000F801EE0FFF1FE85BFE4F31832083C0CF06
:102050008D9DC001112490936B0180936A01B8CFCC
:102060008D9DC001112490930801809307019093E6
:10207000E8048093E704ACCF899DC00111249093BC
:102080005F0180935E01A4CF30937B0120937A019E
:102090009FCF30936301209362019ACF3093120156
:1020A0002093110195CFA092700392CF8B9DC00118
:1020B000112490930601809305018ACF30936E011D
:1020C00020936D0185CFF801EE0FFF1FE855FB4F00
:1020D00021503109BACF30930C0120930B0178CFF6
:1020E0003093DA032093D90373CF21503109309311
:1020F000700120936F016CCF3093670120936601CC
:1021000067CF3093100120930F0162CF30933B05CE
:1021100020933A055DCFC8018197B7010E94F5373A
:10212000E9012197C69EF001C79EF00D1124E80F2A
:10213000F91FEE0FFF1FEE50FB4FD183C083880FB6
:10214000991FFC01EE56FE4F608171818EEE95E085
:102150000E94010E66EA72E08EEE95E00E94010E8A
:10216000BE018EEE95E00E94C70D69EA72E08EEE28
:1021700095E00E946C0D2CCF30933D0520933C05DB
:1021800027CF3093DF032093DE0322CF30930E015D
:1021900020930D011DCF309361012093600118CF72
:1021A00085ED8093BC008091C6059091C705A091F4
:1021B000C805B091C9050796A11DB11D23E0B695CC
:1021C000A795979587952A95D1F72091BC0024FD76
:1021D00003C01092C40508954091C6055091C705EB
:1021E0006091C8057091C905452B462B472B69F3B3
:1021F0000097A105B10541F025E32A95F1F700000C
:102200000197A109B109E1CF8091C5050C94EB04B8
:102210001F93CF93DF93EC01162F0E94D13518172F
:1022200039F0612FCE01DF91CF911F910C94D935F8
:10223000DF91CF911F910895AF92BF92CF92DF921D
:10224000EF92FF920F931F93CF93DF9310E000E084
:1022500025E0C22ED12C38ECA32EB12C44E1E42E83
:10226000F12C0834110508F04FC0F801E65CFE4E71
:102270000C944A389A119F11A411A411A411A4110D
:10228000A411A411A411A411A411AC11B511BA1177
:10229000C011C511CA11CF11D211D811DD11DD1134
:1022A000DD11DD11DD11DD11DD11E611EB11F01194
:1022B000F511FA1182118411841184118411841191
:1022C0008411841184118411841184118411841166
:1022D0008411841184118411841184118411841156
:1022E0008411841184118411841184118411841146
:1022F000841184118411841184118411FF1104123A
:1023000009120E1203E410E06C2FC8010E9408119C
:102310000F5F1F4F0834110509F0A3CFDF91CF9154
:102320001F910F91FF90EF90DF90CF90BF90AF90F3
:102330000C946208C0910301D0910401E5CFC091D3
:102340000101D0910201E0CFF801EE0FFF1FE85B21
:10235000FE4FC081D181D8CF80916A0190916B01ED
:10236000B7010E94F537EB01CFCF80910701909123
:102370000801F6CF80915E0190915F01B501F1CF28
:10238000C0917A01D0917B01BFCFC0916201D09101
:102390006301BACFC0911101D0911201B5CFC091A4
:1023A0007003B2CF8091050190910601B601D9CF9B
:1023B000C0916D01D0916E01A7CFF801EE0FFF1F04
:1023C000E855FB4FC081D18121969ECFC0910B0172
:1023D000D0910C0199CFC091D903D091DA0394CF59
:1023E000C0916F01D0917001EFCFC0916601D09183
:1023F00067018ACFC0910F01D091100185CFC091A4
:102400003C05D0913D0580CFC091DE03D091DF0324
:102410007BCFC0910D01D0910E0176CFC0916001AC
:10242000D091610171CFEF92FF920F931F93CF93E1
:10243000DF93FC01D0E0C0E020ED37E000E911E0DF
:1024400084E6E82EF12C2E173F0784F0E090430538
:10245000F12C01E010E00E151F0534F5C8010E94B3
:102460008B08C80FD91F0F5F1F4FF5CFC9018370AD
:102470009927892B31F4C901B7010E94F537892BBF
:1024800089F4C901B8010E94F537AC0181E0452B00
:1024900009F080E090E083599E4FC80FD91F2F5F4D
:1024A0003F4FD1CF81E0F6CF2091440530E02C5F43
:1024B0003F4F2C0F3D1FE7E0F0E0C901BF010E9434
:1024C000F5379093390580933805C9010196BF010E
:1024D0000E94F537CB0166E070E00E94F5378093EB
:1024E0003A0590933B05682F80E290E0DF91CF9111
:1024F0001F910F91FF90EF900C9408118F929F9273
:10250000AF92BF92CF92DF92EF92FF92F82E0E948D
:10251000670E80916C01882361F080910701909192
:10252000080101972091E7043091E8042817390742
:102530001CF4FF2009F491C085E10E943C04BC0119
:10254000990F880B990B0E94B4349B01AC0160E099
:1025500070E080E894E40E94A53620E030E040E896
:102560005FE30E94383620E030E44CE156E40E94FC
:1025700013350E9453376B017C0129E537E44CEB9E
:1025800053E30E941335A70196010E94133523E7F8
:102590003FE745E759E30E943936A70196010E94BB
:1025A00013352BEE3FEF43E95AE30E9439369B0186
:1025B000AC0160E070E080E89FE30E94A53623E371
:1025C00033E948E853E40E94383620E030E040EC3C
:1025D0005FE30E9439366B017C0161E08CE00E9470
:1025E0001E0D20E030E040E251E4C701B6010E9438
:1025F000AD3487FF06C070E060E08FE996E00E948E
:10260000C70DA7019601C701B6010E949B376CEA6E
:1026100072E081111AC046015701E894B7F82FEF14
:102620003FEF4FE75FE7C501B4010E949B3781117F
:102630001DC02FEF3FEF4FE75FE7C501B4010E94D8
:10264000AD3418169CF460EB72E08FE996E00E94BE
:102650006C0D0E943B0E10926C01FF90EF90DF908A
:10266000CF90BF90AF909F908F9008952FEF3FEF46
:102670004FE75FE4C701B6010E94463718161CF405
:1026800064EB72E0E2CF2FEF3FEF4FE75FECC70163
:10269000B6010E94AD3487FDF3CF20E030E0A90100
:1026A000C701B6010E94AD3487FF0AC041E06DE268
:1026B0008FE996E00E941C0CF7FAF094F7F8F0947A
:1026C0002AE037ED43EA5BE3C701B6010E943936E1
:1026D0004B015C010E9417376B017C010E94B234F0
:1026E0009B01AC01C501B4010E9438364B015C016D
:1026F0002AE0B701A6018FE996E00E947B0D41E038
:102700006EE28FE996E00E941C0C20E030E040E28F
:1027100051E4C501B4010E9413354B015C010E94D4
:1027200017376B01F12CE12C2AE0B701A6018FE9E4
:1027300096E00E947B0DC701B6010E94B2349B0156
:10274000AC01C501B4010E94383620E030E040E21F
:1027500051E40E9413350E941737AB0170E060E02E
:102760002AE08FE996E00E947B0D73CF1F920F92B3
:102770000FB60F9211242F933F934F935F936F9354
:102780007F938F939F93AF93BF93EF93FF9380912A
:10279000560590915705A0915805B0915905892B80
:1027A0008A2B8B2BD1F190915105E0915205F0913C
:1027B0005305808189278083809156059091570524
:1027C000A0915805B0915905181619061A061B064E
:1027D0009CF48091560590915705A0915805B091B1
:1027E00059050197A109B1098093560590935705A2
:1027F000A0935805B0935905FF91EF91BF91AF9108
:102800009F918F917F916F915F914F913F912F9108
:102810000F900FBE0F901F90189580917501E2E503
:10282000F2E0E4919FEF90937501E13051F030F0C8
:10283000E23069F060E00E94BA02DECF10926E00D2
:10284000F9CF90916F009D7F90936F00F3CF90919F
:1028500070009D7F9093700091E09093B0009091F4
:10286000B100987F94609093B1001092B300E2CFD2
:102870001F920F920FB60F9211242F933F934F93F5
:102880005F936F937F938F939F93AF93BF93EF93D8
:10289000FF938EEE95E00E94D901FF91EF91BF91D9
:1028A000AF919F918F917F916F915F914F913F91E8
:1028B0002F910F900FBE0F901F9018951F920F929F
:1028C0000FB60F9211242F938F939F93EF93FF9343
:1028D000E091FE05F091FF058081E0910406F09102
:1028E000050682FD1BC09081809107068F5F8F7364
:1028F00020910806821741F0E0910706F0E0E251CE
:10290000FA4F958F80930706FF91EF919F918F91DA
:102910002F910F900FBE0F901F9018958081F4CFCC
:102920001F920F920FB60F9211242F933F938F9304
:102930009F93AF93BF938091CA039091CB03A091D3
:10294000CC03B091CD033091B90323E0230F2D3791
:1029500058F50196A11DB11D2093B9038093CA03B8
:102960009093CB03A093CC03B093CD038091BA0393
:102970009091BB03A091BC03B091BD030196A11D32
:10298000B11D8093BA039093BB03A093BC03B09393
:10299000BD03BF91AF919F918F913F912F910F9068
:1029A0000FBE0F901F90189526E8230F0296A11DC9
:1029B000B11DD2CF1F920F920FB60F9211240F901C
:1029C0000FBE0F901F9018951F920F920FB60F9287
:1029D00011242F933F934F935F936F937F938F9324
:1029E0009F93AF93BF93EF93FF938091B900887F3C
:1029F000803609F44AC0F0F5883209F4A7C018F50A
:102A0000803109F49BC0B8F4882309F4F9C08830F8
:102A100009F494C0FF91EF91BF91AF919F918F9175
:102A20007F916F915F914F913F912F910F900FBECA
:102A30000F901F901895883109F488C0803251F7A3
:102A40008093C20514C0803409F49DC040F48033E3
:102A5000B9F38833F9F68093C20585ECB0C08035B0
:102A600009F485C0883509F496C0883499F60E9427
:102A7000D010D0CF883909F48CC038F5883729F0C8
:102A800050F4883611F0803729F683E08093C4052E
:102A90001092B80357C0883809F47BC0803919F008
:102AA000803809F0B7CF8091B803803208F071C048
:102AB000E091B80381E08E0F8093B8038091BB0052
:102AC000F0E0E856FC4F80833DC0803B39F0E0F4F5
:102AD000803A09F479C0883A09F09CCF84E0809369
:102AE000C4051092970310929603E091C003F091F1
:102AF000C10309958091960381110FC081E08093F5
:102B000096031092760309C0803C09F4A6CF883C56
:102B100009F4A3CF883B09F07DCFE091970381E0D2
:102B20008E0F80939703F0E0EA58FC4F80818093EA
:102B3000BB00909197038091960329C080919F05D7
:102B40008093BB0085EC8093BC0064CF9091C1055D
:102B50008091C005981758F5E091C10581E08E0F6E
:102B60008093C105F0E0E056FA4F8081E9CFE09113
:102B7000C10581E08E0F8093C1058091BB00F0E01C
:102B8000E056FA4F80839091C1058091C005981757
:102B9000C8F285E8D8CFE091C10581E08E0F80931F
:102BA000C1058091BB00F0E0E056FA4F8083809130
:102BB000C30581115CCF81E080939E0584EA8093F8
:102BC000BC001092C40526CF85EC8093BC00109207
:102BD000C4058091B803803230F4E091B803F0E08E
:102BE000E856FC4F10826091B80370E0E091BE039C
:102BF000F091BF0388E993E009951092B8030ACFDA
:102C00001092C20534CF1092F1051092F00588EEB3
:102C100093E0A0E0B0E08093F2059093F305A093D9
:102C2000F405B093F50528E732E03093EF052093E3
:102C3000EE0525EC30E03093FB052093FA0524ECFB
:102C400030E03093FD052093FC0520EC30E030931C
:102C5000FF052093FE0521EC30E030930106209320
:102C6000000622EC30E0309303062093020626ECA7
:102C700030E0309305062093040610920706109268
:102C800008061092090610920A062FEF3FEF3093C4
:102C90008C0620938B061092900610928F068093DC
:102CA000910690939206A0939306B09394068AE8B7
:102CB00092E090938E0680938D061092A206109259
:102CC000A1068CE992E09093A00680939F0687E08E
:102CD0008093A3068FEF8093A40688E08093A506D7
:102CE00089E08093A6068AE08093A7068BE0809314
:102CF000A8068CE08093A9061092AA061092AB0653
:102D00001092AC061092AD061092AE0681E00E94C1
:102D10007D0C10929A061092990610929C061092C1
:102D20009B0610929E0610929D0690E080E00E9405
:102D3000FE0E2091990630919A06811113C021153B
:102D4000310519F0C9010E94EC3810929A061092D0
:102D5000990610929E0610929D0610929C06109263
:102D60009B06089510929E0610929D066BEA72E0F3
:102D7000C9010C943B3ACF93DF9300D000D01F924F
:102D8000CDB7DEB7789484B5826084BD84B58160A8
:102D900084BD85B5826085BD85B5816085BD809126
:102DA0006E00816080936E0010928100809181009E
:102DB0008260809381008091810081608093810096
:102DC000809180008160809380008091B100846058
:102DD0008093B1008091B00081608093B0008091B9
:102DE0007A00846080937A0080917A008260809378
:102DF0007A0080917A00816080937A0080917A00D5
:102E0000806880937A001092C10062E086E00E94A0
:102E1000E80260E083E00E94E80262E085E00E9450
:102E2000E80261E082E00E94E802E091FE05F09194
:102E3000FF0582E08083E091FA05F091FB051082A6
:102E4000E091FC05F091FD058FEC80831092060661
:102E5000E0910206F091030626E02083E09100064F
:102E6000F0910106808180618083E0910006F091FD
:102E70000106808188608083E0910006F091010660
:102E8000808180688083E0910006F0910106808156
:102E90008F7D808384E190E00E94FE0E1092710588
:102EA000109270051092CB051092ED050E94CD0492
:102EB00083E691E09093C1038093C00384E691E0A0
:102EC0009093BF038093BE038EE00E94EF09682FAA
:102ED0006B738EE00E94410780ED97E0909393051D
:102EE0008093920581E080939405809395051092DC
:102EF0009605109297051092980536E03093990543
:102F000080E795E3ADE6B8E380939A0590939B053F
:102F1000A0939C05B0939D0580E00E941E0A8EE060
:102F20000E94EF09682F6D7F8EE00E9441070E948A
:102F3000160A8FE00E94EF09682F6D7F8FE00E94D4
:102F4000410782E00E947D0C60EC71E081E00E940C
:102F5000360D68EB71E082E00E94360D60EB71E0A7
:102F600083E00E94360D68EA71E084E00E94360D2D
:102F700060EA71E085E00E94360DE8E1F1E030E0C2
:102F800020E0808191810097C1F04FEF5FEF211524
:102F9000310521F0DF0112974D915C91BA016F5F0D
:102FA0007F4F71836083880F991F840F951F9383D0
:102FB00082832E5F3F4F3496E4CF41E050E0509340
:102FC000B4044093B3045093180440931704109230
:102FD000C3031092C2031092C5031092C40310924F
:102FE000C7031092C60383E090E09093C1048093DE
:102FF000C00486E00E949102892B31F481E090E0C8
:1030000090937201809371010E94DB080E941B085B
:1030100040916E0560917601809178010E942D0AA1
:1030200081E495E00E941A09809141059091420542
:103030000E9413120E94630790E080E00E94D13545
:10304000813009F06DC085E490E00E94D135813077
:1030500021F490E080E00E9400098FEF9FEF9093B1
:10306000D1048093D0049093D3048093D20490939E
:10307000D5048093D4049093D7048093D60490937E
:10308000D9048093D8049093DB048093DA0490935E
:10309000DD048093DC0487E090E09093CB04809380
:1030A000CA041092CD041092CC0417E08091CC0495
:1030B0009091CD040597ECF51092CB041092CA04C0
:1030C0004091CA045091CB042091CC043091CD049E
:1030D000473051050CF03FC2129FF001139FF00DD5
:1030E0001124E40FF51FEE0FFF1FEE50FB4FAFEF63
:1030F000BFEFB183A083149FC001159F900D1124D1
:10310000819660E0820F931F0E9408118091CA048B
:103110009091CB0401969093CB048093CA04D0CFB6
:1031200085E490E00E94D135882309F48CCF0E9479
:10313000740F61E085E490E00E940811E091DE04E4
:10314000F091DF04EE0FFF1FE053FB4F8081918170
:10315000019619F481E08093E104E3E06E2E712C76
:103160002FB7F8948091CA039091CB03A091CC0320
:10317000B091CD032FBF80934D0590934E05A09342
:103180004F05B093500581E495E00E941A098091A3
:103190003F0590914005181619061CF480E00E9426
:1031A0007E128FE00E94EF0980FDDCC180917101E9
:1031B00090917201892B09F4DEC180913E05811145
:1031C000DAC180916C0590916D05019709F0AEC050
:1031D00080916A0190916B019093400580933F0527
:1031E0008091E9049091EA0401969093EA04809317
:1031F000E9040B9734F48091E7049091E804019777
:1032000021F41092EA041092E9048091470581119B
:1032100011C08091460590E02091620530916305D0
:103220008217930739F02091760130917701821748
:10323000930739F48091EB049091EC041816190669
:103240006CF560E082E00E94BA028091E704909100
:10325000E804892B31F488E290E09093E8048093AD
:10326000E70484EF91E0909369018093680164EF33
:1032700071E080E090E00E94730461E082E00E94CF
:10328000BA028091EB049091EC0401968430910590
:1032900009F4B8C29093EC048093EB0486E00E949A
:1032A0009102892B61F080916A0590916B05889756
:1032B00031F080916605909167054497D9F481E0DB
:1032C0000E94780A48EC50E060E070E08BE492E005
:1032D0000E9424038091660190916701892B21F45B
:1032E00010927401109273011092EA041092E90492
:1032F0000E9463078091680590916905019709F024
:103300008CC220916401309165018091620190919D
:1033100063018217930708F480C280916A05909137
:103320006B05019690936B0580936A0586E00E9479
:103330009102892B09F04EC020916001309161010A
:10334000121613060CF040C08091E60481113CC0B7
:1033500081E08093E6046091E4047091E50440917B
:103360005E0150915F01649FC001659F900D749F45
:10337000900D11246CE271E00E94F537CB01B90188
:103380000E94F53780916A0190916B01860F971F1B
:1033900090936B0180936A0104E110E0B8010E94F0
:1033A000F5378BE090E00E94081180916A019091BE
:1033B0006B011816190644F083E090E00E940009A2
:1033C00010936B0100936A010E94DB081092EE04D7
:1033D0001092ED048091E30490914505911127C26C
:1033E00090914605911123C2811122C011E01093E2
:1033F000E30481E495E00E941A09809141059091CF
:1034000042050E9413120E94630780916601909109
:103410006701029711F41093E20480915C0190918E
:103420005D01892B09F0FEC181E090E00E94000956
:1034300000916C0510916D050115110509F00BC384
:103440008091E2048823B9F11092E2048091E104B2
:10345000811112C28091E004882309F4EEC1109218
:10346000E00480916F0190917001181619060CF01C
:10347000F3C1E1E0F0E0F0937401E0937301019790
:10348000880F991FFC01EE0FFF1FE45BFE4F2081A8
:1034900031813093790120937801880F991FFC01C5
:1034A000E25BFE4F8081918190937701809376015A
:1034B00080E00E94780A8091F104882309F4CBC24D
:1034C0001092F10480913A0590913B05019666E0D7
:1034D00070E00E94F537E0913805F091390546E03B
:1034E000E42EF12C57E0952E9F01220F331FA901E6
:1034F00040535B4F6A0176E0A72EB12C51E0E51AEC
:10350000F10809F4F4C1989ED001999EB00D1124E0
:10351000AE0FBF1FAA0FBB1FAE50BB4F4D915C91AA
:103520004F3F540799F0DA01AA0FBB1FAE53BB4FB0
:103530002D913C9111972F5F3F4F2D933C93201776
:10354000310724F0D6014D935C9389010196B501B2
:103550000E94F537D3CF2F5F3F4F3093CD04209398
:10356000CC04A4CD0E94160A80917301909174013D
:10357000019709F01BCE10923E0580913C05909179
:103580003D05019749F5E0913A05F0913B058091A1
:1035900038059091390560916F012091700137E0F5
:1035A0003E9FA0013F9F500D1124840F951FFC01E9
:1035B000EE0FFF1FEE50FB4F6083218321E020932D
:1035C000F1046F5F81960E94081160916F016F5F37
:1035D0008DE190E00E9408110E94DB080E941B0808
:1035E0000E94750C8091710190917201892B09F0F4
:1035F0007AC061E080E00E941E0D68EB72E08FE906
:1036000096E00E94010EE6E8F1E0F093F004E0930A
:10361000EF0483E00E949102892B41F48091EF0432
:103620009091F004181619060CF460C0809166059C
:1036300090916705019690936705809366050197C1
:1036400009F0D6C08091760190917701059690930C
:103650006305809362058091780190917901909340
:1036600065058093640580916205909163058C33B4
:1036700091057CF02091640530916505CC9790937D
:103680006305809362052F5F3F4F3093650520935C
:10369000640580E00E941E0A0E94160A40E06091C4
:1036A0006205809164050E942D0A0E94750C10929B
:1036B000EC041092EB0481E495E00E941A0981E089
:1036C0000E947E1264E670E080E090E00E94730445
:1036D00086E00E949102892B71F383E00E9491029F
:1036E000019749F36ECD0E943B0E8DCF81E495E0AA
:1036F0000E941A090E94670E40E550E060E070E009
:1037000080E193E00E9424032091EF043091F004C3
:10371000C90163E070E00E94F5377C01892B21F537
:10372000233131400CF12AEF30E03093CF03209366
:10373000CE0380E00E9491070091CE031091CF0349
:1037400017FD19C083E00E949102892BA1F461E06A
:1037500070E080E090E00E94730401501109109322
:10376000CF030093CE03E8CF42E850E05093CF035D
:103770004093CE03DECFEF2821F581E00E94910730
:103780008823F9F02091ED043091EE0480916D01D1
:1037900090916E0182179307A4F081E090E09093DE
:1037A0006905809368051092F0041092EF040E945E
:1037B000BE0844E150E060E070E08AEB92E00E94D5
:1037C000240381E080936C01A1E0B0E0B0936D052B
:1037D000A0936C05B0937201A09371018091EF04E6
:1037E0009091F00401979093F0048093EF0411CF2F
:1037F000809162059091630505969093630580938F
:10380000620531CF1092EC041092EB0484E690E054
:10381000909369018093680141CD10926B051092DD
:103820006A0584CD10925D0110925C0101CE88235F
:1038300009F4FECD1092E304FBCDE0913805F09140
:103840003905EE0FFF1FE053FB4F8081918190936C
:10385000700180936F0105CE892B51F41092740191
:103860001092730180E00E941E0A0E94160A23CE65
:1038700081E08093E1041FCEE091DE04F091DF044B
:10388000EE0FFF1FE053FB4F80819181019611F0F5
:103890001092E1048091730190917401892B09F0D9
:1038A0000ACE80913C0590913D05019709F003CE29
:1038B00040913A0550913B052091380530913905EA
:1038C00067E0649FC001659F900D1124820F931FD4
:1038D000FC01EE0FFF1FEE50FB4F1182108221E022
:1038E0002093F10461E081960E940811E4CD909349
:1038F000CD048093CC0485E090E09093CB0480933A
:10390000CA041093CF040093CE04DF01AA0FBB1F9B
:10391000A053BB4F6C916F5FCF0144960E9408117A
:103920001092C3041092C2041092C5041092C404F1
:103930001092C7041092C6041092C9041092C804D1
:1039400084E090E09093C1048093C004809166016C
:1039500090916701029709F47EC081E08093BF04D3
:103960001092CD041092CC041092CB041092CA0491
:10397000E7E0BE2E04E010E0C090CC04D090CD046F
:10398000B7E0CB16D1040CF058C080913A05909165
:103990003B05B89E9001B99E300D1124F901EC0D44
:1039A000FD1DEE0FFF1FEE50FB4F0190F081E02D4B
:1039B00076014FEFE41AF40A0396B8010E94F53736
:1039C000B89ED001B99EB00D1124AC0DBD1DAA0F3B
:1039D000BB1FAE50BB4F8D919C91E817F90709F5BD
:1039E0008091CA049091CB0401969093CB0480936C
:1039F000CA04C70167E070E00E94F537D901A80F3B
:103A0000B91FAA0FBB1FAE50BB4F8D919C91E817F9
:103A1000F90739F0EF3FFE0759F0019611F01092C7
:103A2000BF043196369720F083E090E00E940009B1
:103A3000F092CD04E092CC049FCF8091CA04909183
:103A4000CB04049744F08091BF04811104C082E04C
:103A500090E00E94000985E00E949102892B11F0FC
:103A60000C94142EE1E0F0E0F0937201E093710108
:103A70001092EE041092ED0481E080936C010E949C
:103A8000DB080E94750C82E090E090934B018093DC
:103A90004A0121E030E0309349012093480110921F
:103AA000BE041092BD041092BC041092BB0461E4E9
:103AB00070E080E090E00E9473048091BD049091DA
:103AC000BE0401969093BE048093BD04069721F531
:103AD0008091B9049091BA04181619060CF0FEC32F
:103AE00080E00E94B30EE091C004F091C104EE0F9B
:103AF000FF1FE459FD4F8081918190934B0180938A
:103B00004A0185E00E949102019731F468EE73E06A
:103B100080E090E00E94730485E00E949102892B6E
:103B200031F282E390E09093B8048093B70402E30B
:103B300010E088248A94982C92E0E92EF12C24E05D
:103B4000422E512C36E0232E312C8091B7049091D7
:103B5000B80497FF02C00C94F42D8FE00E943C043F
:103B60006CE97FEF0E94F5376B015B015AE0A50E0F
:103B7000B11CB0924701A09246018EE00E943C0425
:103B800064E670E00E94F53770934501609344014C
:103B90008091CC049091CD04892B09F062C46730E8
:103BA00071050CF4A6C38091B5049091B6040196FA
:103BB0009093B6048093B5049092CD048092CC0487
:103BC0001093B8040093B7042091B3043091B40467
:103BD0002E5F3F4F3093B4042093B3042091B1047F
:103BE0003091B20428173907C4F48091AF04909142
:103BF000B0049093B6048093B504E0914A01F0912B
:103C00004B01EE0FFF1FEE0FFF1FEC5EFE4F80819A
:103C100091819093B4048093B30410921701809122
:103C2000CC049091CD048F3F980709F056C481E0F1
:103C300090E09093CD048093CC04909316018093F0
:103C40001501A6E4B0E0B0936901A093680120914A
:103C5000480130914901C0904A01D0904B011216A1
:103C600013060CF072C08091B3049091B4040296D4
:103C70009093B4048093B3048091B5049091B604FA
:103C800001969093B6048093B5042130310509F074
:103C900042C00E94750CC6010197880F991FFC0154
:103CA000EE0FFF1FE85EFE4F408151815093B40438
:103CB0004093B304880F991FFC01E65EFE4F2081FC
:103CC00031813093180420931704241B350BC9014C
:103CD000019797FDC901959587959093B2048093BC
:103CE000B1041092B0041092AF0410921E0410920E
:103CF0001D041092B6041092B504F0924901E092AE
:103D00004801E1E0F0E0F093CD04E093CC041092A0
:103D10006901109268018091B3049091B4042091DC
:103D2000170430911804821793070CF0DEC3DC01EE
:103D3000AA0FBB1FA653BE4F880F991FFC01E85363
:103D4000FE4F6C9180810E941E0D83E090E00E94E6
:103D5000B90A8091B3049091B404DC01AA0FBB1F8F
:103D6000A653BE4F880F991FFC01E853FE4F6C917C
:103D700080810E941E0DCA94CD2809F055C0809103
:103D8000480190914901029741F410921C0410924D
:103D90001B0410921A04109219048091B50490919A
:103DA000B6042091BB043091BC04232B09F0FCC362
:103DB000009709F0B6C38BE092E00E94520D47E0F5
:103DC00050E05093EC044093EB0485E00E94910294
:103DD000892B51F58091B5049091B60402962091FB
:103DE000BB043091BC04220F331F220F331F820FFC
:103DF000931F90934B0180934A0141E050E0509310
:103E0000CD044093CC045093490140934801109352
:103E1000B8040093B7041092BC041092BB0485E070
:103E20000E949102892BD9F380914A0190914B0114
:103E3000029709F06DC180916F0190917001181681
:103E4000190634F081E090E09093700180936F0147
:103E50008091B5049091B604892B09F046C08091F9
:103E6000CC049091CD04019791F4809178019091C8
:103E7000790190931E0480931D0487E190E0909354
:103E80001C0480931B0410921A0410921904809150
:103E90001D0490911E049093790180937801E09124
:103EA0006F01F0917001EE0FFF1FEE0FFF1FE85B37
:103EB000FE4F918380830A9734F470E060E08FE9CD
:103EC00096E00E94C70D60917801709179018FE9A9
:103ED00096E00E94C70D64EA72E08FE996E00E94C6
:103EE000010EF092EC04E092EB048091B504909105
:103EF000B604019709F040C08091CC049091CD04A4
:103F0000019791F4809176019091770190931E042E
:103F100080931D048BE390E090931C0480931B041A
:103F200010921A041092190480911D0490911E049D
:103F30009093770180937601E0916F01F091700189
:103F4000EE0FFF1FEE0FFF1FE65BFE4F9183808396
:103F50000A9734F470E060E08FE996E00E94C70DA4
:103F600060917601709177018FE996E00E94C70D0C
:103F7000F092EC04E092EB048091B5049091B604C9
:103F8000029709F08AC080916F0190917001209191
:103F9000CC043091CD042130310561F490931E049E
:103FA00080931D0450921C0440921B0430931A0409
:103FB00020931904909314018093130180911D04A0
:103FC00090911E049093700180936F0168EC72E0F1
:103FD0008FE996E00E94010E60916F01709170016F
:103FE0008FE996E00E94C70D89E090E09093EC0481
:103FF0008093EB0480916F019091700120911301E7
:10400000309114018217930709F447C00197880F74
:10401000991FFC01EE0FFF1FE45BFE4FC080D180B3
:10402000D0927901C0927801880F991FFC01E25B60
:10403000FE4F80819181909377018093760160E0BB
:1040400085E00E941E0D9AE0C916D10434F470E098
:1040500060E08FE996E00E94C70D60917801709151
:1040600079018FE996E00E94C70D60E088E00E9428
:104070001E0D80917601909177010A9734F470E0DB
:1040800060E08FE996E00E94C70D60917601709123
:1040900077018FE996E00E94C70D8091B504909159
:1040A000B6040397A9F58091CC049091CD040197B3
:1040B000B1F4809166019091670190931E04809302
:1040C0001D04F0921C04E0921B0410921A0410923A
:1040D00019041092E10410931604009315046091E2
:1040E0001D0480911E046093660180936701A1E026
:1040F000B0E0B0931404A09313046E5F8FE996E0D0
:104100000E94300DE1E0F0E0F093EC04E093EB046A
:1041100080914A0190914B01039709F0FDC2809173
:10412000B5049091B6042091BB043091BC04232BBC
:1041300011F00C94722B892B09F041C08091CC04B2
:104140009091CD04019791F480917A0190917B0137
:1041500090931E0480931D042AEF30E030931C04DA
:1041600020931B04F0921A04E092190480911D041C
:1041700090911E0490937B0180937A01843691057F
:1041800094F461ED72E08FE996E00E94010E809157
:104190007A0190917B010A9734F461ED72E08FE926
:1041A00096E00E94010E60917A0170917B018FE987
:1041B00096E00E94C70D7092EC046092EB0480912F
:1041C000B5049091B6040197B9F58091CC04909113
:1041D000CD040197A9F480911101909112010197EA
:1041E00009F01AC290921E0480921D044AEF50E01A
:1041F00050931C0440931B0490921A04809219045B
:1042000080911D0490911E0490936301809362013C
:104210008F3F980709F009C281E090E09093120166
:104220008093110163ED72E08FE996E00E94010E28
:104230005092EC044092EB048091B5049091B60446
:10424000029709F03DC210921E0410921D0468ED01
:1042500072E08FE996E00E94010E3092EC04209209
:10426000EB0485E00E949102892B09F029C20E948B
:10427000750C60E082E00E941E0D8DEC91E00E94C2
:10428000520D61E082E00E941E0D85EC91E00E94DB
:10429000520D7092C1046092C004C090C004D090CE
:1042A000C1041C141D040CF0E4C161E089E00E940B
:1042B0001E0DB6018FE996E00E94C70D68EE73E00F
:1042C00080E090E00E9473048091C0049091C1044A
:1042D00001979093C1048093C004DFCF83E192E003
:1042E0000E94520D41E050E050934B0140934A012F
:1042F00013CC64307105CCF58091B5049091B6046F
:1043000001979093B6048093B5049092CD04809267
:10431000CC041093B8040093B7042091B3043091F7
:10432000B404225031093093B4042093B304209193
:10433000AF043091B004821793070CF06ECC8091DB
:10434000B1049091B2049093B6048093B504E091C7
:104350004A01F0914B01EE0FFF1FEE0FFF1FEA5EC7
:10436000FE4F80819181019754CC6530710509F031
:1043700078C080EA90E0909369018093680196E0AC
:10438000C90ED11CA3E0CA16D10408F46AC0E0919A
:104390004A01F0914B0131974091BB045091BC040C
:1043A0002091B1043091B204429FC001439F900D0F
:1043B000529F900D112463E0EE0FFF1F6A95E1F705
:1043C0002091B5043091B604820F931FE80FF91FB6
:1043D000EE0FFF1FE15EFB4F21E030E031832083D1
:1043E00037E0A316B10404F180911D0490911E04DE
:1043F000019690931E0480931D041093B8040093BB
:10440000B70420911B0430911C042817390744F489
:104410008091190490911A0490931E0480931D04B6
:1044200081E08093E304F9CB44E0A416B104CCF41A
:1044300080911D0490911E04019790931E04809317
:104440001D041093B8040093B7042091190430910F
:104450001A048217930724F780911B0490911C047F
:10446000DBCF8091480190914901892B09F0EFCB76
:104470008091B3049091B404DC01AA0FBB1FA65332
:10448000BE4F880F991FFC01E853FE4F6C9180814D
:104490000E941E0D8091150190911601029708F05F
:1044A000BECB83E090E00E94B90A8091EB0490912A
:1044B000EC04181619060CF0B2CB67EA72E08FE92B
:1044C00096E00E94010E8091EB049091EC0401971C
:1044D0009093EC048093EB04E8CF019709F0B7CBFD
:1044E0001092CD041092CC04B2CB109249011092DC
:1044F0004801F601EE0FFF1FEE0FFF1FEC5EFE4FAF
:10450000808191819093B4048093B3041092B60497
:104510001092B50424E630E03093690120936801DD
:1045200014CC8130910549F486E092E00E94520D4E
:104530005092EC044092EB0448CC8230910549F44F
:104540008FEF91E00E94520D3092EC042092EB0428
:104550003CCC8330910559F486EF91E00E94520DD6
:1045600088E090E09093EC048093EB042ECC0497C9
:1045700009F02BCC10926901109268018091CC0453
:104580009091CD04019709F420CCA1E0B0E0B09364
:10459000BC04A093BB04B0934901A09348011093BD
:1045A000B8040093B70411CC009719F48FEE91E092
:1045B000C9CF8130910559F486EE91E00E94520DE9
:1045C000E8E0F0E0F093EC04E093EB04FECB823003
:1045D000910519F48FED91E0B5CF8330910519F471
:1045E0008AED91E0A3CF049709F0EFCB1092690117
:1045F000109268018091CC049091CD04019709F448
:10460000E4CB1092BC041092BB0421E030E0309364
:10461000490120934801C3CF8091620190916301C9
:1046200090931E0480931D04E1CD1092120110920C
:1046300011018436910594F461ED72E08FE996E002
:104640000E94010E80916201909163010A9734F4F7
:1046500061ED72E08FE996E00E94010E60916201C7
:10466000709163018FE996E00E94C70D67EA72E0DE
:10467000DBCD0E94750C60E082E00E94BA02A8E0E7
:10468000B0E0B093B804A093B7040E941B088FE079
:1046900090E09093100180930F01C090B704D090E8
:1046A000B804B8E0CB16D1040CF083C71092120402
:1046B000109211040E94BE0861E082E00E94BA02DA
:1046C0008091B5049091B6040397C1F410926901EA
:1046D000109268018091CC049091CD04019771F003
:1046E00021E030E03093BC042093BB041093B80465
:1046F0000093B70430934901209348018091480109
:1047000090914901029741F460E080E00E941E0D03
:1047100085EB91E00E94520D80914A0190914B01EE
:10472000049709F005C18091B5049091B604892BD6
:1047300009F040C08091CC049091CD04019791F490
:104740008BE090E090931C0480931B04F0921A0479
:10475000E092190480916D0190916E0190931E0476
:1047600080931D0480911D0490911E0490936E010E
:1047700080936D0167EA72E08FE996E00E94010E76
:1047800080916D0190916E010B9734F461ED72E0B0
:104790008FE996E00E94010E60916D0170916E01AB
:1047A000615071098FE996E00E94C70D7092EC0488
:1047B0006092EB048091B5049091B604019709F0E2
:1047C00057C08091CC049091CD04019781F410934F
:1047D0001C0400931B0410921A0410921904809177
:1047E0000B0190910C0190931E0480931D0467EAC5
:1047F00072E08FE996E00E94010E80911D04909175
:104800001E040A9734F461ED72E08FE996E00E948D
:10481000010E60911D0470911E048FE996E00E94C4
:10482000C70DC0901D04D0901E0480910B01909183
:104830000C01C816D906C1F0D0920C01C0920B0130
:104840008091090190910A01019771F461E08CE077
:104850000E941E0D6FED72E0CD2811F063EE72E044
:104860008FE996E00E94010E7092EC046092EB04D6
:104870008091B5049091B6040297E9F58091CC043B
:104880009091CD0481309105D1F490931C048093D4
:104890001B0410921A041092190480910B0190913C
:1048A0000C01892B21F410920A01109209018091C8
:1048B000090190910A0190931E0480931D04809138
:1048C0001D0490911E0490930A018093090163EEE8
:1048D00072E0019711F06FED72E08FE996E00E94AF
:1048E000010E7092EC046092EB0481E090E09093F2
:1048F00014048093130485E00E949102892B51F4E3
:1049000080910B0190910C01892B21F410920A01E6
:10491000109209018091480190914901029741F458
:1049200060E080E00E941E0D88E991E00E94520D37
:1049300060914A0170914B016530710509F00DC11C
:104940008091B5049091B6042091BB043091BC04D1
:10495000232B09F07AC7892B09F043C08091CC043E
:104960009091CD0481309105B1F4A6E4B0E0B0930C
:104970001C04A0931B0490931A0480931904809143
:1049800007019091080164E170E00E94F53770938F
:104990001E0460931D0480911D0490911E0444E147
:1049A000489F9001499F300D1124309308012093B6
:1049B00007013093E8042093E7040A9734F461ED8B
:1049C00072E08FE996E00E94010E60911D047091E3
:1049D0001E048FE996E00E94C70DF092EC04E0926D
:1049E000EB048091B5049091B604019709F043C09F
:1049F0008091CC049091CD0481309105B1F427E3EE
:104A000030E030931C0420931B0490931A0480938D
:104A1000190480916A0190916B0164E170E00E9439
:104A2000F53770931E0460931D0480911D049091CE
:104A30001E0444E1489F9001499F300D112430939A
:104A40006B0120936A013093400520933F050A973C
:104A500034F461ED72E08FE996E00E94010E6091FE
:104A60001D0470911E048FE996E00E94C70DF0921C
:104A7000EC04E092EB048091B5049091B6040297A7
:104A800009F03FC08091CC049091CD048130910514
:104A9000B1F429E130E030931C0420931B0490937F
:104AA0001A048093190480915E0190915F0168EC73
:104AB00070E00E94F53770931E0460931D0480918E
:104AC0001D0490911E0448EC489F9001499F300DB1
:104AD000112430935F0120935E010A9734F461ED55
:104AE00072E08FE996E00E94010E60911D047091C2
:104AF0001E048FE996E00E94C70DF092EC04E0924C
:104B0000EB048091B5049091B6040397C1F4109220
:104B10006901109268018091CC049091CD040197B5
:104B200071F0E1E0F0E0F093BC04E093BB0410937B
:104B3000B8040093B704F0934901E09348018091D1
:104B4000480190914901029741F460E080E00E94A1
:104B50001E0D88E891E00E94520D80914A019091CB
:104B60004B01069709F047C08091B5049091B604B7
:104B70002091CC043091CD04880F991F213031054C
:104B800089F450921C0440921B0490921A04809263
:104B90001904FC01E053FB4F2081318130931E0446
:104BA00020931D0460911D0470911E0480539B4F3F
:104BB000DC016D937C93161617060CF0C7C68FE9BF
:104BC00096E00E94C70DE1E0F0E0F093EC04E09382
:104BD000EB04F0931404E093130480914801909146
:104BE0004901029741F461E081E00E941E0D83E7D4
:104BF00091E00E94520D80914A0190914B010797DC
:104C000009F0A1C281E495E00E941A09809148014F
:104C1000909149010297B1F58091450590E09093FC
:104C2000F0038093EF038091460590E09093EE03AC
:104C30008093ED038091470590E09093EC0380937F
:104C4000EB038091440590E09093EA038093E9039D
:104C50008091430590E09093E8038093E70380916F
:104C60004105909142059093E6038093E5031092ED
:104C7000E1031092E2031092E3031092E40381E057
:104C80008093E0038091B5049091B604892B81F55F
:104C90008091CC049091CD04019791F487E190E04C
:104CA00090931C0480931B0410921A041092190410
:104CB0008091EF039091F00390931E0480931D0464
:104CC00080911D0490911E049093F0038093EF0354
:104CD0000A9734F470E060E08FE996E00E94C70D17
:104CE00060911D0470911E048FE996E00E94C70D2B
:104CF0008091B5049091B604019781F58091CC0420
:104D00009091CD04019791F48BE390E090931C0473
:104D100080931B0410921A04109219048091ED03E1
:104D20009091EE0390931E0480931D0480911D04C6
:104D300090911E049093EE038093ED030A9734F450
:104D400070E060E08FE996E00E94C70D60911D045D
:104D500070911E048FE996E00E94C70D8091B50402
:104D60009091B604029709F049C08091CC049091CB
:104D7000CD04019791F48BE390E090931C04809311
:104D80001B0410921A04109219048091E10390916F
:104D9000E20390931E0480931D0460911D047091A2
:104DA0001E04072E000C880B990B6093E10370938F
:104DB000E2038093E3039093E40320914705620F9D
:104DC000711D811D911D2CE330E040E050E00E94F8
:104DD0002B387093EC036093EB036A30710534F465
:104DE00070E060E08FE996E00E94C70D6091EB03F0
:104DF0007091EC038FE996E00E94C70D8091B50495
:104E00009091B604039709F041C0C090CC04D090B3
:104E1000CD04F1E0CF16D10409F58091E70390911C
:104E2000E8030E948B0890931C0480931B04D0928B
:104E30001A04C09219042091E9033091EA03821701
:104E4000930724F49093EA038093E9038091E903A4
:104E50009091EA0390931E0480931D0480911D0499
:104E600090911E049093EA038093E9030A9734F427
:104E700070E060E08FE996E00E94C70D60911D042C
:104E800070911E048FE996E00E94C70D8091B504D1
:104E90009091B604049789F58091CC049091CD044B
:104EA0008130910591F42CE030E030931C04209384
:104EB0001B0490931A04809319048091E703909146
:104EC000E80390931E0480931D0480911D0490912B
:104ED0001E049093E8038093E7030A9734F470E08C
:104EE00060E08FE996E00E94C70D60911D0470910B
:104EF0001E048FE996E00E94C70DF092EC04E09248
:104F0000EB048091B5049091B604059781F58091EA
:104F1000CC049091CD040197A1F488EB9BE0909391
:104F20001C0480931B0482EE97E090931A048093F4
:104F300019048091E5039091E60390931E048093F9
:104F40001D0460911D0470911E047093E60360932C
:104F5000E5038FE996E00E94C70D5092EC04409261
:104F6000EB0421E030E0309314042093130485E037
:104F70000E949102892B09F0C1C0D090E703909163
:104F8000E8038D2D0E948B082091E9033091EA03FC
:104F90008217930724F49093EA038093E9033091F6
:104FA000EB033A834091ED034B835091EF035C8315
:104FB000C090E903CD82D982A090E503B090E603CA
:104FC00081E08093CA0588E68093EC051092CB05BA
:104FD0001092ED0590E080E00E945A078A816AE015
:104FE0000E94D5378295807F682F690F8DE896E003
:104FF0000E9412078B816AE00E94D5378295807FDC
:10500000682F690F8DE896E00E9412078C816AE094
:105010000E94D5378295807F682F690F8DE896E0D2
:105020000E94120781E090E0A981A33010F090E087
:1050300080E09501281B390B4D2D4150550BFA018D
:10504000E651FF4FE491C20ED32ED11CB9017695E3
:10505000679576956795C60ED71EC90160E971E020
:105060000E94E137C60ED71EC90164E670E00E94B7
:10507000E137C61AD70AC6018E0F911D67E070E0AE
:105080000E94E137682F811101C067E08DE896E04A
:105090000E9412079AE0D92E8D816D2D0E94D5377E
:1050A0008295807F682F690F8DE896E00E94120735
:1050B00089816D2D0E94D5378295807F682F690F79
:1050C0008DE896E00E94120780E38A0D6D2D0E9404
:1050D000D5378295807F682F690F8DE896E00E9412
:1050E000120790E080E00E945A070E940C0581E4BC
:1050F00095E00E941A09C5010E941312809148018F
:1051000090914901029709F032C460E086E00E9464
:105110001E0D64EA72E08FE996E00E94010E60E0E5
:1051200089E00E941E0D64EA72E08FE996E00E9419
:10513000010E61E087E00E941E0D69EE72E08FE9CA
:1051400096E00E94010E80914A0190914B010897D0
:1051500009F0B4C08091B5049091B6042091BB04CD
:105160003091BC04232B09F08BC4892B19F5809155
:10517000CC049091CD04019761F410921A0410921E
:10518000190410921C0410921B0410921E04109219
:105190001D0468ED72E08FE996E00E94010E3092E6
:1051A000EC042092EB0485E00E949102892B11F41B
:1051B0000E94740F8091B5049091B604019719F57F
:1051C0008091CC049091CD04019761F410921A045F
:1051D0001092190410921C0410921B0410921E04C9
:1051E00010921D0468ED72E08FE996E00E94010EB6
:1051F0003092EC042092EB0485E00E949102892B0E
:1052000011F40E941C118091B5049091B60402978C
:10521000F1F48091CC049091CD04019761F4109247
:105220001A041092190410921C0410921B0410927C
:105230001E0410921D0467EE72E08FE996E00E9452
:10524000010EA1E0B0E0B093EC04A093EB048091D8
:10525000B5049091B6040397C1F4109269011092BD
:1052600068018091CC049091CD04019771F0E1E048
:10527000F0E0F093BC04E093BB041093B8040093F7
:10528000B704F0934901E09348018091480190915F
:105290004901029799F460E080E00E941E0D8BE6C0
:1052A00091E00E94520D8091DE039091DF03892BE3
:1052B00009F0E3C383E691E00E94520D80914A0118
:1052C00090914B01099709F08CC08091B5049091A1
:1052D000B604892B69F58091CC049091CD0481307E
:1052E000910581F410921A041092190490931C04F1
:1052F00080931B0480913C0590913D0590931E0482
:1053000080931D0480911D0490911E0490933D058F
:1053100080933C056FEE72E0019711F06BEE72E046
:105320008FE996E00E94010E7092EC046092EB040B
:105330008091B5049091B604019709F044C0809122
:10534000CC049091CD040197A1F410921A0410920C
:10535000190470921C0460921B048091600190916A
:10536000610143E050E0481B590B50931E044093E9
:105370001D0480911D0490911E04A3E0B0E0A81BC1
:10538000B90BB0936101A09360016BEE72E0AB2B9F
:1053900091F067EA72E08FE996E00E94010E609159
:1053A0001D0470911E046F5F7F4F8FE996E00E948D
:1053B000C70D67EA72E08FE996E00E94010E7092D5
:1053C000EC046092EB0480914801909149010297AE
:1053D00041F460E080E00E941E0D83E491E00E94B1
:1053E000520D80914A0190914B010A9709F074C0C7
:1053F0008091B5049091B604892BF1F48091CC048E
:105400009091CD04019761F410921A04109219043E
:1054100010921C0410921B0410921E0410921D0482
:1054200063EF72E08FE996E00E94010EE7E0F0E0A2
:10543000F093EC04E093EB048091B5049091B604F2
:105440000197E1F48091CC049091CD04019761F42F
:1054500010921A041092190410921C0410921B044A
:1054600010921E0410921D046BEF72E08FE996E01B
:105470000E94010E3092EC042092EB0485E00E9421
:105480009102892BD9F48091B5049091B604892BAF
:10549000A9F40E94750C21E030E03093490120937B
:1054A000480130924B0120924A011092E104F0929F
:1054B0006701E092660181E08093E20480914801F7
:1054C00090914901029741F460E081E00E941E0D35
:1054D00083E391E00E94520D8091E304882391F0D0
:1054E0008091130490911404019751F464E670E0E4
:1054F00080E090E00E947304109214041092130450
:105500001092E30485E00E949102892B09F046C0C5
:105510008091480190914901892B09F03FC0109278
:10552000B8041092B704109269011092680180913A
:10553000DE039091DF03892B59F40E943608181678
:10554000190634F441E050E05093DF034093DE034A
:105550000E943608209101013091020182179307C1
:10556000ECF012161306D4F40E94750C60E085E08E
:105570000E941E0D8CE291E00E94520D61E084E0D9
:105580000E941E0D83E291E00E94520D0E941C11A8
:1055900064EF71E080E090E00E9473048091B704B2
:1055A0009091B80401979093B8048093B7040C9439
:1055B000A51D83E00E949102892B09F077C881E044
:1055C0000E9491071092C1041092C0048091C004FF
:1055D0009091C104843691059CF480E00E9491076B
:1055E00061E070E080E090E00E9473048091C0046C
:1055F0009091C10401969093C1048093C004E6CFBA
:105600008091F1039091F2032091110430911204E2
:105610002817390724F490931204809311046091A1
:10562000640170916501861B970B209111043091E4
:10563000120437FF02C02F5F3F4F359527952E5F2D
:105640003F4F8217930708F428C8E8E0CE16D1042C
:1056500009F023C89B012F5F3F4F309363012093D4
:1056600062011092B8041092B70420910F0130919A
:105670001001E1EFF3E050E040E04D30510519F04A
:105680002A30310521F13093100120930F019093BE
:105690007B0180937A019C0197FF02C02F5F3F4FEF
:1056A00035952795820F931F019690930E01809355
:1056B0000D0144E650E060E070E083E992E00E9472
:1056C00024031092B8041092B7040C944D23A191B6
:1056D000B1916A177B0719F49A012E5F3F4F4F5F14
:1056E0005F4FCBCF892BF1F58091CC049091CD0405
:1056F000019791F410921A04109219048FE090E02F
:1057000090931C0480931B0480910F0190911001D1
:1057100090931E0480931D0480911D0490911E049B
:105720009093100180930F0167EA72E08FE996E091
:105730000E94010E80911D0490911E040A9734F47A
:1057400061ED72E08FE996E00E94010E60910F0119
:10575000709110018FE996E00E94C70D7092EC04E1
:105760006092EB048091B5049091B6040197F1F535
:105770008091CC049091CD04019791F410921A0479
:105780001092190484E190E090931C0480931B0410
:1057900080910D0190910E0190931E0480931D0441
:1057A00080911D0490911E0490930E0180930D0131
:1057B00066EA72E08FE996E00E94010E80911D0476
:1057C00090911E040A9734F461ED72E08FE996E03F
:1057D0000E94010E60910D0170910E018FE996E01B
:1057E0000E94C70D5092EC044092EB048091B504E6
:1057F0009091B60402970297C0F41092690110923A
:1058000068018091CC049091CD04019771F01092C1
:10581000BC041092BB041093B8040093B70441E099
:1058200050E0509349014093480180914801909184
:105830004901029711F00C948C2360E080E00E94F3
:105840001E0D89EA91E00C948A23892B09F051C03E
:105850008091CC049091CD040197A1F484E190E073
:1058600090931C0480931B0410921A041092190444
:1058700080910501909106010E94F53770931E04F6
:1058800060931D0480911D0490911E0421E030E07E
:10589000009731F045E0489F9001499F300D112459
:1058A0003093060120930501809105019091060136
:1058B0008436910594F461ED72E08FE996E00E94E0
:1058C000010E80910501909106010A9734F461ED73
:1058D00072E08FE996E00E94010E609105017091DF
:1058E00006018FE996E00E94C70D7092EC04609269
:1058F000EB048091B5049091B6048D7F81309105C1
:10590000B9F410926901109268012091CC04309191
:10591000CD042130310561F01092BC041092BB041B
:105920001093B8040093B704909349018093480101
:105930008091480190914901029709F00EC960E0F9
:1059400080E00E941E0D81E891E005C96115710596
:1059500039F467EE72E08FE996E00E94010E33C9D8
:105960006F3F7F4F09F02FC960E173E0F4CFC09023
:10597000B504D090B60452E0C516D104C1F0209110
:1059800047056091E1037091E2038091E3039091F8
:10599000E403620F711D811D911D2CE330E040E096
:1059A00050E00E942B387093EC036093EB038091DE
:1059B000EB039091EC03892B09F490C781E080936D
:1059C000E0038091B5049091B604029709F4BBCB33
:1059D00060E08AE00E941E0D8091EB039091EC0341
:1059E0000A9734F470E060E08FE996E00E94C70DFA
:1059F0006091EB037091EC038FE996E00E94C70D74
:105A0000A2CB1092EE031092ED038091EF039091E0
:105A1000F00301968831910509F19093F00380938A
:105A2000EF03A090EF03B090F003CD28E1F060E029
:105A300084E00E941E0D8AE0A816B10434F470E0E0
:105A400060E08FE996E00E94C70D6091EF037091CE
:105A5000F0038FE996E00E94C70D54C71092F0033F
:105A60001092EF03DECFB0921E04A0921D044AC72D
:105A7000D0921E04C0921D04A4CF8CE591E01CCCF2
:105A8000892B61F58091CC049091CD0481309105F2
:105A900081F410921A041092190490931C048093BC
:105AA0001B04809103019091040190931E04809344
:105AB0001D0480911D0490911E0490930401809315
:105AC0000301892B09F06AC06BEE72E08FE996E062
:105AD0000E94010E7092EC046092EB048091B50478
