:100000000C9432010C945A010C945A010C945A012C
:100010000C945A010C945A010C94C2140C949E1323
:100020000C945A010C945A010C945A010C945A01E4
:100030000C945A010C945A010C945A010C945A01D4
:100040000C9478140C945A010C9446140C942014BB
:100050000C945A010C945A010C945A010C945A01B4
:100060000C94CC140C945A0108000000BE92244950
:10007000123EABAAAA2ABECDCCCC4C3E00000080DA
:10008000BEABAAAAAA3E00000000BF000000803F4D
:100090000000000000084178D3BB4387D1133D190D
:1000A0000E3CC3BD4282AD2B3E68EC8276BED98F3A
:1000B000E1A93E4C80EFFFBE01C4FF7F3F0000007E
:1000C000000000000000240027002A0000000000BB
:1000D00023002600290000000008000201000003A0
:1000E00004070000000000000000000302050003F8
:1000F0000501040602044F676E692067696F726E1E
:100100006F2000556E6120766F6C74612000417520
:10011000746F6D617469636F2000537665676C69F5
:10012000612000657365677569746F004261636B78
:10013000757000436F73612076756F692066617218
:10014000653F0047696F726E692053742E627900B3
:10015000436869656469204175746F004261636B2F
:1001600075700044656661756C7400526970722E1A
:100170002020004C204D204D204720562053204465
:100180000052656174742E004C43442053742E62F7
:100190007920536C6565700053746F7020496E76DA
:1001A0002E2053656D707265004C756E672E20545D
:1001B0006F6C6C2E004C756365204275696F20432F
:1001C000616C2E20007472612E2E2E200043616C13
:1001D000696272617A696F6E6500412E492E004234
:1001E00061636B757000446174612F4F72610047E9
:1001F000696F726E69004261747465726961004F63
:100200006E2F4F6666004C75636500416C6C6172C1
:100210006D6500496D706F7374617A696F6E690006
:10022000010204081020408001020408102001028D
:100230000408102000000000250028002B00040402
:10024000040404040404020202020202030303037E
:100250000303021F1C1F1E1F1E1F1F1E1F1E1F0029
:10026000EB15933411241FBECFEFD8E0DEBFCDBF16
:1002700026E0A2E7B3E001C01D92AD3BB207E1F773
:1002800013E0A0E0B1E0ECE7F4E702C005900D92C6
:10029000A237B107D9F711E0C1E3D1E004C021973B
:1002A000FE010E943938C033D107C9F70E94A31656
:1002B0000C94313A0C940000809172059091730572
:1002C000891B990B089508950895AF92BF92CF921C
:1002D000DF92EF92FF920F931F93CF93DF936C0106
:1002E0007B018B01040F151FEB015E01AE18BF08E7
:1002F000C017D10759F06991D601ED91FC91019099
:10030000F081E02DC6010995892B79F7C501DF91B0
:10031000CF911F910F91FF90EF90DF90CF90BF9002
:10032000AF900895FC01538D448D252F30E0842F2C
:1003300090E0821B930B541710F0CF96089501970D
:100340000895FC01918D828D981761F0A28DAE0FFA
:10035000BF2FB11D5D968C91928D9F5F9F73928F81
:1003600090E008958FEF9FEF0895FC01918D828DAD
:10037000981731F0828DE80FF11D858D90E008957A
:100380008FEF9FEF0895FC01918D228D892F90E0D2
:10039000805C9F4F821B91098F739927089580EF8E
:1003A00095E00E94C30121E0892B09F420E0822F0F
:1003B0000895FC01A48DA80FB92FB11DA35ABF4FFA
:1003C0002C91848D90E001968F739927848FA68954
:1003D000B7892C93A089B1898C91837080648C93A8
:1003E000938D848D981306C00288F389E02D808157
:1003F0008F7D80830895EF92FF920F931F93CF9389
:10040000DF93EC0181E0888F9B8D8C8D98131AC04F
:10041000E889F989808185FF15C09FB7F894EE8936
:10042000FF896083E889F989808183708064808393
:100430009FBF81E090E0DF91CF911F910F91FF90DE
:10044000EF900895F62E0B8D10E00F5F1F4F0F7386
:100450001127E02E8C8D8E110CC00FB607FCFACF41
:10046000E889F989808185FFF5CFCE010E94D90105
:10047000F1CFEB8DEC0FFD2FF11DE35AFF4FF08212
:100480009FB7F8940B8FEA89FB8980818062CFCF78
:10049000CF93DF93EC01888D8823B9F0AA89BB89BB
:1004A000E889F9898C9185FD03C0808186FD0DC0A6
:1004B0000FB607FCF7CF8C9185FFF2CF808185FFC7
:1004C000EDCFCE010E94D901E9CFDF91CF91089500
:1004D000833081F028F4813099F08230A9F00895BA
:1004E0008730A9F08830C9F08430B1F48091800061
:1004F0008F7D03C0809180008F7780938000089566
:1005000084B58F7784BD089584B58F7DFBCF8091AE
:10051000B0008F778093B00008958091B0008F7DF8
:10052000F9CFCF93DF93282F30E0F901EA52FF4F44
:100530008491F901E05EFD4FD491F901E25CFD4F39
:10054000C491CC23A1F081110E946802EC2FF0E04D
:10055000EE0FFF1FE453FF4FA591B491EC91ED23F3
:1005600081E090E009F480E0DF91CF91089580E090
:1005700090E0FACF1F93CF93DF93282F30E0F9015B
:10058000EA52FF4F8491F901E05EFD4FD491F901E9
:10059000E25CFD4FC491CC23A9F0162F81110E947B
:1005A0006802EC2FF0E0EE0FFF1FEC5CFD4FA59111
:1005B000B4918FB7F894EC91111108C0D095DE2357
:1005C000DC938FBFDF91CF911F910895DE2BF8CF81
:1005D000CF93DF9390E0FC01E05EFD4F2491825CBD
:1005E0009D4FFC0184918823C9F090E0880F991FEA
:1005F000FC01EE53FF4FA591B491FC01EC5CFD4F63
:10060000C591D49161110DC09FB7F8948C9120953C
:1006100082238C938881282328839FBFDF91CF91E9
:100620000895623051F49FB7F8943C91822F8095E1
:1006300083238C93E8812E2BEFCF8FB7F894EC9126
:100640002E2B2C938FBFEACF8F929F92AF92BF92A7
:10065000CF92DF92EF92FF920F931F93CF938C0173
:100660006A017B0180917501843071F08F3FA1F1A7
:10067000CF911F910F91FF90EF90DF90CF90BF909F
:10068000AF909F908F900895E2E5F2E0C491C7FD8E
:10069000EFCF61E084E00E94E802CC2319F0C23081
:1006A00009F089C0980150E040E068E478EE81E00C
:1006B00090E00E941A3849015A0181E0881A910895
:1006C000A108B108CC2309F4D2C08091B100887F81
:1006D00084608093B10087C084E080937501E2E577
:1006E000F2E0C491CF3F09F4C3CFC13021F150F003
:1006F000C23009F43EC0C7FDBBCF61E084E00E9478
:10070000E802CDCF14BC15BC84B5826084BD85B52C
:10071000816085BDE2E4F2E0E491F0E0EE0FFF1FBE
:10072000EC5CFD4F85919491E4E2F2E0E491E0937A
:100730005705C0E0AECF10928000109281008091EA
:100740008100886080938100809181008160809326
:100750008100E2E4F2E0E491F0E0EE0FFF1FEC5CD8
:10076000FD4F85919491E4E2F2E0E491E093560527
:1007700090CF1092B0001092B1008091B0008260D2
:100780008093B0008091B10081608093B100E2E479
:10079000F2E0E491F0E0EE0FFF1FEC5CFD4F85917D
:1007A00094919093550580935405E4E2F2E0E4912E
:1007B000E09353056ECF980150E040E060E072E1B5
:1007C0008AE790E00E941A3849015A0181E0881AAC
:1007D0009108A108B108C13031F480918100887F6F
:1007E000816080938100D801AA0FBB1FA7019601E9
:1007F0000E94D63528EE33E040E050E00E94F83702
:10080000C13099F0C23019F1C11132CF87BC2093A9
:1008100060053093610540936205509363058091B4
:100820006E00826080936E0023CF90928900809248
:10083000880020935C0530935D0540935E055093DE
:100840005F0580916F00826080936F0011CF80926E
:10085000B300209358053093590540935A0550939F
:100860005B058091700082608093700001CF85B538
:10087000887F836085BDB7CF8E50806480937C0075
:1008800080917A00806480937A0080917A0086FD5E
:10089000FCCF809178009091790008953FB7F8944B
:1008A0008091BC039091BD03A091BE03B091BF03A2
:1008B00026B5A89B05C02F3F19F00196A11DB11DBB
:1008C0003FBFBA2FA92F982F8827BC01CD01620FF7
:1008D000711D811D911D42E0660F771F881F991FB2
:1008E0004A95D1F708958F929F92AF92BF92CF927F
:1008F000DF92EF92FF926B017C010E944E044B014C
:100900005C01C114D104E104F104B9F00E944E0469
:10091000681979098A099B09683E73408105910528
:1009200080F321E0C21AD108E108F10888EE880EB0
:1009300083E0981EA11CB11CE4CFFF90EF90DF90E4
:10094000CF90BF90AF909F908F9008952091980383
:10095000260F3327331F21323105ECF42091C605D1
:10096000FC0190E080E0243069F082E00895A091DD
:1009700098032191AC0148585C4FA40FB52FB11DCD
:100980002C930196861798F380919803680F6093D3
:10099000980380E0089581E008951092C60581E0F3
:1009A0008093C5051092A00561E082E10E94BA0221
:1009B00061E083E10E94BA02E9EBF0E080818E7F82
:1009C000808380818D7F808388E48093B80085E474
:1009D0008093BC000895CF93DF9391E090937703C9
:1009E0008823B9F0C091B800D091BA008091BC00C2
:1009F0008A7B8093BC0060E082E10E94BA0260E0E2
:100A000083E10E94BA020E94CD04D093BA00C09341
:100A1000B800DF91CF910895CF92DF92EF92FF92CD
:100A20000F931F93CF93DF93D091EF0581E0D132E5
:100A300008F09CC0C091EE050E944E046B017C0141
:100A40008091C60581116CC082E08093C60581E06B
:100A50008093C5058FEF8093C4051092C305D09392
:100A6000C205AEECB5E0E2EAF5E080E0D8138DC057
:100A70001092A1058091A105CC0FC82BC093A105B0
:100A80008091A005813009F084C01092A0050E94D9
:100A90004E046B017C018091A1058093BB00809185
:100AA000C8059091C905A091CA05B091CB05892BC5
:100AB0008A2B8B2BA1F00E944E040091C805109147
:100AC000C9052091CA053091CB056C197D098E09A5
:100AD0009F09061717072807390708F442C08091B5
:100AE000BC0083FDD8CF85EC8093BC000E944E04EF
:100AF0006B017C018091C605823009F44CC0809165
:100B0000C4058F3F09F469C08091C405803209F49F
:100B100066C08091C405803309F463C084E026C0B8
:100B20008091C8059091C905A091CA05B091CB05E7
:100B3000892B8A2B8B2B09F483CF0E944E040091C2
:100B4000C8051091C9052091CA053091CB056C19D3
:100B50007D098E099F09061717072807390708F02E
:100B60006FCF8091C7050E94EB0485E01092CD0500
:100B70001092EF051092CC05DF91CF911F910F914C
:100B8000FF90EF90DF90CF9008959D9191938F5FAC
:100B90006DCF85EEA9CF8091C8059091C905A09130
:100BA000CA05B091CB05892B8A2B8B2B09F4A2CFD8
:100BB0000E944E040091C8051091C9052091CA05F4
:100BC0003091CB056C197D098E099F09061717070F
:100BD0002807390708F08ECFC4CF80E0C7CF82E066
:100BE000C5CF83E0C3CFCF92DF92EF92FF920F93F6
:100BF0001F93CF93DF93D82FC62F613208F098C090
:100C00000E944E046B017C018091C60581116BC06E
:100C100081E08093C6058093C5059FEF9093C4053E
:100C20001092C3059C0F9093C2058093A1058091FB
:100C3000A105DD0FD82BD093A1058091A0058130AF
:100C400009F078C01092A0050E944E046B017C014F
:100C50008091A1058093BB008091C8059091C90542
:100C6000A091CA05B091CB05892B8A2B8B2BA1F0C3
:100C70000E944E040091C8051091C9052091CA0533
:100C80003091CB056C197D098E099F09061717074E
:100C90002807390708F448C08091BC0083FDD8CFED
:100CA00085EC8093BC000E944E046B017C01809116
:100CB000C605813009F440C08091C3058C1710F43B
:100CC000C091C305E2EAF5E0A4E7B5E080E08C134B
:100CD00055C08C2FDF91CF911F910F91FF90EF9016
:100CE000DF90CF9008958091C8059091C905A0919B
:100CF000CA05B091CB05892B8A2B8B2B09F484CFA5
:100D00000E944E040091C8051091C9052091CA05A2
:100D10003091CB056C197D098E099F0906171707BD
:100D20002807390708F070CF8091C7050E94EB04AF
:100D3000C0E0CFCF85EEB5CF8091C8059091C905B1
:100D4000A091CA05B091CB05892B8A2B8B2B09F476
:100D5000AECF0E944E040091C8051091C9052091A4
:100D6000CA053091CB056C197D098E099F090617BC
:100D700017072807390708F09ACFD6CF91919D938E
:100D80008F5FA5CF0895E091730580917205E817F4
:100D900030F4F0E0EC58FA4F808190E008958FEF46
:100DA0009FEF089590917305809172052FEF3FEFAB
:100DB000981748F4E92FF0E0EC58FA4F208130E022
:100DC0009F5F90937305C9010895CF92DF92EF92D0
:100DD000FF920F931F93CF93DF937C01CB018A0186
:100DE0002091CC05222389F0EB016B01C40ED51EA6
:100DF000CC15DD0569F06991D701ED91FC91019069
:100E0000F081E02DC7010995F3CF642F0E94A6045D
:100E1000C801DF91CF911F910F91FF90EF90DF906C
:100E2000CF900895CF93DF931F92CDB7DEB769833C
:100E30002091CC052223F9F02091EF05203258F0C3
:100E400021E030E0FC013383228390E080E00F90CA
:100E5000DF91CF9108958091CD05E82FF0E0E25326
:100E6000FA4F998190838F5F8093CD058093EF0532
:100E700081E090E0ECCF61E0CE0101960E94A604F3
:100E8000F7CFCF93C62F91E09093CC0598E690933F
:100E9000EE051092CD051092EF05682F8FE896E0D1
:100EA0000E9412076C2F8FE896E00E941207CF91E4
:100EB0000C940C05682F8FE896E00C9412070895A7
:100EC00090E080E0089580913A0590913B0501966D
:100ED00067E070E00E94E4379093E1048093E004BF
:100EE000880F991FFC01EE52FB4F80819181019781
:100EF000880F991FFC01EE0FFF1FE45BFE4F20815E
:100F000031813093670520936605880F991FFC0196
:100F1000E25BFE4F8081918190936505809364052B
:100F20000895CF93DF93C0917503D0917603882302
:100F300009F469C080910F0190911001FC01EE0F3E
:100F4000FF1FED50FC4F9C0137FD08C040815181CF
:100F500053834283215031093297F6CF3093C30433
:100F60002093C204D093F403C093F303209164014F
:100F700030916501AE01421B530B509374034093B3
:100F80007303C217D307C0F4D0936501C093640103
:100F9000109276031092750381E040917303509193
:100FA000740320917A0130917B01241735070CF0EE
:100FB00080E0DF91CF910895FC01EE0FFF1FEB5011
:100FC000FC4F408151812417350711F7E3EFF3E01F
:100FD00050E040E0481759074CF461917191621755
:100FE000730708F49B014F5F5F4FF4CF30936501A7
:100FF0002093640197FF02C090E080E09093C304C7
:101000008093C204C5CF81E10E943C04C817D90770
:101010001CF681E10E943C04909376038093750353
:101020002091640130916501821B930B90937403AE
:1010300080937303B1CF81E10E943C0490936501DA
:10104000809364019093760380937503E3EFF3E05C
:1010500024E0E331F20719F081939193F9CF80E115
:1010600090E09093C3048093C20408952091CC042F
:101070003091CD0441E354E090E080E064E0413BF6
:101080005607A9F030E020E0F901EE0FFF1FE40F52
:10109000F51F608171816130710509F401962F5F40
:1010A0003F4F2830310581F7405F5F4FE7CF3093E6
:1010B000CD042093CC0429E030E03093CF0420937A
:1010C000CE0408958091CC049091CD04E1E2F4E047
:1010D00024E0E13AF207A1F0118210821382128219
:1010E0001582148217821682118610861386128644
:1010F0001586148617861686709688E090E0E8CFED
:101100009093CD048093CC0488E090E09093CF043A
:101110008093CE0408959C012D7F2130310529F163
:101120008530910511F19C0127503109223031059C
:10113000E0F00297E9F42091430530914405C9019C
:1011400083709927892B39F4C90164E670E00E9405
:10115000E437892B81F4C90160E971E00E94E4372A
:10116000892B49F08CE190E008958FE190E008959B
:101170008EE190E008958DE190E00895EF92FF9266
:101180000F931F93CF93DF93FC01D0E0C0E020EDDD
:1011900037E000E911E084E6E82EF12C2E173F0736
:1011A00084F0E0904505F12C01E010E00E151F05DC
:1011B00034F5C8010E948B08C80FD91F0F5F1F4F5D
:1011C000F5CFC90183709927892B31F4C901B70183
:1011D0000E94E437892B89F4C901B8010E94E437E1
:1011E000AC0181E0452B09F080E090E083599E4FEF
:1011F000C80FD91F2F5F3F4FD1CF81E0F6CF20918D
:10120000460530E02C5F3F4F2C0F3D1FE7E0F0E03C
:10121000C901BF010E94E43790933B0580933A05D2
:10122000C9010196BF010E94E437CB0166E070E07E
:101230000E94E43790933D0580933C05DF91CF9168
:101240001F910F91FF90EF9008958091110190915F
:101250001201019761F480910001882341F080918F
:1012600064019091650190936301809362011092F3
:1012700000018091F3039091F403909365018093B2
:101280006401089580910701909108019093EA0408
:101290008093E90480916A0190916B0190934205DB
:1012A0008093410584E690E0909369018093680102
:1012B00080916001909161011816190624F4109232
:1012C000E7041092E60461E082E00C94BA02880F11
:1012D000991FFC01EC53FC4F80819181892B81F493
:1012E00081E090E0918380838091BB049091BC0465
:1012F00001969093BC048093BB0481E08093D20359
:101300000895AF92BF92CF92DF92EF92FF920F9328
:101310001F93CF93DF93CDB7DEB72E970FB6F89418
:10132000DEBF0FBECDBF8C0181E08093CC0588E687
:101330008093EE051092CD051092EF0590E080E0CD
:101340000E945A070E940C0567E088E60E94F30598
:101350001092730580937205811101C0FFCF7E0149
:101360008FE0E80EF11CFE0131966F019AE0B92E74
:101370008FE896E00E94D206982F92959F708F700A
:101380009B9D800D112490E0F701929382937F0141
:10139000CE16DF0669F70E940C05A981BA81CD013E
:1013A0008053984F90939505809394053B8130939B
:1013B00096056D817E81609397052F8120939B0513
:1013C000498540939805EB84E0929905FD84F0925D
:1013D0009A057727E3E5F2E021E0231730F45491F2
:1013E000650F711D2F5F3196F8CF323039F49D01B2
:1013F00023703327232B11F46F5F7F4F9C012D5CEB
:1014000037403695279536952795EDE6F1E0AE9F66
:10141000C001AF9F900DBE9F900D1124280F391F62
:1014200021503109260F371FA8E1B0E00E9418367D
:101430005B016C01A40EB11CC11CD11CA60195015D
:10144000ACE3B0E00E94D6359B01AC012E0D311DFE
:10145000411D511D0E94D6356F0D711D811D911DBD
:1014600060597A4C8249974C60939C0570939D0516
:1014700080939E0590939F058CE0E4E9F5E0D80108
:1014800001900D928A95E1F7C8012E960FB6F89457
:10149000DEBF0FBECDBFDF91CF911F910F91FF90A7
:1014A000EF90DF90CF90BF90AF900895CF9391E0F1
:1014B0009093CC0598E69093EE051092CD0510928E
:1014C000EF05682F8FE896E00E9412070E940C0536
:1014D00061E088E60E94F30510927305809372051F
:1014E000811101C0FFCF8FE896E00E94D206C82F7D
:1014F0000E940C058C2FCF9108958FE00E94560A10
:10150000682F6E7F8FE00C944107CF93C82F8EE039
:101510000E94560A682FCC2329F061608EE0CF919B
:101520000C9441076E7FFACF1F93CF93DF93382F30
:10153000562F842F2AE0622F0E94C4378295807F25
:10154000182F190F852F0E94C4378295807FD82FBE
:10155000D90F832F0E94C4378295807FC82FC90F6F
:1015600081E08093CC0588E68093EE051092CD054E
:101570001092EF0587E090E00E945A07612F6F7785
:101580008FE896E00E9412076D2F6F778FE896E044
:101590000E9412076C2F6F778FE896E00E94120767
:1015A00060E88FE896E00E9412070E940C0581E037
:1015B0000E94850ADF91CF911F910C947D0AFF92C2
:1015C0000F931F93CF93DF93F82EC0917801D091A2
:1015D00079010091760110917701209761F501154D
:1015E000110549F587E090E09093710580937005AF
:1015F00080E00E94850A0E947D0A40917005602F5C
:101600008C2F0E94940AFF2081F010926F05109297
:101610006E0510926D0510926C0510926B0510927C
:101620006A051092690510926805DF91CF911F91AC
:101630000F91FF9008951092710510927005D8CF08
:101640009F92AF92BF92CF92DF92EF92FF920F9351
:101650001F93CF93DF938230910509F0A0C0809152
:1016600068019091690160910501709106010E94E5
:10167000E4377093D1036093D003C1E08091D0032D
:101680009091D10397FDF0C083E00E949102892BD5
:1016900009F0EAC06091050170910601072E000C67
:1016A000880B990B0E9473048FE00E94560A80FFFA
:1016B0000AC00E947D0A8091730190917401019784
:1016C00011F4C093400580EF95E00E94A10183379B
:1016D000910581F4C09340058091470590E0909377
:1016E0007901809378018091480590E0909377018B
:1016F0008093760186E00E949102892BA1F480916B
:10170000E9049091EA04892B71F41092D1031092AC
:10171000D0038091D0039091D10301979093D1038E
:101720008093D003ABCF80E00E949107882359F0CB
:101730002091EF043091F00480916D0190916E0141
:101740008217930714F78FB7F8944091CC03509108
:10175000CD036091CE037091CF038FBF80914F0571
:1017600090915005A0915105B0915205481B590B1D
:101770006A0B7B0B809168019091690120910501B2
:1017800030910601821B930B092E000CAA0BBB0B98
:1017900084179507A607B70708F4B7CFBACF039702
:1017A00009F062C080916801909169019093D10322
:1017B0008093D0038CE9E82EFF24FA9494E6C92E96
:1017C000D12C992493948091D0039091D103181631
:1017D00019060CF049C08FE00E943C04B7010E943A
:1017E000E4378B015B018AE0A80EB11CB09247017F
:1017F000A09246018EE00E943C04B6010E94E437AC
:10180000EB01709345016093440161E070E080E07A
:1018100090E00E947304809117018823E1F00A5F31
:101820001F4F0330110570F01092D1031092D003B6
:101830008091D0039091D10301979093D10380932D
:10184000D003C1CF2497239778F785E00E949102B7
:10185000892B51F3EDCF259759F785E0A816B104F0
:1018600039F790921701E4CFDF91CF911F910F913B
:10187000FF90EF90DF90CF90BF90AF909F90089532
:10188000CF93DF93EC0160E08E810E94BA0261E0A9
:101890008E810E94BA0260E08E810E94BA028BE8BB
:1018A00091E00197F1F7DF91CF910895CF92DF9208
:1018B000EF92FF920F931F93CF93DF936C017C0104
:1018C00087E0E80EF11CD0E0C0E0062F10E0B80180
:1018D0000C2E02C0759567950A94E2F76170F701C6
:1018E00081917F010E94BA022196C430D10579F717
:1018F000C601DF91CF911F910F91FF90EF90DF9084
:10190000CF900C94400CCF92DF92EF92FF920F9306
:101910001F93CF93DF93EC01F62E642F8C810E94EE
:10192000BA028D818F3F19F060E00E94BA020F2D3C
:1019300010E08F8584FF25C06E0187E0C80ED11CA2
:10194000F12CE12CB8010E2C02C0759567950A9414
:10195000E2F76170F60181916F010E94BA02FFEF18
:10196000EF1AFF0A88E0E816F10461F7CE01DF9173
:10197000CF911F910F91FF90EF90DF90CF900C943B
:10198000400CB80184E0759567958A95E1F7CE0122
:101990000E94560C6F2DCE01DF91CF911F910F91B8
:1019A000FF90EF90DF90CF900C94560C40E0682FA2
:1019B00081EA96E00C94830C81E00E94D60C8BE3C4
:1019C0009FE10197F1F70895CF93DF93823029F4D7
:1019D0009091B00698609093B0068093B4061092F0
:1019E000B50680E48093B60680E18093B70680E573
:1019F0008093B80661E08091A5060E94E80280917C
:101A0000A6068F3F19F061E00E94E80261E0809134
:101A1000A7060E94E802C1EAD6E09E01215A36409C
:101A20008091B00684FD0BC084E090E021962817D9
:101A3000390744F461E08E810E94E802EECF88E02D
:101A400090E0F4CF8BE39DE00197F1F760E08091A7
:101A5000A5060E94BA0260E08091A7060E94BA0221
:101A60008091A6068F3F19F060E00E94BA02809133
:101A7000B00684FD34C063E081EA96E00E94560C13
:101A8000CBE4D6E4CE010197F1F763E081EA96E07A
:101A90000E94560C2197F1F763E081EA96E00E94DC
:101AA000560C83E592E00197F1F762E081EA96E057
:101AB0000E94560C8091B00680620E94D60C84E091
:101AC0008093B1068CE00E94D60C0E94DC0C82E070
:101AD0008093B20686E0DF91CF910C94D60C8062A1
:101AE0000E94D60C8BE496E40197F1F78091B00642
:101AF00080620E94D60C83E592E00197F1F7809115
:101B0000B00680620E94D60CD5CF643008F063E046
:101B10009091B406691710F06FEF690FE62FF0E0AF
:101B2000EF55F94F9489890F80680C94D60C41E0E9
:101B30000E94830C81E090E008950F931F93CF9350
:101B4000DF938B0128E0829FC001112480640E94F2
:101B5000D60CE801085F1F4F699181EA96E00E9468
:101B6000970DC017D107C1F7DF91CF911F910F914A
:101B700008950F931F93CF93DF938C01D0E0C0E0C3
:101B8000F801EC0FFD1F6491662339F041E081EA12
:101B900096E00E94830C2196F3CFCE01DF91CF9186
:101BA0001F910F910895FB0101900020E9F73197F3
:101BB000AF01461B570BDC01ED91FC910280F381D4
:101BC000E02D09948F929F92AF92BF92EF92FF9275
:101BD0000F931F93CF93DF93CDB7DEB7A1970FB6C7
:101BE000F894DEBF0FBECDBF7C01FA01CB0119A274
:101BF000223008F42AE08E010F5D1F4F822E912CB7
:101C0000B12CA12CBF01A50194010E94F837F90164
:101C1000CA016A300CF5605DD8016E938D01232BEB
:101C2000242B252B79F790E080E0109721F0BD015F
:101C3000C7010E94D30DA1960FB6F894DEBF0FBE68
:101C4000CDBFDF91CF911F910F91FF90EF90BF908B
:101C5000AF909F908F900895695CDECFCF92DF9216
:101C6000EF92FF920F931F93CF93DF936B01770F48
:101C7000EE08FF08F7FE1FC0EC01E881F981019032
:101C8000F081E02D6DE209958C0144275527BA01BA
:101C90004C195D096E097F092AE0CE010E94E20D10
:101CA000800F911FDF91CF911F910F91FF90EF90C7
:101CB000DF90CF9008952AE0B701A601DF91CF9180
:101CC0001F910F91FF90EF90DF90CF900C94E20D59
:101CD0006115710511F00C94D30D90E080E008952A
:101CE0000F931F93CF93DF930091780110917901A7
:101CF000C0917601D09177010A30110534F470E07B
:101D000060E081EA96E00E942E0EB80181EA96E03A
:101D10000E942E0E64EA72E081EA96E00E94680E4C
:101D2000CA30D10534F470E060E081EA96E00E94A8
:101D30002E0EBE0181EA96E0DF91CF911F910F91A7
:101D40000C942E0E61E084E00E94850DE0913A052E
:101D5000F0913B05EE0FFF1FEE56FE4F6081718143
:101D600081EA96E00E94680E60EE72E081EA96E0F9
:101D70000E94680E809146058A3030F470E060E081
:101D800081EA96E00E942E0E4091460550E070E0F8
:101D900060E02AE081EA96E00C94E20D60E084E0E5
:101DA0000E94850D809147058A3030F470E060E034
:101DB00081EA96E00E942E0E4091470550E070E0C7
:101DC00060E02AE081EA96E00E94E20D64EA72E0B7
:101DD00081EA96E00E94680E809148058A3030F4CE
:101DE00070E060E081EA96E00E942E0E4091480586
:101DF00050E070E060E02AE081EA96E00E94E20DA7
:101E000064EA72E081EA96E00E94680E80914905DA
:101E10008A3030F470E060E081EA96E00E942E0E95
:101E20004091490550E070E060E02AE081EA96E0E8
:101E30000C94E20DCF93DF931092C104E4ECF3E035
:101E400030E020E0E901419151912F5F3F4F452B58
:101E5000C9F3D093C304C093C204811110C0FE0122
:101E6000EE0FFF1FEC53FC4F118210828091BB04D8
:101E70009091BC0401979093BC048093BB0460E0F4
:101E800083E00E94850DCC0FDD1FCC0FDD1FCE57E8
:101E9000DE4F6881798181EA96E00E94680E61E0F8
:101EA00083E00E94850DE091C204F091C304EE0F1F
:101EB000FF1FEE0FFF1FEE57FE4F6281738181EA15
:101EC00096E0DF91CF910C94680ECF93DF93EC01F5
:101ED00080919B0690919C06009759F020919D0659
:101EE00030919E062C173D0720F081E0DF91CF91C5
:101EF0000895BE016F5F7F4F0E946439009789F09B
:101F000090939C0680939B06D0939E06C0939D065B
:101F100020919F063091A006232B39F7FC011082F7
:101F2000E4CF80E0E3CFFF920F931F93CF93DF9333
:101F300000D0CDB7DEB7FF24F39480EF95E00E9488
:101F4000C301892B51F180EF95E00E94A1018A30F5
:101F500019F4F0924005F1CF89831A8200919F060F
:101F60001091A0060F5F1F4FC8010E94650F8823C4
:101F700021F320919B0630919C0680919F069091C1
:101F8000A006BE016F5F7F4F820F931F0E942A3A07
:101F90001093A00600939F06D0CF0F900F90DF9173
:101FA000CF911F910F91FF9008950E94CF01811151
:101FB0000C94930F0895BF92CF92DF92EF92FF920D
:101FC0000F931F93CF93DF93D0E0C0E007E010E0C2
:101FD000E7E0EE2EF5E0DF2ECC24C394A8ECBA2E79
:101FE000B4E1FB2ECE010E94C035282F30E0C8346A
:101FF000D10508F051C0FE01E050F04F0C94393883
:1020000048107C1081108110811081108110811086
:10201000811081108110891091109D10A510AA10B7
:10202000AF10B410B710BF10C410C410C410C41047
:10203000C410C410C410CC10D110D610DD10E210A2
:102040004C10E710E710E710E710E710E710E71073
:10205000E710E710E710E710E710E710E710E710C8
:10206000E710E710E710E710E710E710E710E710B8
:10207000E710E710E710E710E710E710E710E710A8
:10208000E710E710E710E710F810FD100211071134
:1020900030930401209303012196C834D10509F03F
:1020A000A1CF0E94620880916F0190917001019709
:1020B000880F991FFC01EE0FFF1FE45BFE4F20818C
:1020C00031813093790120937801880F991FFC01A9
:1020D000E25BFE4F8081918190937701809376013E
:1020E00080E0DF91CF911F910F91FF90EF90DF90F3
:1020F000CF90BF900C94DF0A30930201209301012E
:10210000CBCFFE01EE0FFF1FE85BFE4F3183208334
:10211000C3CF8F9DC001112490936B0180936A01FE
:10212000BBCF8F9DC00111249093080180930701BC
:102130009093EA048093E904AFCF8B9DC0011124F2
:1021400090935F0180935E01A7CF30937B01209332
:102150007A01A2CF30936301209362019DCF309327
:1021600012012093110198CFC092720395CF8D9DDB
:10217000C001112490930601809305018DCF309307
:102180006E0120936D0188CFFE01EE0FFF1FE65513
:10219000FB4F21503109BACF30930C0120930B0132
:1021A0007BCF3093DC032093DB0376CF21503109C2
:1021B0003093700120936F016FCF309367012093AC
:1021C00066016ACF3093100120930F0165CFCE01D5
:1021D0008197B8010E94E437E69EF001E79EF00D7A
:1021E0001124E80FF91FEE0FFF1FEC50FB4FD1CF6A
:1021F00030933F0520933E054FCF3093E10320936A
:10220000E0034ACF30930E0120930D0145CF309368
:1022100061012093600140CF85ED8093BC008091E7
:10222000C8059091C905A091CA05B091CB05079644
:10223000A11DB11D23E0B695A795979587952A9581
:10224000D1F72091BC0024FD03C01092C60508956B
:102250004091C8055091C9056091CA057091CB05A0
:10226000452B462B472B69F30097A105B10541F09B
:1022700025E32A95F1F700000197A109B109E1CF03
:102280008091C7050C94EB041F93CF93DF93EC016F
:10229000162F0E94C035181739F0612FCE01DF913B
:1022A000CF911F910C94C835DF91CF911F91089564
:1022B000AF92BF92CF92DF92EF92FF920F931F9354
:1022C000CF93DF9310E000E025E0C22ED12C38EC54
:1022D000A32EB12C44E1E42EF12C0834110508F0B2
:1022E0004FC0F801EA58FE4E0C943938EC11F11148
:1022F000F611F611F611F611F611F611F611F611A6
:10230000F611FE1107120C12121217121C122112D2
:1023100025122B12301230123012301230123012BD
:10232000301239123E12431248124D12BE11C01122
:10233000C011C011C011C011C011C011C011C01115
:10234000C011C011C011C011C011C011C011C01105
:10235000C011C011C011C011C011C011C011C011F5
:10236000C011C011C011C011C011C011C011C011E5
:10237000C011C011521257125C12611203E410E036
:10238000B80180EF95E00E942E0E66EA72E080EFC1
:1023900095E00E94680EBE0180EF95E00E942E0E2F
:1023A00069EA72E080EF95E00E94D30D6C2FC801BE
:1023B0000E9444110F5F1F4F0834110509F08DCFA3
:1023C000DF91CF911F910F91FF90EF90DF90CF9011
:1023D000BF90AF900C946208C0910301D0910401AA
:1023E000CFCFC0910101D0910201CACFF801EE0F09
:1023F000FF1FE85BFE4FC081D181C2CF80916A018F
:1024000090916B01B7010E94E437EB01B9CF809145
:10241000070190910801F6CF80915E0190915F01D4
:10242000B501F1CFC0917A01D0917B01A9CFC091C4
:102430006201D0916301A4CFC0911101D09112012A
:102440009FCFC0917203D0E09BCF80910501909106
:102450000601B601D8CFC0916D01D0916E0190CF29
:10246000F801EE0FFF1FE655FB4FC081D181219689
:1024700087CFC0910B01D0910C0182CFC091DB03BB
:10248000D091DC037DCFC0916F01D0917001EFCF6F
:10249000C0916601D091670173CFC0910F01D091B7
:1024A00010016ECFC0913E05D0913F0569CFC0911C
:1024B000E003D091E10364CFC0910D01D0910E01F2
:1024C0005FCFC0916001D09161015ACF8F929F92EE
:1024D000AF92BF92CF92DF92EF92FF92F82E0E94BE
:1024E000CE0E80916C01882361F08091070190915C
:1024F000080101972091E9043091EA04281739076F
:102500001CF4FF2009F491C085E10E943C04BC0149
:10251000990F880B990B0E94A3349B01AC0160E0DA
:1025200070E080E894E40E94943620E030E040E8D7
:102530005FE30E94273620E030E44CE156E40E943D
:1025400002350E9442376B017C0129E537E44CEBF0
:1025500053E30E940235A70196010E94023523E74A
:102560003FE745E759E30E942836A70196010E94FC
:1025700002352BEE3FEF43E95AE30E9428369B01D8
:10258000AC0160E070E080E89FE30E94943623E3B2
:1025900033E948E853E40E94273620E030E040EC7D
:1025A0005FE30E9428366B017C0161E08CE00E94B1
:1025B000850D20E030E040E251E4C701B6010E9401
:1025C0009C3487FF06C070E060E081EA96E00E94DC
:1025D0002E0EA7019601C701B6010E948A376CEA48
:1025E00072E081111AC046015701E894B7F82FEF45
:1025F0003FEF4FE75FE7C501B4010E948A378111C1
:102600001DC02FEF3FEF4FE75FE7C501B4010E9408
:102610009C3418169CF460EB72E081EA96E00E940C
:10262000D30D0E94A20E10926C01FF90EF90DF90EC
:10263000CF90BF90AF909F908F9008952FEF3FEF76
:102640004FE75FE4C701B6010E94353718161CF446
:1026500064EB72E0E2CF2FEF3FEF4FE75FECC70193
:10266000B6010E949C3487FDF3CF20E030E0A90141
:10267000C701B6010E949C3487FF0AC041E06DE2A9
:1026800081EA96E00E94830CF7FAF094F7F8F09450
:102690002AE037ED43EA5BE3C701B6010E94283622
:1026A0004B015C010E9406376B017C010E94A13442
:1026B0009B01AC01C501B4010E9427364B015C01AE
:1026C0002AE0B701A60181EA96E00E94E20D41E00E
:1026D0006EE281EA96E00E94830C20E030E040E266
:1026E00051E4C501B4010E9402354B015C010E9416
:1026F00006376B01F12CE12C2AE0B701A60181EA33
:1027000096E00E94E20DC701B6010E94A1349B0130
:10271000AC01C501B4010E94273620E030E040E260
:1027200051E40E9402350E940637AB0170E060E080
:102730002AE081EA96E00E94E20D73CF1F920F9289
:102740000FB60F9211242F933F934F935F936F9384
:102750007F938F939F93AF93BF93EF93FF9380915A
:10276000580590915905A0915A05B0915B05892BA8
:102770008A2B8B2BD1F190915305E0915405F09168
:10278000550580818927808380915805909159054E
:10279000A0915A05B0915B05181619061A061B067A
:1027A0009CF48091580590915905A0915A05B091DB
:1027B0005B050197A109B1098093580590935905CC
:1027C000A0935A05B0935B05FF91EF91BF91AF9134
:1027D0009F918F917F916F915F914F913F912F9139
:1027E0000F900FBE0F901F90189580917501E2E534
:1027F000F2E0E4919FEF90937501E13051F030F0F9
:10280000E23069F060E00E94BA02DECF10926E0002
:10281000F9CF90916F009D7F90936F00F3CF9091CF
:1028200070009D7F9093700091E09093B000909124
:10283000B100987F94609093B1001092B300E2CF02
:102840001F920F920FB60F9211242F933F934F9325
:102850005F936F937F938F939F93AF93BF93EF9308
:10286000FF9380EF95E00E94D901FF91EF91BF9116
:10287000AF919F918F917F916F915F914F913F9118
:102880002F910F900FBE0F901F9018951F920F92CF
:102890000FB60F9211242F938F939F93EF93FF9373
:1028A000E0910006F09101068081E0910606F0912A
:1028B000070682FD1BC09081809109068F5F8F7390
:1028C00020910A06821741F0E0910906F0E0E051FC
:1028D000FA4F958F80930906FF91EF919F918F9109
:1028E0002F910F900FBE0F901F9018958081F4CFFD
:1028F0001F920F920FB60F9211242F933F938F9335
:102900009F93AF93BF938091CC039091CD03A091FF
:10291000CE03B091CF033091BB0323E0230F2D37BB
:1029200058F50196A11DB11D2093BB038093CC03E4
:102930009093CD03A093CE03B093CF038091BC03BB
:102940009091BD03A091BE03B091BF030196A11D5C
:10295000B11D8093BC039093BD03A093BE03B093BD
:10296000BF03BF91AF919F918F913F912F910F9096
:102970000FBE0F901F90189526E8230F0296A11DF9
:10298000B11DD2CF1F920F920FB60F9211240F904C
:102990000FBE0F901F9018951F920F920FB60F92B7
:1029A00011242F933F934F935F936F937F938F9354
:1029B0009F93AF93BF93EF93FF938091B900887F6C
:1029C000803609F44AC0F0F5883209F4A7C018F53A
:1029D000803109F49BC0B8F4882309F4F9C0883029
:1029E00009F494C0FF91EF91BF91AF919F918F91A6
:1029F0007F916F915F914F913F912F910F900FBEFB
:102A00000F901F901895883109F488C0803251F7D3
:102A10008093C40514C0803409F49DC040F4803311
:102A2000B9F38833F9F68093C40585ECB0C08035DE
:102A300009F485C0883509F496C0883499F60E9457
:102A40000C11D0CF883909F48CC038F5883729F0BB
:102A500050F4883611F0803729F683E08093C6055C
:102A60001092BA0357C0883809F47BC0803919F036
:102A7000803809F0B7CF8091BA03803208F071C076
:102A8000E091BA0381E08E0F8093BA038091BB007E
:102A9000F0E0E656FC4F80833DC0803B39F0E0F427
:102AA000803A09F479C0883A09F09CCF84E0809399
:102AB000C6051092990310929803E091C203F09119
:102AC000C30309958091980381110FC081E0809321
:102AD00098031092780309C0803C09F4A6CF883C83
:102AE00009F4A3CF883B09F07DCFE091990381E001
:102AF0008E0F80939903F0E0E858FC4F808180931B
:102B0000BB00909199038091980329C08091A10501
:102B10008093BB0085EC8093BC0064CF9091C3058B
:102B20008091C205981758F5E091C30581E08E0F9A
:102B30008093C305F0E0EE55FA4F8081E9CFE09134
:102B4000C30581E08E0F8093C3058091BB00F0E048
:102B5000EE55FA4F80839091C3058091C205981776
:102B6000C8F285E8D8CFE091C30581E08E0F80934D
:102B7000C3058091BB00F0E0EE55FA4F8083809151
:102B8000C50581115CCF81E08093A00584EA809324
:102B9000BC001092C60526CF85EC8093BC00109235
:102BA000C6058091BA03803230F4E091BA03F0E0B8
:102BB000E656FC4F10826091BA0370E0E091C003CA
:102BC000F091C1038AE993E009951092BA030ACF04
:102BD0001092C40534CF1092F3051092F20588EEDE
:102BE00093E0A0E0B0E08093F4059093F505A09306
:102BF000F605B093F70528E732E03093F10520930E
:102C0000F00525EC30E03093FD052093FC0524EC25
:102C100030E03093FF052093FE0520EC30E0309348
:102C200001062093000621EC30E030930306209348
:102C3000020622EC30E0309305062093040626ECD1
:102C400030E0309307062093060610920906109292
:102C50000A0610920B0610920C062FEF3FEF3093EE
:102C60008E0620938D061092920610929106809304
:102C7000930690939406A0939506B09396068AE8DF
:102C800092E09093900680938F061092A406109283
:102C9000A3068CE992E09093A2068093A10687E0B8
:102CA0008093A5068FEF8093A60688E08093A70601
:102CB00089E08093A8068AE08093A9068BE0809340
:102CC000AA068CE08093AB061092AC061092AD067B
:102CD0001092AE061092AF061092B00681E00E94EC
:102CE000E40C10929C0610929B0610929E06109285
:102CF0009D061092A00610929F0690E080E00E9430
:102D0000650F20919B0630919C06811113C02115FF
:102D1000310519F0C9010E94DB3810929C0610920F
:102D20009B061092A00610929F0610929E0610928B
:102D30009D0608951092A00610929F066BEA72E01D
:102D4000C9010C942A3ACF93DF9300D000D01F9290
:102D5000CDB7DEB7789484B5826084BD84B58160D8
:102D600084BD85B5826085BD85B5816085BD809156
:102D70006E00816080936E001092810080918100CE
:102D800082608093810080918100816080938100C6
:102D9000809180008160809380008091B100846088
:102DA0008093B1008091B00081608093B0008091E9
:102DB0007A00846080937A0080917A0082608093A8
:102DC0007A0080917A00816080937A0080917A0005
:102DD000806880937A001092C10062E086E00E94D1
:102DE000E80260E083E00E94E80262E085E00E9481
:102DF000E80261E082E00E94E802E0910006F091C2
:102E0000010682E08083E091FC05F091FD051082CF
:102E1000E091FE05F091FF058FEC8083109208068B
:102E2000E0910406F091050626E02083E091020679
:102E3000F0910306808180618083E0910206F09129
:102E40000306808188608083E0910206F09103068A
:102E5000808180688083E0910206F0910306808182
:102E60008F7D808384E190E00E94650F109273054E
:102E7000109272051092CD051092EF050E94CD04BC
:102E800083E691E09093C3038093C20384E691E0CC
:102E90009093C1038093C0038EE00E94560A682F6E
:102EA0006B738EE00E94410780ED97E0909395054B
:102EB0008093940581E08093960580939705109206
:102EC00098051092990510929A0536E030939B056B
:102ED00080E795E3ADE6B8E380939C0590939D056C
:102EE000A0939E05B0939F0580E00E94850A8EE026
:102EF0000E94560A682F6D7F8EE00E9441070E9453
:102F00007D0A8FE00E94560A682F6D7F8FE00E9435
:102F1000410782E00E94E40C60EC71E081E00E94D5
:102F20009D0D68EB71E082E00E949D0D60EB71E009
:102F300083E00E949D0D68EA71E084E00E949D0D8F
:102F400060EA71E085E00E949D0DE8E1F1E030E08B
:102F500020E0808191810097C1F04FEF5FEF211554
:102F6000310521F0DF0112974D915C91BA016F5F3D
:102F70007F4F71836083880F991F840F951F938300
:102F800082832E5F3F4F3496E4CF41E050E0509370
:102F9000B6044093B50450931A0440931904109258
:102FA000C5031092C4031092C7031092C603109277
:102FB000C9031092C80383E090E09093C304809308
:102FC000C20486E00E949102892B31F481E090E0F6
:102FD00090937201809371010E9442090E941B0824
:102FE0004091700560917601809178010E94940A69
:102FF00083E495E00E948109809143059091440506
:103000000E94BE080E94630790E080E00E94C035E5
:10301000813009F06DC085E490E00E94C0358130B8
:1030200021F490E080E00E9467098FEF9FEF90937A
:10303000D3048093D2049093D5048093D4049093C6
:10304000D7048093D6049093D9048093D8049093A6
:10305000DB048093DA049093DD048093DC04909386
:10306000DF048093DE0487E090E09093CD048093AA
:10307000CC041092CF041092CE0417E08091CE04BD
:103080009091CF040597ECF51092CD041092CC04EA
:103090004091CC045091CD042091CE043091CF04C6
:1030A000473051050CF040C2129FF001139FF00D04
:1030B0001124E40FF51FEE0FFF1FEC50FB4FAFEF95
:1030C000BFEFB183A083149FC001159F900D112401
:1030D000819660E0820F931F0E9444118091CC047E
:1030E0009091CD0401969093CD048093CC04D0CFE1
:1030F00085E490E00E94C035882309F48CCF0E94BB
:10310000DB0F61E085E490E00E944411E091E0046F
:10311000F091E104EE0FFF1FEE52FB4F8081918191
:10312000019619F481E08093E304E3E06E2E712CA4
:103130002FB7F8948091CC039091CD03A091CE034A
:10314000B091CF032FBF80934F0590935005A0936C
:103150005105B093520583E495E00E948109809166
:10316000410590914205181619061CF480E00E9452
:1031700066128FE00E94560A80FDDDC180917101C8
:1031800090917201892B09F4DFC180914005811172
:10319000DBC180916E0590916F05019709F0AEC07B
:1031A00080916A0190916B01909342058093410553
:1031B0008091EB049091EC0401969093EC04809341
:1031C000EB040B9734F48091E9049091EA040197A1
:1031D00021F41092EC041092EB04809149058111C6
:1031E00011C08091480590E02091640530916505FB
:1031F0008217930739F02091760130917701821779
:10320000930739F48091ED049091EE041816190695
:103210006CF560E082E00E94BA028091E90490912E
:10322000EA04892B31F488E290E09093EA048093D9
:10323000E90484EF91E0909369018093680164EF61
:1032400071E080E090E00E94730461E082E00E94FF
:10325000BA028091ED049091EE04019684309105BC
:1032600009F4B9C29093EE048093ED0486E00E94C5
:103270009102892B61F080916C0590916D05889782
:1032800031F080916805909169054497D9F481E007
:103290000E94DF0A48EC50E060E070E08BE492E0CE
:1032A0000E9424038091660190916701892B21F48B
:1032B00010927401109273011092EC041092EB04BE
:1032C0000E94630780916A0590916B05019709F050
:1032D0008DC22091640130916501809162019091CD
:1032E00063018217930708F481C280916C05909165
:1032F0006D05019690936D0580936C0586E00E94A4
:103300009102892B09F04EC020916001309161013A
:10331000121613060CF040C08091E80481113CC0E5
:1033200081E08093E8046091E6047091E7044091A5
:103330005E0150915F01649FC001659F900D749F75
:10334000900D11246CE271E00E94E437CB01B901C9
:103350000E94E43780916A0190916B01860F971F5C
:1033600090936B0180936A0104E110E0B8010E9420
:10337000E4378BE090E00E94441180916A019091C3
:103380006B011816190644F083E090E00E9467096B
:1033900010936B0100936A010E9442091092F0049D
:1033A0001092EF048091E50490914705911128C295
:1033B00090914805911124C2811123C083E495E0C6
:1033C0000E94810980914305909144050E94BE08A6
:1033D0000E94630781E08093E504209166013091AB
:1033E00067012230310511F48093E40480915C017F
:1033F00090915D01892B09F0FEC181E090E00E946F
:10340000670900916E0510916F050115110509F00E
:103410000FC38091E4048823B9F11092E4048091F1
:10342000E304811112C28091E204882309F4EEC101
:103430001092E20480916F019091700118161906A4
:103440000CF0F3C1E1E0F0E0F0937401E09373015C
:103450000197880F991FFC01EE0FFF1FE45BFE4FE1
:10346000208131813093790120937801880F991F51
:10347000FC01E25BFE4F8081918190937701809304
:10348000760180E00E94DF0A8091F304882309F42A
:10349000CFC21092F30480913C0590913D050196B6
:1034A00066E070E00E94E437E0913A05F0913B0558
:1034B00046E0E42EF12C57E0952E9F01220F331F9A
:1034C000A9014E525B4F6A0176E0A72EB12C51E064
:1034D000E51AF10809F4F8C1989ED001999EB00D43
:1034E0001124AE0FBF1FAA0FBB1FAC50BB4F4D9195
:1034F0005C914F3F540799F0DA01AA0FBB1FAC5300
:10350000BB4F2D913C9111972F5F3F4F2D933C93D3
:103510002017310724F0D6014D935C938901019661
:10352000B5010E94E437D3CF2F5F3F4F3093CF04D4
:103530002093CE04A3CD0E947D0A809173019091C7
:103540007401019709F01ACE1092400580913E0552
:1035500090913F05019749F5E0913C05F0913D05BB
:1035600080913A0590913B0560916F012091700127
:1035700037E03E9FA0013F9F500D1124840F951FFF
:10358000FC01EE0FFF1FEC50FB4F6083218321E015
:103590002093F3046F5F81960E94441160916F0144
:1035A0006F5F8DE190E00E9444110E9442090E94E9
:1035B0001B080E94DC0C8091710190917201892B93
:1035C00009F07AC061E080E00E94850D68EB72E04E
:1035D00081EA96E00E94680EE6E8F1E0F093F204DA
:1035E000E093F10483E00E949102892B41F48091E1
:1035F000F1049091F204181619060CF460C0809141
:103600006805909169050196909369058093680516
:10361000019709F0D6C080917601909177010596C7
:10362000909365058093640580917801909179016C
:103630009093670580936605809164059091650578
:103640008C3391057CF02091660530916705CC970D
:1036500090936505809364052F5F3F4F3093670516
:103660002093660580E00E94850A0E947D0A40E062
:1036700060916405809166050E94940A0E94DC0CAA
:103680001092EE041092ED0483E495E00E9481090B
:1036900081E00E94661264E670E080E090E00E94A3
:1036A000730486E00E949102892B71F383E00E94EB
:1036B0009102019749F36DCD0E94A20E8DCF83E454
:1036C00095E00E9481090E94CE0E40E550E060E046
:1036D00070E080E193E00E9424032091F104309196
:1036E000F204C90163E070E00E94E4377C01892B99
:1036F00021F5233131400CF12AEF30E03093D10332
:103700002093D00380E00E9491070091D003109194
:10371000D10317FD19C083E00E949102892BA1F407
:1037200061E070E080E090E00E94730401501109B4
:103730001093D1030093D003E8CF42E850E05093B8
:10374000D1034093D003DECFEF2821F581E00E9422
:1037500091078823F9F02091EF043091F0048091D3
:103760006D0190916E0182179307A4F081E090E0C3
:1037700090936B0580936A051092F2041092F10405
:103780000E94250944E150E060E070E08AEB92E09D
:103790000E94240381E080936C01A1E0B0E0B0932B
:1037A0006F05A0936E05B0937201A0937101809193
:1037B000F1049091F20401979093F2048093F10444
:1037C00011CF8091640590916505059690936505EC
:1037D0008093640531CF1092EE041092ED0484E6DC
:1037E00090E0909369018093680140CD10926D053F
:1037F00010926C0583CD10925D0110925C0101CE98
:10380000882309F4FECD1092E504FBCDE0913A0542
:10381000F0913B05EE0FFF1FEE52FB4F808191812F
:103820009093700180936F0105CE892B51F4109213
:1038300074011092730180E00E94850A0E947D0A43
:1038400023CE81E08093E3041FCEE091E004F09169
:10385000E104EE0FFF1FEE52FB4F80819181019634
:1038600011F01092E3048091730190917401892BFF
:1038700009F00ACE80913E0590913F05019709F02D
:1038800003CE40913C0550913D0580913A059091C1
:103890003B0567E0649F9001659F300D1124820F06
:1038A000931FFC01EE0FFF1FEC50FB4F20916F01A7
:1038B000309170013183208321E02093F30461E093
:1038C00081960E944411E0CD9093CF048093CE0462
:1038D00085E090E09093CD048093CC041093D104C4
:1038E0000093D004DF01AA0FBB1FAE52BB4F6C91F7
:1038F0006F5FCF0144960E9444111092C50410924C
:10390000C4041092C7041092C6041092C904109205
:10391000C8041092CB041092CA0484E090E0909303
:10392000C3048093C204809166019091670102975D
:1039300009F47EC081E08093C1041092CF041092FC
:10394000CE041092CD041092CC04E7E0BE2E04E029
:1039500010E0C090CE04D090CF04B7E0CB16D104D5
:103960000CF058C080913C0590913D05B89E9001A7
:10397000B99E300D1124F901EC0DFD1DEE0FFF1F56
:10398000EC50FB4F0190F081E02D76014FEFE41AEF
:10399000F40A0396B8010E94E437B89ED001B99E9C
:1039A000B00D1124AC0DBD1DAA0FBB1FAC50BB4FF9
:1039B0008D919C91E817F90709F58091CC049091BD
:1039C000CD0401969093CD048093CC04C70167E0A9
:1039D00070E00E94E437D901A80FB91FAA0FBB1FDE
:1039E000AC50BB4F8D919C91E817F90739F0EF3F30
:1039F000FE0759F0019611F01092C10431963697E6
:103A000020F083E090E00E946709F092CF04E092FA
:103A1000CE049FCF8091CC049091CD04049744F0C4
:103A20008091C104811104C082E090E00E94670986
:103A300085E00E949102892B11F00C94012EE1E0A7
:103A4000F0E0F0937201E09371011092F004109293
:103A5000EF0481E080936C010E9442090E94DC0C1B
:103A600082E090E090934B0180934A0121E030E0A6
:103A700030934901209348011092C0041092BF0472
:103A80001092BE041092BD0461E470E080E090E00A
:103A90000E9473048091BF049091C004019690939A
:103AA000C0048093BF04069721F58091BB049091D8
:103AB000BC04181619060CF0FEC380E00E941A0F11
:103AC000E091C204F091C304EE0FFF1FE459FD4FD3
:103AD0008081918190934B0180934A0185E00E94FF
:103AE0009102019731F468EE73E080E090E00E946B
:103AF000730485E00E949102892B31F282E390E009
:103B00009093BA048093B90402E310E088248A9465
:103B1000982C92E0E92EF12C24E0422E512C36E034
:103B2000232E312C8091B9049091BA0497FF02C0E2
:103B30000C94E12D8FE00E943C046CE97FEF0E9421
:103B4000E4376B015B015AE0A50EB11CB09247014E
:103B5000A09246018EE00E943C0464E670E00E9460
:103B6000E43770934501609344018091CE049091B5
:103B7000CF04892B09F062C4673071050CF4A6C329
:103B80008091B7049091B80401969093B804809303
:103B9000B7049092CF048092CE041093BA0400939D
:103BA000B9042091B5043091B6042E5F3F4F309395
:103BB000B6042093B5042091B3043091B4042817BF
:103BC0003907C4F48091B1049091B2049093B80481
:103BD0008093B704E0914A01F0914B01EE0FFF1F73
:103BE000EE0FFF1FEC5EFE4F808191819093B60433
:103BF0008093B504109217018091CE049091CF0468
:103C00008F3F980709F056C481E090E09093CF046D
:103C10008093CE049093160180931501A6E4B0E042
:103C2000B0936901A0936801209148013091490146
:103C3000C0904A01D0904B01121613060CF072C0CE
:103C40008091B5049091B60402969093B604809347
:103C5000B5048091B7049091B80401969093B8048C
:103C60008093B7042130310509F042C00E94DC0C7A
:103C7000C6010197880F991FFC01EE0FFF1FE85E38
:103C8000FE4F408151815093B6044093B504880F94
:103C9000991FFC01E65EFE4F2081318130931A04AA
:103CA00020931904241B350BC901019797FDC90105
:103CB000959587959093B4048093B3041092B204C1
:103CC0001092B1041092200410921F041092B804B4
:103CD0001092B704F0924901E0924801E1E0F0E06F
:103CE000F093CF04E093CE04109269011092680122
:103CF0008091B5049091B6042091190430911A0472
:103D0000821793070CF0DEC3DC01AA0FBB1FA6537A
:103D1000BE4F880F991FFC01E853FE4F6C918081C4
:103D20000E94850D83E090E00E94200B8091B504F5
:103D30009091B604DC01AA0FBB1FA653BE4F880F9B
:103D4000991FFC01E853FE4F6C9180810E94850D04
:103D5000CA94CD2809F055C080914801909149013D
:103D6000029741F410921E0410921D0410921C043C
:103D700010921B048091B7049091B8042091BD0467
:103D80003091BE04232B09F0FCC3009709F0B6C3A1
:103D90008BE092E00E94B90D47E050E05093EE04B2
:103DA0004093ED0485E00E949102892B51F58091AA
:103DB000B7049091B80402962091BD043091BE04DE
:103DC000220F331F220F331F820F931F90934B013B
:103DD00080934A0141E050E05093CF044093CE04D9
:103DE00050934901409348011093BA040093B904D9
:103DF0001092BE041092BD0485E00E949102892BAE
:103E0000D9F380914A0190914B01029709F06DC15D
:103E100080916F01909170011816190634F081E0BD
:103E200090E09093700180936F018091B70490911E
:103E3000B804892B09F046C08091CE049091CF043C
:103E4000019791F4809178019091790190932004E9
:103E500080931F0487E190E090931E0480931D04DB
:103E600010921C0410921B0480911F049091200456
:103E70009093790180937801E0916F01F091700146
:103E8000EE0FFF1FEE0FFF1FE85BFE4F9183808355
:103E90000A9734F470E060E081EA96E00E942E0E0A
:103EA000609178017091790181EA96E00E942E0E6E
:103EB00064EA72E081EA96E00E94680EF092EE04F5
:103EC000E092ED048091B7049091B804019709F055
:103ED00040C08091CE049091CF04019791F48091DD
:103EE0007601909177019093200480931F048BE3D7
:103EF00090E090931E0480931D0410921C04109275
:103F00001B0480911F04909120049093770180936B
:103F10007601E0916F01F0917001EE0FFF1FEE0F3F
:103F2000FF1FE65BFE4F918380830A9734F470E0B5
:103F300060E081EA96E00E942E0E60917601709119
:103F4000770181EA96E00E942E0EF092EE04E09254
:103F5000ED048091B7049091B804029709F08AC0EB
:103F600080916F01909170012091CE043091CF0427
:103F70002130310561F49093200480931F04509206
:103F80001E0440921D0430931C0420931B04909344
:103F900014018093130180911F0490912004909349
:103FA000700180936F0168EC72E081EA96E00E94F4
:103FB000680E60916F017091700181EA96E00E9435
:103FC0002E0E89E090E09093EE048093ED048091B2
:103FD0006F019091700120911301309114018217AB
:103FE000930709F447C00197880F991FFC01EE0F52
:103FF000FF1FE45BFE4FC080D180D0927901C09258
:104000007801880F991FFC01E25BFE4F808191814E
:10401000909377018093760160E085E00E94850DA2
:104020009AE0C916D10434F470E060E081EA96E0C9
:104030000E942E0E609178017091790181EA96E0DC
:104040000E942E0E60E088E00E94850D809176012E
:10405000909177010A9734F470E060E081EA96E08D
:104060000E942E0E609176017091770181EA96E0B0
:104070000E942E0E8091B7049091B8040397A9F581
:104080008091CE049091CF040197B1F480916601A4
:10409000909167019093200480931F04F0921E0476
:1040A000E0921D0410921C0410921B041092E30471
:1040B000109318040093170460911F04809120044A
:1040C0006093660180936701A1E0B0E0B0931604AD
:1040D000A09315046E5F81EA96E00E94970DE1E0DF
:1040E000F0E0F093EE04E093ED0480914A019091AA
:1040F0004B01039709F0FDC28091B7049091B80479
:104100002091BD043091BE04232B11F00C945F2B41
:10411000892B09F041C08091CE049091CF04019782
:1041200091F480917A0190917B0190932004809387
:104130001F042AEF30E030931E0420931D04F092F8
:104140001C04E0921B0480911F0490912004909322
:104150007B0180937A018436910594F461ED72E0DD
:1041600081EA96E00E94680E80917A0190917B012D
:104170000A9734F461ED72E081EA96E00E94680EDD
:1041800060917A0170917B0181EA96E00E942E0E87
:104190007092EE046092ED048091B7049091B8049F
:1041A0000197B9F58091CE049091CF040197A9F4BD
:1041B0008091110190911201019709F01AC2909219
:1041C000200480921F044AEF50E050931E04409355
:1041D0001D0490921C0480921B0480911F049091F6
:1041E000200490936301809362018F3F980709F048
:1041F00009C281E090E0909312018093110163ED78
:1042000072E081EA96E00E94680E5092EE044092BD
:10421000ED048091B7049091B804029709F03DC273
:104220001092200410921F0468ED72E081EA96E07B
:104230000E94680E3092EE042092ED0485E00E9408
:104240009102892B09F029C20E94DC0C60E082E017
:104250000E94850D8DEC91E00E94B90D61E082E035
:104260000E94850D85EC91E00E94B90D7092C30407
:104270006092C204C090C204D090C3041C141D04F8
:104280000CF0E4C161E089E00E94850DB60181EA8D
:1042900096E00E942E0E68EE73E080E090E00E94AF
:1042A00073048091C2049091C30401979093C30456
:1042B0008093C204DFCF83E192E00E94B90D41E018
:1042C00050E050934B0140934A0113CC6430710588
:1042D000CCF58091B7049091B80401979093B804FD
:1042E0008093B7049092CF048092CE041093BA04C6
:1042F0000093B9042091B5043091B60422503109DD
:104300003093B6042093B5042091B1043091B204E7
:10431000821793070CF06ECC8091B3049091B40493
:104320009093B8048093B704E0914A01F0914B0157
:10433000EE0FFF1FEE0FFF1FEA5EFE4F808191819F
:10434000019754CC6530710509F078C080EA90E09F
:10435000909369018093680196E0C90ED11CA3E097
:10436000CA16D10408F46AC0E0914A01F0914B01E9
:1043700031974091BD045091BE042091B304309117
:10438000B404429FC001439F900D529F900D112491
:1043900063E0EE0FFF1F6A95E1F72091B7043091BB
:1043A000B804820F931FE80FF91FEE0FFF1FEF5D98
:1043B000FB4F21E030E03183208337E0A316B104C6
:1043C00004F180911F0490912004019690932004A1
:1043D00080931F041093BA040093B90420911D0424
:1043E00030911E042817390744F480911B049091E2
:1043F0001C049093200480931F0481E08093E504C3
:10440000F9CB44E0A416B104CCF480911F04909140
:10441000200401979093200480931F041093BA0402
:104420000093B90420911B0430911C048217930758
:1044300024F780911D0490911E04DBCF80914801E8
:1044400090914901892B09F0EFCB8091B5049091AF
:10445000B604DC01AA0FBB1FA653BE4F880F991FDD
:10446000FC01E853FE4F6C9180810E94850D809184
:10447000150190911601029708F0BECB83E090E001
:104480000E94200B8091ED049091EE0418161906FD
:104490000CF0B2CB60EE72E081EA96E00E94680E0A
:1044A0008091ED049091EE0401979093EE04809337
:1044B000ED04E8CF019709F0B7CB1092CF0410922A
:1044C000CE04B2CB1092490110924801F601EE0FD2
:1044D000FF1FEE0FFF1FEC5EFE4F808191819093D6
:1044E000B6048093B5041092B8041092B70424E681
:1044F00030E0309369012093680114CC813091053C
:1045000049F486E092E00E94B90D5092EE04409288
:10451000ED0448CC8230910549F48FEF91E00E9480
:10452000B90D3092EE042092ED043CCC833091051D
:1045300059F486EF91E00E94B90D88E090E09093E5
:10454000EE048093ED042ECC049709F02BCC10924E
:104550006901109268018091CE049091CF04019777
:1045600009F420CCA1E0B0E0B093BE04A093BD0458
:10457000B0934901A09348011093BA040093B90481
:1045800011CC009719F48FEE91E0C9CF81309105DD
:1045900059F486EE91E00E94B90DE8E0F0E0F09366
:1045A000EE04E093ED04FECB8230910519F48FED1B
:1045B00091E0B5CF8330910519F48AED91E0A3CF56
:1045C000049709F0EFCB1092690110926801809175
:1045D000CE049091CF04019709F4E4CB1092BE046D
:1045E0001092BD0421E030E030934901209348014E
:1045F000C3CF8091620190916301909320048093D6
:104600001F04E1CD10921201109211018436910520
:1046100094F461ED72E081EA96E00E94680E809168
:104620006201909163010A9734F461ED72E081EACE
:1046300096E00E94680E609162017091630181EAC8
:1046400096E00E942E0E60EE72E0DBCD0E94DC0C44
:1046500060E082E00E94BA02A8E0B0E0B093BA0441
:10466000A093B9040E941B088FE090E09093100182
:1046700080930F01C090B904D090BA04B8E0CB1673
:10468000D1040CF083C710921404109213040E94FA
:10469000250961E082E00E94BA028091B7049091FE
:1046A000B8040397C1F410926901109268018091D7
:1046B000CE049091CF04019771F021E030E0309367
:1046C000BE042093BD041093BA040093B904309340
:1046D0004901209348018091480190914901029736
:1046E00041F460E080E00E94850D85EB91E00E943E
:1046F000B90D80914A0190914B01049709F005C1D1
:104700008091B7049091B804892B09F040C0809142
:10471000CE049091CF04019791F48BE090E09093B8
:104720001E0480931D04F0921C04E0921B048091EF
:104730006D0190916E019093200480931F048091ED
:104740001F049091200490936E0180936D0160EEA0
:1047500072E081EA96E00E94680E80916D0190916E
:104760006E010B9734F461ED72E081EA96E00E94ED
:10477000680E60916D0170916E016150710981EA5E
:1047800096E00E942E0E7092EE046092ED048091ED
:10479000B7049091B804019709F057C08091CE04F6
:1047A0009091CF04019781F410931E0400931D048F
:1047B00010921C0410921B0480910B0190910C012B
:1047C0009093200480931F0460EE72E081EA96E0EB
:1047D0000E94680E80911F04909120040A9734F47F
:1047E00061ED72E081EA96E00E94680E60911F041C
:1047F0007091200481EA96E00E942E0EC0901F0462
:10480000D090200480910B0190910C01C816D9061C
:10481000C1F0D0920C01C0920B01809109019091DE
:104820000A01019771F461E08CE00E94850D62EE4F
:1048300072E0CD2811F066EE72E081EA96E00E9407
:10484000680E7092EE046092ED048091B70490912E
:10485000B8040297E9F58091CE049091CF0481309D
:104860009105D1F490931E0480931D0410921C04B2
:1048700010921B0480910B0190910C01892B21F463
:1048800010920A01109209018091090190910A0188
:104890009093200480931F0480911F049091200422
:1048A00090930A018093090166EE72E0019711F07E
:1048B00062EE72E081EA96E00E94680E7092EE0469
:1048C0006092ED0481E090E09093160480931504CB
:1048D00085E00E949102892B51F480910B01909107
:1048E0000C01892B21F410920A0110920901809188
:1048F000480190914901029741F460E080E00E94F4
:10490000850D88E991E00E94B90D60914A0170918E
:104910004B016530710509F00DC18091B70490918C
:10492000B8042091BD043091BE04232B09F07AC74E
:10493000892B09F043C08091CE049091CF0481303F
:104940009105B1F4A6E4B0E0B0931E04A0931D0459
:1049500090931C0480931B0480910701909108019F
:1049600064E170E00E94E4377093200460931F04B8
:1049700080911F049091200444E1489F9001499F39
:10498000300D112430930801209307013093EA047D
:104990002093E9040A9734F461ED72E081EA96E02D
:1049A0000E94680E60911F047091200481EA96E0D5
:1049B0000E942E0EF092EE04E092ED048091B70476
:1049C0009091B804019709F043C08091CE04909172
:1049D000CF0481309105B1F427E330E030931E0419
:1049E00020931D0490931C0480931B0480916A0102
:1049F00090916B0164E170E00E94E43770932004B1
:104A000060931F0480911F049091200444E1489F0B
:104A10009001499F300D112430936B0120936A015E
:104A200030934205209341050A9734F461ED72E01A
:104A300081EA96E00E94680E60911F047091200444
:104A400081EA96E00E942E0EF092EE04E092ED04D0
:104A50008091B7049091B804029709F03FC080910B
:104A6000CE049091CF0481309105B1F429E130E07A
:104A700030931E0420931D0490931C0480931B0408
:104A800080915E0190915F0168EC70E00E94E437D4
:104A90007093200460931F0480911F049091200460
:104AA00048EC489F9001499F300D112430935F01DD
:104AB00020935E010A9734F461ED72E081EA96E09A
:104AC0000E94680E60911F047091200481EA96E0B4
:104AD0000E942E0EF092EE04E092ED048091B70455
:104AE0009091B8040397C1F4109269011092680183
:104AF0008091CE049091CF04019771F0E1E0F0E055
:104B0000F093BE04E093BD041093BA040093B9047B
:104B1000F0934901E0934801809148019091490147
:104B2000029741F460E080E00E94850D88E891E002
:104B30000E94B90D80914A0190914B01069709F0AE
:104B400047C08091B7049091B8042091CE04309171
:104B5000CF04880F991F2130310589F450921E042B
:104B600040921D0490921C0480921B04FC01EE52A2
:104B7000FB4F208131813093200420931F046091EA
:104B80001F04709120048E529B4FDC016D937C9327
:104B9000161617060CF0C7C681EA96E00E942E0E84
:104BA000E1E0F0E0F093EE04E093ED04F0931604FE
:104BB000E09315048091480190914901029741F4D6
:104BC00061E081E00E94850D83E791E00E94B90DCC
:104BD00080914A0190914B01079709F0A1C283E4AB
:104BE00095E00E94810980914801909149010297C6
:104BF000B1F58091470590E09093F2038093F10323
:104C00008091480590E09093F0038093EF038091AA
:104C1000490590E09093EE038093ED038091460563
:104C200090E09093EC038093EB038091450590E036
:104C30009093EA038093E9038091430590914405A2
:104C40009093E8038093E7031092E3031092E40348
:104C50001092E5031092E60381E08093E2038091D5
:104C6000B7049091B804892B81F58091CE0490917E
:104C7000CF04019791F487E190E090931E04809314
:104C80001D0410921C0410921B048091F10390915A
:104C9000F2039093200480931F0480911F0490914D
:104CA00020049093F2038093F1030A9734F470E0A8
:104CB00060E081EA96E00E942E0E60911F047091E0
:104CC000200481EA96E00E942E0E8091B704909114
:104CD000B804019781F58091CE049091CF0401979B
:104CE00091F48BE390E090931E0480931D04109246
:104CF0001C0410921B048091EF039091F003909399
:104D0000200480931F0480911F04909120049093AD
:104D1000F0038093EF030A9734F470E060E081EAD7
:104D200096E00E942E0E60911F047091200481EA8B
:104D300096E00E942E0E8091B7049091B8040297DD
:104D400009F049C08091CE049091CF04019791F46D
:104D50008BE390E090931E0480931D0410921C043A
:104D600010921B048091E3039091E403909320043C
:104D700080931F0460911F0470912004072E000C83
:104D8000880B990B6093E3037093E4038093E5032E
:104D90009093E60320914905620F711D811D911DBD
:104DA0002CE330E040E050E00E941A387093EE03AC
:104DB0006093ED036A30710534F470E060E081EADD
:104DC00096E00E942E0E6091ED037091EE0381EA51
:104DD00096E00E942E0E8091B7049091B80403973C
:104DE00009F041C0C090CE04D090CF04F1E0CF16BE
:104DF000D10409F58091E9039091EA030E948B08A0
:104E000090931E0480931D04D0921C04C0921B0436
:104E10002091EB033091EC038217930724F49093D5
:104E2000EC038093EB038091EB039091EC03909360
:104E3000200480931F0480911F049091200490937C
:104E4000EC038093EB030A9734F470E060E081EAAE
:104E500096E00E942E0E60911F047091200481EA5A
:104E600096E00E942E0E8091B7049091B8040497AA
:104E700089F58091CE049091CF048130910591F411
:104E80002CE030E030931E0420931D0490931C040A
:104E900080931B048091E9039091EA03909320048E
:104EA00080931F0480911F04909120049093EA0343
:104EB0008093E9030A9734F470E060E081EA96E0B9
:104EC0000E942E0E60911F047091200481EA96E0EA
:104ED0000E942E0EF092EE04E092ED048091B70451
:104EE0009091B804059781F58091CE049091CF04FC
:104EF0000197A1F488EB9BE090931E0480931D041E
:104F000082EE97E090931C0480931B048091E7034A
:104F10009091E8039093200480931F0460911F04F4
:104F2000709120047093E8036093E70381EA96E0B0
:104F30000E942E0E5092EE044092ED0421E030E0EB
:104F4000309316042093150485E00E949102892B6A
:104F500009F0C1C0D090E9039091EA038D2D0E9421
:104F60008B082091EB033091EC038217930724F414
:104F70009093EC038093EB033091ED033A834091DF
:104F8000EF034B835091F1035C83C090EB03CD8220
:104F9000D982A090E703B090E80381E08093CC052C
:104FA00088E68093EE051092CD051092EF0590E013
:104FB00080E00E945A078A816AE00E94C437829585
:104FC000807F682F690F8FE896E00E9412078B811F
:104FD0006AE00E94C4378295807F682F690F8FE84E
:104FE00096E00E9412078C816AE00E94C437829585
:104FF000807F682F690F8FE896E00E94120781E09A
:1050000090E0A981A33010F090E080E09501281B8A
:10501000390B4D2D4150550BFA01E651FF4FE491EC
:10502000C20ED32ED11CB9017695679576956795FA
:10503000C60ED71EC90160E971E00E94D037C60EC6
:10504000D71EC90164E670E00E94D037C61AD70A9D
:10505000C6018E0F911D67E070E00E94D037682F67
:10506000811101C067E08FE896E00E9412074AE0D4
:10507000D42E8D816D2D0E94C4378295807F682F3C
:10508000690F8FE896E00E94120789816D2D0E94BA
:10509000C4378295807F682F690F8FE896E00E9461
:1050A000120780E38A0D6D2D0E94C4378295807FA0
:1050B000682F690F8FE896E00E94120790E080E069
:1050C0000E945A070E940C0583E495E00E94810922
:1050D000C5010E94BE088091480190914901029744
:1050E00009F032C460E086E00E94850D64EA72E057
:1050F00081EA96E00E94680E60E089E00E94850DDA
:1051000064EA72E081EA96E00E94680E61E087E05E
:105110000E94850D6CEE72E081EA96E00E94680EB6
:1051200080914A0190914B01089709F0B4C0809199
:10513000B7049091B8042091BD043091BE04232B94
:1051400009F08BC4892B19F58091CE049091CF047E
:10515000019761F410921C0410921B0410921E041B
:1051600010921D041092200410921F0468ED72E04A
:1051700081EA96E00E94680E3092EE042092ED04DF
:1051800085E00E949102892B11F40E94DB0F80912F
:10519000B7049091B804019719F58091CE049091CD
:1051A000CF04019761F410921C0410921B0410921A
:1051B0001E0410921D041092200410921F0468ED2A
:1051C00072E081EA96E00E94680E3092EE0420922E
:1051D000ED0485E00E949102892B11F40E94581180
:1051E0008091B7049091B8040297F1F48091CE04B5
:1051F0009091CF04019761F410921C0410921B044B
:1052000010921E0410921D041092200410921F048C
:105210006AEE72E081EA96E00E94680EA1E0B0E0DA
:10522000B093EE04A093ED048091B7049091B8047C
:105230000397C1F410926901109268018091CE0425
:105240009091CF04019771F0E1E0F0E0F093BE049B
:10525000E093BD041093BA040093B904F09349019C
:10526000E09348018091480190914901029799F497
:1052700060E080E00E94850D8BE691E00E94B90D10
:105280008091E0039091E103892B09F0E3C383E669
:1052900091E00E94B90D80914A0190914B010997CC
:1052A00009F08CC08091B7049091B804892B69F5FE
:1052B0008091CE049091CF048130910581F41092B9
:1052C0001C0410921B0490931E0480931D04809173
:1052D0003E0590913F059093200480931F04809198
:1052E0001F049091200490933F0580933E0562EF48
:1052F00072E0019711F06EEE72E081EA96E00E9492
:10530000680E7092EE046092ED048091B704909163
:10531000B804019709F044C08091CE049091CF0465
:105320000197A1F410921C0410921B0470921E04A9
:1053300060921D04809160019091610143E050E012
:10534000481B590B5093200440931F0480911F0465
:1053500090912004A3E0B0E0A81BB90BB0936101C9
:10536000A09360016EEE72E0AB2B91F060EE72E004
:1053700081EA96E00E94680E60911F0470912004FB
:105380006F5F7F4F81EA96E00E942E0E60EE72E022
:1053900081EA96E00E94680E7092EE046092ED043D
:1053A0008091480190914901029741F460E080E0CA
:1053B0000E94850D83E491E00E94B90D80914A011D
:1053C00090914B010A9709F074C08091B7049091B5
:1053D000B804892BF1F48091CE049091CF04019709
:1053E00061F410921C0410921B0410921E0410927F
:1053F0001D041092200410921F0466EF72E081EAEF
:1054000096E00E94680EE7E0F0E0F093EE04E0938F
:10541000ED048091B7049091B8040197E1F4809174
:10542000CE049091CF04019761F410921C04109265
:105430001B0410921E0410921D041092200410925E
:105440001F046EEF72E081EA96E00E94680E3092CF
:10545000EE042092ED0485E00E949102892BD9F49C
:105460008091B7049091B804892BA9F40E94DC0CB8
:1054700021E030E0309349012093480130924B0104
:1054800020924A011092E304F0926701E0926601D3
:1054900081E08093E4048091480190914901029752
:1054A00041F460E081E00E94850D83E391E00E9479
:1054B000B90D8091E504882391F0809115049091B5
:1054C0001604019751F464E670E080E090E00E94D9
:1054D000730410921604109215041092E50485E0EE
:1054E0000E949102892B09F046C080914801909159
:1054F0004901892B09F03FC01092BA041092B904F7
:1055000010926901109268018091E0039091E1038B
:10551000892B59F40E9436081816190634F441E014
:1055200050E05093E1034093E0030E94360820913D
:1055300001013091020182179307ECF01216130655
:10554000D4F40E94DC0C60E085E00E94850D8CE2C2
:1055500091E00E94B90D61E084E00E94850D83E234
:1055600091E00E94B90D0E94581164EF71E080E053
:1055700090E00E9473048091B9049091BA0401975D
:105580009093BA048093B9040C94921D83E00E9416
:105590009102892B09F077C881E00E94910710924F
:1055A000C3041092C2048091C2049091C304843653
:1055B00091059CF480E00E94910761E070E080E03A
:1055C00090E00E9473048091C2049091C3040196FC
:1055D0009093C3048093C204E6CF8091F30390912B
:1055E000F40320911304309114042817390724F48C
:1055F0009093140480931304609164017091650189
:10560000861B970B209113043091140437FF02C0BE
:105610002F5F3F4F359527952E5F3F4F821793079A
:1056200008F428C8E8E0CE16D10409F023C89B018D
:105630002F5F3F4F30936301209362011092BA04B1
:105640001092B90420910F0130911001E3EFF3E0C3
:1056500050E040E04D30510519F02A30310521F17C
:105660003093100120930F0190937B0180937A0176
:105670009C0197FF02C02F5F3F4F35952795820F02
:10568000931F019690930E0180930D0144E650E024
:1056900060E070E083E992E00E9424031092BA0473
:1056A0001092B9040C943A23A191B1916A177B0727
:1056B00019F49A012E5F3F4F4F5F5F4FCBCF892B7D
:1056C000F1F58091CE049091CF04019791F410925E
:1056D0001C0410921B048FE090E090931E048093B2
:1056E0001D0480910F0190911001909320048093EC
:1056F0001F0480911F0490912004909310018093C7
:105700000F0160EE72E081EA96E00E94680E8091DF
:105710001F04909120040A9734F461ED72E081EA4D
:1057200096E00E94680E60910F017091100181EA6D
:1057300096E00E942E0E7092EE046092ED0480912D
:10574000B7049091B8040197F1F58091CE0490913F
:10575000CF04019791F410921C0410921B0484E171
:1057600090E090931E0480931D0480910D01909110
:105770000E019093200480931F0480911F04909148
:10578000200490930E0180930D016FED72E081EA89
:1057900096E00E94680E80911F04909120040A9761
:1057A00034F461ED72E081EA96E00E94680E609147
:1057B0000D0170910E0181EA96E00E942E0E50922A
:1057C000EE044092ED048091B7049091B8040297E2
:1057D0000297C0F410926901109268018091CE0482
:1057E0009091CF04019771F01092BE041092BD0405
:1057F0001093BA040093B90441E050E0509349017A
:10580000409348018091480190914901029711F01D
:105810000C94792360E080E00E94850D89EA91E094
:105820000C947723892B09F051C08091CE0490917C
:10583000CF040197A1F484E190E090931E0480933B
:105840001D0410921C0410921B048091050190917C
:1058500006010E94E4377093200460931F04809136
:105860001F049091200421E030E0009731F045E0E2
:10587000489F9001499F300D1124309306012093D9
:10588000050180910501909106018436910594F4FB
:1058900061ED72E081EA96E00E94680E8091050158
:1058A000909106010A9734F461ED72E081EA96E086
:1058B0000E94680E609105017091060181EA96E0F0
:1058C0000E942E0E7092EE046092ED048091B70457
:1058D0009091B8048D7F81309105B9F410926901DF
:1058E000109268012091CE043091CF04213031050F
:1058F00061F01092BE041092BD041093BA0400939C
:10590000B904909349018093480180914801909196
:105910004901029709F00EC960E080E00E94850D00
:1059200081E891E005C96115710539F46AEE72E00C
:1059300081EA96E00E94680E33C96F3F7F4F09F0FD
:105940002FC963E173E0F4CFC090B704D090B804DE
:1059500052E0C516D104C1F0209149056091E303DE
:105960007091E4038091E5039091E603620F711D4D
:10597000811D911D2CE330E040E050E00E941A3878
:105980007093EE036093ED038091ED039091EE032D
:10599000892B09F492C781E08093E2038091B704D8
:1059A0009091B804029709F4BBCB60E08AE00E94B2
:1059B000850D8091ED039091EE030A9734F470E029
:1059C00060E081EA96E00E942E0E6091ED037091F6
:1059D000EE0381EA96E00E942E0EA2CB1092F00315
:1059E0001092EF038091F1039091F20301968831B8
:1059F000910509F19093F2038093F103A090F103D4
:105A0000B090F203CD28E1F060E084E00E94850DC3
:105A10008AE0A816B10434F470E060E081EA96E010
:105A20000E942E0E6091F1037091F20381EA96E0DC
:105A30000E942E0E56C71092F2031092F103DECF91
:105A4000B0922004A0921F044CC7D0922004C092B0
:105A50001F04A4CF8CE591E01CCC892B61F58091CB
:105A6000CE049091CF048130910581F410921C04F2
:105A700010921B0490931E0480931D0480910301D7
:105A8000909104019093200480931F0480911F043F
:105A9000909120049093040180930301892B09F0D5
:105AA0006AC06EEE72E081EA96E00E94680E709223
:105AB000EE046092ED048091B7049091B8040197D0
:105AC00069F58091CE049091CF04019791F41092E2
:105AD0001C0410921B048AE090E090931E048093B3
