:020000040000FA
:100000000C947D020C94AE020C94AE020C94AE02E1
:100010000C94AE020C94AE020C94AE020C94AE02A0
:100020000C94AE020C94AE020C94AE020C94AE0290
:100030000C9492170C9449160C94AE020C94AE02D8
:100040000C94AE020C94AE020C94AE020C94AE0270
:100050000C94AE020C94AE020C94AE020C944817B1
:100060000C94AE020C9412170C94E8160C94AE0289
:100070000C94AE020C94AE020C94AE020C94AE0240
:100080000C94AE020C94AE020C94AE020C94AE0230
:100090000C94AE020C94AE020C94AE020C949C171D
:1000A0000C94AE020C94AE020C94AE020C94AE0210
:1000B0000C94AE020C94AE020C94AE020C94AE0200
:1000C0000C94AE020C94AE020C94AE020C94AE02F0
:1000D0000C94AE020C94AE020C94AE020C94AE02E0
:1000E0000C94AE0208000000BE922449123EABAA56
:1000F000AA2ABECDCCCC4C3E00000080BEABAAAA42
:10010000AA3E00000000BF000000803F0000000089
:1001100000084178D3BB4387D1133D190E3CC3BDC2
:100120004282AD2B3E68EC8276BED98FE1A93E4C6F
:1001300080EFFFBE01C4FF7F3F00000000000C9471
:100140000D040C94D0140C9468130C9415040C94A6
:10015000F5030C9417030C94B7020C94E4030C946D
:10016000CC140C94E9140C9409030C94F8140C941A
:1001700011040C9432130C9486130C9460130C9499
:100180004E130C941F040C9453130C94B2370C941C
:1001900097140C941A040C9419090C94E8030C9409
:1001A0005D130C946F140C948B130C94C0180C9466
:1001B000E4140C94B7140C94B8020C943A130C94F5
:1001C000B7090C94B0020C94FF030C94A6130C9482
:1001D00058130C94AB130C9469090C94F3140C94FD
:1001E00002150C94B0130C94FD140C946D130C9424
:1001F000EE140C94F9030C942A130C94B2140C947E
:100200001A090C9490130C9407150C94DB140C949D
:10021000B6090C94A1130C94EC030C947A130C946F
:100220004F030C94DA030C94B9020C94EF030C9472
:10023000A9140C94A1140C943C090C940C150C9466
:1002400075130C942A0E0C94BD140C941B040C947E
:1002500046130C949C140C9425130C94C2140C9407
:1002600029090C946D140C94E6020C949C030C94D4
:100270007F130C94F5120C94C7140C9403040C9483
:10028000E0030C94D6140C9407040C94F5020C941F
:10029000F11200002100240027002A002D00300068
:1002A000330001010000040107010A0100002000E1
:1002B0002300260029002C002F003200000100003E
:1002C00003010601090100000A0B02090C0D0E08CA
:1002D000070304010000000000000000000000000F
:1002E000000000000000000000000000000000000E
:1002F00000001211100000000000000000000000CB
:1003000000000000000000000000000000030205E3
:1003100000030501040602044F676E692067696FD8
:10032000726E6F2000556E6120766F6C74612000D4
:100330004175746F6D617469636F200053766567F2
:100340006C69612000657365677569746F0042614F
:10035000636B757000436F73612076756F692066FB
:100360006172653F0047696F726E692053742E6237
:100370007900436869656469204175746F00426162
:10038000636B75700044656661756C7400526970CA
:10039000722E2020004C204D204D20472056205307
:1003A00020440052656174742E004C434420537401
:1003B0002E627920536C6565700053746F7020490C
:1003C0006E762E2053656D707265004C756E672ECB
:1003D00020546F6C6C2E004C756365204275696FFC
:1003E0002043616C2E20007472612E2E2E2000435B
:1003F000616C696272617A696F6E6500412E492E87
:10040000004261636B757000446174612F4F7261CB
:100410000047696F726E6900426174746572696148
:10042000004F6E2F4F6666004C75636500416C6C23
:1004300061726D6500496D706F7374617A696F6E7A
:100440006900010210202008081020401020408080
:100450000201020108040201010204081020408088
:100460008040201008040201800402018040201016
:10047000080402010804020101020408102040805F
:1004800001020408102040800000220025002800FE
:100490002B002E003100340002010000050108018C
:1004A0000B010505050507050808080802020202F8
:1004B0000A0A080804040404010101010101010100
:1004C0000303030303030303040707070C0C0C0CCB
:1004D0000C0C0C0C020202020606060606060606B4
:1004E0000B0B0B0B0B0B0B0B021F1C1F1E1F1E1FDE
:1004F0001F1E1F1E1F00C018B23711241FBECFEFD2
:10050000D1E2DEBFCDBF00E00CBF27E0A0EAB4E03F
:1005100001C01D92A93FB207E1F714E0A0E0B2E0EC
:10052000E2EAFAE700E00BBF02C007900D92A03AA2
:10053000B107D9F712E0CCE7D2E000E006C021977E
:100540000109802FFE010E94213BCB37D10780E0BB
:100550000807A9F70E9478190C943F3D0C940000FD
:100560008091AE069091AF06891B990B089508956E
:100570000895AF92BF92CF92DF92EF92FF920F93C6
:100580001F93CF93DF936C017B018B01040F151F29
:10059000EB015E01AE18BF08C017D10759F0699191
:1005A000D601ED91FC910190F081E02DC6011995E5
:1005B000892B79F7C501DF91CF911F910F91FF90A2
:1005C000EF90DF90CF90BF90AF900895FC01538DD6
:1005D000448D252F30E0842F90E0821B930B54171D
:1005E00010F0CF96089501970895FC01918D828DAA
:1005F000981761F0A28DAE0FBF2FB11D5D968C9143
:10060000928D9F5F9F73928F90E008958FEF9FEF81
:100610000895FC01918D828D981731F0828DE80F3D
:10062000F11D858D90E008958FEF9FEF0895FC01F7
:10063000918D228D892F90E0805C9F4F821B9109C4
:100640008F73992708958CE297E00E94170321E0A9
:10065000892B09F420E0822F0895FC01A48DA80FB6
:10066000B92FB11DA35ABF4F2C91848D90E00196F4
:100670008F739927848FA689B7892C93A089B18914
:100680008C91837080648C93938D848D981306C0B5
:100690000288F389E02D80818F7D80830895EF9219
:1006A000FF920F931F93CF93DF93EC0181E0888F2C
:1006B0009B8D8C8D98131AC0E889F989808185FFFC
:1006C00015C09FB7F894EE89FF896083E889F9899E
:1006D00080818370806480839FBF81E090E0DF91A0
:1006E000CF911F910F91FF90EF900895F62E0B8DF3
:1006F00010E00F5F1F4F0F731127E02E8C8D8E11AE
:100700000CC00FB607FCFACFE889F989808185FF14
:10071000F5CFCE010E942D03F1CFEB8DEC0FFD2F15
:10072000F11DE35AFF4FF0829FB7F8940B8FEA89CF
:10073000FB8980818062CFCFCF93DF93EC01888DDE
:100740008823B9F0AA89BB89E889F9898C9185FD4C
:1007500003C0808186FD0DC00FB607FCF7CF8C91DA
:1007600085FFF2CF808185FFEDCFCE010E942D0362
:10077000E9CFDF91CF9108958150823108F05AC0BE
:10078000E82FF0E08827E853FC4F8F4F0C94213B73
:10079000E803EC03DA03E003E4031A04EF03F503D0
:1007A000F903FF03030407040D0411041A041504DC
:1007B0001B041F04809180008F7780938000089530
:1007C000809180008F7DF9CF80918000877FF5CF69
:1007D00084B58F7784BD089584B58F7DFBCF8091DC
:1007E000B0008F778093B00008958091B0008F7D26
:1007F000F9CF809190008F77809390000895809139
:1008000090008F7DF9CF80919000877FF5CF809108
:10081000A0008F778093A00008958091A0008F7D25
:10082000F9CF8091A000877FF5CF809120018F774D
:10083000809320010895809120018F7DF9CF8091D0
:100840002001877FF5CFCF93DF93282F30E0F90188
:10085000EA53FD4F8491F901EE5BFB4FD491F9010E
:10086000EE55FB4FC491CC23A1F081110E94BC0333
:10087000EC2FF0E0EE0FFF1FE455FD4FA591B49172
:10088000EC91ED2381E090E009F480E0DF91CF91DD
:10089000089580E090E0FACF1F93CF93DF93282F45
:1008A00030E0F901EA53FD4F8491F901EE5BFB4F13
:1008B000D491F901EE55FB4FC491CC23A9F0162F2A
:1008C00081110E94BC03EC2FF0E0EE0FFF1FE857F0
:1008D000FB4FA591B4918FB7F894EC91111108C01A
:1008E000D095DE23DC938FBFDF91CF911F910895C8
:1008F000DE2BF8CFCF93DF9390E0FC01EE5BFB4F54
:1009000024918E559B4FFC0184918823C9F090E07F
:10091000880F991FFC01EE56FD4FA591B491FC0183
:10092000E857FB4FC591D49161110DC09FB7F89462
:100930008C91209582238C938881282328839FBFC4
:10094000DF91CF910895623051F49FB7F8943C91B4
:10095000822F809583238C93E8812E2BEFCF8FB746
:10096000F894EC912E2B2C938FBFEACF8F929F920D
:10097000AF92BF92CF92DF92EF92FF920F931F93AD
:10098000CF938C016A017B0180917502843071F0F4
:100990008F3FA1F1CF911F910F91FF90EF90DF90CA
:1009A000CF90BF90AF909F908F900895E8EEF4E0C5
:1009B000C491C7FDEFCF61E084E00E947A04CC23AC
:1009C00019F0C23009F0EEC0980150E040E068E450
:1009D00078EE81E090E00E94023B49015A0181E0FB
:1009E000881A9108A108B108CC2309F492C180911A
:1009F000B100887F84608093B100ECC084E0809374
:100A00007502E8EEF4E0C4918C2FCF3F09F4C2CF19
:100A1000C23009F468C060F4CC2379F1C13009F424
:100A200044C087FDB7CF61E084E00E947A04C9CF5B
:100A3000C43009F499C008F478C0C53091F7109219
:100A40002001109221018091210188608093210171
:100A500080912101816080932101E6EAF4E0E49134
:100A6000F0E0EE0FFF1FE857FB4F85919491E6E40D
:100A7000F4E0E491E09380069ECF14BC15BC84B5ED
:100A8000826084BD85B5816085BDE6EAF4E0E491CD
:100A9000F0E0EE0FFF1FE857FB4F85919491E6E4DD
:100AA000F4E0E491E093870686CF109280001092E4
:100AB0008100809181008860809381008091810015
:100AC000816080938100E6EAF4E0E491F0E0EE0FCB
:100AD000FF1FE857FB4F85919491E6E4F4E0E49121
:100AE000E093860668CF1092B0001092B10080911A
:100AF000B00082608093B0008091B10081608093EB
:100B0000B100E6EAF4E0E491F0E0EE0FFF1FE857F1
:100B1000FB4F859194919093850680938406E6E43B
:100B2000F4E0E491E093830646CF10929000109297
:100B30009100809191008860809391008091910054
:100B4000816080939100E6EAF4E0E491F0E0EE0F3A
:100B5000FF1FE857FB4F85919491E6E4F4E0E491A0
:100B6000E0938206C3E027CF1092A0001092A1006C
:100B70008091A10088608093A1008091A100816094
:100B80008093A100E6EAF4E0E491F0E0EE0FFF1FAD
:100B9000E857FB4F85919491E6E4F4E0E491E0930B
:100BA000810609CF980150E040E060E072E18AE7F9
:100BB00090E00E94023B49015A0181E0881A9108A5
:100BC000A108B108C13079F580918100887F8160EA
:100BD00080938100D801AA0FBB1FA70196010E9434
:100BE000F53828EE33E040E050E00E94E03AC230B1
:100BF00009F443C00CF075C0CC2381F1C13009F079
:100C0000C9CE9092890080928800209398063093F4
:100C1000990640939A0650939B0680916F008260DC
:100C200080936F00B7CEC33039F480919100887FF4
:100C3000816080939100CECFC43039F48091A100BF
:100C4000887F81608093A100C5CFC53019F680915F
:100C50002101887F816080932101BCCF87BC2093D4
:100C60009C0630939D0640939E0650939F0680916C
:100C70006E00826080936E008DCE8092B3002093D0
:100C8000940630939506409396065093970680916C
:100C900070008260809370007DCE90929900809267
:100CA00098002093900630939106409392065093BB
:100CB0009306809171008260809371006BCE909258
:100CC000A9008092A80020938C0630938D06409353
:100CD0008E0650938F06809172008260809372001E
:100CE00059CEC43061F3CCF2C53009F053CE9092A6
:100CF0002901809228012093880630938906409329
:100D00008A0650938B0680917300826080937300F3
:100D100041CE85B5887F836085BD5CCF90917B0097
:100D2000977F90937B008653806480937C008091B2
:100D30007A00806480937A0080917A0086FDFCCFEF
:100D4000809178009091790008953FB7F894809150
:100D5000EA049091EB04A091EC04B091ED0426B567
:100D6000A89B05C02F3F19F00196A11DB11D3FBFE3
:100D7000BA2FA92F982F8827BC01CD01620F711DB2
:100D8000811D911D42E0660F771F881F991F4A95AC
:100D9000D1F708958F929F92AF92BF92CF92DF9238
:100DA000EF92FF926B017C010E94A5064B015C0152
:100DB000C114D104E104F104B9F00E94A506681938
:100DC00079098A099B09683E73408105910580F382
:100DD00021E0C21AD108E108F10888EE880E83E00C
:100DE000981EA11CB11CE4CFFF90EF90DF90CF9034
:100DF000BF90AF909F908F9008952091C604260FCA
:100E00003327331F21323105ECF420910207FC0116
:100E100090E080E0243069F082E00895A091C6045B
:100E20002191AC014A555B4FA40FB52FB11D2C93F6
:100E30000196861798F38091C604680F6093C604E4
:100E400080E0089581E008951092020781E0809388
:100E500001071092DC0661E084E10E944C0461E02D
:100E600085E10E944C04E9EBF0E080818E7F808375
:100E700080818D7F808388E48093B80085E48093AF
:100E8000BC000895CF93DF9391E09093A50488234D
:100E9000B9F0C091B800D091BA008091BC008A7BB3
:100EA0008093BC0060E084E10E944C0460E085E136
:100EB0000E944C040E942407D093BA00C093B8004B
:100EC000DF91CF910895CF92DF92EF92FF920F932F
:100ED0001F93CF93DF93D0912B0781E0D13208F09D
:100EE0009CC0C0912A070E94A5066B017C018091DD
:100EF000020781116CC082E08093020781E0809339
:100F000001078FEF809300071092FF06D093FE0633
:100F1000AAE0B7E0EEEDF6E080E0D8138DC01092C5
:100F2000DD068091DD06CC0FC82BC093DD068091D5
:100F3000DC06813009F084C01092DC060E94A50610
:100F40006B017C018091DD068093BB0080910407DA
:100F500090910507A0910607B0910707892B8A2B6E
:100F60008B2BA1F00E94A5060091040710910507A4
:100F700020910607309107076C197D098E099F099A
:100F8000061717072807390708F442C08091BC00EC
:100F900083FDD8CF85EC8093BC000E94A5066B0131
:100FA0007C0180910207823009F44CC080910007D7
:100FB0008F3F09F469C080910007803209F466C050
:100FC00080910007803309F463C084E026C08091DB
:100FD000040790910507A0910607B0910707892B98
:100FE0008A2B8B2B09F483CF0E94A506009104075E
:100FF0001091050720910607309107076C197D09AC
:101000008E099F09061717072807390708F06FCFC1
:10101000809103070E94420785E010920907109211
:101020002B0710920807DF91CF911F910F91FF902E
:10103000EF90DF90CF9008959D9191938F5F6DCF4A
:1010400085EEA9CF8091040790910507A09106072E
:10105000B0910707892B8A2B8B2B09F4A2CF0E9412
:10106000A50600910407109105072091060730910D
:1010700007076C197D098E099F09061717072807AE
:10108000390708F08ECFC4CF80E0C7CF82E0C5CF4C
:1010900083E0C3CFCF92DF92EF92FF920F931F9323
:1010A000CF93DF93D82FC62F613208F098C00E94EB
:1010B000A5066B017C018091020781116BC081E064
:1010C00080930207809301079FEF9093000710928F
:1010D000FF069C0F9093FE068093DD068091DD064F
:1010E000DD0FD82BD093DD068091DC06813009F02E
:1010F00078C01092DC060E94A5066B017C018091ED
:10110000DD068093BB008091040790910507A091B4
:101110000607B0910707892B8A2B8B2BA1F00E9421
:10112000A50600910407109105072091060730914C
:1011300007076C197D098E099F09061717072807ED
:10114000390708F448C08091BC0083FDD8CF85ECF6
:101150008093BC000E94A5066B017C018091020770
:10116000813009F440C08091FF068C1710F4C091C3
:10117000FF06EEEDF6E0A0EBB6E080E08C1355C084
:101180008C2FDF91CF911F910F91FF90EF90DF9007
:10119000CF9008958091040790910507A0910607CC
:1011A000B0910707892B8A2B8B2B09F484CF0E94DF
:1011B000A5060091040710910507209106073091BC
:1011C00007076C197D098E099F090617170728075D
:1011D000390708F070CF809103070E944207C0E0F2
:1011E000CFCF85EEB5CF8091040790910507A091F0
:1011F0000607B0910707892B8A2B8B2B09F4AECFFA
:101200000E94A5060091040710910507209106078A
:10121000309107076C197D098E099F09061717077A
:101220002807390708F09ACFD6CF91919D938F5F09
:10123000A5CF0895E091AF068091AE06E81730F48F
:10124000F0E0E055F94F808190E008958FEF9FEF37
:1012500008959091AF068091AE062FEF3FEF98175B
:1012600048F4E92FF0E0E055F94F208130E09F5F2E
:101270009093AF06C9010895CF92DF92EF92FF924B
:101280000F931F93CF93DF937C01CB018A012091B1
:101290000807222389F0EB016B01C40ED51ECC1583
:1012A000DD0569F06991D701ED91FC910190F08124
:1012B000E02DC7011995F3CF642F0E94FD06C801E8
:1012C000DF91CF911F910F91FF90EF90DF90CF9022
:1012D0000895CF93DF931F92CDB7DEB76983209136
:1012E00008072223F9F020912B07203258F021E043
:1012F00030E0FC013383228390E080E00F90DF91A7
:10130000CF91089580910907E82FF0E0E65FF84F4C
:10131000998190838F5F8093090780932B0781E0E9
:1013200090E0ECCF61E0CE0101960E94FD06F7CF80
:10133000CF93C62F91E09093080798E690932A07E1
:101340001092090710922B07682F8BEC97E00E94F0
:1013500069096C2F8BEC97E00E946909CF910C947E
:101360006307682F8BEC97E00C946909089590E06F
:1013700080E008958091670690916806019667E085
:1013800070E00E94CC3A9093040680930306880F85
:10139000991FFC01EB50FA4F808191810197880FD2
:1013A000991FFC01EE0FFF1FE45BFD4F208131818F
:1013B0003093A3062093A206880F991FFC01E25BDD
:1013C000FD4F808191819093A1068093A00608959E
:1013D00089E30E948E069093650280936402909345
:1013E000A4048093A304E8E1F5E025E0E833F207E4
:1013F00019F081939193F9CF80E190E09093E60505
:101400008093E50508952091EF053091F00546E5BC
:1014100055E090E080E065E0463D5607A9F030E0F9
:1014200020E0F901EE0FFF1FE40FF51F60817181CD
:101430006130710509F401962F5F3F4F2830310567
:1014400081F7405F5F4FE7CF3093F0052093EF05C2
:1014500029E030E03093F2052093F1050895809162
:10146000EF059091F005E6E4F5E025E0E63CF207B3
:10147000A1F01182108213821282158214821782C7
:101480001682118610861386128615861486178694
:101490001686709688E090E0E8CF9093F0058093F0
:1014A000EF0588E090E09093F2058093F1050895B0
:1014B0009C012D7F2130310529F18530910511F1F5
:1014C0009C012750310922303105E0F00297E9F400
:1014D0002091700630917106C90183709927892B7C
:1014E00039F4C90164E670E00E94CC3A892B81F49A
:1014F000C90160E971E00E94CC3A892B49F08CE186
:1015000090E008958FE190E008958EE190E00895D5
:101510008DE190E00895EF92FF920F931F93CF9388
:10152000DF93FC01D0E0C0E020ED37E000E911E0FE
:1015300084E6E82EF12C2E173F0784F0E090720627
:10154000F12C01E010E00E151F0534F5C8010E94D2
:10155000580AC80FD91F0F5F1F4FF5CFC9018370FD
:101560009927892B31F4C901B7010E94CC3A892B04
:1015700089F4C901B8010E94CC3AAC0181E0452B45
:1015800009F080E090E083599E4FC80FD91F2F5F6C
:101590003F4FD1CF81E0F6CF2091730630E02C5F32
:1015A0003F4F2C0F3D1FE7E0F0E0C901BF010E9453
:1015B000CC3A9093680680936706C9010196BF01F3
:1015C0000E94CC3ACB0166E070E00E94CC3A909346
:1015D0006A0680936906DF91CF911F910F91FF906A
:1015E000EF9008958091110290911202019761F499
:1015F00080910002882341F08091640290916502FD
:101600009093630280936202109200028091180509
:1016100090911905909365028093640208958091DA
:101620000702909108029093170680931606809106
:101630006A0290916B0290936F0680936E0684E627
:1016400090E090936902809368028091600290918B
:1016500061021816190624F410921406109213064B
:1016600061E082E00C944C04AF92BF92CF92DF9283
:10167000EF92FF920F931F93CF93DF93CDB7DEB717
:101680002E970FB6F894DEBF0FBECDBF8C0181E060
:101690008093080788E680932A0710920907109222
:1016A0002B0790E080E00E94B1090E94630767E089
:1016B00088E60E944A081092AF068093AE06811118
:1016C00001C0FFCF7E018FE0E80EF11CFE013196D4
:1016D0006F019AE0B92E8BEC97E00E942909982FB0
:1016E00092959F708F709B9D800D112490E0F70163
:1016F000929382937F01CE16DF0669F70E946307FB
:10170000A981BA81CD018053984F9093D1068093DF
:10171000D0063B813093D2066D817E816093D306E3
:101720002F812093D70649854093D406EB84E0921D
:10173000D506FD84F092D6067727E9EEF4E021E0A5
:10174000231730F45491650F711D2F5F3196F8CF38
:10175000323039F49D0123703327232B11F46F5F4E
:101760007F4F9C012D5C3740369527953695279500
:10177000EDE6F1E0AE9FC001AF9F900DBE9F900DD2
:101780001124280F391F21503109260F371FA8E1D6
:10179000B0E00E9400395B016C01A40EB11CC11CB9
:1017A000D11CA6019501ACE3B0E00E94F5389B0185
:1017B000AC012E0D311D411D511D0E94F5386F0DDC
:1017C000711D811D911D60597A4C8249974C60931F
:1017D000D8067093D9068093DA069093DB068CE0E6
:1017E000E0EDF6E0D80101900D928A95E1F7C8018D
:1017F0002E960FB6F894DEBF0FBECDBFDF91CF910E
:101800001F910F91FF90EF90DF90CF90BF90AF901E
:101810000895CF9391E09093080798E690932A0754
:101820001092090710922B07682F8BEC97E00E940B
:1018300069090E94630761E088E60E944A081092E5
:10184000AF068093AE06811101C0FFCF8BEC97E00D
:101850000E942909C82F0E9463078C2FCF910895F9
:101860008FE00E94090C682F6E7F8FE00C9498091E
:10187000CF93C82F8EE00E94090C682FCC2329F04B
:1018800061608EE0CF910C9498096E7FFACF1F9320
:10189000CF93DF93382F562F842F2AE0622F0E9498
:1018A000AC3A8295807F182F190F852F0E94AC3A91
:1018B0008295807FD82FD90F832F0E94AC3A8295D2
:1018C000807FC82FC90F81E08093080788E6809346
:1018D0002A071092090710922B0787E090E00E94D8
:1018E000B109612F6F778BEC97E00E9469096D2F2A
:1018F0006F778BEC97E00E9469096C2F6F778BEC08
:1019000097E00E94690960E88BEC97E00E94690902
:101910000E94630781E00E94380CDF91CF911F91F4
:101920000C94300CFF920F931F93CF93DF93F82EFC
:10193000C0917802D09179020091760210917702DD
:10194000209761F50115110549F587E090E0909326
:10195000AD068093AC0680E00E94380C0E94300CEB
:101960004091AC06602F8C2F0E94470CFF2081F025
:101970001092AB061092AA061092A9061092A80621
:101980001092A7061092A6061092A5061092A40621
:10199000DF91CF911F910F91FF9008951092AD06A6
:1019A0001092AC06D8CFCF93DF93EC0160E08E812C
:1019B0000E944C0461E08E810E944C0460E08E81A4
:1019C0000E944C048BE891E00197F1F7DF91CF91F1
:1019D0000895CF92DF92EF92FF920F931F93CF93D0
:1019E000DF936C017C0187E0E80EF11CD0E0C0E0E1
:1019F000062F10E0B8010C2E02C0759567950A9469
:101A0000E2F76170F70181917F010E944C042196F9
:101A1000C430D10579F7C601DF91CF911F910F91A5
:101A2000FF90EF90DF90CF900C94D30CCF92DF9289
:101A3000EF92FF920F931F93CF93DF93EC01F62E5B
:101A4000642F8C810E944C048D818F3F19F060E0DF
:101A50000E944C040F2D10E08F8584FF25C06E017D
:101A600087E0C80ED11CF12CE12CB8010E2C02C06D
:101A7000759567950A94E2F76170F60181916F019F
:101A80000E944C04FFEFEF1AFF0A88E0E816F10409
:101A900061F7CE01DF91CF911F910F91FF90EF90F1
:101AA000DF90CF900C94D30CB80184E075956795C6
:101AB0008A95E1F7CE010E94E90C6F2DCE01DF91EE
:101AC000CF911F910F91FF90EF90DF90CF900C94EA
:101AD000E90C40E0682F8DED97E00C94160D81E045
:101AE0000E94690D8BE39FE10197F1F70895CF9371
:101AF000DF93823029F49091EC0798609093EC0783
:101B00008093F0071092F10780E48093F20780E160
:101B10008093F30780E58093F40761E08091E1070B
:101B20000E947A048091E2078F3F19F061E00E94E1
:101B30007A0461E08091E3070E947A04CDEDD7E05A
:101B40009E012D5D37408091EC0784FD0BC084E041
:101B500090E021962817390744F461E08E810E94B5
:101B60007A04EECF88E090E0F4CF8BE39DE001971C
:101B7000F1F760E08091E1070E944C0460E0809101
:101B8000E3070E944C048091E2078F3F19F060E068
:101B90000E944C048091EC0784FD34C063E08DED1D
:101BA00097E00E94E90CCBE4D6E4CE010197F1F76F
:101BB00063E08DED97E00E94E90C2197F1F763E077
:101BC0008DED97E00E94E90C83E592E00197F1F733
:101BD00062E08DED97E00E94E90C8091EC07806255
:101BE0000E94690D84E08093ED078CE00E94690DEE
:101BF0000E946F0D82E08093EE0786E0DF91CF9127
:101C00000C94690D80620E94690D8BE496E4019743
:101C1000F1F78091EC0780620E94690D83E592E004
:101C20000197F1F78091EC0780620E94690DD5CF92
:101C3000643008F063E09091F007691710F06FEFDF
:101C4000690FE62FF0E0E352F84F9489890F80681E
:101C50000C94690D41E00E94160D81E090E008951A
:101C60000F931F93CF93DF938B0128E0829FC001D6
:101C7000112480640E94690DE801085F1F4F69917B
:101C80008DED97E00E942A0EC017D107C1F7DF91B2
:101C9000CF911F910F9108950F931F93CF93DF93CF
:101CA0008C01D0E0C0E0F801EC0FFD1F64916623C9
:101CB00039F041E08DED97E00E94160D2196F3CFAB
:101CC000CE01DF91CF911F910F910895FB010190FB
:101CD0000020E9F73197AF01461B570BDC01ED916E
:101CE000FC910280F381E02D19948F929F92AF9224
:101CF000BF92EF92FF920F931F93CF93DF93CDB7D5
:101D0000DEB7A1970FB6F894DEBF0FBECDBF7C0142
:101D1000FA01CB0119A2223008F42AE08E010F5DEE
:101D20001F4F822E912CB12CA12CBF01A501940133
:101D30000E94E03AF901CA016A300CF5605DD801F1
:101D40006E938D01232B242B252B79F790E080E0D7
:101D5000109721F0BD01C7010E94660EA1960FB633
:101D6000F894DEBF0FBECDBFDF91CF911F910F91D1
:101D7000FF90EF90BF90AF909F908F900895695C17
:101D8000DECFCF92DF92EF92FF920F931F93CF930C
:101D9000DF936B01770FEE08FF08F7FE1FC0EC0121
:101DA000E881F9810190F081E02D6DE219958C01B7
:101DB00044275527BA014C195D096E097F092AE0AD
:101DC000CE010E94750E800F911FDF91CF911F9160
:101DD0000F91FF90EF90DF90CF9008952AE0B70128
:101DE000A601DF91CF911F910F91FF90EF90DF90AF
:101DF000CF900C94750ECF93DF93BC018CE297E0EB
:101E00000E94C10EEC0164EA73E08CE297E00E944C
:101E1000660E8C0F9D1FDF91CF910895CF93DF93B6
:101E2000BC018CE297E00E94660EEC0164EA73E06C
:101E30008CE297E00E94660E8C0F9D1FDF91CF9180
:101E400008956115710511F00C94660E90E080E024
:101E500008950F931F93CF93DF9300917802109111
:101E60007902C0917602D09177020A30110534F4DC
:101E700070E060E08DED97E00E94C10EB8018DED3D
:101E800097E00E94C10E67EA73E08DED97E00E9433
:101E9000210FCA30D10534F470E060E08DED97E099
:101EA0000E94C10EBE018DED97E0DF91CF911F9191
:101EB0000F910C94C10E882309F487C080910F0202
:101EC000909110029093E6058093E5058091E505D9
:101ED0009091E60597FD1EC0FC01EE0FFF1FE85E26
:101EE000FA4F60817181880F991FFC01E65EFA4FFD
:101EF000718360838CE297E00E94C10E69EA73E00F
:101F00008CE297E00E94210F8091E5059091E60513
:101F10000197D8CF8AEA93E00E940E0F8091A30424
:101F20009091A40490931905809318052091640260
:101F300030916502AC01421B530B5093A2044093B5
:101F4000A10482179307B0F4909365028093640212
:101F50001092A4041092A30481E04091A104509136
:101F6000A20420917A0230917B02241735070CF0ED
:101F700080E0089580910F0290911002FC01EE0F15
:101F8000FF1FE65EFA4F408151812417350701F7A4
:101F9000E8E1F5E050E040E0481759074CF4619162
:101FA00071916217730708F49B014F5F5F4FF4CF85
:101FB000309365022093640297FF02C090E080E0B6
:101FC0009093E6058093E505C3CF89E30E948E06D2
:101FD0002091A3043091A404281739070CF0BCCF3A
:101FE00089E30E948E069093A4048093A304209119
:101FF000640230916502821B930B9093A20480933C
:10200000A104AACF9F92AF92BF92CF92DF92EF929C
:10201000FF920F931F93CF93DF938230910509F0C6
:10202000B1C080916802909169026091050270913F
:1020300006020E94CC3A7093F7046093F604C1E064
:102040008091F6049091F70497FD01C183E00E940E
:102050002304892B09F0FBC06091050270910602F0
:10206000072E000C880B990B0E94CA068FE00E9475
:10207000090C80FF0AC00E94300C8091730290917D
:102080007402019711F4C0936D068CE297E00E94F0
:10209000F5028337910581F4C0936D068091740633
:1020A00090E090937902809378028091750690E099
:1020B000909377028093760286E00E942304892B16
:1020C000A1F48091160690911706892B71F4109255
:1020D000F7041092F6048091F6049091F7040197AA
:1020E0009093F7048093F604ABCF80E00E945B0FDF
:1020F0008823E1F0809162029091630220910D02A9
:1021000030910E02820F931F20916402309165027C
:102110008217930758F020911C0630911D0680917C
:102120006D0290916E02821793078CF68FB7F89428
:102130004091F2045091F3046091F4047091F5041D
:102140008FBF80917C0690917D06A0917E06B09114
:102150007F06481B590B6A0B7B0B8091680290919C
:1021600069022091050230910602821B930B092E11
:10217000000CAA0BBB0B84179507A607B70708F43A
:10218000A6CFA9CF039709F062C080916802909111
:1021900069029093F7048093F6048CE9E82EFF24FB
:1021A000FA9494E6C92ED12C992493948091F60444
:1021B0009091F704181619060CF049C087E30E94A5
:1021C0008E06B7010E94CC3A8B015B018AE0A80E13
:1021D000B11CB0924702A092460286E30E948E068E
:1021E000B6010E94CC3AEB01709345026093440221
:1021F00061E070E080E090E00E94CA0680911702E2
:102200008823E1F00A5F1F4F0330110570F0109230
:10221000F7041092F6048091F6049091F704019768
:102220009093F7048093F604C1CF2497239778F70F
:1022300085E00E942304892B51F3EDCF259759F7B0
:1022400085E0A816B10439F790921702E4CFDF9128
:10225000CF911F910F91FF90EF90DF90CF90BF90A3
:10226000AF909F90089561E084E00E94180EE09185
:102270006706F0916806EE0FFF1FEE56FD4F608176
:1022800071818DED97E00E94210F6DE074E08DED7E
:1022900097E00E94210F809173068A3030F470E03D
:1022A00060E08DED97E00E94C10E4091730650E012
:1022B00070E060E02AE08DED97E00C94750E60E030
:1022C00084E00E94180E809174068A3030F470E029
:1022D00060E08DED97E00E94C10E4091740650E0E1
:1022E00070E060E02AE08DED97E00E94750E67EAED
:1022F00073E08DED97E00E94210F809175068A3082
:1023000030F470E060E08DED97E00E94C10E4091E6
:10231000750650E070E060E02AE08DED97E00E94E5
:10232000750E67EA73E08DED97E00E94210F8091B2
:1023300076068A3030F470E060E08DED97E00E9420
:10234000C10E4091760650E070E060E02AE08DED2D
:1023500097E00C94750ECF93DF931092E405EBE0B9
:10236000F6E090E080E0EC01219131910196232B81
:10237000D1F3D093E605C093E50560E083E00E94C9
:10238000180ECC0FDD1FCC0FDD1FCE57DD4F68813F
:1023900079818DED97E00E94210F61E083E00E943A
:1023A000180EE091E505F091E605EE0FFF1FEE0F28
:1023B000FF1FEE57FD4F628173818DED97E0DF9136
:1023C000CF910C94210FCF93DF93EC018091D7072D
:1023D0009091D807009759F02091D9073091DA07EA
:1023E0002C173D0720F081E0DF91CF910895BE01C9
:1023F0006F5F7F4F0E944E3C009789F09093D80703
:102400008093D707D093DA07C093D9072091DB07D1
:102410003091DC07232B39F7FC011082E4CF80E0F8
:10242000E3CFFF920F931F93CF93DF931F921F92DF
:10243000CDB7DEB7FF24F3948CE297E00E94170338
:10244000892B51F18CE297E00E94F5028A3019F451
:10245000F0926D06F1CF89831A820091DB0710910B
:10246000DC070F5F1F4FC8010E94E311882321F38F
:102470002091D7073091D8078091DB079091DC0736
:10248000BE016F5F7F4F820F931F0E94383D1093F4
:10249000DC070093DB07D0CF0F900F90DF91CF9137
:1024A0001F910F91FF9008950E94230381110E94B4
:1024B000111280E090E0892B49F080E090E0892BB8
:1024C00029F00E94000081110E94000080E090E04D
:1024D000892B49F080E090E0892B29F00E940000D0
:1024E00081110E94000080E090E0892B49F080E09B
:1024F00090E0892B29F00E94000081110C940000CB
:102500000895BF92CF92DF92EF92FF920F931F93A5
:10251000CF93DF93D0E0C0E007E010E0E7E0EE2EDD
:10252000F5E0DF2ECC24C394A8ECBA2EB4E1FB2E48
:10253000CE010E94DF38982F282F30E0C834D10513
:1025400008F053C0FE018827E755FD4E8F4F0C94CD
:10255000213BF11225132A132A132A132A132A13B3
:102560002A132A132A132A1332133A1346134E132B
:10257000531358135D13601368136D136D136D13AC
:102580006D136D136D136D1375137A137F1386130B
:102590008B13F512901390139013901390139013C4
:1025A0009013901390139013901390139013901313
:1025B0009013901390139013901390139013901303
:1025C00090139013901390139013901390139013F3
:1025D00090139013901390139013A113A613AB13A1
:1025E000B01330930402209303022196C834D1051E
:1025F00009F09ECF0E942F0A80916F029091700285
:102600000197880F991FFC01EE0FFF1FE45BFD4F40
:10261000208131813093790220937802880F991FAD
:10262000FC01E25BFD4F8081918190937702809362
:10263000760280E0DF91CF911F910F91FF90EF9094
:10264000DF90CF90BF900C94920C309302022093B5
:102650000102CBCFFE01EE0FFF1FE85BFD4F318380
:102660002083C3CF9F9DC001112490936B02809360
:102670006A02BBCF9F9DC0011124909308028093F2
:1026800007029093170680931606AFCF9B9DC0015B
:10269000112490935F0280935E02A7CF30937B0258
:1026A00020937A02A2CF30936302209362029DCFDF
:1026B000309312022093110298CFC092A00495CFBC
:1026C0009D9DC001112490930602809305028DCF39
:1026D00030936E0220936D0288CFFE01EE0FFF1F34
:1026E000E353FA4F21503109BACF30930C022093B3
:1026F0000B027BCF309301052093000576CF21504C
:1027000031093093700220936F026FCF30936702CC
:10271000209366026ACF3093100220930F0265CF98
:10272000CE018197B8010E94CC3AE69EF001E79E67
:10273000F00D1124E80FF91FEE0FFF1FEF5DF94FA9
:10274000D1CF30936C0620936B064FCF30930605A4
:10275000209305054ACF30930E0220930D0245CFFA
:10276000309361022093600240CF85ED8093BC00DE
:102770008091040790910507A0910607B091070783
:102780000796A11DB11D23E0B695A795979587954E
:102790002A95D1F72091BC0024FD03C010920207B6
:1027A00008954091040750910507609106077091C4
:1027B0000707452B462B472B69F30097A105B10569
:1027C00041F025E32A95F1F700000197A109B1092D
:1027D000E1CF809103070C9442071F93CF93DF93BF
:1027E000EC01162F0E94DF38181739F0612FCE0147
:1027F000DF91CF911F910C94E738DF91CF911F911A
:102800000895AF92BF92CF92DF92EF92FF920F9313
:102810001F93CF93DF938BEA93E00E940E0F10E09B
:1028200000E025E0C22ED12C38ECA32EB12C44E1DF
:10283000E42EF12C0834110508F051C0F801882766
:10284000EB5DFB4E8F4F0C94213B97149C14A1140D
:10285000A114A114A114A114A114A114A114A114D0
:10286000A914B214B714BD14C214C714CC14D014D4
:10287000D614DB14DB14DB14DB14DB14DB14DB14E5
:10288000E414E914EE14F314F8146D146F146F14B7
:102890006F146F146F146F146F146F146F146F1420
:1028A0006F146F146F146F146F146F146F146F1410
:1028B0006F146F146F146F146F146F146F146F1400
:1028C0006F146F146F146F146F146F146F146F14F0
:1028D0006F14FD14021507150C1503E410E0B80180
:1028E0008CE297E00E94C10E65EB73E08CE297E00A
:1028F0000E94210FCE010E94FB0E6C2FC8010E9486
:10290000ED130F5F1F4F0834110509F093CF88EBCB
:1029100093E00E940E0FDF91CF911F910F91FF90D6
:10292000EF90DF90CF90BF90AF900C942F0AC091A2
:102930000302D0910402D3CFC0910102D0910202D0
:10294000CECFF801EE0FFF1FE85BFD4FC081D181B4
:10295000C6CF80916A0290916B02B7010E94CC3A77
:10296000EB01BDCF8091070290910802F6CF8091D4
:102970005E0290915F02B501F1CFC0917A02D091D1
:102980007B02ADCFC0916202D0916302A8CFC0910B
:102990001102D0911202A3CFC091A004D0E09FCF2A
:1029A0008091050290910602B601D8CFC0916D02C8
:1029B000D0916E0294CFF801EE0FFF1FE353FA4F50
:1029C000C081D18121968BCFC0910B02D0910C0296
:1029D00086CFC0910005D091010581CFC0916F02D3
:1029E000D0917002EFCFC0916602D091670277CF8D
:1029F000C0910F02D091100272CFC0916B06D0919E
:102A00006C066DCFC0910505D091060568CFC091C9
:102A10000D02D0910E0263CFC0916002D09161028D
:102A20005ECF8F929F92AF92BF92CF92DF92EF9242
:102A3000FF92F82E0E945F1180916C02882361F052
:102A4000809107029091080201972091160630911B
:102A50001706281739071CF4FF2009F491C08DE3ED
:102A60000E948E06BC01990F880B990B0E94C237F9
:102A70009B01AC0160E070E080E894E40E947C3946
:102A800020E030E040E85FE30E940F3920E030E4CE
:102A90004CE156E40E9421380E942A3A6B017C01E5
:102AA00029E537E44CEB53E30E942138A701960156
:102AB0000E94213823E73FE745E759E30E94103998
:102AC000A70196010E9421382BEE3FEF43E95AE31C
:102AD0000E9410399B01AC0160E070E080E89FE348
:102AE0000E947C3923E333E948E853E40E940F391C
:102AF00020E030E040EC5FE30E9410396B017C0184
:102B000061E08CE00E94180E20E030E040E251E4E9
:102B1000C701B6010E94BB3787FF06C070E060E0C6
:102B20008DED97E00E94C10EA7019601C701B60185
:102B30000E94723A67EC73E081111AC04601570196
:102B4000E894B7F82FEF3FEF4FE75FE7C501B40117
:102B50000E94723A81111DC02FEF3FEF4FE75FE7F0
:102B6000C501B4010E94BB3718169CF46BEC73E0EE
:102B70008DED97E00E94660E0E94331110926C0258
:102B8000FF90EF90DF90CF90BF90AF909F908F908D
:102B900008952FEF3FEF4FE75FE4C701B6010E94B2
:102BA0001D3A18161CF46FEC73E0E2CF2FEF3FEFE5
:102BB0004FE75FECC701B6010E94BB3787FDF3CF3B
:102BC00020E030E0A901C701B6010E94BB3787FFB2
:102BD0000AC041E06DE28DED97E00E94160DF7FA14
:102BE000F094F7F8F0942AE037ED43EA5BE3C7018D
:102BF000B6010E9410394B015C010E94EE396B0155
:102C00007C010E94C0379B01AC01C501B4010E9448
:102C10000F394B015C012AE0B701A6018DED97E069
:102C20000E94750E41E06EE28DED97E00E94160D58
:102C300020E030E040E251E4C501B4010E942138B7
:102C40004B015C010E94EE396B01F12CE12C2AE072
:102C5000B701A6018DED97E00E94750EC701B60180
:102C60000E94C0379B01AC01C501B4010E940F391D
:102C700020E030E040E251E40E9421380E94EE3929
:102C8000AB0170E060E02AE08DED97E00E94750EE8
:102C900073CF1F920F920FB60F9211240BB60F92A3
:102CA0002F933F934F935F936F937F938F939F9354
:102CB000AF93BF93EF93FF93809194069091950605
:102CC000A0919606B0919706892B8A2B8B2BE1F168
:102CD00090918306E0918406F09185068081892792
:102CE00080838091940690919506A0919606B0916C
:102CF0009706181619061A061B069CF4809194066E
:102D000090919506A0919606B09197060197A1091A
:102D1000B1098093940690939506A0939606B0937C
:102D20009706FF91EF91BF91AF919F918F917F9106
:102D30006F915F914F913F912F910F900BBE0F902C
:102D40000FBE0F901F90189580917502E8EEF4E089
:102D5000E4919FEF90937502E230E9F040F4EE23A6
:102D600089F0E13091F060E00E944C04DACFE43069
:102D700049F110F1E530B9F7909173009D7F909380
:102D80007300F1CF10926E00EECF90916F009D7F97
:102D900090936F00E8CF909170009D7F90937000AA
:102DA00091E09093B0009091B100987F94609093DF
:102DB000B1001092B300D7CF909171009D7F909396
:102DC0007100D1CF909172009D7F90937200CBCF14
:102DD0001F920F920FB60F9211240BB60F922F93E2
:102DE0003F934F935F936F937F938F939F93AF9393
:102DF000BF93EF93FF938CE297E00E942D03FF9126
:102E0000EF91BF91AF919F918F917F916F915F9162
:102E10004F913F912F910F900BBE0F900FBE0F90CF
:102E20001F9018951F920F920FB60F9211240BB698
:102E30000F922F938F939F93EF93FF93E0913C0713
:102E4000F0913D078081E0914207F091430782FDB8
:102E50001DC09081809145078F5F8F732091460739
:102E6000821741F0E0914507F0E0E45DF84F958F5F
:102E700080934507FF91EF919F918F912F910F9034
:102E80000BBE0F900FBE0F901F9018958081F2CF50
:102E90001F920F920FB60F9211242F933F938F938F
:102EA0009F93AF93BF938091F2049091F304A0910C
:102EB000F404B091F5043091E90423E0230F2D3799
:102EC00058F50196A11DB11D2093E9048093F204E9
:102ED0009093F304A093F404B093F5048091EA0472
:102EE0009091EB04A091EC04B091ED040196A11D2A
:102EF000B11D8093EA049093EB04A093EC04B0938B
:102F0000ED04BF91AF919F918F913F912F910F90C1
:102F10000FBE0F901F90189526E8230F0296A11D53
:102F2000B11DD2CF1F920F920FB60F9211240F90A6
:102F30000FBE0F901F9018951F920F920FB60F9211
:102F400011240BB60F922F933F934F935F936F9380
:102F50007F938F939F93AF93BF93EF93FF93809152
:102F6000B900887F803609F44DC008F040C088322F
:102F700009F4A9C028F5803109F49DC0C8F488235C
:102F800009F4FBC0883009F496C0FF91EF91BF911E
:102F9000AF919F918F917F916F915F914F913F91F1
:102FA0002F910F900BBE0F900FBE0F901F90189592
:102FB000883109F488C0803241F78093000714C03B
:102FC000803409F49DC040F48033B9F38833E9F6C6
:102FD0008093000785ECB0C0803509F485C0883542
:102FE00009F496C0883489F60E94B513CECF88398B
:102FF00009F48CC038F5883729F050F4883611F080
:10300000803719F683E0809302071092E80457C0D6
:10301000883809F47BC0803919F0803809F0B5CFC1
:103020008091E804803208F071C0E091E80481E00A
:103030008E0F8093E8048091BB00F0E0E853FB4FD3
:1030400080833DC0803B39F0E0F4803A09F479C0D8
:10305000883A09F09ACF84E0809302071092C7045F
:103060001092C604E091F004F091F104199580915A
:10307000C60481110FC081E08093C6041092A6049B
:1030800009C0803C09F4A6CF883C09F4A3CF883B53
:1030900009F07BCFE091C70481E08E0F8093C704D5
:1030A000F0E0EA55FB4F80818093BB009091C7040C
:1030B0008091C60429C08091DD068093BB0085EC19
:1030C0008093BC0062CF9091FF068091FE06981716
:1030D00058F5E091FF0681E08E0F8093FF06F0E047
:1030E000E252F94F8081E9CFE091FF0681E08E0F37
:1030F0008093FF068091BB00F0E0E252F94F80839D
:103100009091FF068091FE069817C8F285E8D8CF07
:10311000E091FF0681E08E0F8093FF068091BB0057
:10312000F0E0E252F94F80838091010781115CCF7A
:1031300081E08093DC0684EA8093BC001092020751
:1031400024CF85EC8093BC00109202078091E804A4
:10315000803230F4E091E804F0E0E853FB4F108255
:103160006091E80470E0E091EE04F091EF0488ECE7
:1031700094E019951092E80408CF1092000734CF1C
:1031800010922F0710922E0788EE93E0A0E0B0E097
:103190008093300790933107A0933207B0933307A1
:1031A00028E733E030932D0720932C0725EC30E0FF
:1031B000309339072093380724EC30E030933B07F5
:1031C00020933A0720EC30E030933D0720933C07F2
:1031D00021EC30E030933F0720933E0722EC30E0B3
:1031E000309341072093400726EC30E030934307AB
:1031F0002093420710924507109246071092470706
:10320000109248072FEF3FEF3093CA072093C9076A
:103210001092CE071092CD078093CF079093D007DE
:10322000A093D107B093D2078AE893E09093CC079C
:103230008093CB071092E0071092DF078CE993E0B0
:103240009093DE078093DD0787E08093E1078FEF9F
:103250008093E20788E08093E30789E08093E407A6
:103260008AE08093E5078BE08093E6078CE080930B
:10327000E7071092E8071092E9071092EA07109208
:10328000EB071092EC0781E00E94770D1092D807AF
:103290001092D7071092DA071092D9071092DC0724
:1032A0001092DB0790E080E00E94E3112091D707A5
:1032B0003091D807811113C02115310519F0C901CA
:1032C0000E94C53B1092D8071092D7071092DC07D6
:1032D0001092DB071092DA071092D9070895109226
:1032E000DC071092DB076AEA73E0C9010C94383DF1
:1032F000CF93DF9300D000D01F92CDB7DEB7789484
:1033000084B5826084BD84B5816084BD85B58260EA
:1033100085BD85B5816085BD80916E00816080939B
:103320006E00109281008091810082608093810004
:103330008091810081608093810080918000816014
:10334000809380008091B10084608093B10080916F
:10335000B00081608093B000809191008260809382
:103360009100809191008160809391008091900004
:103370008160809390008091A10082608093A10081
:103380008091A10081608093A1008091A000816064
:103390008093A0008091210182608093210180911F
:1033A00021018160809321018091200181608093BF
:1033B000200180917A00846080937A0080917A0065
:1033C000826080937A0080917A00816080937A0095
:1033D00080917A00806880937A001092C10062E048
:1033E00086E00E947A0460E083E00E947A0462E052
:1033F00085E00E947A0461E082E00E947A04E09114
:103400003C07F0913D0782E08083E0913807F0911E
:1034100039071082E0913A07F0913B078FEC8083E7
:1034200010924407E0914007F091410706E00083C5
:10343000E0913E07F0913F07808180618083E091B9
:103440003E07F0913F07808188608083E0913E07CE
:10345000F0913F07808180688083E0913E07F09182
:103460003F0780818F7D808384E190E00E94E3119B
:103470001092AF061092AE061092090710922B0719
:103480000E94240787EB92E09093F1048093F0046C
:1034900088EB92E09093EF048093EE048EE00E941C
:1034A000090C682F6B738EE00E94980980ED97E0FD
:1034B0009093D1068093D00681E08093D2068093CA
:1034C000D3061092D4061092D5061092D606009319
:1034D000D70680E795E3ADE6B8E38093D8069093EE
:1034E000D906A093DA06B093DB0680E00E94380C80
:1034F0008EE00E94090C682F6D7F8EE00E94980973
:103500000E94300C8FE00E94090C682F6D7F8FE0C5
:103510000E94980982E00E94770D60EC72E081E0E1
:103520000E94300E68EB72E082E00E94300E60EB89
:1035300072E083E00E94300E68EA72E084E00E944C
:10354000300E60EA72E085E00E94300EE8E1F2E0C1
:1035500030E020E0808191810097C1F04FEF5FEF74
:103560002115310521F0DF0112974D915C91BA01CF
:103570006F5F7F4F71836083880F991F840F951F42
:10358000938382832E5F3F4F3496E4CF21E030E077
:103590003093DB052093DA0530933F0520933E05F9
:1035A00010920C0610920B0610920E0610920D0649
:1035B0001092100610920F0683E090E09093E605BB
:1035C0008093E50586E00E942304892B31F441E0D5
:1035D00050E050937202409371020E940F0B0E94C0
:1035E000E8094091AC0660917602809178020E94D1
:1035F000470C80E796E00E94340B80917006909112
:1036000071060E948B0A0E94BA0990E080E00E9435
:10361000DF38813009F073C085E490E00E94DF3824
:10362000813051F421E030E030930C0620930B06FA
:1036300080930A06809309068FEF9FEF9093F6051B
:103640008093F5059093F8058093F7059093FA051C
:103650008093F9059093FC058093FB059093FE05FC
:103660008093FD05909300068093FF0590930206DA
:103670008093010687E090E09093F0058093EF053A
:103680001092F2051092F10517E08091F1059091EA
:10369000F2050597ECF51092F0051092EF054091B8
:1036A000EF055091F0052091F1053091F20547307A
:1036B00051050CF053C2129FF001139FF00D11241D
:1036C000E40FF51FEE0FFF1FEF5DF94F6FEF7FEF78
:1036D00071836083149FC001159F900D1124819602
:1036E00060E0820F931F0E94ED138091EF0590918F
:1036F000F00501969093F0058093EF05D0CF85E417
:1037000090E00E94DF38882309F486CF0E9481125E
:1037100061E085E490E00E94ED13E0910306F091F2
:103720000406EE0FFF1FEB50FA4F80819181019646
:1037300019F481E08093060643E0442E512C2224A4
:103740002394312C2FB7F8948091F2049091F304D4
:10375000A091F404B091F5042FBF80937C06909360
:103760007D06A0937E06B0937F0680E796E00E94D8
:10377000340B80916E0690916F06181619061CF492
:1037800080E00E9411158FE00E94090C80FDEDC1C0
:103790008091710290917202892B09F4EFC180919E
:1037A0006D068111EBC18091AA069091AB0601973D
:1037B00009F0AEC080916A0290916B0290936F06FF
:1037C00080936E0680911806909119060196909349
:1037D0001906809318060B9734F480911606909181
:1037E0001706019721F4109219061092180680917D
:1037F0007606811111C08091750690E02091A00697
:103800003091A1068217930739F02091760230910A
:1038100077028217930739F480911A0690911B065C
:10382000181619066CF560E082E00E944C04809145
:10383000160690911706892B31F488E290E0909358
:1038400017068093160684EF91E0909369028093A7
:10385000680264EF71E080E090E00E94CA0661E0D7
:1038600082E00E944C0480911A0690911B060196FA
:103870008430910509F4C8C290931B0680931A0600
:1038800086E00E942304892B61F08091A806909124
:10389000A906889731F08091A4069091A5064497D7
:1038A000D9F481E00E94920C48EC50E060E070E0B6
:1038B0008BE492E00E94B6048091660290916702C8
:1038C000892B21F41092740210927302109219063F
:1038D000109218060E94BA098091A6069091A70638
:1038E000019709F09CC22091640230916502809199
:1038F0006202909163028217930708F490C280914C
:10390000A8069091A90601969093A9068093A8060F
:1039100086E00E942304892B09F059C0209160029F
:1039200030916102121613060CF04BC080911506FF
:10393000811147C011E01093150660911306709134
:10394000140640915E0250915F02649FC001659F22
:10395000900D749F900D11246CE271E00E94CC3A9E
:10396000CB01B9010E94CC3A80916A0290916B021E
:10397000860F971F90936B0280936A020E94FB0E42
:1039800080916A0290916B0264E170E00E94CC3AEF
:103990008BE090E00E94ED1380916A0290916B029F
:1039A0001816190674F03092120620921106109320
:1039B0000A061093090624E130E030936B0220934D
:1039C0006A020E940F0B10921D0610921C06809135
:1039D00008069091740691112CC290917506911170
:1039E00028C2811128C080E796E00E94340B8091A4
:1039F0007006909171060E948B0A0E94BA0981E0BC
:103A000080930806209166023091670222303105CA
:103A100011F48093070680915C0290915D02892BDE
:103A200009F002C230920E0620920D0681E08093CA
:103A30000A06809309060091AA061091AB061F831F
:103A40000E83012B09F01CC3809107068823A9F17E
:103A50001092070680910606811110C2809105061A
:103A6000882309F4ECC11092050680916F029091B1
:103A70007002181619060CF0F1C1309274022092EF
:103A800073020197880F991FFC01EE0FFF1FE45B83
:103A9000FD4F208131813093790220937802880F85
:103AA000991FFC01E25BFD4F808191819093770229
:103AB0008093760280E00E94920C109120061123E0
:103AC00009F4DEC2109220068091690690916A0680
:103AD000019666E070E00E94CC3AE0916706F091B2
:103AE0006806F12CE12C46E0C42ED12C07E09F01A2
:103AF000220F331FA9014B505A4F4A0166E0A62EF0
:103B0000B12C51E0C51AD10809F4F7C1089FD001C2
:103B1000099FB00D1124AE0FBF1FAA0FBB1FAF5DD1
:103B2000B94F4D915C914F3F540799F0DA01AA0FBC
:103B3000BB1FA951BA4F2D913C9111972F5F3F4F59
:103B40002D933C932E153F0524F0D4014D935C93A7
:103B500079010196B5010E94CC3AD3CF2F5F3F4F38
:103B60003093F2052093F10590CD0E94300C8091A6
:103B7000730290917402019709F00ACE10926D06BB
:103B800080916B0690916C06019749F5E09169066A
:103B9000F0916A06809167069091680660916F02C5
:103BA0002091700237E03E9FA0013F9F500D1124ED
:103BB000840F951FFC01EE0FFF1FEF5DF94F60832F
:103BC000218321E0209320066F5F81960E94ED13F0
:103BD00060916F026F5F8DE190E00E94ED130E9493
:103BE0000F0B0E94E8090E946F0D80917102909165
:103BF0007202892B09F07AC061E080E00E94180E01
:103C000063ED73E08DED97E00E94210F86E891E06F
:103C100090931F0680931E0683E00E942304892B45
:103C200041F480911E0690911F06181619060CF497
:103C300060C08091A4069091A50601969093A50678
:103C40008093A406019709F0D5C0809176029091E7
:103C5000770205969093A1068093A0068091780242
:103C6000909179029093A3068093A2068091A0067A
:103C70009091A1068C3391057CF02091A2063091A1
:103C8000A306CC979093A1068093A0062F5F3F4F89
:103C90003093A3062093A20680E00E94380C0E9475
:103CA000300C40E06091A0068091A2060E94470C73
:103CB0000E946F0D10921B0610921A0680E796E084
:103CC0000E94340B81E00E94111564E670E080E0F0
:103CD00090E00E94CA0686E00E942304892B71F3BB
:103CE00083E00E942304019749F35DCD0E943311C4
:103CF0008DCF80E796E00E94340B0E945F1140E573
:103D000050E060E070E080E193E00E94B604209112
:103D10001E0630911F06C90163E070E00E94CC3A94
:103D2000892B21F5233131400CF1AAEFB0E0B0939B
:103D3000F704A093F60480E00E945B0F0091F60464
:103D40001091F70417FD19C083E00E942304892B0A
:103D5000A1F461E070E080E090E00E94CA060150AA
:103D600011091093F7040093F604E8CFE2E8F0E0BD
:103D7000F093F704E093F604DECF80911E06909155
:103D80001F0663E070E00E94CC3A892B11F581E0B8
:103D90000E945B0F8823E9F020911C0630911D06DC
:103DA00080916D0290916E028217930794F0309289
:103DB000A7062092A60610921F0610921E060E94C9
:103DC000F20A44E150E060E070E08AEB92E00E9489
:103DD000B60481E080936C023092AB062092AA0672
:103DE000309272022092710280911E0690911F06FD
:103DF00001970ECF8091A0069091A1060596909311
:103E0000A1068093A00632CF10921B0610921A06CC
:103E100084E690E0909369028093680231CD10921D
:103E2000A9061092A80674CD10925D0210925C0251
:103E300002CE882309F4FFCD10920806FCCDE09154
:103E40006706F0916806EE0FFF1FEB50FA4F808176
:103E500091819093700280936F0207CE892B51F469
:103E6000109274021092730280E00E94380C0E943B
:103E7000300C23CE81E0809306061FCEE09103062E
:103E8000F0910406EE0FFF1FEB50FA4F80819181F5
:103E9000019611F0109206068091730290917402BF
:103EA000892B09F00ACE80916B0690916C060197E0
:103EB00009F003CE4091690650916A068091670629
:103EC0009091680667E0649F9001659F300D112412
:103ED000820F931FFC01EE0FFF1FEF5DF94F209142
:103EE0006F02309170023183208321E020932006FD
:103EF00061E081960E94ED13E0CD9093F2058093EE
:103F0000F10585E090E09093F0058093EF05F09245
:103F1000F405E092F305DF01AA0FBB1FAB50BA4FC7
:103F20006C916F5FCF0144960E94ED131092E805EB
:103F30001092E7051092EA051092E9051092EC053F
:103F40001092EB051092EE051092ED0564E070E022
:103F50007093E6056093E505809166029091670293
:103F6000029709F48DC02091690630916A06C090CD
:103F70001106D0901206E0910A06E9830091090625
:103F80004EE0429F3001439F700C1124C9010396FB
:103F90000E94CC3A489F5001499FB00C1124412FF8
:103FA000F12CE12C87E0829F4001839F900C11242B
:103FB0008E819F81880F991FF301E80FF91FEF5D34
:103FC000F94F208131816E817F816F5F7F4F7F83C9
:103FD0006E838A0D9B1DFC01EF5DF94F80819181FD
:103FE00028173907D9F47FEFE71AF70A8E819F81E6
:103FF00067E070E00E94CC3AF401E80FF91FEE0F81
:10400000FF1FEF5DF94F808191812817390731F04B
:104010002F3F320719F0019609F040E02F5F3F4F24
:104020002630310528F0012F1983CC24C394D12CDC
:10403000EE81FF81E730F10509F0BACFF093F20588
:10404000E093F105F981F0930A06F092F005E09211
:10405000EF054093E405D0921206C092110600933A
:10406000090604E0E016F1045CF0411109C0309249
:10407000100620920F0681E080930A0680930906BD
:1040800085E00E942304892B11F00C943E3130927C
:1040900072022092710210921D0610921C0681E09D
:1040A00080936C020E940F0B0E946F0D82E090E0E3
:1040B00090934B0280934A02309249022092480228
:1040C0001092E3051092E2051092E1051092E005CE
:1040D00061E470E080E090E00E94CA068091E20511
:1040E0009091E30501969093E3058093E20506978E
:1040F00041F580910A06882309F400C40E94AB119F
:104100008091E5059091E605880F991FFC01E55F18
:10411000F94F1182108210920A0684599C4FDC01DB
:104120008D919C9190934B0280934A0285E00E946E
:104130002304019731F468EE73E080E090E00E9480
:10414000CA0685E00E942304892B11F282E390E0E5
:104150009093DF058093DE05AA24AA94BA2C02E08E
:1041600010E084E0882E912C96E0692E712C8091CD
:10417000DE059091DF0597FF02C00C941F3187E3A5
:104180000E948E066CE97FEF0E94CC3A7B016B01A6
:10419000BAE0CB0ED11CD0924702C092460286E311
:1041A0000E948E0664E670E00E94CC3A709345024D
:1041B000609344028091F1059091F205892B09F0FA
:1041C00064C4673071050CF4A2C38091DC05909142
:1041D000DD0501969093DD058093DC05B092F20534
:1041E000A092F105E2E3F0E0F093DF05E093DE0555
:1041F0002091DA053091DB052E5F3F4F3093DB05D0
:104200002093DA052091D8053091D9052817390770
:10421000C4F48091D6059091D7059093DD058093E5
:10422000DC05E0914A02F0914B02EE0FFF1FEE0F0A
:10423000FF1FEC5EFD4F808191819093DB058093A1
:10424000DA05109217028091F1059091F2058F3FE7
:10425000980709F056C43092F2052092F105309289
:1042600016022092150226E430E030936902209372
:1042700068022091480230914902121613060CF090
:1042800077C08091DA059091DB0502969093DB056B
:104290008093DA058091DC059091DD05019690937D
:1042A000DD058093DC052130310509F047C083EE40
:1042B00093E00E940E0F0E946F0D80914A02909130
:1042C0004B020197880F991FFC01EE0FFF1FE85E5C
:1042D000FD4F408151815093DB054093DA05880FF3
:1042E000991FFC01E65EFD4F2081318130933F052F
:1042F00020933E05241B350BC901019797FDC90189
:10430000959587959093D9058093D8051092D705F8
:104310001092D60510924505109244051092DD05C5
:104320001092DC0510934902009348023092F20586
:104330002092F10510926902109268028091DA05CC
:104340009091DB0520913E0530913F058217930740
:104350000CF0DFC3DC01AA0FBB1FA653BD4F880FB3
:10436000991FFC01E853FD4F6C9180810E94180E4B
:1043700083E090E00E9402108091DA059091DB05C5
:10438000DC01AA0FBB1FA653BD4F880F991FFC016C
:10439000E853FD4F6C9180810E94180E80914A0273
:1043A00090914B02019709F055C08091480290917D
:1043B0004902029741F4109243051092420510926F
:1043C0004105109240058091DC059091DD0520911A
:1043D000E0053091E105232B09F0FDC3009709F0BA
:1043E000B7C38DE294E00E944C0E67E070E07093DA
:1043F0001B0660931A0685E00E942304892B51F561
:104400008091DC059091DD0502962091E0053091C8
:10441000E105220F331F220F331F820F931F90934A
:104420004B0280934A023092F2052092F1053092BD
:1044300049022092480242E350E05093DF05409346
:10444000DE051092E1051092E00585E00E9423044C
:10445000892BD9F380914A0290914B02029709F07F
:1044600069C180916F02909170021816190624F0AC
:104470003092700220926F028091DC059091DD05F0
:10448000892B09F046C08091F1059091F2050197C2
:1044900091F48091780290917902909345058093F0
:1044A000440587E190E09093430580934205109284
:1044B00041051092400580914405909145059093E7
:1044C000790280937802E0916F02F0917002EE0F12
:1044D000FF1FEE0FFF1FE85BFD4F918380830A975C
:1044E00034F470E060E08DED97E00E94C10E6091C1
:1044F0007802709179028DED97E00E94C10E67EA13
:1045000073E08DED97E00E94210F10931B0600933E
:104510001A068091DC059091DD05019709F040C0F5
:104520008091F1059091F205019791F480917602C6
:104530009091770290934505809344058BE390E03A
:1045400090934305809342051092410510924005D7
:10455000809144059091450590937702809376026F
:10456000E0916F02F0917002EE0FFF1FEE0FFF1F40
:10457000E65BFD4F918380830A9734F470E060E03E
:104580008DED97E00E94C10E6091760270917702E6
:104590008DED97E00E94C10E10931B0600931A0642
:1045A0008091DC059091DD05029709F08AC0809129
:1045B0006F02909170022091F1053091F205213047
:1045C000310561F49093450580934405909243052D
:1045D0008092420530934105209340059093140248
:1045E0008093130280914405909145059093700249
:1045F00080936F0265EF73E08DED97E00E94210FCD
:1046000060916F02709170028DED97E00E94C10E73
:1046100089E090E090931B0680931A0680916F02C8
:104620009091700220911302309114028217930727
:1046300009F447C00197880F991FFC01EE0FFF1F77
:10464000E45BFD4FE080F180F0927902E092780225
:10465000880F991FFC01E25BFD4F8081918190934F
:1046600077028093760260E085E00E94180E5AE09F
:10467000E516F10434F470E060E08DED97E00E94FF
:10468000C10E60917802709179028DED97E00E94E1
:10469000C10E60E088E00E94180E80917602909131
:1046A00077020A9734F470E060E08DED97E00E94A5
:1046B000C10E60917602709177028DED97E00E94B5
:1046C000C10E8091DC059091DD05039799F58091ED
:1046D000F1059091F2050197C1F4809166029091E5
:1046E000670290934505809344051093430500931A
:1046F000420510924105109240051092060662E3B1
:1047000070E070933D0560933C0560914405809195
:104710004505609366028093670230923B052092C4
:104720003A056E5F8DED97E00E942A0E30921B06CF
:1047300020921A0680914A0290914B02039709F049
:1047400004C38091DC059091DD052091E005309156
:10475000E105232B11F00C94972E892B09F041C011
:104760008091F1059091F205019791F480917A0280
:1047700090917B0290934505809344058AEF90E0E9
:1047800090934305809342051093410500934005A3
:10479000809144059091450590937B0280937A0225
:1047A0008436910594F46EEF73E08DED97E00E94EE
:1047B000210F80917A0290917B020A9734F46EEF78
:1047C00073E08DED97E00E94210F60917A02709165
:1047D0007B028DED97E00E94C10E50921B06409225
:1047E0001A068091DC059091DD050197A9F580916D
:1047F000F1059091F2050197A9F480911102909131
:104800001202019709F023C2B0924505A092440517
:10481000AAEFB0E0B0934305A0934205B0924105E2
:10482000A0924005809144059091450590936302C4
:10483000809362028F3F980709F012C230921202F1
:104840002092110260E074E08DED97E00E94210F4C
:1048500090921B0680921A068091DC059091DD05EE
:10486000029709F046C2109245051092440565E092
:1048700074E08DED97E00E94210F70921B0660920C
:104880001A0685E00E942304892B09F032C20E9497
:104890006F0D60E082E00E94180E8FEE93E00E94A0
:1048A0004C0E61E082E00E94180E87EE93E00E94B9
:1048B0004C0E5092E6054092E505E090E505F0903B
:1048C000E6051E141F040CF0EFC161E089E00E94B0
:1048D000180EB7018DED97E00E94C10E68EE73E0EF
:1048E00080E090E00E94CA068091E5059091E6057F
:1048F00001979093E6058093E505DFCF85E394E08B
:104900000E944C0E30924B0220924A021ACC643024
:104910007105DCF58091DC059091DD0501979093A0
:10492000DD058093DC05B092F205A092F10522E34B
:1049300030E03093DF052093DE052091DA053091D9
:10494000DB05225031093093DB052093DA052091F5
:10495000D6053091D705821793070CF072CC809161
:10496000D8059091D9059093DD058093DC05E09101
:104970004A02F0914B02EE0FFF1FEE0FFF1FEA5E9F
:10498000FD4F80819181019758CC6530710509F008
:104990007CC040EA50E0509369024093680256E0C0
:1049A000E50EF11C63E0E616F10408F46EC0E09138
:1049B0004A02F0914B0231974091E0055091E10598
:1049C0002091D8053091D905429FC001439F900D99
:1049D000529F900D112463E0EE0FFF1F6A95E1F7DF
:1049E0002091DC053091DD05820F931FE80FF91F40
:1049F000EE0FFF1FEA5BFA4F81E090E09183808326
:104A000097E0C916D10414F18091440590914505B1
:104A100001969093450580934405A2E3B0E0B093DE
:104A2000DF05A093DE05209142053091430528174C
:104A3000390744F4809140059091410590934505D4
:104A40008093440581E080930806FBCBB4E0CB164D
:104A5000D104DCF480914405909145050197909331
:104A6000450580934405E2E3F0E0F093DF05E09331
:104A7000DE0520914005309141058217930714F718
:104A80008091420590914305D9CF80914802909141
:104A90004902892B09F0EDCB8091DA059091DB0575
:104AA000DC01AA0FBB1FA653BD4F880F991FFC0145
:104AB000E853FD4F6C9180810E94180E8091150281
:104AC00090911602029708F0BECB83E090E00E941E
:104AD000021080911A0690911B06181619060CF008
:104AE000B2CB6DE074E08DED97E00E94210F8091D4
:104AF0001A0690911B06019790931B0680931A0645
:104B0000E8CF019709F0B5CB1092F2051092F105AC
:104B1000B0CB1092490210924802E0914A02F09103
:104B20004B02EE0FFF1FEE0FFF1FEC5EFD4F80816B
:104B300091819093DB058093DA051092DD05109248
:104B4000DC0544E650E0509369024093680210CCC3
:104B50008130910549F488E294E00E944C0E9092D5
:104B60001B0680921A0647CC8230910549F481E2F7
:104B700094E00E944C0E70921B0660921A063BCC89
:104B80008330910559F488E194E00E944C0E88E04E
:104B900090E090931B0680931A062DCC049709F0A1
:104BA0002ACC10926902109268028091F1059091CE
:104BB000F205019709F41FCC3092E1052092E0053F
:104BC0003092490220924802A2E3B0E0B093DF05A0
:104BD000A093DE0510CC009719F481E194E0C9CFD1
:104BE0008130910559F488E094E00E944C0EE8E091
:104BF000F0E0F0931B06E0931A06FDCB823091059E
:104C000019F481E094E0B5CF8330910519F48CEF6D
:104C100093E0A3CF049709F0EECB109269021092B3
:104C200068028091F1059091F205019709F4E3CBB8
:104C30001092E1051092E00530924902209248025C
:104C400022E330E03093DF052093DE05D4CB809162
:104C50006202909163029093450580934405D8CDFC
:104C600010921202109211028436910594F46EEFA4
:104C700073E08DED97E00E94210F80916202909188
:104C800063020A9734F46EEF73E08DED97E00E94B3
:104C9000210F60916202709163028DED97E00E9496
:104CA000C10E6DE074E0D0CD0E946F0D60E082E037
:104CB0000E944C04E8E0F0E0F093DF05E093DE05AD
:104CC0000E94E8098FE090E09093100280930F0219
:104CD0008091DE059091DF0508970CF08CC710924B
:104CE0003905109238050E94F20A61E082E00E94C4
:104CF0004C048091DC059091DD050397C1F410927E
:104D00006902109268028091F1059091F205019775
:104D100071F03092E1052092E00522E330E030931B
:104D2000DF052093DE0530924902209248028091EF
:104D3000480290914902029741F460E080E00E94AD
:104D4000180E87ED93E00E944C0E80914A029091DC
:104D50004B02049709F005C18091DC059091DD05B7
:104D6000892B09F040C08091F1059091F2050197DF
:104D700091F48BE090E0909343058093420510936B
:104D800041050093400580916D0290916E029093D1
:104D90004505809344058091440590914505909385
:104DA0006E0280936D026DE074E08DED97E00E94DD
:104DB000210F80916D0290916E020B9734F46EEF8B
:104DC00073E08DED97E00E94210F60916D0270916C
:104DD0006E02615071098DED97E00E94C10E5092F4
:104DE0001B0640921A068091DC059091DD05019723
:104DF00009F059C08091F1059091F205019791F465
:104E000062E370E0709343056093420510924105A0
:104E10001092400580910B0290910C0290934505F1
:104E2000809344056DE074E08DED97E00E94210FC2
:104E300080914405909145050A9734F46EEF73E034
:104E40008DED97E00E94210F60914405709145051A
:104E50008DED97E00E94C10EE0904405F09045056D
:104E600080910B0290910C02E816F906C1F0F092C5
:104E70000C02E0920B028091090290910A020197C4
:104E800071F461E08CE00E94180E6FE074E0EF288E
:104E900011F063E174E08DED97E00E94210F5092D4
:104EA0001B0640921A068091DC059091DD05029761
:104EB000D9F58091F1059091F20581309105D1F4F9
:104EC000909343058093420510924105109240054E
:104ED00080910B0290910C02892B21F410920A020E
:104EE000109209028091090290910A02909345055F
:104EF00080934405809144059091450590930A0262
:104F00008093090263E174E0019711F06FE074E0AF
:104F10008DED97E00E94210F50921B0640921A06D9
:104F200030923B0520923A0585E00E942304892BAC
:104F300051F480910B0290910C02892B21F4109274
:104F40000A02109209028091480290914902029748
:104F500041F460E080E00E94180E8AEB93E00E942A
:104F60004C0E60914A0270914B026530710509F058
:104F70000DC18091DC059091DD052091E005309117
:104F8000E105232B09F086C7892B09F043C08091E6
:104F9000F1059091F20581309105B1F4A6E4B0E0FD
:104FA000B0934305A093420590934105809340053B
:104FB000809107029091080264E170E00E94CC3A6F
:104FC0007093450560934405809144059091450593
:104FD00044E1489F9001499F300D1124309308020D
:104FE0002093070230931706209316060A9734F48D
:104FF0006EEF73E08DED97E00E94210F6091440504
:10500000709145058DED97E00E94C10E10931B062F
:1050100000931A068091DC059091DD05019709F057
:1050200043C08091F1059091F20581309105B1F472
:1050300027E330E0309343052093420590934105E8
:105040008093400580916A0290916B0264E170E068
:105050000E94CC3A709345056093440580914405C5
:105060009091450544E1489F9001499F300D1124DE
:1050700030936B0220936A0230936F0620936E0682
:105080000A9734F46EEF73E08DED97E00E94210FE4
:1050900060914405709145058DED97E00E94C10E29
:1050A00010931B0600931A068091DC059091DD0594
:1050B000029709F03FC08091F1059091F20581308F
:1050C0009105B1F429E130E0309343052093420586
:1050D000909341058093400580915E0290915F021C
:1050E00068EC70E00E94CC3A7093450560934405EB
:1050F000809144059091450548EC489F9001499F57
:10510000300D112430935F0220935E020A9734F42D
:105110006EEF73E08DED97E00E94210F60914405E2
:10512000709145058DED97E00E94C10E10931B060E
:1051300000931A068091DC059091DD050397C1F478
:1051400010926902109268028091F1059091F20527
:10515000019771F03092E1052092E005E2E3F0E082
:10516000F093DF05E093DE05309249022092480279
:105170008091480290914902029741F460E080E0FA
:105180000E94180E8AEA93E00E944C0E80914A0217
:1051900090914B02069709F045C08091DC059091F3
:1051A000DD052091F1053091F205880F991F21301E
:1051B000310589F49092430580924205B0924105F1
:1051C000A0924005FC01EB50FA4F208131813093D1
:1051D00045052093440560914405709145058B5029
:1051E0009A4FDC016D937C93161617060CF0D9C606
:1051F0008DED97E00E94C10E30921B0620921A0698
:1052000030923B0520923A058091480290914902E4
:10521000029741F461E081E00E94180E85E993E075
:105220000E944C0E80914A0290914B02079709F020
:105230009FC280E796E00E94340B809148029091D3
:1052400049020297B1F58091740690E0909317059A
:10525000809316058091750690E0909315058093D4
:1052600014058091760690E09093130580931205C3
:105270008091730690E090931105809310058091C2
:10528000720690E090930F0580930E058091700652
:105290009091710690930D0580930C05109208056E
:1052A0001092090510920A0510920B0581E0809377
:1052B00007058091DC059091DD05892B81F58091B2
:1052C000F1059091F205019791F487E190E09093B8
:1052D000430580934205109241051092400580914C
:1052E000160590911705909345058093440580918C
:1052F00044059091450590931705809316050A97EC
:1053000034F470E060E08DED97E00E94C10E609192
:105310004405709145058DED97E00E94C10E809186
:10532000DC059091DD05019781F58091F105909163
:10533000F205019791F48BE390E0909343058093FD
:1053400042051092410510924005809114059091FC
:1053500015059093450580934405809144059091EF
:10536000450590931505809314050A9734F470E071
:1053700060E08DED97E00E94C10E60914405709150
:1053800045058DED97E00E94C10E8091DC0590915E
:10539000DD05029709F049C08091F1059091F20571
:1053A000019791F48BE390E090934305809342053D
:1053B00010924105109240058091080590910905D1
:1053C000909345058093440560914405709145058F
:1053D000072E000C880B990B609308057093090544
:1053E00080930A0590930B0520917606620F711D3C
:1053F000811D911D2CE330E040E050E00E94023B13
:1054000070931305609312056A30710534F470E0EF
:1054100060E08DED97E00E94C10E609112057091E1
:1054200013058DED97E00E94C10E8091DC059091EF
:10543000DD05039709F041C0E090F105F090F20519
:10544000E1E0EE16F10409F580910E0590910F054B
:105450000E94580A9093430580934205F0924105BB
:10546000E0924005209110053091110582179307B5
:1054700024F490931105809310058091100590916C
:1054800011059093450580934405809144059091C2
:10549000450590931105809310050A9734F470E048
:1054A00060E08DED97E00E94C10E6091440570911F
:1054B00045058DED97E00E94C10E8091DC0590912D
:1054C000DD05049789F58091F1059091F205813011
:1054D000910591F42CE030E0309343052093420590
:1054E000909341058093400580910E0590910F05A2
:1054F000909345058093440580914405909145051E
:1055000090930F0580930E050A9734F470E060E0E5
:105510008DED97E00E94C10E6091440570914505A4
:105520008DED97E00E94C10E10931B0600931A06A2
:105530008091DC059091DD05059771F58091F1056D
:105540009091F2050197A1F488EB9BE090934305BD
:105550008093420582EE97E0909341058093400549
:1055600080910C0590910D0590934505809344051D
:10557000609144057091450570930D0560930C058D
:105580008DED97E00E94C10E90921B0680921A0644
:1055900030923B0520923A0585E00E942304892B36
:1055A00009F0C1C0F0900E0590910F058F2D0E945B
:1055B000580A20911005309111058217930724F4A1
:1055C0009093110580931005F0911205FA832091B4
:1055D00014052B83309116053C83E0901005ED8275
:1055E000F982C0900C05D0900D0581E080930807EA
:1055F00088E680932A071092090710922B0790E003
:1056000080E00E94B1098A816AE00E94AC3A8295EA
:10561000807F682F690F8BEC97E00E9469098B816E
:105620006AE00E94AC3A8295807F682F690F8BEC0C
:1056300097E00E9469098C816AE00E94AC3A8295E9
:10564000807F682F690F8BEC97E00E94690981E0E9
:1056500090E04981433010F090E080E09601281BF3
:10566000390B6F2D6150770BFB01E45FFC4FE49128
:10567000E20EF32EF11CB901769567957695679544
:10568000E60EF71EC90160E971E00E94B83AE60E25
:10569000F71EC90164E670E00E94B83AE61AF70AFC
:1056A000C7018E0F911D67E070E00E94B83A682F25
:1056B000811101C067E08BEC97E00E9469099AE0D4
:1056C000F92E8D816F2D0E94AC3A8295807F682FD4
:1056D000690F8BEC97E00E94690989816F2D0E9408
:1056E000AC3A8295807F682F690F8BEC97E00E941F
:1056F000690980E38C0D6F2D0E94AC3A8295807F02
:10570000682F690F8BEC97E00E94690990E080E0B8
:105710000E94B1090E94630780E796E00E94340B63
:10572000C6010E948B0A809148029091490202971B
:1057300009F048C460E086E00E94180E67EA73E052
:105740008DED97E00E94210F60E089E00E94180E25
:1057500067EA73E08DED97E00E94210F61E087E03A
:105760000E94180E69E174E08DED97E00E94210F10
:1057700080914A0290914B02089709F0B2C0809143
:10578000DC059091DD052091E0053091E105232BAA
:1057900009F0A1C4892B19F58091F1059091F205CA
:1057A000019761F410924105109240051092430553
:1057B00010924205109245051092440565E074E090
:1057C0008DED97E00E94210F70921B0660921A06E1
:1057D00085E00E942304892B11F40E94811280919C
:1057E000DC059091DD05019719F58091F105909107
:1057F000F205019761F41092410510924005109254
:10580000430510924205109245051092440565E04B
:1058100074E08DED97E00E94210F70921B0660925C
:105820001A0685E00E942304892B11F40E940114BA
:105830008091DC059091DD050297E1F48091F105FE
:105840009091F205019761F4109241051092400584
:10585000109243051092420510924505109244059E
:1058600067E174E08DED97E00E94210F30921B06F6
:1058700020921A068091DC059091DD050397C1F412
:1058800010926902109268028091F1059091F205E0
:10589000019771F03092E1052092E005A2E3B0E0BB
:1058A000B093DF05A093DE053092490220924802B2
:1058B0008091480290914902029799F460E080E05B
:1058C0000E94180E8DE893E00E944C0E8091050511
:1058D00090910605892B09F0FBC385E893E00E94AF
:1058E0004C0E80914A0290914B02099709F08DC0AD
:1058F0008091DC059091DD05892B69F58091F1059A
:105900009091F2058130910581F410924105109239
:105910004005909343058093420580916B069091DA
:105920006C069093450580934405809144059091C1
:10593000450590936C0680936B066FE174E00197C8
:1059400011F06BE174E08DED97E00E94210F509211
:105950001B0640921A068091DC059091DD050197A7
:1059600009F045C08091F1059091F2050197A1F4ED
:105970001092410510924005509243054092420515
:10598000809160029091610223E030E0281B390B86
:105990003093450520934405809144059091450539
:1059A00043E050E0481B590BCA01509361024093F9
:1059B00060026BE174E0892B91F06DE074E08DED95
:1059C00097E00E94210F60914405709145056F5F3B
:1059D0007F4F8DED97E00E94C10E6DE074E08DED7C
:1059E00097E00E94210F50921B0640921A06809168
:1059F000480290914902029741F460E080E00E94E1
:105A0000180E85E693E00E944C0E80914A02909118
:105A10004B020A9709F072C08091DC059091DD0578
:105A2000892BF1F48091F1059091F205019761F4D1
:105A300010924105109240051092430510924205C4
:105A4000109245051092440563E274E08DED97E0F5
:105A50000E94210F67E070E070931B0660931A06A6
:105A60008091DC059091DD050197E1F48091F105CD
:105A70009091F205019761F4109241051092400552
:105A8000109243051092420510924505109244056C
:105A90006BE274E08DED97E00E94210F70921B067F
:105AA00060921A0685E00E942304892BC9F4809134
:105AB000DC059091DD05892B99F40E946F0D3092E1
:105AC00049022092480270924B0260924A02109260
:105AD0000606109367020093660281E08093070632
