:020000040000FA
:100000000C9432010C945A010C945A010C945A012C
:100010000C945A010C945A010C94F1140C94CD13C5
:100020000C945A010C945A010C945A010C945A01E4
:100030000C945A010C945A010C945A010C945A01D4
:100040000C94A7140C945A010C9475140C944F142E
:100050000C945A010C945A010C945A010C945A01B4
:100060000C94FB140C945A0108000000BE92244921
:10007000123EABAAAA2ABECDCCCC4C3E00000080DA
:10008000BEABAAAAAA3E00000000BF000000803F4D
:100090000000000000084178D3BB4387D1133D190D
:1000A0000E3CC3BD4282AD2B3E68EC8276BED98F3A
:1000B000E1A93E4C80EFFFBE01C4FF7F3F0000007E
:1000C000000000000000240027002A0000000000BB
:1000D00023002600290000000008000201000003A0
:1000E00004070000000000000000000302050003F8
:1000F0000501040602044F676E692067696F726E1E
:100100006F2000556E6120766F6C74612000417520
:10011000746F6D617469636F2000537665676C69F5
:10012000612000657365677569746F004261636B78
:10013000757000436F73612076756F692066617218
:10014000653F0047696F726E692053742E627900B3
:10015000436869656469204175746F004261636B2F
:1001600075700044656661756C7400526970722E1A
:100170002020004C204D204D204720562053204465
:100180000052656174742E004C43442053742E62F7
:100190007920536C6565700053746F7020496E76DA
:1001A0002E2053656D707265004C756E672E20545D
:1001B0006F6C6C2E004C756365204275696F20432F
:1001C000616C2E20007472612E2E2E200043616C13
:1001D000696272617A696F6E6500412E492E004234
:1001E00061636B757000446174612F4F72610047E9
:1001F000696F726E69004261747465726961004F63
:100200006E2F4F6666004C75636500416C6C6172C1
:100210006D6500496D706F7374617A696F6E690006
:10022000010204081020408001020408102001028D
:100230000408102000000000250028002B00040402
:10024000040404040404020202020202030303037E
:100250000303021F1C1F1E1F1E1F1F1E1F1E1F0029
:100260001A16C13411241FBECFEFD8E0DEBFCDBFB8
:1002700026E0ACE8B3E001C01D92A43DB207E1F76F
:1002800013E0A0E0B1E0E8EDF4E702C005900D92C4
:10029000AC38B107D9F711E0C1E3D1E004C0219730
:1002A000FE010E946738C033D107C9F70E94D216F9
:1002B0000C945F3A0C9400008091890590918A0516
:1002C000891B990B089508950895AF92BF92CF921C
:1002D000DF92EF92FF920F931F93CF93DF936C0106
:1002E0007B018B01040F151FEB015E01AE18BF08E7
:1002F000C017D10759F06991D601ED91FC91019099
:10030000F081E02DC6010995892B79F7C501DF91B0
:10031000CF911F910F91FF90EF90DF90CF90BF9002
:10032000AF900895FC01538D448D252F30E0842F2C
:1003300090E0821B930B541710F0CF96089501970D
:100340000895FC01918D828D981761F0A28DAE0FFA
:10035000BF2FB11D5D968C91928D9F5F9F73928F81
:1003600090E008958FEF9FEF0895FC01918D828DAD
:10037000981731F0828DE80FF11D858D90E008957A
:100380008FEF9FEF0895FC01918D228D892F90E0D2
:10039000805C9F4F821B91098F739927089587E096
:1003A00096E00E94C30121E0892B09F420E0822F0E
:1003B0000895FC01A48DA80FB92FB11DA35ABF4FFA
:1003C0002C91848D90E001968F739927848FA68954
:1003D000B7892C93A089B1898C91837080648C93A8
:1003E000938D848D981306C00288F389E02D808157
:1003F0008F7D80830895EF92FF920F931F93CF9389
:10040000DF93EC0181E0888F9B8D8C8D98131AC04F
:10041000E889F989808185FF15C09FB7F894EE8936
:10042000FF896083E889F989808183708064808393
:100430009FBF81E090E0DF91CF911F910F91FF90DE
:10044000EF900895F62E0B8D10E00F5F1F4F0F7386
:100450001127E02E8C8D8E110CC00FB607FCFACF41
:10046000E889F989808185FFF5CFCE010E94D90105
:10047000F1CFEB8DEC0FFD2FF11DE35AFF4FF08212
:100480009FB7F8940B8FEA89FB8980818062CFCF78
:10049000CF93DF93EC01888D8823B9F0AA89BB89BB
:1004A000E889F9898C9185FD03C0808186FD0DC0A6
:1004B0000FB607FCF7CF8C9185FFF2CF808185FFC7
:1004C000EDCFCE010E94D901E9CFDF91CF91089500
:1004D000833081F028F4813099F08230A9F00895BA
:1004E0008730A9F08830C9F08430B1F48091800061
:1004F0008F7D03C0809180008F7780938000089566
:1005000084B58F7784BD089584B58F7DFBCF8091AE
:10051000B0008F778093B00008958091B0008F7DF8
:10052000F9CFCF93DF93282F30E0F901EA52FF4F44
:100530008491F901E05EFD4FD491F901E25CFD4F39
:10054000C491CC23A1F081110E946802EC2FF0E04D
:10055000EE0FFF1FE453FF4FA591B491EC91ED23F3
:1005600081E090E009F480E0DF91CF91089580E090
:1005700090E0FACF1F93CF93DF93282F30E0F9015B
:10058000EA52FF4F8491F901E05EFD4FD491F901E9
:10059000E25CFD4FC491CC23A9F0162F81110E947B
:1005A0006802EC2FF0E0EE0FFF1FEC5CFD4FA59111
:1005B000B4918FB7F894EC91111108C0D095DE2357
:1005C000DC938FBFDF91CF911F910895DE2BF8CF81
:1005D000CF93DF9390E0FC01E05EFD4F2491825CBD
:1005E0009D4FFC0184918823C9F090E0880F991FEA
:1005F000FC01EE53FF4FA591B491FC01EC5CFD4F63
:10060000C591D49161110DC09FB7F8948C9120953C
:1006100082238C938881282328839FBFDF91CF91E9
:100620000895623051F49FB7F8943C91822F8095E1
:1006300083238C93E8812E2BEFCF8FB7F894EC9126
:100640002E2B2C938FBFEACF8F929F92AF92BF92A7
:10065000CF92DF92EF92FF920F931F93CF938C0173
:100660006A017B0180917501843071F08F3FA1F1A7
:10067000CF911F910F91FF90EF90DF90CF90BF909F
:10068000AF909F908F900895E2E5F2E0C491C7FD8E
:10069000EFCF61E084E00E94E802CC2319F0C23081
:1006A00009F089C0980150E040E068E478EE81E00C
:1006B00090E00E94483849015A0181E0881A910867
:1006C000A108B108CC2309F4D2C08091B100887F81
:1006D00084608093B10087C084E080937501E2E577
:1006E000F2E0C491CF3F09F4C3CFC13021F150F003
:1006F000C23009F43EC0C7FDBBCF61E084E00E9478
:10070000E802CDCF14BC15BC84B5826084BD85B52C
:10071000816085BDE2E4F2E0E491F0E0EE0FFF1FBE
:10072000EC5CFD4F85919491E4E2F2E0E491E0937A
:100730006E05C0E0AECF10928000109281008091D3
:100740008100886080938100809181008160809326
:100750008100E2E4F2E0E491F0E0EE0FFF1FEC5CD8
:10076000FD4F85919491E4E2F2E0E491E0936D0510
:1007700090CF1092B0001092B1008091B0008260D2
:100780008093B0008091B10081608093B100E2E479
:10079000F2E0E491F0E0EE0FFF1FEC5CFD4F85917D
:1007A000949190936C0580936B05E4E2F2E0E49100
:1007B000E0936A056ECF980150E040E060E072E19E
:1007C0008AE790E00E94483849015A0181E0881A7E
:1007D0009108A108B108C13031F480918100887F6F
:1007E000816080938100D801AA0FBB1FA7019601E9
:1007F0000E94043628EE33E040E050E00E942638A4
:10080000C13099F0C23019F1C11132CF87BC2093A9
:100810007705309378054093790550937A05809158
:100820006E00826080936E0023CF90928900809248
:100830008800209373053093740540937505509399
:10084000760580916F00826080936F0011CF809257
:10085000B30020936F05309370054093710550935A
:1008600072058091700082608093700001CF85B521
:10087000887F836085BDB7CF8E50806480937C0075
:1008800080917A00806480937A0080917A0086FD5E
:10089000FCCF809178009091790008953FB7F8944B
:1008A0008091D6039091D703A091D803B091D9033A
:1008B00026B5A89B05C02F3F19F00196A11DB11DBB
:1008C0003FBFBA2FA92F982F8827BC01CD01620FF7
:1008D000711D811D911D42E0660F771F881F991FB2
:1008E0004A95D1F708958F929F92AF92BF92CF927F
:1008F000DF92EF92FF926B017C010E944E044B014C
:100900005C01C114D104E104F104B9F00E944E0469
:10091000681979098A099B09683E73408105910528
:1009200080F321E0C21AD108E108F10888EE880EB0
:1009300083E0981EA11CB11CE4CFFF90EF90DF90E4
:10094000CF90BF90AF909F908F9008952091B20369
:10095000260F3327331F21323105ECF42091DD05BA
:10096000FC0190E080E0243069F082E00895A091DD
:10097000B2032191AC014E565C4FA40FB52FB11DAF
:100980002C930196861798F38091B203680F6093B9
:10099000B20380E0089581E008951092DD0581E0C2
:1009A0008093DC051092B70561E082E10E94BA02F3
:1009B00061E083E10E94BA02E9EBF0E080818E7F82
:1009C000808380818D7F808388E48093B80085E474
:1009D0008093BC000895CF93DF9391E090939103AF
:1009E0008823B9F0C091B800D091BA008091BC00C2
:1009F0008A7B8093BC0060E082E10E94BA0260E0E2
:100A000083E10E94BA020E94CD04D093BA00C09341
:100A1000B800DF91CF910895CF92DF92EF92FF92CD
:100A20000F931F93CF93DF93D091060681E0D132CD
:100A300008F09CC0C09105060E944E046B017C0129
:100A40008091DD0581116CC082E08093DD0581E03D
:100A50008093DC058FEF8093DB051092DA05D0934D
:100A6000D905A5EEB5E0E9EBF5E080E0D8138DC03F
:100A70001092B8058091B805CC0FC82BC093B8056B
:100A80008091B705813009F084C01092B7050E94AB
:100A90004E046B017C018091B8058093BB0080916E
:100AA000DF059091E005A091E105B091E205892B69
:100AB0008A2B8B2BA1F00E944E040091DF05109130
:100AC000E0052091E1053091E2056C197D098E0960
:100AD0009F09061717072807390708F442C08091B5
:100AE000BC0083FDD8CF85EC8093BC000E944E04EF
:100AF0006B017C018091DD05823009F44CC080914E
:100B0000DB058F3F09F469C08091DB05803209F471
:100B100066C08091DB05803309F463C084E026C0A1
:100B20008091DF059091E005A091E105B091E2058B
:100B3000892B8A2B8B2B09F483CF0E944E040091C2
:100B4000DF051091E0052091E1053091E2056C1977
:100B50007D098E099F09061717072807390708F02E
:100B60006FCF8091DE050E94EB0485E01092E405D2
:100B7000109206061092E305DF91CF911F910F911D
:100B8000FF90EF90DF90CF9008959D9191938F5FAC
:100B90006DCF85EEA9CF8091DF059091E005A09102
:100BA000E105B091E205892B8A2B8B2B09F4A2CFAA
:100BB0000E944E040091DF051091E0052091E105AF
:100BC0003091E2056C197D098E099F0906171707F8
:100BD0002807390708F08ECFC4CF80E0C7CF82E066
:100BE000C5CF83E0C3CFCF92DF92EF92FF920F93F6
:100BF0001F93CF93DF93D82FC62F613208F098C090
:100C00000E944E046B017C018091DD0581116BC057
:100C100081E08093DD058093DC059FEF9093DB05F9
:100C20001092DA059C0F9093D9058093B8058091B6
:100C3000B805DD0FD82BD093B8058091B70581306A
:100C400009F078C01092B7050E944E046B017C0138
:100C50008091B8058093BB008091DF059091E005FD
:100C6000A091E105B091E205892B8A2B8B2BA1F095
:100C70000E944E040091DF051091E0052091E105EE
:100C80003091E2056C197D098E099F090617170737
:100C90002807390708F448C08091BC0083FDD8CFED
:100CA00085EC8093BC000E944E046B017C01809116
:100CB000DD05813009F440C08091DA058C1710F40D
:100CC000C091DA05E9EBF5E0ABE8B5E080E08C1324
:100CD00055C08C2FDF91CF911F910F91FF90EF9016
:100CE000DF90CF9008958091DF059091E005A0916D
:100CF000E105B091E205892B8A2B8B2B09F484CF77
:100D00000E944E040091DF051091E0052091E1055D
:100D10003091E2056C197D098E099F0906171707A6
:100D20002807390708F070CF8091DE050E94EB0498
:100D3000C0E0CFCF85EEB5CF8091DF059091E00583
:100D4000A091E105B091E205892B8A2B8B2B09F448
:100D5000AECF0E944E040091DF051091E005209176
:100D6000E1053091E2056C197D098E099F0906178E
:100D700017072807390708F09ACFD6CF91919D938E
:100D80008F5FA5CF0895E0918A0580918905E817C6
:100D900030F4F0E0E557FA4F808190E008958FEF4E
:100DA0009FEF089590918A05809189052FEF3FEF7D
:100DB000981748F4E92FF0E0E557FA4F208130E02A
:100DC0009F5F90938A05C9010895CF92DF92EF92B9
:100DD000FF920F931F93CF93DF937C01CB018A0186
:100DE0002091E305222389F0EB016B01C40ED51E8F
:100DF000CC15DD0569F06991D701ED91FC91019069
:100E0000F081E02DC7010995F3CF642F0E94A6045D
:100E1000C801DF91CF911F910F91FF90EF90DF906C
:100E2000CF900895CF93DF931F92CDB7DEB769833C
:100E30002091E3052223F9F020910606203258F094
:100E400021E030E0FC013383228390E080E00F90CA
:100E5000DF91CF9108958091E405E82FF0E0EB5108
:100E6000FA4F998190838F5F8093E4058093060603
:100E700081E090E0ECCF61E0CE0101960E94A604F3
:100E8000F7CFCF93C62F91E09093E30598E6909328
:100E900005061092E40510920606682F86EA96E091
:100EA0000E9412076C2F86EA96E00E941207CF91EB
:100EB0000C940C05682F86EA96E00C9412070895AE
:100EC00090E080E00895809151059091520501963F
:100ED00067E070E00E9412389093F0048093EF0472
:100EE000880F991FFC01EF51FB4F80819181019781
:100EF000880F991FFC01EE0FFF1FE65BFE4F20815C
:100F0000318130937E0520937D05880F991FFC0168
:100F1000E45BFE4F8081918190937C0580937B05FB
:100F2000089581E10E943C0490936A0180936901D5
:100F30009093900380938F03E4E0F4E024E0E432A4
:100F4000F20719F081939193F9CF80E190E09093AB
:100F5000D2048093D10408952091DB043091DC0405
:100F600042E454E090E080E064E0423C5607A9F09F
:100F700030E020E0F901EE0FFF1FE40FF51F608164
:100F800071816130710509F401962F5F3F4F283060
:100F9000310581F7405F5F4FE7CF3093DC0420934A
:100FA000DB0429E030E03093DE042093DD04089573
:100FB0008091DB049091DC04E2E3F4E024E0E23B86
:100FC000F207A1F01182108213821282158214821C
:100FD000178216821186108613861286158614864D
:100FE00017861686709688E090E0E8CF9093DC0430
:100FF0008093DB0488E090E09093DE048093DD042E
:1010000008959C012D7F2130310529F1853091050E
:1010100011F19C012750310922303105E0F002978F
:10102000E9F420915A0530915B05C9018370992735
:10103000892B39F4C90164E670E00E941238892BCB
:1010400081F4C90160E971E00E941238892B49F0EE
:101050008CE190E008958FE190E008958EE190E0BA
:1010600008958DE190E00895EF92FF920F931F9302
:10107000CF93DF93FC01D0E0C0E020ED37E000E942
:1010800011E084E6E82EF12C2E173F0784F0E09063
:101090005C05F12C01E010E00E151F0534F5C801C8
:1010A0000E940108C80FD91F0F5F1F4FF5CFC9015C
:1010B00083709927892B31F4C901B7010E94123836
:1010C000892B89F4C901B8010E941238AC0181E072
:1010D000452B09F080E090E083599E4FC80FD91F3F
:1010E0002F5F3F4FD1CF81E0F6CF20915D0530E0FB
:1010F0002C5F3F4F2C0F3D1FE7E0F0E0C901BF011F
:101100000E9412389093520580935105C9010196AF
:10111000BF010E941238CB0166E070E00E941238D5
:101120009093540580935305DF91CF911F910F91B8
:10113000FF90EF90089580910F0190911001019719
:1011400061F480910001882341F0809169019091C0
:101150006A0190936E0180936D011092000180915D
:1011600004049091050490936A01809369010895A5
:1011700080910701909108019093010580930005EB
:101180008091640190916501909359058093580571
:1011900084E690E0909363018093620180915E0108
:1011A00090915F011816190624F41092FE04109213
:1011B000FD0461E082E00C94BA02AF92BF92CF923C
:1011C000DF92EF92FF920F931F93CF93DF93CDB7F0
:1011D000DEB72E970FB6F894DEBF0FBECDBF8C01E1
:1011E00081E08093E30588E6809305061092E4058C
:1011F0001092060690E080E00E945A070E940C05BB
:1012000067E088E60E94F30510928A0580938905BD
:10121000811101C0FFCF7E018FE0E80EF11CFE01BD
:1012200031966F019AE0B92E86EA96E00E94D206C6
:10123000982F92959F708F709B9D800D112490E048
:10124000F701929382937F01CE16DF0669F70E9421
:101250000C05A981BA81CD018053984F9093AC05BC
:101260008093AB053B813093AD056D817E816093AA
:10127000AE052F812093B20549854093AF05EB84DD
:10128000E092B005FD84F092B1057727E3E5F2E046
:1012900021E0231730F45491650F711D2F5F3196B3
:1012A000F8CF323039F49D0123703327232B11F40A
:1012B0006F5F7F4F9C012D5C3740369527953695A3
:1012C0002795EDE6F1E0AE9FC001AF9F900DBE9F68
:1012D000900D1124280F391F21503109260F371F77
:1012E000A8E1B0E00E9446365B016C01A40EB11C7F
:1012F000C11CD11CA6019501ACE3B0E00E940436EC
:101300009B01AC012E0D311D411D511D0E94043663
:101310006F0D711D811D911D60597A4C8249974C4A
:101320006093B3057093B4058093B5059093B605AB
:101330008CE0EBEAF5E0D80101900D928A95E1F797
:10134000C8012E960FB6F894DEBF0FBECDBFDF9159
:10135000CF911F910F91FF90EF90DF90CF90BF90B2
:10136000AF900895CF9391E09093E30598E6909322
:1013700005061092E40510920606682F86EA96E0AC
:101380000E9412070E940C0561E088E60E94F305A6
:1013900010928A0580938905811101C0FFCF86EAEA
:1013A00096E00E94D206C82F0E940C058C2FCF9188
:1013B00008958FE00E94B209682F6E7F8FE00C9431
:1013C0004107CF93C82F8EE00E94B209682FCC232B
:1013D00029F061608EE0CF910C9441076E7FFACFC7
:1013E0001F93CF93DF93382F562F842F2AE0622F3D
:1013F0000E94F2378295807F182F190F852F0E9447
:10140000F2378295807FD82FD90F832F0E94F23731
:101410008295807FC82FC90F81E08093E30588E61D
:10142000809305061092E4051092060687E090E08E
:101430000E945A07612F6F7786EA96E00E94120792
:101440006D2F6F7786EA96E00E9412076C2F6F77F8
:1014500086EA96E00E94120760E886EA96E00E941B
:1014600012070E940C0581E00E94E109DF91CF91F3
:101470001F910C94D909FF920F931F93CF93DF9381
:10148000F82EC0917801D0917901009176011091E8
:101490007701209761F50115110549F587E090E086
:1014A000909388058093870580E00E94E1090E945F
:1014B000D90940918705602F8C2F0E94F009FF20E9
:1014C00081F0109286051092850510928405109285
:1014D000830510928205109281051092800510926A
:1014E0007F05DF91CF911F910F91FF90089510928A
:1014F000880510928705D8CFCF93DF93EC0160E089
:101500008E810E94BA0261E08E810E94BA0260E080
:101510008E810E94BA028BE891E00197F1F7DF918A
:10152000CF910895CF92DF92EF92FF920F931F9386
:10153000CF93DF936C017C0187E0E80EF11CD0E0D3
:10154000C0E0062F10E0B8010C2E02C0759567951B
:101550000A94E2F76170F70181917F010E94BA025B
:101560002196C430D10579F7C601DF91CF911F9143
:101570000F91FF90EF90DF90CF900C947C0ACF9268
:10158000DF92EF92FF920F931F93CF93DF93EC01C3
:10159000F62E642F8C810E94BA028D818F3F19F044
:1015A00060E00E94BA020F2D10E08F8584FF25C0F5
:1015B0006E0187E0C80ED11CF12CE12CB8010E2C75
:1015C00002C0759567950A94E2F76170F601819102
:1015D0006F010E94BA02FFEFEF1AFF0A88E0E816D7
:1015E000F10461F7CE01DF91CF911F910F91FF9030
:1015F000EF90DF90CF900C947C0AB80184E0759551
:1016000067958A95E1F7CE010E94920A6F2DCE016F
:10161000DF91CF911F910F91FF90EF90DF90CF90CE
:101620000C94920A40E0682F88EB96E00C94BF0A75
:1016300081E00E94120B8BE39FE10197F1F708957F
:10164000CF93DF93823029F49091C70698609093EE
:10165000C7068093CB061092CC0680E48093CD061B
:1016600080E18093CE0680E58093CF0661E0809193
:10167000BC060E94E8028091BD068F3F19F061E030
:101680000E94E80261E08091BE060E94E802C8EB79
:10169000D6E09E01285B36408091C70684FD0BC0D2
:1016A00084E090E021962817390744F461E08E81A8
:1016B0000E94E802EECF88E090E0F4CF8BE39DE05B
:1016C0000197F1F760E08091BC060E94BA0260E0E9
:1016D0008091BE060E94BA028091BD068F3F19F02C
:1016E00060E00E94BA028091C70684FD34C063E0C6
:1016F00088EB96E00E94920ACBE4D6E4CE010197F3
:10170000F1F763E088EB96E00E94920A2197F1F7E7
:1017100063E088EB96E00E94920A83E592E00197ED
:10172000F1F762E088EB96E00E94920A8091C7068A
:1017300080620E94120B84E08093C8068CE00E94B5
:10174000120B0E94180B82E08093C90686E0DF919D
:10175000CF910C94120B80620E94120B8BE496E4E2
:101760000197F1F78091C70680620E94120B83E512
:1017700092E00197F1F78091C70680620E94120BF8
:10178000D5CF643008F063E09091CB06691710F074
:101790006FEF690FE62FF0E0E854F94F9489890F55
:1017A00080680C94120B41E00E94BF0A81E090E037
:1017B00008950F931F93CF93DF938B0128E0829FAF
:1017C000C001112480640E94120BE801085F1F4FC2
:1017D000699188EB96E00E94D30BC017D107C1F73F
:1017E000DF91CF911F910F9108950F931F93CF9386
:1017F000DF938C01D0E0C0E0F801EC0FFD1F649195
:10180000662339F041E088EB96E00E94BF0A2196FA
:10181000F3CFCE01DF91CF911F910F910895FB017E
:1018200001900020E9F73197AF01461B570BDC010F
:10183000ED91FC910280F381E02D09948F929F92AB
:10184000AF92BF92EF92FF920F931F93CF93DF93CC
:10185000CDB7DEB7A1970FB6F894DEBF0FBECDBFF0
:101860007C01FA01CB0119A2223008F42AE08E0192
:101870000F5D1F4F822E912CB12CA12CBF01A50111
:1018800094010E942638F901CA016A300CF5605DA6
:10189000D8016E938D01232B242B252B79F790E013
:1018A00080E0109721F0BD01C7010E940F0CA196A6
:1018B0000FB6F894DEBF0FBECDBFDF91CF911F9161
:1018C0000F91FF90EF90BF90AF909F908F900895F1
:1018D000695CDECFCF92DF92EF92FF920F931F935E
:1018E000CF93DF936B01770FEE08FF08F7FE1FC061
:1018F000EC01E881F9810190F081E02D6DE209951C
:101900008C0144275527BA014C195D096E097F09DE
:101910002AE0CE010E941E0C800F911FDF91CF9113
:101920001F910F91FF90EF90DF90CF9008952AE0E4
:10193000B701A601DF91CF911F910F91FF90EF901A
:10194000DF90CF900C941E0CCF93DF93BC0187E007
:1019500096E00E946A0CEC016EE972E087E096E086
:101960000E940F0C8C0F9D1FDF91CF910895CF9394
:10197000DF93BC0187E096E00E940F0CEC016EE95A
:1019800072E087E096E00E940F0C8C0F9D1FDF91A4
:10199000CF9108956115710511F00C940F0C90E032
:1019A00080E008950F931F93CF93DF930091780108
:1019B00010917901C0917601D09177010A3011051B
:1019C00034F470E060E088EB96E00E946A0CB801A5
:1019D00088EB96E00E946A0C61EA72E088EB96E080
:1019E0000E94CA0CCA30D10534F470E060E088EB84
:1019F00096E00E946A0CBE0188EB96E0DF91CF91E1
:101A00001F910F910C946A0C882309F487C0809170
:101A10000D0190910E019093D2048093D104809196
:101A2000D1049091D20497FD1EC0FC01EE0FFF1F60
:101A3000EC5FFB4F60817181880F991FFC01EA5FA9
:101A4000FB4F7183608387E096E00E946A0C63EA33
:101A500072E087E096E00E94CA0C8091D1049091D8
:101A6000D2040197D8CF84EA92E00E94B70C80910B
:101A70008F03909190039093050480930404209128
:101A8000690130916A01AC01421B530B50938E03E4
:101A900040938D0382179307B0F490936A0180936B
:101AA00069011092900310928F0381E040918D03A1
:101AB00050918E0320917A0130917B0124173507D4
:101AC0000CF080E0089580910D0190910E01FC01D1
:101AD000EE0FFF1FEA5FFB4F40815181241735074E
:101AE00001F7E4E0F4E050E040E0481759074CF417
:101AF000619171916217730708F49B014F5F5F4F0B
:101B0000F4CF30936A012093690197FF02C090E0FF
:101B100080E09093D2048093D104C3CF81E10E94EE
:101B20003C0420918F0330919003281739070CF063
:101B3000BCCF81E10E943C049093900380938F037B
:101B40002091690130916A01821B930B90938E035F
:101B500080938D03AACF9F92AF92BF92CF92DF92D4
:101B6000EF92FF920F931F93CF93DF9382309105F3
:101B700009F0B1C08091620190916301609105010B
:101B8000709106010E9412387093E3036093E203A0
:101B9000C1E08091E2039091E30397FD01C183E0EE
:101BA0000E949102892B09F0FBC0609105017091A0
:101BB0000601072E000C880B990B0E9473048FE01E
:101BC0000E94B20980FF0AC00E94D9098091730166
:101BD00090917401019711F4C093570587E096E046
:101BE0000E94A1018337910581F4C093570580912C
:101BF0005E0590E0909379018093780180915F0574
:101C000090E0909377018093760186E00E949102A4
:101C1000892BA1F48091000590910105892B71F425
:101C20001092E3031092E2038091E2039091E303A8
:101C300001979093E3038093E203ABCF80E00E948F
:101C4000040D8823E1F080916D0190916E01209147
:101C50006B0130916C01820F931F209169013091CB
:101C60006A018217930758F0209106053091070505
:101C70008091670190916801821793078CF68FB766
:101C8000F8944091DE035091DF036091E00370917E
:101C9000E1038FBF8091660590916705A09168056B
:101CA000B0916905481B590B6A0B7B0B809162014F
:101CB000909163012091050130910601821B930BE5
:101CC000092E000CAA0BBB0B84179507A607B707B4
:101CD00008F4A6CFA9CF039709F062C080916201F2
:101CE000909163019093E3038093E2038CE9E82EE3
:101CF000FF24FA9494E6C92ED12C992493948091D0
:101D0000E2039091E303181619060CF049C08FE026
:101D10000E943C04B7010E9412388B015B018AE0EB
:101D2000A80EB11CB0924501A09244018EE00E9421
:101D30003C04B6010E941238EB017093430160939A
:101D4000420161E070E080E090E00E9473048091C5
:101D500015018823E1F00A5F1F4F0330110570F071
:101D60001092E3031092E2038091E2039091E30367
:101D700001979093E3038093E203C1CF24972397C5
:101D800078F785E00E949102892B51F3EDCF2597DA
:101D900059F785E0A816B10439F790921501E4CF00
:101DA000DF91CF911F910F91FF90EF90DF90CF9037
:101DB000BF90AF909F90089561E084E00E94C10BB6
:101DC000E0915105F0915205EE0FFF1FE257FE4FD3
:101DD0006081718188EB96E00E94CA0C67E073E035
:101DE00088EB96E00E94CA0C80915D058A3030F441
:101DF00070E060E088EB96E00E946A0C40915D051F
:101E000050E070E060E02AE088EB96E00C941E0C55
:101E100060E084E00E94C10B80915E058A3030F45E
:101E200070E060E088EB96E00E946A0C40915E05ED
:101E300050E070E060E02AE088EB96E00E941E0C23
:101E400061EA72E088EB96E00E94CA0C80915F051F
:101E50008A3030F470E060E088EB96E00E946A0C13
:101E600040915F0550E070E060E02AE088EB96E08A
:101E70000E941E0C61EA72E088EB96E00E94CA0C98
:101E8000809160058A3030F470E060E088EB96E085
:101E90000E946A0C4091600550E070E060E02AE02A
:101EA00088EB96E00C941E0CCF93DF931092D00435
:101EB0008091F5049091F604D0E0C0E0892B51F4B4
:101EC0008091F7049091F804C1E0D0E0892B11F4DF
:101ED000C2E0D0E0D093D204C093D10460E083E0AC
:101EE0000E94C10BCC0FDD1FCC0FDD1FCE57DE4F84
:101EF0006881798188EB96E00E94CA0C61E083E0FA
:101F00000E94C10BE091D104F091D204EE0FFF1FAB
:101F1000EE0FFF1FEE57FE4F6281738188EB96E054
:101F2000DF91CF910C94CA0CCF93DF93EC01809199
:101F3000B2069091B306009759F02091B406309103
:101F4000B5062C173D0720F081E0DF91CF91089571
:101F5000BE016F5F7F4F0E949239009789F0909386
:101F6000B3068093B206D093B506C093B406209111
:101F7000B6063091B706232B39F7FC011082E4CF67
:101F800080E0E3CFFF920F931F93CF93DF9300D0B6
:101F9000CDB7DEB7FF24F39487E096E00E94C3013B
:101FA000892B51F187E096E00E94A1018A3019F453
:101FB000F0925705F1CF89831A820091B6061091ED
:101FC000B7060F5F1F4FC8010E94940F882321F3AB
:101FD0002091B2063091B3068091B6069091B70673
:101FE000BE016F5F7F4F820F931F0E94583A10937C
:101FF000B7060093B606D0CF0F900F90DF91CF9128
:102000001F910F91FF9008950E94CF0181110C94B0
:10201000C20F0895BF92CF92DF92EF92FF920F937B
:102020001F93CF93DF93D0E0C0E007E010E0E7E03C
:10203000EE2EF5E0DF2ECC24C394A8ECBA2EB4E14A
:10204000FB2ECE010E94EE35282F30E0C834D1059A
:1020500008F051C0FE01E15DFF4E0C946738771027
:10206000AB10B010B010B010B010B010B010B01075
:10207000B010B010B810C010CC10D410D910DE10B1
:10208000E310E610EE10F310F310F310F310F3105A
:10209000F310F310FB10001105110C1111117B103E
:1020A00016111611161116111611161116111611F8
:1020B00016111611161116111611161116111611E8
:1020C00016111611161116111611161116111611D8
:1020D00016111611161116111611161116111611C8
:1020E00016111611161127112C11311136113093BA
:1020F0000401209303012196C834D10509F0A1CF32
:102100000E94D80780916F01909170010197880F0C
:10211000991FFC01EE0FFF1FE65BFE4F208131810E
:102120003093790120937801880F991FFC01E45BBB
:10213000FE4F80819181909377018093760180E0BA
:10214000DF91CF911F910F91FF90EF90DF90CF9093
:10215000BF900C943B0A3093020120930101CBCF36
:10216000FE01EE0FFF1FEA5BFE4F31832083C3CFDA
:102170008F9DC00111249093650180936401BBCFB2
:102180008F9DC001112490930801809307019093C3
:10219000010580930005AFCF8B9DC0011124909362
:1021A0005D0180935C01A7CF30937B0120937A017E
:1021B000A2CF30936E0120936D019DCF309310011B
:1021C00020930F0198CFC0928C0395CF8D9DC001B5
:1021D000112490930601809305018DCF30936801FF
:1021E0002093670188CFFE01EE0FFF1FE754FB4FDE
:1021F00021503109BACF30930C0120930B017BCFD2
:102200003093ED032093EC0376CF215031093093C6
:10221000700120936F016FCF3093610120936001B3
:102220006ACF30930E0120930D0165CFCE018197C7
:10223000B8010E941238E69EF001E79EF00D1124CD
:10224000E80FF91FEE0FFF1FE55FFA4FD1CF309374
:102250005605209355054FCF3093F2032093F10399
:102260004ACF30936C0120936B0145CF30935F01CF
:1022700020935E0140CF85ED8093BC008091DF0507
:102280009091E005A091E105B091E2050796A11DAE
:10229000B11D23E0B695A795979587952A95D1F717
:1022A0002091BC0024FD03C01092DD0508954091EB
:1022B000DF055091E0056091E1057091E205452B45
:1022C000462B472B69F30097A105B10541F025E3A3
:1022D0002A95F1F700000197A109B109E1CF80919A
:1022E000DE050C94EB041F93CF93DF93EC01162FC4
:1022F0000E94EE35181739F0612FCE01DF91CF9192
:102300001F910C94F635DF91CF911F910895AF92F4
:10231000BF92CF92DF92EF92FF920F931F93CF93D2
:10232000DF9385EA92E00E94B70C10E000E025E020
:10233000C22ED12C38ECA32EB12C44E1E42EF12C8A
:102340000834110508F04FC0F801E755FE4E0C9413
:1023500067381B122012251225122512251225126C
:1023600025122512251225122D1236123B1241126A
:1023700046124B12501254125A125F125F125F1221
:102380005F125F125F125F1268126D127212771283
:102390007C12F111F311F311F311F311F311F31195
:1023A000F311F311F311F311F311F311F311F3110D
:1023B000F311F311F311F311F311F311F311F311FD
:1023C000F311F311F311F311F311F311F311F311ED
:1023D000F311F311F311F311F311811286128B1221
:1023E000901203E410E0B80187E096E00E946A0CC6
:1023F0006FEA72E087E096E00E94CA0CCE010E946C
:10240000A40C6C2FC8010E9473110F5F1F4F08347A
:10241000110509F095CF82EB92E00E94B70CDF9195
:10242000CF911F910F91FF90EF90DF90CF90BF90D1
:10243000AF900C94D807C0910301D0910401D3CF81
:10244000C0910101D0910201CECFF801EE0FFF1F24
:10245000EA5BFE4FC081D181C6CF8091640190912B
:102460006501B7010E941238EB01BDCF80910701D1
:1024700090910801F6CF80915C0190915D01B501CA
:10248000F1CFC0917A01D0917B01ADCFC0916D01A8
:10249000D0916E01A8CFC0910F01D0911001A3CFB0
:1024A000C0918C03D0E09FCF8091050190910601EF
:1024B000B601D8CFC0916701D091680194CFF801DF
:1024C000EE0FFF1FE754FB4FC081D18121968BCFC8
:1024D000C0910B01D0910C0186CFC091EC03D0913B
:1024E000ED0381CFC0916F01D0917001EFCFC0910A
:1024F0006001D091610177CFC0910D01D0910E01A3
:1025000072CFC0915505D09156056DCFC091F103A2
:10251000D091F20368CFC0916B01D0916C0163CF71
:10252000C0915E01D0915F015ECF8F929F92AF927A
:10253000BF92CF92DF92EF92FF92F82E0E94080F87
:1025400080916601882361F08091070190910801D4
:1025500001972091000530910105281739071CF4D7
:10256000FF2009F491C085E10E943C04BC01990F51
:10257000880B990B0E94D1349B01AC0160E070E0A4
:1025800080E894E40E94C23620E030E040E85FE357
:102590000E94553620E030E44CE156E40E9430358C
:1025A0000E9470376B017C0129E537E44CEB53E363
:1025B0000E943035A70196010E94303523E73FE79E
:1025C00045E759E30E945636A70196010E9430352F
:1025D0002BEE3FEF43E95AE30E9456369B01AC01D4
:1025E00060E070E080E89FE30E94C23623E333E9B5
:1025F00048E853E40E94553620E030E040EC5FE3C9
:102600000E9456366B017C0161E08CE00E94C10B98
:1026100020E030E040E251E4C701B6010E94CA3434
:1026200087FF06C070E060E088EB96E00E946A0CCD
:10263000A7019601C701B6010E94B83761EC72E0AC
:1026400081111AC046015701E894B7F82FEF3FEF08
:102650004FE75FE7C501B4010E94B83781111DC083
:102660002FEF3FEF4FE75FE7C501B4010E94CA3487
:1026700018169CF465EC72E088EB96E00E940F0C53
:102680000E94DC0E10926601FF90EF90DF90CF90D9
:10269000BF90AF909F908F9008952FEF3FEF4FE73F
:1026A0005FE4C701B6010E94633718161CF469EC99
:1026B00072E0E2CF2FEF3FEF4FE75FECC701B601CB
:1026C0000E94CA3487FDF3CF20E030E0A901C701A2
:1026D000B6010E94CA3487FF0AC041E06DE288EB70
:1026E00096E00E94BF0AF7FAF094F7F8F0942AE017
:1026F00037ED43EA5BE3C701B6010E9456364B0152
:102700005C010E9434376B017C010E94CF349B0135
:10271000AC01C501B4010E9455364B015C012AE0B1
:10272000B701A60188EB96E00E941E0C41E06EE224
:1027300088EB96E00E94BF0A20E030E040E251E4DE
:10274000C501B4010E9430354B015C010E94343751
:102750006B01F12CE12C2AE0B701A60188EB96E091
:102760000E941E0CC701B6010E94CF349B01AC0130
:10277000C501B4010E94553620E030E040E251E44A
:102780000E9430350E943437AB0170E060E02AE0EF
:1027900088EB96E00E941E0C73CF1F920F920FB62B
:1027A0000F9211242F933F934F935F936F937F93D7
:1027B0008F939F93AF93BF93EF93FF9380916F0598
:1027C00090917005A0917105B0917205892B8A2BAB
:1027D0008B2BD1F190916A05E0916B05F0916C051E
:1027E00080818927808380916F0590917005A091E9
:1027F0007105B0917205181619061A061B069CF48D
:1028000080916F0590917005A0917105B09172054E
:102810000197A109B10980936F0590937005A0936A
:102820007105B0937205FF91EF91BF91AF919F91A8
:102830008F917F916F915F914F913F912F910F9069
:102840000FBE0F901F90189580917501E2E5F2E0A0
:10285000E4919FEF90937501E13051F030F0E23058
:1028600069F060E00E94BA02DECF10926E00F9CFEC
:1028700090916F009D7F90936F00F3CF90917000C7
:102880009D7F9093700091E09093B0009091B10083
:10289000987F94609093B1001092B300E2CF1F92A2
:1028A0000F920FB60F9211242F933F934F935F9384
:1028B0006F937F938F939F93AF93BF93EF93FF9308
:1028C00087E096E00E94D901FF91EF91BF91AF910F
:1028D0009F918F917F916F915F914F913F912F9138
:1028E0000F900FBE0F901F9018951F920F920FB66A
:1028F0000F9211242F938F939F93EF93FF93E09167
:102900001706F09118068081E0911D06F0911E06D1
:1029100082FD1BC09081809120068F5F8F73209174
:102920002106821741F0E0912006F0E0E95FF94FBF
:10293000958F80932006FF91EF919F918F912F911A
:102940000F900FBE0F901F9018958081F4CF1F92AB
:102950000F920FB60F9211242F933F938F939F9353
:10296000AF93BF938091DE039091DF03A091E003CA
:10297000B091E1033091D50323E0230F2D3758F5B3
:102980000196A11DB11D2093D5038093DE03909382
:10299000DF03A093E003B093E1038091D60390910D
:1029A000D703A091D803B091D9030196A11DB11D01
:1029B0008093D6039093D703A093D803B093D90301
:1029C000BF91AF919F918F913F912F910F900FBE2B
:1029D0000F901F90189526E8230F0296A11DB11D98
:1029E000D2CF1F920F920FB60F9211240F900FBEED
:1029F0000F901F9018951F920F920FB60F921124EF
:102A00002F933F934F935F936F937F938F939F93F6
:102A1000AF93BF93EF93FF938091B900887F803687
:102A200009F44AC0F0F5883209F4A7C018F58031DE
:102A300009F49BC0B8F4882309F4F9C0883009F47C
:102A400094C0FF91EF91BF91AF919F918F917F9132
:102A50006F915F914F913F912F910F900FBE0F900B
:102A60001F901895883109F488C0803251F78093FF
:102A7000DB0514C0803409F49DC040F48033B9F301
:102A80008833F9F68093DB0585ECB0C0803509F416
:102A900085C0883509F496C0883499F60E943B11A8
:102AA000D0CF883909F48CC038F5883729F050F434
:102AB000883611F0803729F683E08093DD05109287
:102AC000D40357C0883809F47BC0803919F08038A6
:102AD00009F0B7CF8091D403803208F071C0E09143
:102AE000D40381E08E0F8093D4038091BB00F0E08B
:102AF000EC54FC4F80833DC0803B39F0E0F4803AD9
:102B000009F479C0883A09F09CCF84E08093DD0510
:102B10001092B3031092B203E091DC03F091DD0355
:102B200009958091B20381110FC081E08093B203B7
:102B30001092920309C0803C09F4A6CF883C09F4A6
:102B4000A3CF883B09F07DCFE091B30381E08E0FE6
:102B50008093B303F0E0EE56FC4F80818093BB007E
:102B60009091B3038091B20329C08091B8058093FE
:102B7000BB0085EC8093BC0064CF9091DA05809116
:102B8000D905981758F5E091DA0581E08E0F80930A
:102B9000DA05F0E0E754FA4F8081E9CFE091DA05F9
:102BA00081E08E0F8093DA058091BB00F0E0E7545E
:102BB000FA4F80839091DA058091D9059817C8F271
:102BC00085E8D8CFE091DA0581E08E0F8093DA05B1
:102BD0008091BB00F0E0E754FA4F80838091DC05E0
:102BE00081115CCF81E08093B70584EA8093BC00BB
:102BF0001092DD0526CF85EC8093BC001092DD0598
:102C00008091D403803230F4E091D403F0E0EC54AE
:102C1000FC4F10826091D40370E0E091DA03F091F0
:102C2000DB0384EB93E009951092D4030ACF109252
:102C3000DB0534CF10920A061092090688EE93E065
:102C4000A0E0B0E080930B0690930C06A0930D06D5
:102C5000B0930E0622E732E0309308062093070671
:102C600025EC30E0309314062093130624EC30E07A
:102C7000309316062093150620EC30E030931806AA
:102C80002093170621EC30E030931A0620931906A2
:102C900022EC30E030931C0620931B0626EC30E03B
:102CA00030931E0620931D061092200610922106D6
:102CB00010922206109223062FEF3FEF3093A506C5
:102CC0002093A4061092A9061092A8068093AA0643
:102CD0009093AB06A093AC06B093AD0684E892E067
:102CE0009093A7068093A6061092BB061092BA0690
:102CF00086E992E09093B9068093B80687E08093C6
:102D0000BC068FEF8093BD0688E08093BE0689E005
:102D10008093BF068AE08093C0068BE08093C10653
:102D20008CE08093C2061092C3061092C4061092E3
:102D3000C5061092C6061092C70681E00E94200BBD
:102D40001092B3061092B2061092B5061092B40615
:102D50001092B7061092B60690E080E00E94940FA1
:102D60002091B2063091B306811113C021153105AF
:102D700019F0C9010E9409391092B3061092B206E7
:102D80001092B7061092B6061092B5061092B406CD
:102D900008951092B7061092B60664EA72E0C9016F
:102DA0000C94583ACF93DF9300D000D000D01F92FC
:102DB000CDB7DEB7789484B5826084BD84B5816078
:102DC00084BD85B5826085BD85B5816085BD8091F6
:102DD0006E00816080936E0010928100809181006E
:102DE0008260809381008091810081608093810066
:102DF000809180008160809380008091B100846028
:102E00008093B1008091B00081608093B000809188
:102E10007A00846080937A0080917A008260809347
:102E20007A0080917A00816080937A0080917A00A4
:102E3000806880937A001092C10062E086E00E9470
:102E4000E80260E083E00E94E80262E085E00E9420
:102E5000E80261E082E00E94E802E0911706F0914A
:102E6000180682E08083E0911306F0911406108228
:102E7000E0911506F09116068FEC808310921F06E4
:102E8000E0911B06F0911C0606E00083E091190614
:102E9000F0911A06808180618083E0911906F0919B
:102EA0001A06808188608083E0911906F0911A06E5
:102EB000808180688083E0911906F0911A068081F4
:102EC0008F7D808384E190E00E94940F10928A05A8
:102ED000109289051092E405109206060E94CD0416
:102EE00083E691E09093DD038093DC0384E691E038
:102EF0009093DB038093DA038EE00E94B209682F7F
:102F00006B738EE00E94410780ED97E09093AC05D3
:102F10008093AB0581E08093AD058093AE05109260
:102F2000AF051092B0051092B1050093B20580E78D
:102F300095E3ADE6B8E38093B3059093B405A09311
:102F4000B505B093B60580E00E94E1098EE00E94CD
:102F5000B209682F6D7F8EE00E9441070E94D90957
:102F60008FE00E94B209682F6D7F8FE00E944107B9
:102F700082E00E94200B6CEB71E081E00E94D90B93
:102F800064EB71E082E00E94D90B6CEA71E083E0AF
:102F90000E94D90B64EA71E084E00E94D90B6CE9CD
:102FA00071E085E00E94D90BE6E1F1E030E020E03D
:102FB000808191810097C1F04FEF5FEF21153105BE
:102FC00021F0DF0112974D915C91BA016F5F7F4F45
:102FD00071836083880F991F840F951F9383828369
:102FE0002E5F3F4F3496E4CF21E030E03093C704AA
:102FF0002093C60430932B0420932A041092F604E5
:103000001092F5041092F8041092F7041092FA044A
:103010001092F90483E090E09093D2048093D1045D
:1030200086E00E949102892B31F441E050E05093F8
:103030007201409371010E94B8080E94910740916B
:10304000870560917601809178010E94F0098AE5F8
:1030500095E00E94DD0880915A0590915B050E94E1
:1030600034080E94630790E080E00E94EE358130D2
:1030700009F045C085E490E00E94EE35813051F4BE
:1030800021E030E03093F6042093F5048093F404BB
:103090008093F3048FEF9FEF9093E2048093E10419
:1030A0009093E4048093E3049093E6048093E50412
:1030B0009093E8048093E7049093EA048093E904F2
:1030C0009093EC048093EB049093EE048093ED04D2
:1030D000EBE0F5E055E0E135F50709F433C2918303
:1030E0008083938382839583848397838683918768
:1030F000808793878287958784873E96EBCF85E488
:1031000090E00E94EE35882309F4B4CF0E940A10A3
:1031100061E085E490E00E947311E091EF04F0918A
:10312000F004EE0FFF1FEF51FB4F8081918101965C
:1031300019F481E08093F20483E0482E512C662438
:103140006394712C2FB7F8948091DE039091DF0384
:10315000A091E003B091E1032FBF809366059093A7
:103160006705A0936805B09369058AE595E00E941C
:10317000DD088091580590915905181619061CF420
:1031800080E00E9495128FE00E94B20980FDE7C1A5
:103190008091710190917201892B09F4E9C18091AC
:1031A00057058111E5C180918505909186050197AC
:1031B00009F0AEC08091640190916501909359052A
:1031C0008093580580910205909103050196909394
:1031D0000305809302050B9734F4809100059091CC
:1031E0000105019721F410920305109202058091C8
:1031F0006005811111C080915F0590E020917B05F1
:1032000030917C058217930739F020917601309137
:1032100077018217930739F4809104059091050591
:10322000181619066CF560E082E00E94BA028091DF
:10323000000590910105892B31F488E290E090938C
:103240000105809300052AEF30E03093630120935D
:1032500062016AEF70E080E090E00E94730461E038
:1032600082E00E94BA0280910405909105050196C2
:103270008430910509F4E1C290930505809304051B
:1032800086E00E949102892B61F0809183059091E4
:103290008405889731F080917F059091800544974F
:1032A000D9F481E00E943B0A48EC50E060E070E015
:1032B0008BE492E00E94240380916001909161016F
:1032C000892B21F41092740110927301109203055E
:1032D000109202050E9463078091810590918205FA
:1032E000019709F0B5C22091690130916A0180917E
:1032F0006D0190916E018217930708F4A9C2809125
:1033000083059091840501969093840580938305AD
:1033100086E00E949102892B09F04DC020915E0148
:1033200030915F01121613060CF03FC08091FF042C
:1033300081113BC081E08093FF046091FD04709196
:10334000FE0440915C0150915D01649FC001659F46
:10335000900D749F900D11246CE271E00E94123860
:10336000CB01B9010E9412382091640130916501AE
:10337000260F371FC90164E170E00E941238A901CD
:10338000481B590BCA0150936501409364010E9488
:10339000A40C809164019091650164E170E00E9449
:1033A00012388BE090E00E9473110E94B8081092CE
:1033B0000705109206058091FC0490915E0591111D
:1033C00051C290915F0591114DC2811128C08AE5CB
:1033D00095E00E94DD0880915A0590915B050E945E
:1033E00034080E94630781E08093FC04209160010F
:1033F000309161012230310511F48093FB048091FA
:103400005A0190915B01892B09F027C27092F80450
:103410006092F70481E08093F4048093F3040091B8
:103420008505109186051F830E83012B09F020C3AB
:103430008091FB048823A9F11092FB048091F2048F
:10344000811135C28091F104882309F411C21092D0
:10345000F10480916F0190917001181619060CF01B
:1034600016C270927401609273010197880F991FC0
:10347000FC01EE0FFF1FE65BFE4F20813181309390
:10348000790120937801880F991FFC01E45BFE4FBE
:1034900080819181909377018093760180E00E94F2
:1034A0003B0A10910A05112309F4E2C210920A05A1
:1034B0008091530590915405019666E070E00E945A
:1034C0001238E0915105F0915205F12CE12C36E0D3
:1034D000C32ED12C07E09F01220F331FA9014F51AA
:1034E0005B4F4A0156E0A52EB12C51E0C51AD10818
:1034F00009F41CC2089FD001099FB00D1124AE0F22
:10350000BF1FAA0FBB1FA55FBA4F4D915C914F3FE4
:10351000540799F0DA01AA0FBB1FAD52BB4F2D9192
:103520003C9111972F5F3F4F2D933C932E153F05F4
:1035300024F0D4014D935C9379010196B5010E946A
:103540001238D3CF85E090E09093DE048093DD04C1
:1035500087E090E09093DC048093DB04D9CD0E9457
:10356000D9098091730190917401019709F010CEEF
:10357000109257058091550590915605019749F590
:10358000E0915305F09154058091510590915205B9
:1035900060916F012091700137E03E9FA0013F9F35
:1035A000500D1124840F951FFC01EE0FFF1FE55FE6
:1035B000FA4F6083218321E020930A056F5F819693
:1035C0000E94731160916F016F5F8DE190E00E9426
:1035D00073110E94B8080E9491070E94180B8091F5
:1035E000710190917201892B09F07AC061E080E04D
:1035F0000E94C10B6DEC72E088EB96E00E94CA0C51
:10360000E6E8F1E0F0930905E093080583E00E9405
:103610009102892B41F480910805909109051816B3
:1036200019060CF460C080917F0590918005019689
:103630009093800580937F05019709F0F4C08091F5
:10364000760190917701059690937C0580937B0598
:10365000809178019091790190937E0580937D050A
:1036600080917B0590917C058C3391057CF02091B5
:103670007D0530917E05CC9790937C0580937B05EA
:103680002F5F3F4F30937E0520937D0580E00E94A1
:10369000E1090E94D90940E060917B0580917D0598
:1036A0000E94F0090E94180B109205051092040563
:1036B0008AE595E00E94DD0881E00E94951264E6AB
:1036C00070E080E090E00E94730486E00E94910226
:1036D000892B71F383E00E949102019749F363CD36
:1036E0000E94DC0E8DCF8AE595E00E94DD080E94E5
:1036F000080F40E550E060E070E080E193E00E9458
:1037000024032091080530910905C90163E070E0A8
:103710000E941238892B21F5233131400CF10AEF38
:1037200010E01093E3030093E20380E00E94040D95
:103730000091E2031091E30317FD19C083E00E949A
:103740009102892BA1F461E070E080E090E00E949A
:103750007304015011091093E3030093E203E8CFCF
:1037600022E830E03093E3032093E203DECF809140
:1037700008059091090563E070E00E941238892BDA
:10378000D1F480916D0190916E0120916B01309187
:103790006C01820F931F2091690130916A01821799
:1037A0009307F0F4809167019091680101969093DE
:1037B00007058093060581E0809366017092860577
:1037C0006092850570927201609271018091080586
:1037D000909109050197909309058093080516CFEC
:1037E00081E00E94040D882331F320910605309179
:1037F0000705809167019091680182179307DCF2B9
:103800007092820560928105109209051092080558
:103810000E949B0844E150E060E070E08AEB92E097
:103820000E942403C8CF80917B0590917C0505966A
:1038300090937C0580937B0513CF10920505109221
:10384000040584E690E0909363018093620118CDB3
:1038500010928405109283055BCD10925B0110924B
:103860005A01DDCD882309F4DACD1092FC04D7CDBE
:10387000E0915105F0915205EE0FFF1FEF51FB4F04
:10388000808191819093700180936F01E2CD892BAB
:1038900051F4109274011092730180E00E94E109CA
:1038A0000E94D909FECD81E08093F204FACDE09127
:1038B000EF04F091F004EE0FFF1FEF51FB4F8081FA
:1038C0009181019611F01092F20480917301909110
:1038D0007401892B09F0E5CD80915505909156052D
:1038E000019709F0DECD4091530550915405809128
:1038F00051059091520567E0649F9001659F300DDE
:103900001124820F931FFC01EE0FFF1FE55FFA4F9A
:1039100020916F01309170013183208321E0209349
:103920000A0561E081960E947311BBCD9093DE047D
:103930008093DD0485E090E09093DC048093DB04C9
:10394000F092E004E092DF04DF01AA0FBB1FAF5149
:10395000BB4F6C916F5FCF0144960E947311109220
:10396000D4041092D3041092D6041092D50410926D
:10397000D8041092D7041092DA041092D90464E0AB
:1039800070E07093D2046093D104809160019091B3
:103990006101029709F46CC0E0915305F091540560
:1039A0002EE02E9F60012F9FD00C1124CF01039693
:1039B0000E941238289F7001299FF00C112430E0DA
:1039C00020E087E08E9F50018F9FB00C11248E81E4
:1039D0009F81880F991FF601E80FF91FE55FFA4FE5
:1039E0000190F081E02D4E815F814F5F5F4F5F83DB
:1039F0004E838E0D9F1DDC01A55FBA4F8D919C916A
:103A0000E817F907C1F42F5F3F4FCA0167E070E084
:103A10000E941238D501A80FB91FAA0FBB1FA55FBE
:103A2000BA4F8D919C91E817F90729F0319619F05A
:103A3000019609F010E0EE81FF81E730F10539F6DB
:103A4000F093DE04E093DD043093DC042093DB0488
:103A50001093D004243031055CF0111109C070922C
:103A6000FA046092F90481E08093F4048093F304F3
:103A700085E00E949102892B11F00C94362E7092F1
:103A8000720160927101109207051092060581E0A3
:103A9000809366010E94B8080E94180B82E090E0B3
:103AA00090934901809348017092470160924601CA
:103AB0001092CF041092CE041092CD041092CC0438
:103AC00061E470E080E090E00E9473048091CE0495
:103AD0009091CF0401969093CF048093CE040697E3
:103AE00041F58091F404882309F400C40E94540F26
:103AF0008091D1049091D204880F991FFC01EB5062
:103B0000FB4F118210821092F40488599D4FDC0102
:103B10008D919C91909349018093480185E00E948A
:103B20009102019731F468EE73E080E090E00E942A
:103B3000730485E00E949102892B11F282E390E0E8
:103B40009093CB048093CA04AA24AA94BA2C02E0CE
:103B500010E084E0882E912C96E0292E312C809163
:103B6000CA049091CB0497FF02C00C94172E8FE0EB
:103B70000E943C046CE97FEF0E9412387B016B01CC
:103B8000BAE0CB0ED11CD0924501C09244018EE028
:103B90000E943C0464E670E00E9412387093430176
:103BA000609342018091DD049091DE04892B09F03D
:103BB00064C4673071050CF4A2C38091C80490916D
:103BC000C90401969093C9048093C804B092DE049E
:103BD000A092DD04E2E3F0E0F093CB04E093CA04AA
:103BE0002091C6043091C7042E5F3F4F3093C70425
:103BF0002093C6042091C4043091C50428173907C6
:103C0000C4F48091C2049091C3049093C90480933A
:103C1000C804E0914801F0914901EE0FFF1FEE0F3B
:103C2000FF1FEE5EFE4F808191819093C7048093C9
:103C3000C604109215018091DD049091DE048F3F3F
:103C4000980709F056C47092DE046092DD04709209
:103C500014016092130146E450E0509363014093D5
:103C600062012091460130914701121613060CF0B3
:103C700077C08091C6049091C70402969093C704C0
:103C80008093C6048091C8049091C90401969093D2
:103C9000C9048093C8042130310509F047C08DED77
:103CA00092E00E94B70C0E94180B809148019091FD
:103CB00049010197880F991FFC01EE0FFF1FEA5E73
:103CC000FE4F408151815093C7044093C604880F32
:103CD000991FFC01E85EFE4F2081318130932B0457
:103CE00020932A04241B350BC901019797FDC901B4
:103CF000959587959093C5048093C4041092C3044E
:103D00001092C20410923104109230041092C9042F
:103D10001092C80410934701009346017092DE048C
:103D20006092DD0410926301109262018091C604DA
:103D30009091C70420912A0430912B048217930795
:103D40000CF0DFC3DC01AA0FBB1FAA53BE4F880FC4
:103D5000991FFC01EC53FE4F6C9180810E94C10BB6
:103D600083E090E00E94AB0D8091C6049091C7045F
:103D7000DC01AA0FBB1FAA53BE4F880F991FFC017D
:103D8000EC53FE4F6C9180810E94C10B80914801E1
:103D900090914901019709F055C080914601909199
:103DA0004701029741F410922F0410922E041092B2
:103DB0002D0410922C048091C8049091C904209184
:103DC000CC043091CD04232B09F0FDC3009709F0FA
:103DD000B7C38BE092E00E94F50BA7E0B0E0B09390
:103DE0000505A093040585E00E949102892B51F5F9
:103DF0008091C8049091C90402962091CC0430911E
:103E0000CD04220F331F220F331F820F931F909375
:103E10004901809348017092DE046092DD04709243
:103E2000470160924601A2E3B0E0B093CB04A093B7
:103E3000CA041092CD041092CC0485E00E94910235
:103E4000892BD9F38091480190914901029709F09B
:103E500069C180916F01909170011816190624F0C4
:103E60007092700160926F018091C8049091C904B2
:103E7000892B09F046C08091DD049091DE04019702
:103E800091F480917801909179019093310480931D
:103E9000300487E190E090932F0480932E041092D9
:103EA0002D0410922C048091300490913104909351
:103EB000790180937801E0916F01F0917001EE0F2C
:103EC000FF1FEE0FFF1FEA5BFE4F918380830A976F
:103ED00034F470E060E088EB96E00E946A0C609138
:103EE00078017091790188EB96E00E946A0C61EA92
:103EF00072E088EB96E00E94CA0C109305050093CF
:103F000004058091C8049091C904019709F040C04C
:103F10008091DD049091DE04019791F48091760107
:103F20009091770190933104809330048BE390E07B
:103F300090932F0480932E0410922D0410922C0441
:103F400080913004909131049093770180937601B1
:103F5000E0916F01F0917001EE0FFF1FEE0FFF1F58
:103F6000E85BFE4F918380830A9734F470E060E051
:103F700088EB96E00E946A0C60917601709177015F
:103F800088EB96E00E946A0C1093050500930405E7
:103F90008091C8049091C904029709F08AC0809169
:103FA0006F01909170012091DD043091DE04213089
:103FB000310561F4909331048093300490922F0482
:103FC00080922E0430932D0420932C0490931201A0
:103FD000809311018091300490913104909370018D
:103FE00080936F016FEE72E088EB96E00E94CA0C3E
:103FF00060916F017091700188EB96E00E946A0CED
:1040000089E090E0909305058093040580916F010D
:104010009091700120911101309112018217930744
:1040200009F447C00197880F991FFC01EE0FFF1F8D
:10403000E65BFE4FE080F180F0927901E09278013A
:10404000880F991FFC01E45BFE4F80819181909362
:1040500077018093760160E085E00E94C10BBAE0B1
:10406000EB16F10434F470E060E088EB96E00E9417
:104070006A0C609178017091790188EB96E00E945A
:104080006A0C60E088E00E94C10B809176019091FB
:1040900077010A9734F470E060E088EB96E00E94C4
:1040A0006A0C609176017091770188EB96E00E942E
:1040B0006A0C8091C8049091C904039799F5809186
:1040C000DD049091DE040197C1F48091600190912C
:1040D0006101909331048093300410932F04009376
:1040E0002E0410922D0410922C041092F204E2E39C
:1040F000F0E0F0932904E09328046091300480916B
:104100003104609360018093610170922704609292
:1041100026046E5F88EB96E00E94D30B7092050533
:10412000609204058091480190914901039709F03C
:1041300004C38091C8049091C9042091CC043091AB
:10414000CD04232B11F00C948F2B892B09F041C047
:104150008091DD049091DE04019791F480917A01C1
:1041600090917B0190933104809330042AEF30E0EA
:1041700030932F0420932E0410932D0400932C04CD
:10418000809130049091310490937B0180937A0167
:104190008436910594F468EF72E088EB96E00E9413
:1041A000CA0C80917A0190917B010A9734F468EFF0
:1041B00072E088EB96E00E94CA0C60917A017091DF
:1041C0007B0188EB96E00E946A0C509205054092B4
:1041D00004058091C8049091C9040197A9F58091C4
:1041E000DD049091DE040197A9F480910F01909174
:1041F0001001019709F023C2B0923104A09230045B
:104200004AEF50E050932F0440932E04B0922D04B7
:10421000A0922C04809130049091310490936E010F
:1042200080936D018F3F980709F012C270921001C0
:1042300060920F016AEF72E088EB96E00E94CA0C70
:1042400090920505809204058091C8049091C9045C
:10425000029709F046C210923104109230046FEFB9
:1042600072E088EB96E00E94CA0C3092050520921D
:10427000040585E00E949102892B09F032C20E9458
:10428000180B60E082E00E94C10B8DEC91E00E946F
:10429000F50B61E082E00E94C10B85EC91E00E9489
:1042A000F50B5092D2044092D104E090D104F090EA
:1042B000D2041E141F040CF0EFC161E089E00E94DB
:1042C000C10BB70188EB96E00E946A0C68EE73E0C0
:1042D00080E090E00E9473048091D1049091D20418
:1042E00001979093D2048093D104DFCF83E192E0D1
:1042F0000E94F50B70924901609248011ACC64301B
:104300007105DCF58091C8049091C90401979093E0
:10431000C9048093C804B092DE04A092DD0422E3B5
:1043200030E03093CB042093CA042091C60430912E
:10433000C704225031093093C7042093C60420914A
:10434000C2043091C304821793070CF072CC8091A1
:10435000C4049091C5049093C9048093C804E0916B
:104360004801F0914901EE0FFF1FEE0FFF1FEC5EB9
:10437000FE4F80819181019758CC6530710509F01D
:104380007CC040EA50E0509363014093620156E0E4
:10439000E50EF11C83E0E816F10408F46EC0E0912C
:1043A0004801F091490131974091CC045091CD04DE
:1043B0002091C4043091C504429FC001439F900DD9
:1043C000529F900D112463E0EE0FFF1F6A95E1F7F5
:1043D0002091C8043091C904820F931FE80FF91F80
:1043E000EE0FFF1FEE5CFB4FA1E0B0E0B183A083B6
:1043F000B7E0CB16D10414F18091300490913104D0
:1044000001969093310480933004E2E3F0E0F0935E
:10441000CB04E093CA0420912E0430912F04281776
:10442000390744F480912C0490912D049093310429
:104430008093300481E08093FC04FBCBF4E0CF1642
:10444000D104DCF480913004909131040197909371
:1044500031048093300422E330E03093CB04209386
:10446000CA0420912C0430912D048217930714F76D
:1044700080912E0490912F04D9CF80914601909184
:104480004701892B09F0EDCB8091C6049091C704B8
:10449000DC01AA0FBB1FAA53BE4F880F991FFC0156
:1044A000EC53FE4F6C9180810E94C10B80911301EF
:1044B00090911401029708F0BECB83E090E00E9437
:1044C000AB0D8091040590910505181619060CF0A6
:1044D000B2CB67E073E088EB96E00E94CA0C809153
:1044E00004059091050501979093050580930405B7
:1044F000E8CF019709F0B5CB1092DE041092DD04ED
:10450000B0CB1092470110924601E0914801F09122
:104510004901EE0FFF1FEE0FFF1FEE5EFE4F808181
:1045200091819093C7048093C6041092C90410929D
:10453000C80484E690E0909363018093620110CCFC
:104540008130910549F486E092E00E94F50B90924B
:1045500005058092040547CC8230910549F48FEF20
:1045600091E00E94F50B30920505209204053BCCAA
:104570008330910559F486EF91E00E94F50BE8E055
:10458000F0E0F0930505E09304052DCC049709F0C5
:104590002ACC10926301109262018091DD04909107
:1045A000DE04019709F41FCC7092CD046092CC0414
:1045B000709247016092460122E330E03093CB04D1
:1045C0002093CA0410CC009719F48FEE91E0C9CF64
:1045D0008130910559F486EE91E00E94F50B48E098
:1045E00050E05093050540930405FDCB82309105C2
:1045F00019F48FED91E0B5CF8330910519F48AED70
:1046000091E0A3CF049709F0EECB109263011092D2
:1046100062018091DD049091DE04019709F4E3CBFF
:104620001092CD041092CC04709247016092460122
:1046300082E390E09093CB048093CA04D4CB809122
:104640006D0190916E019093310480933004D8CD28
:104650001092100110920F018436910594F468EFC6
:1046600072E088EB96E00E94CA0C80916D019091F7
:104670006E010A9734F468EF72E088EB96E00E94CE
:10468000CA0C60916D0170916E0188EB96E00E94FA
:104690006A0C67E073E0D0CD0E94180B60E082E006
:1046A0000E94BA0288E090E09093CB048093CA0401
:1046B0000E9491078FE090E090930E0180930D018E
:1046C0008091CA049091CB0408970CF08CC710928B
:1046D0002504109224040E949B0861E082E00E945D
:1046E000BA028091C8049091C9040397C1F4109252
:1046F0006301109262018091DD049091DE040197C4
:1047000071F07092CD046092CC04A2E3B0E0B0935B
:10471000CB04A093CA047092470160924601809135
:10472000460190914701029741F460E080E00E94C9
:10473000C10B85EB91E00E94F50B809148019091AF
:104740004901049709F005C18091C8049091C904FA
:10475000892B09F040C08091DD049091DE0401971F
:1047600091F48BE090E090932F0480932E041093AB
:104770002D0400932C04809167019091680190931F
:1047800031048093300480913004909131049093EF
:1047900068018093670167E073E088EB96E00E9410
:1047A000CA0C80916701909168010B9734F468EF0F
:1047B00072E088EB96E00E94CA0C609167017091EC
:1047C00068016150710988EB96E00E946A0C509272
:1047D0000505409204058091C8049091C904019791
:1047E00009F059C08091DD049091DE04019791F4A5
:1047F00022E330E030932F0420932E0410922D04F6
:1048000010922C0480910B0190910C019093310433
:104810008093300467E073E088EB96E00E94CA0C56
:1048200080913004909131040A9734F468EF72E07B
:1048300088EB96E00E94CA0C6091300470913104BC
:1048400088EB96E00E946A0CE0903004F09031040E
:1048500080910B0190910C01E816F906C1F0F092DD
:104860000C01E0920B018091090190910A010197DE
:1048700071F461E08CE00E94C10B69E073E0EF2805
:1048800011F06DE073E088EB96E00E94CA0C509244
:104890000505409204058091C8049091C9040297CF
:1048A000D9F58091DD049091DE0481309105D1F439
:1048B00090932F0480932E0410922D0410922C04B8
:1048C00080910B0190910C01892B21F410920A0127
:1048D000109209018091090190910A01909331048D
:1048E00080933004809130049091310490930A01B8
:1048F000809309016DE073E0019711F069E073E0C6
:1049000088EB96E00E94CA0C50920505409204057F
:10491000709227046092260485E00E949102892B00
:1049200051F480910B0190910C01892B21F410928C
:104930000A01109209018091460190914701029766
:1049400041F460E080E00E94C10B88E991E00E94A0
:10495000F50B60914801709149016530710509F0CE
:104960000DC18091C8049091C9042091CC0430916C
:10497000CD04232B09F086C7892B09F043C0809111
:10498000DD049091DE0481309105B1F446E450E0FD
:1049900050932F0440932E0490932D0480932C0465
:1049A000809107019091080164E170E00E94123843
:1049B00070933104609330048091300490913104FD
:1049C00044E1489F9001499F300D11243093080124
:1049D0002093070130930105209300050A9734F4D2
:1049E00068EF72E088EB96E00E94CA0C6091300498
:1049F0007091310488EB96E00E946A0C10930505D3
:104A0000009304058091C8049091C904019709F0AE
:104A100043C08091DD049091DE0481309105B1F4B2
:104A200027E330E030932F0420932E0490932D043D
:104A300080932C04809164019091650164E170E0A1
:104A40000E941238709331046093300480913004D6
:104A50009091310444E1489F9001499F300D112409
:104A600030936501209364013093590520935805D4
:104A70000A9734F468EF72E088EB96E00E94CA0C63
:104A8000609130047091310488EB96E00E946A0CCA
:104A900010930505009304058091C8049091C90402
:104AA000029709F03FC08091DD049091DE048130CF
:104AB0009105B1F429E130E030932F0420932E04C6
:104AC00090932D0480932C0480915C0190915D0162
:104AD00068EC70E00E9412387093310460933004E7
:104AE000809130049091310448EC489F9001499F97
:104AF000300D112430935D0120935C010A9734F44A
:104B000068EF72E088EB96E00E94CA0C6091300476
:104B10007091310488EB96E00E946A0C10930505B1
:104B2000009304058091C8049091C9040397C1F4CF
:104B300010926301109262018091DD049091DE0475
:104B4000019771F07092CD046092CC0482E390E002
:104B50009093CB048093CA047092470160924601FF
:104B60008091460190914701029741F460E080E016
:104B70000E94C10B88E891E00E94F50B80914801EA
:104B800090914901069709F045C08091C804909121
:104B9000C9042091DD043091DE04880F991F213073
:104BA000310589F490922F0480922E04B0922D0446
:104BB000A0922C04FC01EF51FB4F208131813093F6
:104BC00031042093300460913004709131048F518E
:104BD0009B4FFC0171836083161617060CF0D9C633
:104BE00088EB96E00E946A0C7092050560920405BD
:104BF00070922704609226048091460190914701AB
:104C0000029741F461E081E00E94C10B83E791E0EB
:104C10000E94F50B8091480190914901079709F096
:104C20009FC28AE595E00E94DD088091460190913F
:104C300047010297B1F580915E0590E090930304DF
:104C40008093020480915F0590E09093010480932B
:104C500000048091600590E09093FF038093FE0331
:104C600080915D0590E09093FD038093FC0380911B
:104C70005C0590E09093FB038093FA0380915A05C2
:104C800090915B059093F9038093F8031092F403DD
:104C90001092F5031092F6031092F70381E08093CF
:104CA000F3038091C8049091C904892B81F5809108
:104CB000DD049091DE04019791F487E190E09093F8
:104CC0002F0480932E0410922D0410922C048091B6
:104CD00002049091030490933104809330048091F6
:104CE00030049091310490930304809302040A9756
:104CF00034F470E060E088EB96E00E946A0C60910A
:104D000030047091310488EB96E00E946A0C809127
:104D1000C8049091C904019781F58091DD049091B8
:104D2000DE04019791F48BE390E090932F0480933D
:104D30002E0410922D0410922C0480910004909166
:104D40000104909331048093300480913004909159
:104D5000310490930104809300040A9734F470E0C6
:104D600060E088EB96E00E946A0C609130047091DC
:104D7000310488EB96E00E946A0C8091C8049091FF
:104D8000C904029709F049C08091DD049091DE04C6
:104D9000019791F48BE390E090932F0480932E047D
:104DA00010922D0410922C048091F4039091F5033D
:104DB00090933104809330046091300470913104F9
:104DC000072E000C880B990B6093F4037093F50386
:104DD0008093F6039093F70320916005620F711D95
:104DE000811D911D2CE330E040E050E00E944838E6
:104DF0007093FF036093FE036A30710534F470E032
:104E000060E088EB96E00E946A0C6091FE0370916E
:104E1000FF0388EB96E00E946A0C8091C804909191
:104E2000C904039709F041C0E090DD04F090DE046E
:104E300021E0E216F10409F58091FA039091FB0359
:104E40000E94010890932F0480932E04F0922D0469
:104E5000E0922C042091FC033091FD03821793070C
:104E600024F49093FD038093FC038091FC039091C4
:104E7000FD0390933104809330048091300490912D
:104E800031049093FD038093FC030A9734F470E09F
:104E900060E088EB96E00E946A0C609130047091AB
:104EA000310488EB96E00E946A0C8091C8049091CE
:104EB000C904049789F58091DD049091DE04813066
:104EC000910591F42CE030E030932F0420932E04D0
:104ED00090932D0480932C048091FA039091FB030E
:104EE0009093310480933004809130049091310488
:104EF0009093FB038093FA030A9734F470E060E028
:104F000088EB96E00E946A0C609130047091310445
:104F100088EB96E00E946A0C109305050093040547
:104F20008091C8049091C904059771F58091DD04C2
:104F30009091DE040197A1F488EB9BE090932F04FD
:104F400080932E0482EE97E090932D0480932C049E
:104F50008091F8039091F903909331048093300489
:104F600060913004709131047093F9036093F803F9
:104F700088EB96E00E946A0C9092050580920405E9
:104F8000709227046092260485E00E949102892B8A
:104F900009F0C1C0F090FA039091FB038F2D0E949D
:104FA00001082091FC033091FD038217930724F43C
:104FB0009093FD038093FC033091FE033A8340916C
:104FC00000044B83509102045C83E090FC03ED826B
:104FD000F982C090F803D090F90381E08093E30553
:104FE00088E6809305061092E4051092060690E08C
:104FF00080E00E945A078A816AE00E94F237829517
:10500000807F682F690F86EA96E00E9412078B81E5
:105010006AE00E94F2378295807F682F690F86EAE6
:1050200096E00E9412078C816AE00E94F237829516
:10503000807F682F690F86EA96E00E94120781E060
:1050400090E0A981A33010F090E080E09601281B49
:10505000390B4F2D4150550BFA01E651FF4FE491AA
:10506000E20EF32EF11CB90176956795769567955A
:10507000E60EF71EC90160E971E00E94FE37E60EF8
:10508000F71EC90164E670E00E94FE37E61AF70ACF
:10509000C7018E0F911D67E070E00E94FE37682FF8
:1050A000811101C067E086EA96E00E9412079AE04B
:1050B000F92E8D816F2D0E94F2378295807F682FA7
:1050C000690F86EA96E00E94120789816F2D0E947F
:1050D000F2378295807F682F690F86EA96E00E94FA
:1050E000120780E38C0D6F2D0E94F2378295807F2E
:1050F000682F690F86EA96E00E94120790E080E030
:105100000E945A070E940C058AE595E00E94DD087E
:10511000C6010E9434088091460190914701029790
:1051200009F048C460E086E00E94C10B61EA72E0C9
:1051300088EB96E00E94CA0C60E089E00E94C10BF7
:1051400061EA72E088EB96E00E94CA0C61E087E0B9
:105150000E94C10B63E173E088EB96E00E94CA0CE9
:105160008091480190914901089709F0B2C080915F
:10517000C8049091C9042091CC043091CD04232B14
:1051800009F0A1C4892B19F58091DD049091DE040A
:10519000019761F410922D0410922C0410922F04A8
:1051A00010922E0410923104109230046FEF72E0CE
:1051B00088EB96E00E94CA0C309205052092040507
:1051C00085E00E949102892B11F40E940A108091BF
:1051D000C8049091C904019719F58091DD0490915C
:1051E000DE04019761F410922D0410922C041092A9
:1051F0002F0410922E0410923104109230046FEF9D
:1052000072E088EB96E00E94CA0C3092050520926D
:10521000040585E00E949102892B11F40E948711F8
:105220008091C8049091C9040297E1F48091DD0453
:105230009091DE04019761F410922D0410922C04D9
:1052400010922F0410922E04109231041092300408
:1052500061E173E088EB96E00E94CA0C709205054C
:10526000609204058091C8049091C9040397C1F429
:1052700010926301109262018091DD049091DE042E
:10528000019771F07092CD046092CC04A2E3B0E07B
:10529000B093CB04A093CA04709247016092460178
:1052A0008091460190914701029799F460E080E077
:1052B0000E94C10B8BE691E00E94F50B8091F103F7
:1052C0009091F203892B09F0FBC383E691E00E94E1
:1052D000F50B8091480190914901099709F08DC023
:1052E0008091C8049091C904892B69F58091DD04EF
:1052F0009091DE048130910581F410922D0410927A
:105300002C0490932F0480932E0480915505909146
:10531000560590933104809330048091300490912D
:105320003104909356058093550569E173E0019728
:1053300011F065E173E088EB96E00E94CA0C509290
:105340000505409204058091C8049091C904019715
:1053500009F045C08091DD049091DE040197A1F42D
:1053600010922D0410922C0450922F0440922E047F
:1053700080915E0190915F0123E030E0281B390BA2
:1053800030933104209330048091300490913104A3
:1053900043E050E0481B590BCA0150935F01409312
:1053A0005E0165E173E0892B91F067E073E088EBC3
:1053B00096E00E94CA0C60913004709131046F5FD6
:1053C0007F4F88EB96E00E946A0C67E073E088EB01
:1053D00096E00E94CA0C5092050540920405809107
:1053E000460190914701029741F460E080E00E94FD
:1053F000C10B83E491E00E94F50B809148019091EC
:1054000049010A9709F072C08091C8049091C904BB
:10541000892BF1F48091DD049091DE04019761F411
:1054200010922D0410922C0410922F0410922E042E
:1054300010923104109230046DE173E088EB96E035
:105440000E94CA0C87E090E09093050580930405C4
:105450008091C8049091C9040197E1F48091DD0422
:105460009091DE04019761F410922D0410922C04A7
:1054700010922F0410922E041092310410923004D6
:1054800065E273E088EB96E00E94CA0C3092050555
:105490002092040585E00E949102892BC9F4809135
:1054A000C8049091C904892B99F40E94180B70923A
:1054B00047016092460130924901209248011092C2
:1054C000F204109361010093600181E08093FB047A
:1054D0008091460190914701029741F460E081E09C
:1054E0000E94C10B83E391E00E94F50B8091DD04E3
:1054F0009091DE04019769F48091460190914701F3
:105500001816190634F480913004909131040E94E9
:10551000A40C8091FC04882391F080912604909142
:105520002704019751F464E670E080E090E00E9467
:10553000730410922704109226041092FC0485E054
:105540000E949102892B09F043C0809146019091FD
:105550004701892BE9F51092CB041092CA041092EE
:105560006301109262018091F1039091F203892B03
:1055700049F40E94AC071816190624F47092F2033D
:105580006092F1030E94AC07209101013091020169
:1055900082179307ECF012161306D4F40E94180B2E
:1055A00060E085E00E94C10B8CE291E00E94F50B67
:1055B00061E084E00E94C10B83E291E00E94F50B60
:1055C0000E94871164EF71E080E090E00E94730414
:1055D0008091CA049091CB0401979093CB0480935F
:1055E000CA040C94AF1D83E00E949102892B09F03C
:1055F0006EC881E00E94040D1092D2041092D10472
:105600008091D1049091D204843691059CF480E07D
:105610000E94040D61E070E080E090E00E9473045D
:105620008091D1049091D20401969093D2048093FA
:10563000D104E6CF809104049091050420912404C4
:10564000309125042817390724F49093250480937A
:1056500024046091690170916A01861B970B209167
:1056600024043091250437FF02C02F5F3F4F35954A
:1056700027952E5F3F4F8217930708F421C820918A
:10568000CA043091CB042830310509F019C89B01B8
:105690002F5F3F4F30936E0120936D011092CB042A
:1056A0001092CA0420910D0130910E01E4E0F4E063
:1056B00050E040E04D30510519F02A30310521F11C
:1056C00030930E0120930D0190937B0180937A011A
:1056D0009C0197FF02C02F5F3F4F35952795820FA2
:1056E000931F019690936C0180936B0144E650E008
:1056F00060E070E083E992E00E9424031092CB0402
:105700001092CA040C946023A191B1916A177B078F
:1057100019F49A012E5F3F4F4F5F5F4FCBCF892B1C
:10572000F1F58091DD049091DE04019791F41092DF
:105730002D0410922C048FE090E090932F0480931E
:105740002E0480910D0190910E019093310480936D
:105750003004809130049091310490930E01809335
:105760000D0167E073E088EB96E00E94CA0C80911F
:105770003004909131040A9734F468EF72E088EBBA
:1057800096E00E94CA0C60910D0170910E0188EBA9
:1057900096E00E946A0C50920505409204058091A3
:1057A000C8049091C9040197F1F58091DD049091AE
:1057B000DE04019791F410922D0410922C0484E1E0
:1057C00090E090932F0480932E0480916B01909130
:1057D0006C01909331048093300480913004909157
:1057E000310490936C0180936B0166E073E088EB69
:1057F00096E00E94CA0C80913004909131040A977F
:1058000034F468EF72E088EB96E00E94CA0C609175
:105810006B0170916C0188EB96E00E946A0C90928B
:105820000505809204058091C8049091C9040297EF
:105830000297C0F410926301109262018091DD041E
:105840009091DE04019771F01092CD041092CC0477
:10585000E2E3F0E0F093CB04E093CA0470924701D6
:10586000609246018091460190914701029711F0A4
:105870000C949D2360E080E00E94C10B89EA91E0D6
:105880000C949B23892B09F050C08091DD049091EA
:10589000DE040197A1F484E190E090932F048093BB
:1058A0002E0410922D0410922C04809105019091E9
:1058B00006010E9412387093310460933004809185
:1058C000300490913104009709F45EC045E0489F90
:1058D0009001499F300D112430930601209305015A
:1058E00080910501909106018436910594F468EF4A
:1058F00072E088EB96E00E94CA0C809105019091BD
:1059000006010A9734F468EF72E088EB96E00E9493
:10591000CA0C609105017091060188EB96E00E9427
:105920006A0C50920505409204058091C80490913C
:10593000C9048D7F81309105C9F4109263011092E2
:1059400062012091DD043091DE042130310571F0D7
:105950001092CD041092CC04A2E3B0E0B093CB043B
:10596000A093CA0490934701809346018091460119
:1059700090914701029709F001C960E080E00E9420
:10598000C10B81E891E0F8C87092060160920501B0
:10599000A7CF6115710539F461E173E088EB96E0FA
:1059A0000E94CA0C21C96F3F7F4F09F01DC96AE3ED
:1059B00073E0F4CFE090C804F090C90452E0E5161B
:1059C000F104C1F0209160056091F4037091F5033A
:1059D0008091F6039091F703620F711D811D911D57
:1059E0002CE330E040E050E00E9448387093FF0321
:1059F0006093FE038091FE039091FF03892B09F4CD
:105A00008AC781E08093F3038091C8049091C90410
:105A1000029709F4A5CB60E08AE00E94C10B809157
:105A2000FE039091FF030A9734F470E060E088EB86
:105A300096E00E946A0C6091FE037091FF0388EB70
:105A400096E00E946A0C8CCB109201041092000424
:105A5000809102049091030401968831910509F127
:105A60009093030480930204C0900204D090030436
:105A7000EF28E1F060E084E00E94C10B8AE0C816E4
:105A8000D10434F470E060E088EB96E00E946A0C88
:105A9000609102047091030488EB96E00E946A0C06
:105AA0004EC71092030410920204DECFD09231044C
:105AB000C092300444C7F0923104E0923004A4CF85
:105AC0008CE591E004CC892B61F58091DD04909107
:105AD000DE048130910581F410922D0410922C0483
